{
  "_format": "hh-sol-artifact-1",
  "contractName": "FixedPrice",
  "sourceName": "contracts/FixedPrice.sol",
  "abi": [
    {
      "inputs": [
        {
          "internalType": "string",
          "name": "_name",
          "type": "string"
        },
        {
          "internalType": "string",
          "name": "_symbol",
          "type": "string"
        },
        {
          "internalType": "string",
          "name": "_bURI",
          "type": "string"
        },
        {
          "internalType": "address",
          "name": "_erc20",
          "type": "address"
        },
        {
          "internalType": "uint256",
          "name": "_rate",
          "type": "uint256"
        },
        {
          "internalType": "uint256",
          "name": "_maxSupply",
          "type": "uint256"
        }
      ],
      "stateMutability": "nonpayable",
      "type": "constructor"
    },
    {
      "anonymous": false,
      "inputs": [
        {
          "indexed": true,
          "internalType": "address",
          "name": "owner",
          "type": "address"
        },
        {
          "indexed": true,
          "internalType": "address",
          "name": "approved",
          "type": "address"
        },
        {
          "indexed": true,
          "internalType": "uint256",
          "name": "tokenId",
          "type": "uint256"
        }
      ],
      "name": "Approval",
      "type": "event"
    },
    {
      "anonymous": false,
      "inputs": [
        {
          "indexed": true,
          "internalType": "address",
          "name": "owner",
          "type": "address"
        },
        {
          "indexed": true,
          "internalType": "address",
          "name": "operator",
          "type": "address"
        },
        {
          "indexed": false,
          "internalType": "bool",
          "name": "approved",
          "type": "bool"
        }
      ],
      "name": "ApprovalForAll",
      "type": "event"
    },
    {
      "anonymous": false,
      "inputs": [
        {
          "indexed": true,
          "internalType": "address",
          "name": "from",
          "type": "address"
        },
        {
          "indexed": true,
          "internalType": "uint256",
          "name": "tokenId",
          "type": "uint256"
        }
      ],
      "name": "Mint",
      "type": "event"
    },
    {
      "anonymous": false,
      "inputs": [
        {
          "indexed": true,
          "internalType": "address",
          "name": "from",
          "type": "address"
        },
        {
          "indexed": true,
          "internalType": "address",
          "name": "to",
          "type": "address"
        },
        {
          "indexed": true,
          "internalType": "uint256",
          "name": "tokenId",
          "type": "uint256"
        }
      ],
      "name": "Transfer",
      "type": "event"
    },
    {
      "anonymous": false,
      "inputs": [
        {
          "indexed": true,
          "internalType": "address",
          "name": "to",
          "type": "address"
        },
        {
          "indexed": false,
          "internalType": "uint256",
          "name": "amount",
          "type": "uint256"
        }
      ],
      "name": "Withdraw",
      "type": "event"
    },
    {
      "inputs": [
        {
          "internalType": "address",
          "name": "to",
          "type": "address"
        },
        {
          "internalType": "uint256",
          "name": "tokenId",
          "type": "uint256"
        }
      ],
      "name": "approve",
      "outputs": [],
      "stateMutability": "nonpayable",
      "type": "function"
    },
    {
      "inputs": [
        {
          "internalType": "address",
          "name": "owner",
          "type": "address"
        }
      ],
      "name": "balanceOf",
      "outputs": [
        {
          "internalType": "uint256",
          "name": "",
          "type": "uint256"
        }
      ],
      "stateMutability": "view",
      "type": "function"
    },
    {
      "inputs": [],
      "name": "erc20",
      "outputs": [
        {
          "internalType": "address",
          "name": "",
          "type": "address"
        }
      ],
      "stateMutability": "view",
      "type": "function"
    },
    {
      "inputs": [
        {
          "internalType": "uint256",
          "name": "tokenId",
          "type": "uint256"
        }
      ],
      "name": "getApproved",
      "outputs": [
        {
          "internalType": "address",
          "name": "",
          "type": "address"
        }
      ],
      "stateMutability": "view",
      "type": "function"
    },
    {
      "inputs": [
        {
          "internalType": "address",
          "name": "owner",
          "type": "address"
        },
        {
          "internalType": "address",
          "name": "operator",
          "type": "address"
        }
      ],
      "name": "isApprovedForAll",
      "outputs": [
        {
          "internalType": "bool",
          "name": "",
          "type": "bool"
        }
      ],
      "stateMutability": "view",
      "type": "function"
    },
    {
      "inputs": [],
      "name": "maxSupply",
      "outputs": [
        {
          "internalType": "uint256",
          "name": "",
          "type": "uint256"
        }
      ],
      "stateMutability": "view",
      "type": "function"
    },
    {
      "inputs": [],
      "name": "mint",
      "outputs": [
        {
          "internalType": "uint256",
          "name": "tokenId",
          "type": "uint256"
        }
      ],
      "stateMutability": "nonpayable",
      "type": "function"
    },
    {
      "inputs": [],
      "name": "name",
      "outputs": [
        {
          "internalType": "string",
          "name": "",
          "type": "string"
        }
      ],
      "stateMutability": "view",
      "type": "function"
    },
    {
      "inputs": [],
      "name": "owner",
      "outputs": [
        {
          "internalType": "address",
          "name": "",
          "type": "address"
        }
      ],
      "stateMutability": "view",
      "type": "function"
    },
    {
      "inputs": [
        {
          "internalType": "uint256",
          "name": "tokenId",
          "type": "uint256"
        }
      ],
      "name": "ownerOf",
      "outputs": [
        {
          "internalType": "address",
          "name": "",
          "type": "address"
        }
      ],
      "stateMutability": "view",
      "type": "function"
    },
    {
      "inputs": [],
      "name": "rate",
      "outputs": [
        {
          "internalType": "uint256",
          "name": "",
          "type": "uint256"
        }
      ],
      "stateMutability": "view",
      "type": "function"
    },
    {
      "inputs": [
        {
          "internalType": "address",
          "name": "from",
          "type": "address"
        },
        {
          "internalType": "address",
          "name": "to",
          "type": "address"
        },
        {
          "internalType": "uint256",
          "name": "tokenId",
          "type": "uint256"
        }
      ],
      "name": "safeTransferFrom",
      "outputs": [],
      "stateMutability": "nonpayable",
      "type": "function"
    },
    {
      "inputs": [
        {
          "internalType": "address",
          "name": "from",
          "type": "address"
        },
        {
          "internalType": "address",
          "name": "to",
          "type": "address"
        },
        {
          "internalType": "uint256",
          "name": "tokenId",
          "type": "uint256"
        },
        {
          "internalType": "bytes",
          "name": "_data",
          "type": "bytes"
        }
      ],
      "name": "safeTransferFrom",
      "outputs": [],
      "stateMutability": "nonpayable",
      "type": "function"
    },
    {
      "inputs": [
        {
          "internalType": "address",
          "name": "operator",
          "type": "address"
        },
        {
          "internalType": "bool",
          "name": "approved",
          "type": "bool"
        }
      ],
      "name": "setApprovalForAll",
      "outputs": [],
      "stateMutability": "nonpayable",
      "type": "function"
    },
    {
      "inputs": [
        {
          "internalType": "string",
          "name": "baseURI_",
          "type": "string"
        }
      ],
      "name": "setBaseURI",
      "outputs": [],
      "stateMutability": "nonpayable",
      "type": "function"
    },
    {
      "inputs": [
        {
          "internalType": "uint256",
          "name": "tokenId",
          "type": "uint256"
        },
        {
          "internalType": "string",
          "name": "_tokenURI",
          "type": "string"
        }
      ],
      "name": "setTokenURI",
      "outputs": [],
      "stateMutability": "nonpayable",
      "type": "function"
    },
    {
      "inputs": [
        {
          "internalType": "bytes4",
          "name": "interfaceId",
          "type": "bytes4"
        }
      ],
      "name": "supportsInterface",
      "outputs": [
        {
          "internalType": "bool",
          "name": "",
          "type": "bool"
        }
      ],
      "stateMutability": "view",
      "type": "function"
    },
    {
      "inputs": [],
      "name": "symbol",
      "outputs": [
        {
          "internalType": "string",
          "name": "",
          "type": "string"
        }
      ],
      "stateMutability": "view",
      "type": "function"
    },
    {
      "inputs": [
        {
          "internalType": "uint256",
          "name": "tokenId",
          "type": "uint256"
        }
      ],
      "name": "tokenURI",
      "outputs": [
        {
          "internalType": "string",
          "name": "",
          "type": "string"
        }
      ],
      "stateMutability": "view",
      "type": "function"
    },
    {
      "inputs": [
        {
          "internalType": "address",
          "name": "from",
          "type": "address"
        },
        {
          "internalType": "address",
          "name": "to",
          "type": "address"
        },
        {
          "internalType": "uint256",
          "name": "tokenId",
          "type": "uint256"
        }
      ],
      "name": "transferFrom",
      "outputs": [],
      "stateMutability": "nonpayable",
      "type": "function"
    },
    {
      "inputs": [],
      "name": "withdraw",
      "outputs": [],
      "stateMutability": "nonpayable",
      "type": "function"
    }
  ],
  "bytecode": "0x608060405260405180602001604052806001815250600c6000820151816000015550503480156200002f57600080fd5b50604051620039ee380380620039ee833981810160405281019062000055919062000290565b858581600090805190602001906200006f92919062000140565b5080600190805190602001906200008892919062000140565b50505032600660006101000a81548173ffffffffffffffffffffffffffffffffffffffff021916908373ffffffffffffffffffffffffffffffffffffffff16021790555083600b9080519060200190620000e492919062000140565b5082600760006101000a81548173ffffffffffffffffffffffffffffffffffffffff021916908373ffffffffffffffffffffffffffffffffffffffff160217905550816008819055508060098190555050505050505062000553565b8280546200014e9062000444565b90600052602060002090601f016020900481019282620001725760008555620001be565b82601f106200018d57805160ff1916838001178555620001be565b82800160010185558215620001be579182015b82811115620001bd578251825591602001919060010190620001a0565b5b509050620001cd9190620001d1565b5090565b5b80821115620001ec576000816000905550600101620001d2565b5090565b60006200020762000201846200039a565b62000371565b9050828152602081018484840111156200022057600080fd5b6200022d8482856200040e565b509392505050565b60008151905062000246816200051f565b92915050565b600082601f8301126200025e57600080fd5b815162000270848260208601620001f0565b91505092915050565b6000815190506200028a8162000539565b92915050565b60008060008060008060c08789031215620002aa57600080fd5b600087015167ffffffffffffffff811115620002c557600080fd5b620002d389828a016200024c565b965050602087015167ffffffffffffffff811115620002f157600080fd5b620002ff89828a016200024c565b955050604087015167ffffffffffffffff8111156200031d57600080fd5b6200032b89828a016200024c565b94505060606200033e89828a0162000235565b93505060806200035189828a0162000279565b92505060a06200036489828a0162000279565b9150509295509295509295565b60006200037d62000390565b90506200038b82826200047a565b919050565b6000604051905090565b600067ffffffffffffffff821115620003b857620003b7620004df565b5b620003c3826200050e565b9050602081019050919050565b6000620003dd82620003e4565b9050919050565b600073ffffffffffffffffffffffffffffffffffffffff82169050919050565b6000819050919050565b60005b838110156200042e57808201518184015260208101905062000411565b838111156200043e576000848401525b50505050565b600060028204905060018216806200045d57607f821691505b60208210811415620004745762000473620004b0565b5b50919050565b62000485826200050e565b810181811067ffffffffffffffff82111715620004a757620004a6620004df565b5b80604052505050565b7f4e487b7100000000000000000000000000000000000000000000000000000000600052602260045260246000fd5b7f4e487b7100000000000000000000000000000000000000000000000000000000600052604160045260246000fd5b6000601f19601f8301169050919050565b6200052a81620003d0565b81146200053657600080fd5b50565b620005448162000404565b81146200055057600080fd5b50565b61348b80620005636000396000f3fe608060405234801561001057600080fd5b50600436106101375760003560e01c806355f804b3116100b857806395d89b411161007c57806395d89b4114610328578063a22cb46514610346578063b88d4fde14610362578063c87b56dd1461037e578063d5abeb01146103ae578063e985e9c5146103cc57610137565b806355f804b3146102705780636352211e1461028c57806370a08231146102bc578063785e9e86146102ec5780638da5cb5b1461030a57610137565b8063162094c4116100ff578063162094c4146101f457806323b872dd146102105780632c4e722e1461022c5780633ccfd60b1461024a57806342842e0e1461025457610137565b806301ffc9a71461013c57806306fdde031461016c578063081812fc1461018a578063095ea7b3146101ba5780631249c58b146101d6575b600080fd5b6101566004803603810190610151919061231c565b6103fc565b6040516101639190612886565b60405180910390f35b61017461040e565b60405161018191906128a1565b60405180910390f35b6101a4600480360381019061019f91906123af565b6104a0565b6040516101b191906127bf565b60405180910390f35b6101d460048036038101906101cf91906122b7565b610525565b005b6101de61063d565b6040516101eb9190612b03565b60405180910390f35b61020e60048036038101906102099190612401565b610801565b005b61022a600480360381019061022591906121b1565b6108a6565b005b610234610906565b6040516102419190612b03565b60405180910390f35b61025261090c565b005b61026e600480360381019061026991906121b1565b610b61565b005b61028a6004803603810190610285919061236e565b610b81565b005b6102a660048036038101906102a191906123af565b610c32565b6040516102b391906127bf565b60405180910390f35b6102d660048036038101906102d1919061214c565b610ce4565b6040516102e39190612b03565b60405180910390f35b6102f4610d9c565b60405161030191906127bf565b60405180910390f35b610312610dc2565b60405161031f91906127bf565b60405180910390f35b610330610de8565b60405161033d91906128a1565b60405180910390f35b610360600480360381019061035b919061227b565b610e7a565b005b61037c60048036038101906103779190612200565b610ffb565b005b610398600480360381019061039391906123af565b61105d565b6040516103a591906128a1565b60405180910390f35b6103b66111d0565b6040516103c39190612b03565b60405180910390f35b6103e660048036038101906103e19190612175565b6111d6565b6040516103f39190612886565b60405180910390f35b60006104078261126a565b9050919050565b60606000805461041d90612d59565b80601f016020809104026020016040519081016040528092919081815260200182805461044990612d59565b80156104965780601f1061046b57610100808354040283529160200191610496565b820191906000526020600020905b81548152906001019060200180831161047957829003601f168201915b5050505050905090565b60006104ab8261134c565b6104ea576040517f08c379a00000000000000000000000000000000000000000000000000000000081526004016104e1906129e3565b60405180910390fd5b6004600083815260200190815260200160002060009054906101000a900473ffffffffffffffffffffffffffffffffffffffff169050919050565b600061053082610c32565b90508073ffffffffffffffffffffffffffffffffffffffff168373ffffffffffffffffffffffffffffffffffffffff1614156105a1576040517f08c379a000000000000000000000000000000000000000000000000000000000815260040161059890612a63565b60405180910390fd5b8073ffffffffffffffffffffffffffffffffffffffff166105c06113b8565b73ffffffffffffffffffffffffffffffffffffffff1614806105ef57506105ee816105e96113b8565b6111d6565b5b61062e576040517f08c379a000000000000000000000000000000000000000000000000000000000815260040161062590612963565b60405180910390fd5b61063883836113c0565b505050565b600060095461064c600c611479565b111561068d576040517f08c379a000000000000000000000000000000000000000000000000000000000815260040161068490612aa3565b60405180910390fd5b610697600c611479565b90506000600760009054906101000a900473ffffffffffffffffffffffffffffffffffffffff1673ffffffffffffffffffffffffffffffffffffffff166323b872dd6106e16113b8565b306008546040518463ffffffff1660e01b8152600401610703939291906127da565b602060405180830381600087803b15801561071d57600080fd5b505af1158015610731573d6000803e3d6000fd5b505050506040513d601f19601f8201168201806040525081019061075591906122f3565b905080610797576040517f08c379a000000000000000000000000000000000000000000000000000000000815260040161078e90612ac3565b60405180910390fd5b6107a86107a26113b8565b83611487565b816107b16113b8565b73ffffffffffffffffffffffffffffffffffffffff167f0f6798a560793a54c3bcfe86a93cde1e73087d944c0ea20544137d412139688560405160405180910390a36107fd600c6114a5565b5090565b6108096113b8565b73ffffffffffffffffffffffffffffffffffffffff16600660009054906101000a900473ffffffffffffffffffffffffffffffffffffffff1673ffffffffffffffffffffffffffffffffffffffff1614610898576040517f08c379a000000000000000000000000000000000000000000000000000000000815260040161088f90612a83565b60405180910390fd5b6108a282826114bb565b5050565b6108b76108b16113b8565b8261152f565b6108f6576040517f08c379a00000000000000000000000000000000000000000000000000000000081526004016108ed90612ae3565b60405180910390fd5b61090183838361160d565b505050565b60085481565b6109146113b8565b73ffffffffffffffffffffffffffffffffffffffff16600660009054906101000a900473ffffffffffffffffffffffffffffffffffffffff1673ffffffffffffffffffffffffffffffffffffffff16146109a3576040517f08c379a000000000000000000000000000000000000000000000000000000000815260040161099a90612a83565b60405180910390fd5b6000600760009054906101000a900473ffffffffffffffffffffffffffffffffffffffff1673ffffffffffffffffffffffffffffffffffffffff166370a08231306040518263ffffffff1660e01b8152600401610a0091906127bf565b60206040518083038186803b158015610a1857600080fd5b505afa158015610a2c573d6000803e3d6000fd5b505050506040513d601f19601f82011682018060405250810190610a5091906123d8565b9050600760009054906101000a900473ffffffffffffffffffffffffffffffffffffffff1673ffffffffffffffffffffffffffffffffffffffff1663a9059cbb610a986113b8565b836040518363ffffffff1660e01b8152600401610ab692919061285d565b602060405180830381600087803b158015610ad057600080fd5b505af1158015610ae4573d6000803e3d6000fd5b505050506040513d601f19601f82011682018060405250810190610b0891906122f3565b50610b116113b8565b73ffffffffffffffffffffffffffffffffffffffff167f884edad9ce6fa2440d8a54cc123490eb96d2768479d49ff9c7366125a942436482604051610b569190612b03565b60405180910390a250565b610b7c83838360405180602001604052806000815250610ffb565b505050565b610b896113b8565b73ffffffffffffffffffffffffffffffffffffffff16600660009054906101000a900473ffffffffffffffffffffffffffffffffffffffff1673ffffffffffffffffffffffffffffffffffffffff1614610c18576040517f08c379a0000000000000000000000000000000000000000000000000000000008152600401610c0f90612a83565b60405180910390fd5b80600b9080519060200190610c2e929190611f46565b5050565b6000806002600084815260200190815260200160002060009054906101000a900473ffffffffffffffffffffffffffffffffffffffff169050600073ffffffffffffffffffffffffffffffffffffffff168173ffffffffffffffffffffffffffffffffffffffff161415610cdb576040517f08c379a0000000000000000000000000000000000000000000000000000000008152600401610cd2906129a3565b60405180910390fd5b80915050919050565b60008073ffffffffffffffffffffffffffffffffffffffff168273ffffffffffffffffffffffffffffffffffffffff161415610d55576040517f08c379a0000000000000000000000000000000000000000000000000000000008152600401610d4c90612983565b60405180910390fd5b600360008373ffffffffffffffffffffffffffffffffffffffff1673ffffffffffffffffffffffffffffffffffffffff168152602001908152602001600020549050919050565b600760009054906101000a900473ffffffffffffffffffffffffffffffffffffffff1681565b600660009054906101000a900473ffffffffffffffffffffffffffffffffffffffff1681565b606060018054610df790612d59565b80601f0160208091040260200160405190810160405280929190818152602001828054610e2390612d59565b8015610e705780601f10610e4557610100808354040283529160200191610e70565b820191906000526020600020905b815481529060010190602001808311610e5357829003601f168201915b5050505050905090565b610e826113b8565b73ffffffffffffffffffffffffffffffffffffffff168273ffffffffffffffffffffffffffffffffffffffff161415610ef0576040517f08c379a0000000000000000000000000000000000000000000000000000000008152600401610ee790612923565b60405180910390fd5b8060056000610efd6113b8565b73ffffffffffffffffffffffffffffffffffffffff1673ffffffffffffffffffffffffffffffffffffffff16815260200190815260200160002060008473ffffffffffffffffffffffffffffffffffffffff1673ffffffffffffffffffffffffffffffffffffffff16815260200190815260200160002060006101000a81548160ff0219169083151502179055508173ffffffffffffffffffffffffffffffffffffffff16610faa6113b8565b73ffffffffffffffffffffffffffffffffffffffff167f17307eab39ab6107e8899845ad3d59bd9653f200f220920489ca2b5937696c3183604051610fef9190612886565b60405180910390a35050565b61100c6110066113b8565b8361152f565b61104b576040517f08c379a000000000000000000000000000000000000000000000000000000000815260040161104290612ae3565b60405180910390fd5b61105784848484611869565b50505050565b60606110688261134c565b6110a7576040517f08c379a000000000000000000000000000000000000000000000000000000000815260040161109e90612a43565b60405180910390fd5b6000600a600084815260200190815260200160002080546110c790612d59565b80601f01602080910402602001604051908101604052809291908181526020018280546110f390612d59565b80156111405780601f1061111557610100808354040283529160200191611140565b820191906000526020600020905b81548152906001019060200180831161112357829003601f168201915b5050505050905060006111516118c5565b90506000815114156111675781925050506111cb565b60008251111561119c57808260405160200161118492919061279b565b604051602081830303815290604052925050506111cb565b806111a685611957565b6040516020016111b792919061279b565b604051602081830303815290604052925050505b919050565b60095481565b6000600560008473ffffffffffffffffffffffffffffffffffffffff1673ffffffffffffffffffffffffffffffffffffffff16815260200190815260200160002060008373ffffffffffffffffffffffffffffffffffffffff1673ffffffffffffffffffffffffffffffffffffffff16815260200190815260200160002060009054906101000a900460ff16905092915050565b60007f80ac58cd000000000000000000000000000000000000000000000000000000007bffffffffffffffffffffffffffffffffffffffffffffffffffffffff1916827bffffffffffffffffffffffffffffffffffffffffffffffffffffffff1916148061133557507f5b5e139f000000000000000000000000000000000000000000000000000000007bffffffffffffffffffffffffffffffffffffffffffffffffffffffff1916827bffffffffffffffffffffffffffffffffffffffffffffffffffffffff1916145b80611345575061134482611b04565b5b9050919050565b60008073ffffffffffffffffffffffffffffffffffffffff166002600084815260200190815260200160002060009054906101000a900473ffffffffffffffffffffffffffffffffffffffff1673ffffffffffffffffffffffffffffffffffffffff1614159050919050565b600033905090565b816004600083815260200190815260200160002060006101000a81548173ffffffffffffffffffffffffffffffffffffffff021916908373ffffffffffffffffffffffffffffffffffffffff160217905550808273ffffffffffffffffffffffffffffffffffffffff1661143383610c32565b73ffffffffffffffffffffffffffffffffffffffff167f8c5be1e5ebec7d5bd14f71427d1e84f3dd0314c0f7b2291e5b200ac8c7c3b92560405160405180910390a45050565b600081600001549050919050565b6114a1828260405180602001604052806000815250611b6e565b5050565b6001816000016000828254019250508190555050565b6114c48261134c565b611503576040517f08c379a00000000000000000000000000000000000000000000000000000000081526004016114fa90612a03565b60405180910390fd5b80600a6000848152602001908152602001600020908051906020019061152a929190611f46565b505050565b600061153a8261134c565b611579576040517f08c379a000000000000000000000000000000000000000000000000000000000815260040161157090612943565b60405180910390fd5b600061158483610c32565b90508073ffffffffffffffffffffffffffffffffffffffff168473ffffffffffffffffffffffffffffffffffffffff1614806115f357508373ffffffffffffffffffffffffffffffffffffffff166115db846104a0565b73ffffffffffffffffffffffffffffffffffffffff16145b80611604575061160381856111d6565b5b91505092915050565b8273ffffffffffffffffffffffffffffffffffffffff1661162d82610c32565b73ffffffffffffffffffffffffffffffffffffffff1614611683576040517f08c379a000000000000000000000000000000000000000000000000000000000815260040161167a90612a23565b60405180910390fd5b600073ffffffffffffffffffffffffffffffffffffffff168273ffffffffffffffffffffffffffffffffffffffff1614156116f3576040517f08c379a00000000000000000000000000000000000000000000000000000000081526004016116ea90612903565b60405180910390fd5b6116fe838383611bc9565b6117096000826113c0565b6001600360008573ffffffffffffffffffffffffffffffffffffffff1673ffffffffffffffffffffffffffffffffffffffff16815260200190815260200160002060008282546117599190612c6f565b925050819055506001600360008473ffffffffffffffffffffffffffffffffffffffff1673ffffffffffffffffffffffffffffffffffffffff16815260200190815260200160002060008282546117b09190612be8565b92505081905550816002600083815260200190815260200160002060006101000a81548173ffffffffffffffffffffffffffffffffffffffff021916908373ffffffffffffffffffffffffffffffffffffffff160217905550808273ffffffffffffffffffffffffffffffffffffffff168473ffffffffffffffffffffffffffffffffffffffff167fddf252ad1be2c89b69c2b068fc378daa952ba7f163c4a11628f55a4df523b3ef60405160405180910390a4505050565b61187484848461160d565b61188084848484611bce565b6118bf576040517f08c379a00000000000000000000000000000000000000000000000000000000081526004016118b6906128c3565b60405180910390fd5b50505050565b6060600b80546118d490612d59565b80601f016020809104026020016040519081016040528092919081815260200182805461190090612d59565b801561194d5780601f106119225761010080835404028352916020019161194d565b820191906000526020600020905b81548152906001019060200180831161193057829003601f168201915b5050505050905090565b6060600082141561199f576040518060400160405280600181526020017f30000000000000000000000000000000000000000000000000000000000000008152509050611aff565b600082905060005b600082146119d15780806119ba90612dbc565b915050600a826119ca9190612c3e565b91506119a7565b60008167ffffffffffffffff811115611a13577f4e487b7100000000000000000000000000000000000000000000000000000000600052604160045260246000fd5b6040519080825280601f01601f191660200182016040528015611a455781602001600182028036833780820191505090505b5090505b60008514611af857600182611a5e9190612c6f565b9150600a85611a6d9190612e05565b6030611a799190612be8565b60f81b818381518110611ab5577f4e487b7100000000000000000000000000000000000000000000000000000000600052603260045260246000fd5b60200101907effffffffffffffffffffffffffffffffffffffffffffffffffffffffffffff1916908160001a905350600a85611af19190612c3e565b9450611a49565b8093505050505b919050565b60007f01ffc9a7000000000000000000000000000000000000000000000000000000007bffffffffffffffffffffffffffffffffffffffffffffffffffffffff1916827bffffffffffffffffffffffffffffffffffffffffffffffffffffffff1916149050919050565b611b788383611d65565b611b856000848484611bce565b611bc4576040517f08c379a0000000000000000000000000000000000000000000000000000000008152600401611bbb906128c3565b60405180910390fd5b505050565b505050565b6000611bef8473ffffffffffffffffffffffffffffffffffffffff16611f33565b15611d58578373ffffffffffffffffffffffffffffffffffffffff1663150b7a02611c186113b8565b8786866040518563ffffffff1660e01b8152600401611c3a9493929190612811565b602060405180830381600087803b158015611c5457600080fd5b505af1925050508015611c8557506040513d601f19601f82011682018060405250810190611c829190612345565b60015b611d08573d8060008114611cb5576040519150601f19603f3d011682016040523d82523d6000602084013e611cba565b606091505b50600081511415611d00576040517f08c379a0000000000000000000000000000000000000000000000000000000008152600401611cf7906128c3565b60405180910390fd5b805181602001fd5b63150b7a0260e01b7bffffffffffffffffffffffffffffffffffffffffffffffffffffffff1916817bffffffffffffffffffffffffffffffffffffffffffffffffffffffff191614915050611d5d565b600190505b949350505050565b600073ffffffffffffffffffffffffffffffffffffffff168273ffffffffffffffffffffffffffffffffffffffff161415611dd5576040517f08c379a0000000000000000000000000000000000000000000000000000000008152600401611dcc906129c3565b60405180910390fd5b611dde8161134c565b15611e1e576040517f08c379a0000000000000000000000000000000000000000000000000000000008152600401611e15906128e3565b60405180910390fd5b611e2a60008383611bc9565b6001600360008473ffffffffffffffffffffffffffffffffffffffff1673ffffffffffffffffffffffffffffffffffffffff1681526020019081526020016000206000828254611e7a9190612be8565b92505081905550816002600083815260200190815260200160002060006101000a81548173ffffffffffffffffffffffffffffffffffffffff021916908373ffffffffffffffffffffffffffffffffffffffff160217905550808273ffffffffffffffffffffffffffffffffffffffff16600073ffffffffffffffffffffffffffffffffffffffff167fddf252ad1be2c89b69c2b068fc378daa952ba7f163c4a11628f55a4df523b3ef60405160405180910390a45050565b600080823b905060008111915050919050565b828054611f5290612d59565b90600052602060002090601f016020900481019282611f745760008555611fbb565b82601f10611f8d57805160ff1916838001178555611fbb565b82800160010185558215611fbb579182015b82811115611fba578251825591602001919060010190611f9f565b5b509050611fc89190611fcc565b5090565b5b80821115611fe5576000816000905550600101611fcd565b5090565b6000611ffc611ff784612b43565b612b1e565b90508281526020810184848401111561201457600080fd5b61201f848285612d17565b509392505050565b600061203a61203584612b74565b612b1e565b90508281526020810184848401111561205257600080fd5b61205d848285612d17565b509392505050565b600081359050612074816133f9565b92915050565b60008135905061208981613410565b92915050565b60008151905061209e81613410565b92915050565b6000813590506120b381613427565b92915050565b6000815190506120c881613427565b92915050565b600082601f8301126120df57600080fd5b81356120ef848260208601611fe9565b91505092915050565b600082601f83011261210957600080fd5b8135612119848260208601612027565b91505092915050565b6000813590506121318161343e565b92915050565b6000815190506121468161343e565b92915050565b60006020828403121561215e57600080fd5b600061216c84828501612065565b91505092915050565b6000806040838503121561218857600080fd5b600061219685828601612065565b92505060206121a785828601612065565b9150509250929050565b6000806000606084860312156121c657600080fd5b60006121d486828701612065565b93505060206121e586828701612065565b92505060406121f686828701612122565b9150509250925092565b6000806000806080858703121561221657600080fd5b600061222487828801612065565b945050602061223587828801612065565b935050604061224687828801612122565b925050606085013567ffffffffffffffff81111561226357600080fd5b61226f878288016120ce565b91505092959194509250565b6000806040838503121561228e57600080fd5b600061229c85828601612065565b92505060206122ad8582860161207a565b9150509250929050565b600080604083850312156122ca57600080fd5b60006122d885828601612065565b92505060206122e985828601612122565b9150509250929050565b60006020828403121561230557600080fd5b60006123138482850161208f565b91505092915050565b60006020828403121561232e57600080fd5b600061233c848285016120a4565b91505092915050565b60006020828403121561235757600080fd5b6000612365848285016120b9565b91505092915050565b60006020828403121561238057600080fd5b600082013567ffffffffffffffff81111561239a57600080fd5b6123a6848285016120f8565b91505092915050565b6000602082840312156123c157600080fd5b60006123cf84828501612122565b91505092915050565b6000602082840312156123ea57600080fd5b60006123f884828501612137565b91505092915050565b6000806040838503121561241457600080fd5b600061242285828601612122565b925050602083013567ffffffffffffffff81111561243f57600080fd5b61244b858286016120f8565b9150509250929050565b61245e81612ca3565b82525050565b61246d81612cb5565b82525050565b600061247e82612ba5565b6124888185612bbb565b9350612498818560208601612d26565b6124a181612ef2565b840191505092915050565b60006124b782612bb0565b6124c18185612bcc565b93506124d1818560208601612d26565b6124da81612ef2565b840191505092915050565b60006124f082612bb0565b6124fa8185612bdd565b935061250a818560208601612d26565b80840191505092915050565b6000612523603283612bcc565b915061252e82612f03565b604082019050919050565b6000612546601c83612bcc565b915061255182612f52565b602082019050919050565b6000612569602483612bcc565b915061257482612f7b565b604082019050919050565b600061258c601983612bcc565b915061259782612fca565b602082019050919050565b60006125af602c83612bcc565b91506125ba82612ff3565b604082019050919050565b60006125d2603883612bcc565b91506125dd82613042565b604082019050919050565b60006125f5602a83612bcc565b915061260082613091565b604082019050919050565b6000612618602983612bcc565b9150612623826130e0565b604082019050919050565b600061263b602083612bcc565b91506126468261312f565b602082019050919050565b600061265e602c83612bcc565b915061266982613158565b604082019050919050565b6000612681602c83612bcc565b915061268c826131a7565b604082019050919050565b60006126a4602983612bcc565b91506126af826131f6565b604082019050919050565b60006126c7602f83612bcc565b91506126d282613245565b604082019050919050565b60006126ea602183612bcc565b91506126f582613294565b604082019050919050565b600061270d602383612bcc565b9150612718826132e3565b604082019050919050565b6000612730602283612bcc565b915061273b82613332565b604082019050919050565b6000612753601783612bcc565b915061275e82613381565b602082019050919050565b6000612776603183612bcc565b9150612781826133aa565b604082019050919050565b61279581612d0d565b82525050565b60006127a782856124e5565b91506127b382846124e5565b91508190509392505050565b60006020820190506127d46000830184612455565b92915050565b60006060820190506127ef6000830186612455565b6127fc6020830185612455565b612809604083018461278c565b949350505050565b60006080820190506128266000830187612455565b6128336020830186612455565b612840604083018561278c565b81810360608301526128528184612473565b905095945050505050565b60006040820190506128726000830185612455565b61287f602083018461278c565b9392505050565b600060208201905061289b6000830184612464565b92915050565b600060208201905081810360008301526128bb81846124ac565b905092915050565b600060208201905081810360008301526128dc81612516565b9050919050565b600060208201905081810360008301526128fc81612539565b9050919050565b6000602082019050818103600083015261291c8161255c565b9050919050565b6000602082019050818103600083015261293c8161257f565b9050919050565b6000602082019050818103600083015261295c816125a2565b9050919050565b6000602082019050818103600083015261297c816125c5565b9050919050565b6000602082019050818103600083015261299c816125e8565b9050919050565b600060208201905081810360008301526129bc8161260b565b9050919050565b600060208201905081810360008301526129dc8161262e565b9050919050565b600060208201905081810360008301526129fc81612651565b9050919050565b60006020820190508181036000830152612a1c81612674565b9050919050565b60006020820190508181036000830152612a3c81612697565b9050919050565b60006020820190508181036000830152612a5c816126ba565b9050919050565b60006020820190508181036000830152612a7c816126dd565b9050919050565b60006020820190508181036000830152612a9c81612700565b9050919050565b60006020820190508181036000830152612abc81612723565b9050919050565b60006020820190508181036000830152612adc81612746565b9050919050565b60006020820190508181036000830152612afc81612769565b9050919050565b6000602082019050612b18600083018461278c565b92915050565b6000612b28612b39565b9050612b348282612d8b565b919050565b6000604051905090565b600067ffffffffffffffff821115612b5e57612b5d612ec3565b5b612b6782612ef2565b9050602081019050919050565b600067ffffffffffffffff821115612b8f57612b8e612ec3565b5b612b9882612ef2565b9050602081019050919050565b600081519050919050565b600081519050919050565b600082825260208201905092915050565b600082825260208201905092915050565b600081905092915050565b6000612bf382612d0d565b9150612bfe83612d0d565b9250827fffffffffffffffffffffffffffffffffffffffffffffffffffffffffffffffff03821115612c3357612c32612e36565b5b828201905092915050565b6000612c4982612d0d565b9150612c5483612d0d565b925082612c6457612c63612e65565b5b828204905092915050565b6000612c7a82612d0d565b9150612c8583612d0d565b925082821015612c9857612c97612e36565b5b828203905092915050565b6000612cae82612ced565b9050919050565b60008115159050919050565b60007fffffffff0000000000000000000000000000000000000000000000000000000082169050919050565b600073ffffffffffffffffffffffffffffffffffffffff82169050919050565b6000819050919050565b82818337600083830152505050565b60005b83811015612d44578082015181840152602081019050612d29565b83811115612d53576000848401525b50505050565b60006002820490506001821680612d7157607f821691505b60208210811415612d8557612d84612e94565b5b50919050565b612d9482612ef2565b810181811067ffffffffffffffff82111715612db357612db2612ec3565b5b80604052505050565b6000612dc782612d0d565b91507fffffffffffffffffffffffffffffffffffffffffffffffffffffffffffffffff821415612dfa57612df9612e36565b5b600182019050919050565b6000612e1082612d0d565b9150612e1b83612d0d565b925082612e2b57612e2a612e65565b5b828206905092915050565b7f4e487b7100000000000000000000000000000000000000000000000000000000600052601160045260246000fd5b7f4e487b7100000000000000000000000000000000000000000000000000000000600052601260045260246000fd5b7f4e487b7100000000000000000000000000000000000000000000000000000000600052602260045260246000fd5b7f4e487b7100000000000000000000000000000000000000000000000000000000600052604160045260246000fd5b6000601f19601f8301169050919050565b7f4552433732313a207472616e7366657220746f206e6f6e20455243373231526560008201527f63656976657220696d706c656d656e7465720000000000000000000000000000602082015250565b7f4552433732313a20746f6b656e20616c7265616479206d696e74656400000000600082015250565b7f4552433732313a207472616e7366657220746f20746865207a65726f2061646460008201527f7265737300000000000000000000000000000000000000000000000000000000602082015250565b7f4552433732313a20617070726f766520746f2063616c6c657200000000000000600082015250565b7f4552433732313a206f70657261746f7220717565727920666f72206e6f6e657860008201527f697374656e7420746f6b656e0000000000000000000000000000000000000000602082015250565b7f4552433732313a20617070726f76652063616c6c6572206973206e6f74206f7760008201527f6e6572206e6f7220617070726f76656420666f7220616c6c0000000000000000602082015250565b7f4552433732313a2062616c616e636520717565727920666f7220746865207a6560008201527f726f206164647265737300000000000000000000000000000000000000000000602082015250565b7f4552433732313a206f776e657220717565727920666f72206e6f6e657869737460008201527f656e7420746f6b656e0000000000000000000000000000000000000000000000602082015250565b7f4552433732313a206d696e7420746f20746865207a65726f2061646472657373600082015250565b7f4552433732313a20617070726f76656420717565727920666f72206e6f6e657860008201527f697374656e7420746f6b656e0000000000000000000000000000000000000000602082015250565b7f4552433732314d657461646174613a2055524920736574206f66206e6f6e657860008201527f697374656e7420746f6b656e0000000000000000000000000000000000000000602082015250565b7f4552433732313a207472616e73666572206f6620746f6b656e2074686174206960008201527f73206e6f74206f776e0000000000000000000000000000000000000000000000602082015250565b7f4552433732314d657461646174613a2055524920717565727920666f72206e6f60008201527f6e6578697374656e7420746f6b656e0000000000000000000000000000000000602082015250565b7f4552433732313a20617070726f76616c20746f2063757272656e74206f776e6560008201527f7200000000000000000000000000000000000000000000000000000000000000602082015250565b7f466978656450726963653a2063616c6c6572206973206e6f7420746865206f7760008201527f6e65720000000000000000000000000000000000000000000000000000000000602082015250565b7f466978656450726963653a2065786365656473206d6178696d756d207375707060008201527f6c79000000000000000000000000000000000000000000000000000000000000602082015250565b7f45524332303a205472616e73666572206661696c65642e000000000000000000600082015250565b7f4552433732313a207472616e736665722063616c6c6572206973206e6f74206f60008201527f776e6572206e6f7220617070726f766564000000000000000000000000000000602082015250565b61340281612ca3565b811461340d57600080fd5b50565b61341981612cb5565b811461342457600080fd5b50565b61343081612cc1565b811461343b57600080fd5b50565b61344781612d0d565b811461345257600080fd5b5056fea26469706673582212208d442b2c53848407809d789849e6043567b98031490671eecb7b2fb5aa57a26364736f6c63430008040033",
  "linkReferences": {},
  "deployedLinkReferences": {}
}