{
  "_format": "hh-sol-artifact-1",
  "contractName": "Gamma",
  "sourceName": "contracts/Gamma.sol",
  "abi": [
    {
      "inputs": [
        {
          "internalType": "string",
          "name": "_name",
          "type": "string"
        },
        {
          "internalType": "string",
          "name": "_symbol",
          "type": "string"
        },
        {
          "internalType": "address",
          "name": "_erc20",
          "type": "address"
        },
        {
          "internalType": "uint256",
          "name": "_rate",
          "type": "uint256"
        },
        {
          "internalType": "uint256",
          "name": "_maxSupply",
          "type": "uint256"
        }
      ],
      "stateMutability": "nonpayable",
      "type": "constructor"
    },
    {
      "anonymous": false,
      "inputs": [
        {
          "indexed": true,
          "internalType": "address",
          "name": "owner",
          "type": "address"
        },
        {
          "indexed": true,
          "internalType": "address",
          "name": "approved",
          "type": "address"
        },
        {
          "indexed": true,
          "internalType": "uint256",
          "name": "tokenId",
          "type": "uint256"
        }
      ],
      "name": "Approval",
      "type": "event"
    },
    {
      "anonymous": false,
      "inputs": [
        {
          "indexed": true,
          "internalType": "address",
          "name": "owner",
          "type": "address"
        },
        {
          "indexed": true,
          "internalType": "address",
          "name": "operator",
          "type": "address"
        },
        {
          "indexed": false,
          "internalType": "bool",
          "name": "approved",
          "type": "bool"
        }
      ],
      "name": "ApprovalForAll",
      "type": "event"
    },
    {
      "anonymous": false,
      "inputs": [
        {
          "indexed": true,
          "internalType": "address",
          "name": "from",
          "type": "address"
        },
        {
          "indexed": true,
          "internalType": "uint256",
          "name": "tokenId",
          "type": "uint256"
        }
      ],
      "name": "Mint",
      "type": "event"
    },
    {
      "anonymous": false,
      "inputs": [
        {
          "indexed": true,
          "internalType": "address",
          "name": "from",
          "type": "address"
        },
        {
          "indexed": true,
          "internalType": "address",
          "name": "to",
          "type": "address"
        },
        {
          "indexed": true,
          "internalType": "uint256",
          "name": "tokenId",
          "type": "uint256"
        }
      ],
      "name": "Transfer",
      "type": "event"
    },
    {
      "anonymous": false,
      "inputs": [
        {
          "indexed": true,
          "internalType": "address",
          "name": "to",
          "type": "address"
        },
        {
          "indexed": false,
          "internalType": "uint256",
          "name": "amount",
          "type": "uint256"
        }
      ],
      "name": "Withdraw",
      "type": "event"
    },
    {
      "inputs": [
        {
          "internalType": "address",
          "name": "to",
          "type": "address"
        },
        {
          "internalType": "uint256",
          "name": "tokenId",
          "type": "uint256"
        }
      ],
      "name": "approve",
      "outputs": [],
      "stateMutability": "nonpayable",
      "type": "function"
    },
    {
      "inputs": [
        {
          "internalType": "address",
          "name": "owner",
          "type": "address"
        }
      ],
      "name": "balanceOf",
      "outputs": [
        {
          "internalType": "uint256",
          "name": "",
          "type": "uint256"
        }
      ],
      "stateMutability": "view",
      "type": "function"
    },
    {
      "inputs": [],
      "name": "erc20",
      "outputs": [
        {
          "internalType": "address",
          "name": "",
          "type": "address"
        }
      ],
      "stateMutability": "view",
      "type": "function"
    },
    {
      "inputs": [
        {
          "internalType": "uint256",
          "name": "tokenId",
          "type": "uint256"
        }
      ],
      "name": "getApproved",
      "outputs": [
        {
          "internalType": "address",
          "name": "",
          "type": "address"
        }
      ],
      "stateMutability": "view",
      "type": "function"
    },
    {
      "inputs": [
        {
          "internalType": "address",
          "name": "owner",
          "type": "address"
        },
        {
          "internalType": "address",
          "name": "operator",
          "type": "address"
        }
      ],
      "name": "isApprovedForAll",
      "outputs": [
        {
          "internalType": "bool",
          "name": "",
          "type": "bool"
        }
      ],
      "stateMutability": "view",
      "type": "function"
    },
    {
      "inputs": [],
      "name": "maxSupply",
      "outputs": [
        {
          "internalType": "uint256",
          "name": "",
          "type": "uint256"
        }
      ],
      "stateMutability": "view",
      "type": "function"
    },
    {
      "inputs": [],
      "name": "mint",
      "outputs": [
        {
          "internalType": "uint256",
          "name": "tokenId",
          "type": "uint256"
        }
      ],
      "stateMutability": "nonpayable",
      "type": "function"
    },
    {
      "inputs": [],
      "name": "name",
      "outputs": [
        {
          "internalType": "string",
          "name": "",
          "type": "string"
        }
      ],
      "stateMutability": "view",
      "type": "function"
    },
    {
      "inputs": [],
      "name": "owner",
      "outputs": [
        {
          "internalType": "address",
          "name": "",
          "type": "address"
        }
      ],
      "stateMutability": "view",
      "type": "function"
    },
    {
      "inputs": [
        {
          "internalType": "uint256",
          "name": "tokenId",
          "type": "uint256"
        }
      ],
      "name": "ownerOf",
      "outputs": [
        {
          "internalType": "address",
          "name": "",
          "type": "address"
        }
      ],
      "stateMutability": "view",
      "type": "function"
    },
    {
      "inputs": [],
      "name": "rate",
      "outputs": [
        {
          "internalType": "uint256",
          "name": "",
          "type": "uint256"
        }
      ],
      "stateMutability": "view",
      "type": "function"
    },
    {
      "inputs": [
        {
          "internalType": "address",
          "name": "from",
          "type": "address"
        },
        {
          "internalType": "address",
          "name": "to",
          "type": "address"
        },
        {
          "internalType": "uint256",
          "name": "tokenId",
          "type": "uint256"
        }
      ],
      "name": "safeTransferFrom",
      "outputs": [],
      "stateMutability": "nonpayable",
      "type": "function"
    },
    {
      "inputs": [
        {
          "internalType": "address",
          "name": "from",
          "type": "address"
        },
        {
          "internalType": "address",
          "name": "to",
          "type": "address"
        },
        {
          "internalType": "uint256",
          "name": "tokenId",
          "type": "uint256"
        },
        {
          "internalType": "bytes",
          "name": "_data",
          "type": "bytes"
        }
      ],
      "name": "safeTransferFrom",
      "outputs": [],
      "stateMutability": "nonpayable",
      "type": "function"
    },
    {
      "inputs": [
        {
          "internalType": "address",
          "name": "operator",
          "type": "address"
        },
        {
          "internalType": "bool",
          "name": "approved",
          "type": "bool"
        }
      ],
      "name": "setApprovalForAll",
      "outputs": [],
      "stateMutability": "nonpayable",
      "type": "function"
    },
    {
      "inputs": [
        {
          "internalType": "bytes4",
          "name": "interfaceId",
          "type": "bytes4"
        }
      ],
      "name": "supportsInterface",
      "outputs": [
        {
          "internalType": "bool",
          "name": "",
          "type": "bool"
        }
      ],
      "stateMutability": "view",
      "type": "function"
    },
    {
      "inputs": [],
      "name": "symbol",
      "outputs": [
        {
          "internalType": "string",
          "name": "",
          "type": "string"
        }
      ],
      "stateMutability": "view",
      "type": "function"
    },
    {
      "inputs": [
        {
          "internalType": "uint256",
          "name": "tokenId",
          "type": "uint256"
        }
      ],
      "name": "tokenURI",
      "outputs": [
        {
          "internalType": "string",
          "name": "",
          "type": "string"
        }
      ],
      "stateMutability": "view",
      "type": "function"
    },
    {
      "inputs": [
        {
          "internalType": "address",
          "name": "from",
          "type": "address"
        },
        {
          "internalType": "address",
          "name": "to",
          "type": "address"
        },
        {
          "internalType": "uint256",
          "name": "tokenId",
          "type": "uint256"
        }
      ],
      "name": "transferFrom",
      "outputs": [],
      "stateMutability": "nonpayable",
      "type": "function"
    },
    {
      "inputs": [],
      "name": "withdraw",
      "outputs": [],
      "stateMutability": "nonpayable",
      "type": "function"
    }
  ],
  "bytecode": "0x608060405260405180602001604052806001815250600a6000820151816000015550503480156200002f57600080fd5b506040516200339938038062003399833981810160405281019062000055919062000276565b848481600090805190602001906200006f92919062000126565b5080600190805190602001906200008892919062000126565b50505032600660006101000a81548173ffffffffffffffffffffffffffffffffffffffff021916908373ffffffffffffffffffffffffffffffffffffffff16021790555082600760006101000a81548173ffffffffffffffffffffffffffffffffffffffff021916908373ffffffffffffffffffffffffffffffffffffffff160217905550816008819055508060098190555050505050506200050c565b8280546200013490620003fd565b90600052602060002090601f016020900481019282620001585760008555620001a4565b82601f106200017357805160ff1916838001178555620001a4565b82800160010185558215620001a4579182015b82811115620001a357825182559160200191906001019062000186565b5b509050620001b39190620001b7565b5090565b5b80821115620001d2576000816000905550600101620001b8565b5090565b6000620001ed620001e78462000353565b6200032a565b9050828152602081018484840111156200020657600080fd5b62000213848285620003c7565b509392505050565b6000815190506200022c81620004d8565b92915050565b600082601f8301126200024457600080fd5b815162000256848260208601620001d6565b91505092915050565b6000815190506200027081620004f2565b92915050565b600080600080600060a086880312156200028f57600080fd5b600086015167ffffffffffffffff811115620002aa57600080fd5b620002b88882890162000232565b955050602086015167ffffffffffffffff811115620002d657600080fd5b620002e48882890162000232565b9450506040620002f7888289016200021b565b93505060606200030a888289016200025f565b92505060806200031d888289016200025f565b9150509295509295909350565b60006200033662000349565b905062000344828262000433565b919050565b6000604051905090565b600067ffffffffffffffff82111562000371576200037062000498565b5b6200037c82620004c7565b9050602081019050919050565b600062000396826200039d565b9050919050565b600073ffffffffffffffffffffffffffffffffffffffff82169050919050565b6000819050919050565b60005b83811015620003e7578082015181840152602081019050620003ca565b83811115620003f7576000848401525b50505050565b600060028204905060018216806200041657607f821691505b602082108114156200042d576200042c62000469565b5b50919050565b6200043e82620004c7565b810181811067ffffffffffffffff8211171562000460576200045f62000498565b5b80604052505050565b7f4e487b7100000000000000000000000000000000000000000000000000000000600052602260045260246000fd5b7f4e487b7100000000000000000000000000000000000000000000000000000000600052604160045260246000fd5b6000601f19601f8301169050919050565b620004e38162000389565b8114620004ef57600080fd5b50565b620004fd81620003bd565b81146200050957600080fd5b50565b612e7d806200051c6000396000f3fe608060405234801561001057600080fd5b50600436106101215760003560e01c80636352211e116100ad578063a22cb46511610071578063a22cb465146102f8578063b88d4fde14610314578063c87b56dd14610330578063d5abeb0114610360578063e985e9c51461037e57610121565b80636352211e1461023e57806370a082311461026e578063785e9e861461029e5780638da5cb5b146102bc57806395d89b41146102da57610121565b80631249c58b116100f45780631249c58b146101c057806323b872dd146101de5780632c4e722e146101fa5780633ccfd60b1461021857806342842e0e1461022257610121565b806301ffc9a71461012657806306fdde0314610156578063081812fc14610174578063095ea7b3146101a4575b600080fd5b610140600480360381019061013b9190611eb2565b6103ae565b60405161014d9190612364565b60405180910390f35b61015e6103c0565b60405161016b919061237f565b60405180910390f35b61018e60048036038101906101899190611f04565b610452565b60405161019b919061229d565b60405180910390f35b6101be60048036038101906101b99190611e4d565b6104d7565b005b6101c86105ef565b6040516101d591906125c1565b60405180910390f35b6101f860048036038101906101f39190611d47565b6107b3565b005b610202610813565b60405161020f91906125c1565b60405180910390f35b610220610819565b005b61023c60048036038101906102379190611d47565b610a6e565b005b61025860048036038101906102539190611f04565b610a8e565b604051610265919061229d565b60405180910390f35b61028860048036038101906102839190611ce2565b610b40565b60405161029591906125c1565b60405180910390f35b6102a6610bf8565b6040516102b3919061229d565b60405180910390f35b6102c4610c1e565b6040516102d1919061229d565b60405180910390f35b6102e2610c44565b6040516102ef919061237f565b60405180910390f35b610312600480360381019061030d9190611e11565b610cd6565b005b61032e60048036038101906103299190611d96565b610e57565b005b61034a60048036038101906103459190611f04565b610eb9565b604051610357919061237f565b60405180910390f35b610368610f60565b60405161037591906125c1565b60405180910390f35b61039860048036038101906103939190611d0b565b610f66565b6040516103a59190612364565b60405180910390f35b60006103b982610ffa565b9050919050565b6060600080546103cf906127e6565b80601f01602080910402602001604051908101604052809291908181526020018280546103fb906127e6565b80156104485780601f1061041d57610100808354040283529160200191610448565b820191906000526020600020905b81548152906001019060200180831161042b57829003601f168201915b5050505050905090565b600061045d826110dc565b61049c576040517f08c379a0000000000000000000000000000000000000000000000000000000008152600401610493906124c1565b60405180910390fd5b6004600083815260200190815260200160002060009054906101000a900473ffffffffffffffffffffffffffffffffffffffff169050919050565b60006104e282610a8e565b90508073ffffffffffffffffffffffffffffffffffffffff168373ffffffffffffffffffffffffffffffffffffffff161415610553576040517f08c379a000000000000000000000000000000000000000000000000000000000815260040161054a90612561565b60405180910390fd5b8073ffffffffffffffffffffffffffffffffffffffff16610572611148565b73ffffffffffffffffffffffffffffffffffffffff1614806105a157506105a08161059b611148565b610f66565b5b6105e0576040517f08c379a00000000000000000000000000000000000000000000000000000000081526004016105d790612441565b60405180910390fd5b6105ea8383611150565b505050565b60006009546105fe600a611209565b111561063f576040517f08c379a0000000000000000000000000000000000000000000000000000000008152600401610636906124e1565b60405180910390fd5b610649600a611209565b90506000600760009054906101000a900473ffffffffffffffffffffffffffffffffffffffff1673ffffffffffffffffffffffffffffffffffffffff166323b872dd610693611148565b306008546040518463ffffffff1660e01b81526004016106b5939291906122b8565b602060405180830381600087803b1580156106cf57600080fd5b505af11580156106e3573d6000803e3d6000fd5b505050506040513d601f19601f820116820180604052508101906107079190611e89565b905080610749576040517f08c379a000000000000000000000000000000000000000000000000000000000815260040161074090612581565b60405180910390fd5b61075a610754611148565b83611217565b81610763611148565b73ffffffffffffffffffffffffffffffffffffffff167f0f6798a560793a54c3bcfe86a93cde1e73087d944c0ea20544137d412139688560405160405180910390a36107af600a611235565b5090565b6107c46107be611148565b8261124b565b610803576040517f08c379a00000000000000000000000000000000000000000000000000000000081526004016107fa906125a1565b60405180910390fd5b61080e838383611329565b505050565b60085481565b610821611148565b73ffffffffffffffffffffffffffffffffffffffff16600660009054906101000a900473ffffffffffffffffffffffffffffffffffffffff1673ffffffffffffffffffffffffffffffffffffffff16146108b0576040517f08c379a00000000000000000000000000000000000000000000000000000000081526004016108a790612541565b60405180910390fd5b6000600760009054906101000a900473ffffffffffffffffffffffffffffffffffffffff1673ffffffffffffffffffffffffffffffffffffffff166370a08231306040518263ffffffff1660e01b815260040161090d919061229d565b60206040518083038186803b15801561092557600080fd5b505afa158015610939573d6000803e3d6000fd5b505050506040513d601f19601f8201168201806040525081019061095d9190611f2d565b9050600760009054906101000a900473ffffffffffffffffffffffffffffffffffffffff1673ffffffffffffffffffffffffffffffffffffffff1663a9059cbb6109a5611148565b836040518363ffffffff1660e01b81526004016109c392919061233b565b602060405180830381600087803b1580156109dd57600080fd5b505af11580156109f1573d6000803e3d6000fd5b505050506040513d601f19601f82011682018060405250810190610a159190611e89565b50610a1e611148565b73ffffffffffffffffffffffffffffffffffffffff167f884edad9ce6fa2440d8a54cc123490eb96d2768479d49ff9c7366125a942436482604051610a6391906125c1565b60405180910390a250565b610a8983838360405180602001604052806000815250610e57565b505050565b6000806002600084815260200190815260200160002060009054906101000a900473ffffffffffffffffffffffffffffffffffffffff169050600073ffffffffffffffffffffffffffffffffffffffff168173ffffffffffffffffffffffffffffffffffffffff161415610b37576040517f08c379a0000000000000000000000000000000000000000000000000000000008152600401610b2e90612481565b60405180910390fd5b80915050919050565b60008073ffffffffffffffffffffffffffffffffffffffff168273ffffffffffffffffffffffffffffffffffffffff161415610bb1576040517f08c379a0000000000000000000000000000000000000000000000000000000008152600401610ba890612461565b60405180910390fd5b600360008373ffffffffffffffffffffffffffffffffffffffff1673ffffffffffffffffffffffffffffffffffffffff168152602001908152602001600020549050919050565b600760009054906101000a900473ffffffffffffffffffffffffffffffffffffffff1681565b600660009054906101000a900473ffffffffffffffffffffffffffffffffffffffff1681565b606060018054610c53906127e6565b80601f0160208091040260200160405190810160405280929190818152602001828054610c7f906127e6565b8015610ccc5780601f10610ca157610100808354040283529160200191610ccc565b820191906000526020600020905b815481529060010190602001808311610caf57829003601f168201915b5050505050905090565b610cde611148565b73ffffffffffffffffffffffffffffffffffffffff168273ffffffffffffffffffffffffffffffffffffffff161415610d4c576040517f08c379a0000000000000000000000000000000000000000000000000000000008152600401610d4390612401565b60405180910390fd5b8060056000610d59611148565b73ffffffffffffffffffffffffffffffffffffffff1673ffffffffffffffffffffffffffffffffffffffff16815260200190815260200160002060008473ffffffffffffffffffffffffffffffffffffffff1673ffffffffffffffffffffffffffffffffffffffff16815260200190815260200160002060006101000a81548160ff0219169083151502179055508173ffffffffffffffffffffffffffffffffffffffff16610e06611148565b73ffffffffffffffffffffffffffffffffffffffff167f17307eab39ab6107e8899845ad3d59bd9653f200f220920489ca2b5937696c3183604051610e4b9190612364565b60405180910390a35050565b610e68610e62611148565b8361124b565b610ea7576040517f08c379a0000000000000000000000000000000000000000000000000000000008152600401610e9e906125a1565b60405180910390fd5b610eb384848484611585565b50505050565b6060610ec4826110dc565b610f03576040517f08c379a0000000000000000000000000000000000000000000000000000000008152600401610efa90612521565b60405180910390fd5b6000610f0d6115e1565b90506000815111610f2d5760405180602001604052806000815250610f58565b80610f37846115f8565b604051602001610f48929190612279565b6040516020818303038152906040525b915050919050565b60095481565b6000600560008473ffffffffffffffffffffffffffffffffffffffff1673ffffffffffffffffffffffffffffffffffffffff16815260200190815260200160002060008373ffffffffffffffffffffffffffffffffffffffff1673ffffffffffffffffffffffffffffffffffffffff16815260200190815260200160002060009054906101000a900460ff16905092915050565b60007f80ac58cd000000000000000000000000000000000000000000000000000000007bffffffffffffffffffffffffffffffffffffffffffffffffffffffff1916827bffffffffffffffffffffffffffffffffffffffffffffffffffffffff191614806110c557507f5b5e139f000000000000000000000000000000000000000000000000000000007bffffffffffffffffffffffffffffffffffffffffffffffffffffffff1916827bffffffffffffffffffffffffffffffffffffffffffffffffffffffff1916145b806110d557506110d4826117a5565b5b9050919050565b60008073ffffffffffffffffffffffffffffffffffffffff166002600084815260200190815260200160002060009054906101000a900473ffffffffffffffffffffffffffffffffffffffff1673ffffffffffffffffffffffffffffffffffffffff1614159050919050565b600033905090565b816004600083815260200190815260200160002060006101000a81548173ffffffffffffffffffffffffffffffffffffffff021916908373ffffffffffffffffffffffffffffffffffffffff160217905550808273ffffffffffffffffffffffffffffffffffffffff166111c383610a8e565b73ffffffffffffffffffffffffffffffffffffffff167f8c5be1e5ebec7d5bd14f71427d1e84f3dd0314c0f7b2291e5b200ac8c7c3b92560405160405180910390a45050565b600081600001549050919050565b61123182826040518060200160405280600081525061180f565b5050565b6001816000016000828254019250508190555050565b6000611256826110dc565b611295576040517f08c379a000000000000000000000000000000000000000000000000000000000815260040161128c90612421565b60405180910390fd5b60006112a083610a8e565b90508073ffffffffffffffffffffffffffffffffffffffff168473ffffffffffffffffffffffffffffffffffffffff16148061130f57508373ffffffffffffffffffffffffffffffffffffffff166112f784610452565b73ffffffffffffffffffffffffffffffffffffffff16145b80611320575061131f8185610f66565b5b91505092915050565b8273ffffffffffffffffffffffffffffffffffffffff1661134982610a8e565b73ffffffffffffffffffffffffffffffffffffffff161461139f576040517f08c379a000000000000000000000000000000000000000000000000000000000815260040161139690612501565b60405180910390fd5b600073ffffffffffffffffffffffffffffffffffffffff168273ffffffffffffffffffffffffffffffffffffffff16141561140f576040517f08c379a0000000000000000000000000000000000000000000000000000000008152600401611406906123e1565b60405180910390fd5b61141a83838361186a565b611425600082611150565b6001600360008573ffffffffffffffffffffffffffffffffffffffff1673ffffffffffffffffffffffffffffffffffffffff168152602001908152602001600020600082825461147591906126fc565b925050819055506001600360008473ffffffffffffffffffffffffffffffffffffffff1673ffffffffffffffffffffffffffffffffffffffff16815260200190815260200160002060008282546114cc9190612675565b92505081905550816002600083815260200190815260200160002060006101000a81548173ffffffffffffffffffffffffffffffffffffffff021916908373ffffffffffffffffffffffffffffffffffffffff160217905550808273ffffffffffffffffffffffffffffffffffffffff168473ffffffffffffffffffffffffffffffffffffffff167fddf252ad1be2c89b69c2b068fc378daa952ba7f163c4a11628f55a4df523b3ef60405160405180910390a4505050565b611590848484611329565b61159c8484848461186f565b6115db576040517f08c379a00000000000000000000000000000000000000000000000000000000081526004016115d2906123a1565b60405180910390fd5b50505050565b606060405180602001604052806000815250905090565b60606000821415611640576040518060400160405280600181526020017f300000000000000000000000000000000000000000000000000000000000000081525090506117a0565b600082905060005b6000821461167257808061165b90612849565b915050600a8261166b91906126cb565b9150611648565b60008167ffffffffffffffff8111156116b4577f4e487b7100000000000000000000000000000000000000000000000000000000600052604160045260246000fd5b6040519080825280601f01601f1916602001820160405280156116e65781602001600182028036833780820191505090505b5090505b60008514611799576001826116ff91906126fc565b9150600a8561170e9190612892565b603061171a9190612675565b60f81b818381518110611756577f4e487b7100000000000000000000000000000000000000000000000000000000600052603260045260246000fd5b60200101907effffffffffffffffffffffffffffffffffffffffffffffffffffffffffffff1916908160001a905350600a8561179291906126cb565b94506116ea565b8093505050505b919050565b60007f01ffc9a7000000000000000000000000000000000000000000000000000000007bffffffffffffffffffffffffffffffffffffffffffffffffffffffff1916827bffffffffffffffffffffffffffffffffffffffffffffffffffffffff1916149050919050565b6118198383611a06565b611826600084848461186f565b611865576040517f08c379a000000000000000000000000000000000000000000000000000000000815260040161185c906123a1565b60405180910390fd5b505050565b505050565b60006118908473ffffffffffffffffffffffffffffffffffffffff16611bd4565b156119f9578373ffffffffffffffffffffffffffffffffffffffff1663150b7a026118b9611148565b8786866040518563ffffffff1660e01b81526004016118db94939291906122ef565b602060405180830381600087803b1580156118f557600080fd5b505af192505050801561192657506040513d601f19601f820116820180604052508101906119239190611edb565b60015b6119a9573d8060008114611956576040519150601f19603f3d011682016040523d82523d6000602084013e61195b565b606091505b506000815114156119a1576040517f08c379a0000000000000000000000000000000000000000000000000000000008152600401611998906123a1565b60405180910390fd5b805181602001fd5b63150b7a0260e01b7bffffffffffffffffffffffffffffffffffffffffffffffffffffffff1916817bffffffffffffffffffffffffffffffffffffffffffffffffffffffff1916149150506119fe565b600190505b949350505050565b600073ffffffffffffffffffffffffffffffffffffffff168273ffffffffffffffffffffffffffffffffffffffff161415611a76576040517f08c379a0000000000000000000000000000000000000000000000000000000008152600401611a6d906124a1565b60405180910390fd5b611a7f816110dc565b15611abf576040517f08c379a0000000000000000000000000000000000000000000000000000000008152600401611ab6906123c1565b60405180910390fd5b611acb6000838361186a565b6001600360008473ffffffffffffffffffffffffffffffffffffffff1673ffffffffffffffffffffffffffffffffffffffff1681526020019081526020016000206000828254611b1b9190612675565b92505081905550816002600083815260200190815260200160002060006101000a81548173ffffffffffffffffffffffffffffffffffffffff021916908373ffffffffffffffffffffffffffffffffffffffff160217905550808273ffffffffffffffffffffffffffffffffffffffff16600073ffffffffffffffffffffffffffffffffffffffff167fddf252ad1be2c89b69c2b068fc378daa952ba7f163c4a11628f55a4df523b3ef60405160405180910390a45050565b600080823b905060008111915050919050565b6000611bfa611bf584612601565b6125dc565b905082815260208101848484011115611c1257600080fd5b611c1d8482856127a4565b509392505050565b600081359050611c3481612deb565b92915050565b600081359050611c4981612e02565b92915050565b600081519050611c5e81612e02565b92915050565b600081359050611c7381612e19565b92915050565b600081519050611c8881612e19565b92915050565b600082601f830112611c9f57600080fd5b8135611caf848260208601611be7565b91505092915050565b600081359050611cc781612e30565b92915050565b600081519050611cdc81612e30565b92915050565b600060208284031215611cf457600080fd5b6000611d0284828501611c25565b91505092915050565b60008060408385031215611d1e57600080fd5b6000611d2c85828601611c25565b9250506020611d3d85828601611c25565b9150509250929050565b600080600060608486031215611d5c57600080fd5b6000611d6a86828701611c25565b9350506020611d7b86828701611c25565b9250506040611d8c86828701611cb8565b9150509250925092565b60008060008060808587031215611dac57600080fd5b6000611dba87828801611c25565b9450506020611dcb87828801611c25565b9350506040611ddc87828801611cb8565b925050606085013567ffffffffffffffff811115611df957600080fd5b611e0587828801611c8e565b91505092959194509250565b60008060408385031215611e2457600080fd5b6000611e3285828601611c25565b9250506020611e4385828601611c3a565b9150509250929050565b60008060408385031215611e6057600080fd5b6000611e6e85828601611c25565b9250506020611e7f85828601611cb8565b9150509250929050565b600060208284031215611e9b57600080fd5b6000611ea984828501611c4f565b91505092915050565b600060208284031215611ec457600080fd5b6000611ed284828501611c64565b91505092915050565b600060208284031215611eed57600080fd5b6000611efb84828501611c79565b91505092915050565b600060208284031215611f1657600080fd5b6000611f2484828501611cb8565b91505092915050565b600060208284031215611f3f57600080fd5b6000611f4d84828501611ccd565b91505092915050565b611f5f81612730565b82525050565b611f6e81612742565b82525050565b6000611f7f82612632565b611f898185612648565b9350611f998185602086016127b3565b611fa28161297f565b840191505092915050565b6000611fb88261263d565b611fc28185612659565b9350611fd28185602086016127b3565b611fdb8161297f565b840191505092915050565b6000611ff18261263d565b611ffb818561266a565b935061200b8185602086016127b3565b80840191505092915050565b6000612024603283612659565b915061202f82612990565b604082019050919050565b6000612047601c83612659565b9150612052826129df565b602082019050919050565b600061206a602483612659565b915061207582612a08565b604082019050919050565b600061208d601983612659565b915061209882612a57565b602082019050919050565b60006120b0602c83612659565b91506120bb82612a80565b604082019050919050565b60006120d3603883612659565b91506120de82612acf565b604082019050919050565b60006120f6602a83612659565b915061210182612b1e565b604082019050919050565b6000612119602983612659565b915061212482612b6d565b604082019050919050565b600061213c602083612659565b915061214782612bbc565b602082019050919050565b600061215f602c83612659565b915061216a82612be5565b604082019050919050565b6000612182601d83612659565b915061218d82612c34565b602082019050919050565b60006121a5602983612659565b91506121b082612c5d565b604082019050919050565b60006121c8602f83612659565b91506121d382612cac565b604082019050919050565b60006121eb601b83612659565b91506121f682612cfb565b602082019050919050565b600061220e602183612659565b915061221982612d24565b604082019050919050565b6000612231601083612659565b915061223c82612d73565b602082019050919050565b6000612254603183612659565b915061225f82612d9c565b604082019050919050565b6122738161279a565b82525050565b60006122858285611fe6565b91506122918284611fe6565b91508190509392505050565b60006020820190506122b26000830184611f56565b92915050565b60006060820190506122cd6000830186611f56565b6122da6020830185611f56565b6122e7604083018461226a565b949350505050565b60006080820190506123046000830187611f56565b6123116020830186611f56565b61231e604083018561226a565b81810360608301526123308184611f74565b905095945050505050565b60006040820190506123506000830185611f56565b61235d602083018461226a565b9392505050565b60006020820190506123796000830184611f65565b92915050565b600060208201905081810360008301526123998184611fad565b905092915050565b600060208201905081810360008301526123ba81612017565b9050919050565b600060208201905081810360008301526123da8161203a565b9050919050565b600060208201905081810360008301526123fa8161205d565b9050919050565b6000602082019050818103600083015261241a81612080565b9050919050565b6000602082019050818103600083015261243a816120a3565b9050919050565b6000602082019050818103600083015261245a816120c6565b9050919050565b6000602082019050818103600083015261247a816120e9565b9050919050565b6000602082019050818103600083015261249a8161210c565b9050919050565b600060208201905081810360008301526124ba8161212f565b9050919050565b600060208201905081810360008301526124da81612152565b9050919050565b600060208201905081810360008301526124fa81612175565b9050919050565b6000602082019050818103600083015261251a81612198565b9050919050565b6000602082019050818103600083015261253a816121bb565b9050919050565b6000602082019050818103600083015261255a816121de565b9050919050565b6000602082019050818103600083015261257a81612201565b9050919050565b6000602082019050818103600083015261259a81612224565b9050919050565b600060208201905081810360008301526125ba81612247565b9050919050565b60006020820190506125d6600083018461226a565b92915050565b60006125e66125f7565b90506125f28282612818565b919050565b6000604051905090565b600067ffffffffffffffff82111561261c5761261b612950565b5b6126258261297f565b9050602081019050919050565b600081519050919050565b600081519050919050565b600082825260208201905092915050565b600082825260208201905092915050565b600081905092915050565b60006126808261279a565b915061268b8361279a565b9250827fffffffffffffffffffffffffffffffffffffffffffffffffffffffffffffffff038211156126c0576126bf6128c3565b5b828201905092915050565b60006126d68261279a565b91506126e18361279a565b9250826126f1576126f06128f2565b5b828204905092915050565b60006127078261279a565b91506127128361279a565b925082821015612725576127246128c3565b5b828203905092915050565b600061273b8261277a565b9050919050565b60008115159050919050565b60007fffffffff0000000000000000000000000000000000000000000000000000000082169050919050565b600073ffffffffffffffffffffffffffffffffffffffff82169050919050565b6000819050919050565b82818337600083830152505050565b60005b838110156127d15780820151818401526020810190506127b6565b838111156127e0576000848401525b50505050565b600060028204905060018216806127fe57607f821691505b6020821081141561281257612811612921565b5b50919050565b6128218261297f565b810181811067ffffffffffffffff821117156128405761283f612950565b5b80604052505050565b60006128548261279a565b91507fffffffffffffffffffffffffffffffffffffffffffffffffffffffffffffffff821415612887576128866128c3565b5b600182019050919050565b600061289d8261279a565b91506128a88361279a565b9250826128b8576128b76128f2565b5b828206905092915050565b7f4e487b7100000000000000000000000000000000000000000000000000000000600052601160045260246000fd5b7f4e487b7100000000000000000000000000000000000000000000000000000000600052601260045260246000fd5b7f4e487b7100000000000000000000000000000000000000000000000000000000600052602260045260246000fd5b7f4e487b7100000000000000000000000000000000000000000000000000000000600052604160045260246000fd5b6000601f19601f8301169050919050565b7f4552433732313a207472616e7366657220746f206e6f6e20455243373231526560008201527f63656976657220696d706c656d656e7465720000000000000000000000000000602082015250565b7f4552433732313a20746f6b656e20616c7265616479206d696e74656400000000600082015250565b7f4552433732313a207472616e7366657220746f20746865207a65726f2061646460008201527f7265737300000000000000000000000000000000000000000000000000000000602082015250565b7f4552433732313a20617070726f766520746f2063616c6c657200000000000000600082015250565b7f4552433732313a206f70657261746f7220717565727920666f72206e6f6e657860008201527f697374656e7420746f6b656e0000000000000000000000000000000000000000602082015250565b7f4552433732313a20617070726f76652063616c6c6572206973206e6f74206f7760008201527f6e6572206e6f7220617070726f76656420666f7220616c6c0000000000000000602082015250565b7f4552433732313a2062616c616e636520717565727920666f7220746865207a6560008201527f726f206164647265737300000000000000000000000000000000000000000000602082015250565b7f4552433732313a206f776e657220717565727920666f72206e6f6e657869737460008201527f656e7420746f6b656e0000000000000000000000000000000000000000000000602082015250565b7f4552433732313a206d696e7420746f20746865207a65726f2061646472657373600082015250565b7f4552433732313a20617070726f76656420717565727920666f72206e6f6e657860008201527f697374656e7420746f6b656e0000000000000000000000000000000000000000602082015250565b7f4572726f723a2065786365656473206d6178696d756d20737570706c79000000600082015250565b7f4552433732313a207472616e73666572206f6620746f6b656e2074686174206960008201527f73206e6f74206f776e0000000000000000000000000000000000000000000000602082015250565b7f4552433732314d657461646174613a2055524920717565727920666f72206e6f60008201527f6e6578697374656e7420746f6b656e0000000000000000000000000000000000602082015250565b7f4572726f723a206d75737420686176652061646d696e20726f6c650000000000600082015250565b7f4552433732313a20617070726f76616c20746f2063757272656e74206f776e6560008201527f7200000000000000000000000000000000000000000000000000000000000000602082015250565b7f5472616e73666572206661696c65642e00000000000000000000000000000000600082015250565b7f4552433732313a207472616e736665722063616c6c6572206973206e6f74206f60008201527f776e6572206e6f7220617070726f766564000000000000000000000000000000602082015250565b612df481612730565b8114612dff57600080fd5b50565b612e0b81612742565b8114612e1657600080fd5b50565b612e228161274e565b8114612e2d57600080fd5b50565b612e398161279a565b8114612e4457600080fd5b5056fea26469706673582212203738214eaf4a8ccdbb55d5ce519353706f976a9007565f3873546f6d6af4d5d364736f6c63430008040033",
  "linkReferences": {},
  "deployedLinkReferences": {}
}