{
  "_format": "hh-sol-artifact-1",
  "contractName": "Alpha",
  "sourceName": "contracts/Alpha.sol",
  "abi": [
    {
      "inputs": [
        {
          "internalType": "string",
          "name": "_name",
          "type": "string"
        },
        {
          "internalType": "string",
          "name": "_symbol",
          "type": "string"
        },
        {
          "internalType": "address",
          "name": "_erc20",
          "type": "address"
        },
        {
          "internalType": "uint256",
          "name": "_rate",
          "type": "uint256"
        }
      ],
      "stateMutability": "nonpayable",
      "type": "constructor"
    },
    {
      "anonymous": false,
      "inputs": [
        {
          "indexed": true,
          "internalType": "address",
          "name": "owner",
          "type": "address"
        },
        {
          "indexed": true,
          "internalType": "address",
          "name": "approved",
          "type": "address"
        },
        {
          "indexed": true,
          "internalType": "uint256",
          "name": "tokenId",
          "type": "uint256"
        }
      ],
      "name": "Approval",
      "type": "event"
    },
    {
      "anonymous": false,
      "inputs": [
        {
          "indexed": true,
          "internalType": "address",
          "name": "owner",
          "type": "address"
        },
        {
          "indexed": true,
          "internalType": "address",
          "name": "operator",
          "type": "address"
        },
        {
          "indexed": false,
          "internalType": "bool",
          "name": "approved",
          "type": "bool"
        }
      ],
      "name": "ApprovalForAll",
      "type": "event"
    },
    {
      "anonymous": false,
      "inputs": [
        {
          "indexed": true,
          "internalType": "address",
          "name": "from",
          "type": "address"
        },
        {
          "indexed": true,
          "internalType": "uint256",
          "name": "tokenId",
          "type": "uint256"
        }
      ],
      "name": "Burn",
      "type": "event"
    },
    {
      "anonymous": false,
      "inputs": [
        {
          "indexed": true,
          "internalType": "address",
          "name": "from",
          "type": "address"
        },
        {
          "indexed": true,
          "internalType": "uint256",
          "name": "tokenId",
          "type": "uint256"
        }
      ],
      "name": "Mint",
      "type": "event"
    },
    {
      "anonymous": false,
      "inputs": [
        {
          "indexed": true,
          "internalType": "address",
          "name": "from",
          "type": "address"
        },
        {
          "indexed": true,
          "internalType": "address",
          "name": "to",
          "type": "address"
        },
        {
          "indexed": true,
          "internalType": "uint256",
          "name": "tokenId",
          "type": "uint256"
        }
      ],
      "name": "Transfer",
      "type": "event"
    },
    {
      "inputs": [
        {
          "internalType": "address",
          "name": "to",
          "type": "address"
        },
        {
          "internalType": "uint256",
          "name": "tokenId",
          "type": "uint256"
        }
      ],
      "name": "approve",
      "outputs": [],
      "stateMutability": "nonpayable",
      "type": "function"
    },
    {
      "inputs": [
        {
          "internalType": "address",
          "name": "owner",
          "type": "address"
        }
      ],
      "name": "balanceOf",
      "outputs": [
        {
          "internalType": "uint256",
          "name": "",
          "type": "uint256"
        }
      ],
      "stateMutability": "view",
      "type": "function"
    },
    {
      "inputs": [
        {
          "internalType": "uint256",
          "name": "tokenId",
          "type": "uint256"
        }
      ],
      "name": "burn",
      "outputs": [],
      "stateMutability": "nonpayable",
      "type": "function"
    },
    {
      "inputs": [],
      "name": "erc20",
      "outputs": [
        {
          "internalType": "address",
          "name": "",
          "type": "address"
        }
      ],
      "stateMutability": "view",
      "type": "function"
    },
    {
      "inputs": [
        {
          "internalType": "uint256",
          "name": "tokenId",
          "type": "uint256"
        }
      ],
      "name": "getApproved",
      "outputs": [
        {
          "internalType": "address",
          "name": "",
          "type": "address"
        }
      ],
      "stateMutability": "view",
      "type": "function"
    },
    {
      "inputs": [
        {
          "internalType": "address",
          "name": "owner",
          "type": "address"
        },
        {
          "internalType": "address",
          "name": "operator",
          "type": "address"
        }
      ],
      "name": "isApprovedForAll",
      "outputs": [
        {
          "internalType": "bool",
          "name": "",
          "type": "bool"
        }
      ],
      "stateMutability": "view",
      "type": "function"
    },
    {
      "inputs": [],
      "name": "mint",
      "outputs": [
        {
          "internalType": "uint256",
          "name": "tokenId",
          "type": "uint256"
        }
      ],
      "stateMutability": "nonpayable",
      "type": "function"
    },
    {
      "inputs": [],
      "name": "name",
      "outputs": [
        {
          "internalType": "string",
          "name": "",
          "type": "string"
        }
      ],
      "stateMutability": "view",
      "type": "function"
    },
    {
      "inputs": [
        {
          "internalType": "uint256",
          "name": "tokenId",
          "type": "uint256"
        }
      ],
      "name": "ownerOf",
      "outputs": [
        {
          "internalType": "address",
          "name": "",
          "type": "address"
        }
      ],
      "stateMutability": "view",
      "type": "function"
    },
    {
      "inputs": [],
      "name": "rate",
      "outputs": [
        {
          "internalType": "uint256",
          "name": "",
          "type": "uint256"
        }
      ],
      "stateMutability": "view",
      "type": "function"
    },
    {
      "inputs": [
        {
          "internalType": "address",
          "name": "from",
          "type": "address"
        },
        {
          "internalType": "address",
          "name": "to",
          "type": "address"
        },
        {
          "internalType": "uint256",
          "name": "tokenId",
          "type": "uint256"
        }
      ],
      "name": "safeTransferFrom",
      "outputs": [],
      "stateMutability": "nonpayable",
      "type": "function"
    },
    {
      "inputs": [
        {
          "internalType": "address",
          "name": "from",
          "type": "address"
        },
        {
          "internalType": "address",
          "name": "to",
          "type": "address"
        },
        {
          "internalType": "uint256",
          "name": "tokenId",
          "type": "uint256"
        },
        {
          "internalType": "bytes",
          "name": "_data",
          "type": "bytes"
        }
      ],
      "name": "safeTransferFrom",
      "outputs": [],
      "stateMutability": "nonpayable",
      "type": "function"
    },
    {
      "inputs": [
        {
          "internalType": "address",
          "name": "operator",
          "type": "address"
        },
        {
          "internalType": "bool",
          "name": "approved",
          "type": "bool"
        }
      ],
      "name": "setApprovalForAll",
      "outputs": [],
      "stateMutability": "nonpayable",
      "type": "function"
    },
    {
      "inputs": [
        {
          "internalType": "bytes4",
          "name": "interfaceId",
          "type": "bytes4"
        }
      ],
      "name": "supportsInterface",
      "outputs": [
        {
          "internalType": "bool",
          "name": "",
          "type": "bool"
        }
      ],
      "stateMutability": "view",
      "type": "function"
    },
    {
      "inputs": [],
      "name": "symbol",
      "outputs": [
        {
          "internalType": "string",
          "name": "",
          "type": "string"
        }
      ],
      "stateMutability": "view",
      "type": "function"
    },
    {
      "inputs": [
        {
          "internalType": "uint256",
          "name": "tokenId",
          "type": "uint256"
        }
      ],
      "name": "tokenURI",
      "outputs": [
        {
          "internalType": "string",
          "name": "",
          "type": "string"
        }
      ],
      "stateMutability": "view",
      "type": "function"
    },
    {
      "inputs": [
        {
          "internalType": "address",
          "name": "from",
          "type": "address"
        },
        {
          "internalType": "address",
          "name": "to",
          "type": "address"
        },
        {
          "internalType": "uint256",
          "name": "tokenId",
          "type": "uint256"
        }
      ],
      "name": "transferFrom",
      "outputs": [],
      "stateMutability": "nonpayable",
      "type": "function"
    }
  ],
  "bytecode": "0x60806040526040518060200160405280600181525060086000820151816000015550503480156200002f57600080fd5b50604051620033103803806200331083398181016040528101906200005591906200022d565b838381600090805190602001906200006f929190620000dd565b50806001908051906020019062000088929190620000dd565b50505081600660006101000a81548173ffffffffffffffffffffffffffffffffffffffff021916908373ffffffffffffffffffffffffffffffffffffffff1602179055508060078190555050505050620004ad565b828054620000eb906200039e565b90600052602060002090601f0160209004810192826200010f57600085556200015b565b82601f106200012a57805160ff19168380011785556200015b565b828001600101855582156200015b579182015b828111156200015a5782518255916020019190600101906200013d565b5b5090506200016a91906200016e565b5090565b5b80821115620001895760008160009055506001016200016f565b5090565b6000620001a46200019e84620002f4565b620002cb565b905082815260208101848484011115620001bd57600080fd5b620001ca84828562000368565b509392505050565b600081519050620001e38162000479565b92915050565b600082601f830112620001fb57600080fd5b81516200020d8482602086016200018d565b91505092915050565b600081519050620002278162000493565b92915050565b600080600080608085870312156200024457600080fd5b600085015167ffffffffffffffff8111156200025f57600080fd5b6200026d87828801620001e9565b945050602085015167ffffffffffffffff8111156200028b57600080fd5b6200029987828801620001e9565b9350506040620002ac87828801620001d2565b9250506060620002bf8782880162000216565b91505092959194509250565b6000620002d7620002ea565b9050620002e58282620003d4565b919050565b6000604051905090565b600067ffffffffffffffff82111562000312576200031162000439565b5b6200031d8262000468565b9050602081019050919050565b600062000337826200033e565b9050919050565b600073ffffffffffffffffffffffffffffffffffffffff82169050919050565b6000819050919050565b60005b83811015620003885780820151818401526020810190506200036b565b8381111562000398576000848401525b50505050565b60006002820490506001821680620003b757607f821691505b60208210811415620003ce57620003cd6200040a565b5b50919050565b620003df8262000468565b810181811067ffffffffffffffff8211171562000401576200040062000439565b5b80604052505050565b7f4e487b7100000000000000000000000000000000000000000000000000000000600052602260045260246000fd5b7f4e487b7100000000000000000000000000000000000000000000000000000000600052604160045260246000fd5b6000601f19601f8301169050919050565b62000484816200032a565b81146200049057600080fd5b50565b6200049e816200035e565b8114620004aa57600080fd5b50565b612e5380620004bd6000396000f3fe608060405234801561001057600080fd5b506004361061010b5760003560e01c806342966c68116100a257806395d89b411161007157806395d89b41146102b8578063a22cb465146102d6578063b88d4fde146102f2578063c87b56dd1461030e578063e985e9c51461033e5761010b565b806342966c681461021e5780636352211e1461023a57806370a082311461026a578063785e9e861461029a5761010b565b80631249c58b116100de5780631249c58b146101aa57806323b872dd146101c85780632c4e722e146101e457806342842e0e146102025761010b565b806301ffc9a71461011057806306fdde0314610140578063081812fc1461015e578063095ea7b31461018e575b600080fd5b61012a60048036038101906101259190611f1d565b61036e565b6040516101379190612383565b60405180910390f35b610148610380565b604051610155919061239e565b60405180910390f35b61017860048036038101906101739190611f6f565b610412565b60405161018591906122bc565b60405180910390f35b6101a860048036038101906101a39190611eb8565b610497565b005b6101b26105af565b6040516101bf91906125c0565b60405180910390f35b6101e260048036038101906101dd9190611db2565b6107b4565b005b6101ec610814565b6040516101f991906125c0565b60405180910390f35b61021c60048036038101906102179190611db2565b61081a565b005b61023860048036038101906102339190611f6f565b61083a565b005b610254600480360381019061024f9190611f6f565b610a29565b60405161026191906122bc565b60405180910390f35b610284600480360381019061027f9190611d4d565b610adb565b60405161029191906125c0565b60405180910390f35b6102a2610b93565b6040516102af91906122bc565b60405180910390f35b6102c0610bb9565b6040516102cd919061239e565b60405180910390f35b6102f060048036038101906102eb9190611e7c565b610c4b565b005b61030c60048036038101906103079190611e01565b610dcc565b005b61032860048036038101906103239190611f6f565b610e2e565b604051610335919061239e565b60405180910390f35b61035860048036038101906103539190611d76565b610ed5565b6040516103659190612383565b60405180910390f35b600061037982610f69565b9050919050565b60606000805461038f906127e5565b80601f01602080910402602001604051908101604052809291908181526020018280546103bb906127e5565b80156104085780601f106103dd57610100808354040283529160200191610408565b820191906000526020600020905b8154815290600101906020018083116103eb57829003601f168201915b5050505050905090565b600061041d8261104b565b61045c576040517f08c379a000000000000000000000000000000000000000000000000000000000815260040161045390612520565b60405180910390fd5b6004600083815260200190815260200160002060009054906101000a900473ffffffffffffffffffffffffffffffffffffffff169050919050565b60006104a282610a29565b90508073ffffffffffffffffffffffffffffffffffffffff168373ffffffffffffffffffffffffffffffffffffffff161415610513576040517f08c379a000000000000000000000000000000000000000000000000000000000815260040161050a90612580565b60405180910390fd5b8073ffffffffffffffffffffffffffffffffffffffff166105326110b7565b73ffffffffffffffffffffffffffffffffffffffff16148061056157506105608161055b6110b7565b610ed5565b5b6105a0576040517f08c379a0000000000000000000000000000000000000000000000000000000008152600401610597906124a0565b60405180910390fd5b6105aa83836110bf565b505050565b600080600960006105be6110b7565b73ffffffffffffffffffffffffffffffffffffffff1673ffffffffffffffffffffffffffffffffffffffff1681526020019081526020016000205414610639576040517f08c379a000000000000000000000000000000000000000000000000000000000815260040161063090612480565b60405180910390fd5b6106436008611178565b9050600660009054906101000a900473ffffffffffffffffffffffffffffffffffffffff1673ffffffffffffffffffffffffffffffffffffffff166323b872dd61068b6110b7565b306007546040518463ffffffff1660e01b81526004016106ad939291906122d7565b602060405180830381600087803b1580156106c757600080fd5b505af11580156106db573d6000803e3d6000fd5b505050506040513d601f19601f820116820180604052508101906106ff9190611ef4565b5061071161070b6110b7565b82611186565b806009600061071e6110b7565b73ffffffffffffffffffffffffffffffffffffffff1673ffffffffffffffffffffffffffffffffffffffff16815260200190815260200160002081905550806107656110b7565b73ffffffffffffffffffffffffffffffffffffffff167f0f6798a560793a54c3bcfe86a93cde1e73087d944c0ea20544137d412139688560405160405180910390a36107b160086111a4565b90565b6107c56107bf6110b7565b826111ba565b610804576040517f08c379a00000000000000000000000000000000000000000000000000000000081526004016107fb906125a0565b60405180910390fd5b61080f838383611298565b505050565b60075481565b61083583838360405180602001604052806000815250610dcc565b505050565b600081141580156108905750600960006108526110b7565b73ffffffffffffffffffffffffffffffffffffffff1673ffffffffffffffffffffffffffffffffffffffff1681526020019081526020016000205481145b6108cf576040517f08c379a00000000000000000000000000000000000000000000000000000000081526004016108c6906123c0565b60405180910390fd5b600960006108db6110b7565b73ffffffffffffffffffffffffffffffffffffffff1673ffffffffffffffffffffffffffffffffffffffff16815260200190815260200160002060009055610922816114f4565b600660009054906101000a900473ffffffffffffffffffffffffffffffffffffffff1673ffffffffffffffffffffffffffffffffffffffff1663a9059cbb6109686110b7565b6007546040518363ffffffff1660e01b815260040161098892919061235a565b602060405180830381600087803b1580156109a257600080fd5b505af11580156109b6573d6000803e3d6000fd5b505050506040513d601f19601f820116820180604052508101906109da9190611ef4565b50806109e46110b7565b73ffffffffffffffffffffffffffffffffffffffff167fcc16f5dbb4873280815c1ee09dbd06736cffcc184412cf7a71a0fdb75d397ca560405160405180910390a350565b6000806002600084815260200190815260200160002060009054906101000a900473ffffffffffffffffffffffffffffffffffffffff169050600073ffffffffffffffffffffffffffffffffffffffff168173ffffffffffffffffffffffffffffffffffffffff161415610ad2576040517f08c379a0000000000000000000000000000000000000000000000000000000008152600401610ac9906124e0565b60405180910390fd5b80915050919050565b60008073ffffffffffffffffffffffffffffffffffffffff168273ffffffffffffffffffffffffffffffffffffffff161415610b4c576040517f08c379a0000000000000000000000000000000000000000000000000000000008152600401610b43906124c0565b60405180910390fd5b600360008373ffffffffffffffffffffffffffffffffffffffff1673ffffffffffffffffffffffffffffffffffffffff168152602001908152602001600020549050919050565b600660009054906101000a900473ffffffffffffffffffffffffffffffffffffffff1681565b606060018054610bc8906127e5565b80601f0160208091040260200160405190810160405280929190818152602001828054610bf4906127e5565b8015610c415780601f10610c1657610100808354040283529160200191610c41565b820191906000526020600020905b815481529060010190602001808311610c2457829003601f168201915b5050505050905090565b610c536110b7565b73ffffffffffffffffffffffffffffffffffffffff168273ffffffffffffffffffffffffffffffffffffffff161415610cc1576040517f08c379a0000000000000000000000000000000000000000000000000000000008152600401610cb890612440565b60405180910390fd5b8060056000610cce6110b7565b73ffffffffffffffffffffffffffffffffffffffff1673ffffffffffffffffffffffffffffffffffffffff16815260200190815260200160002060008473ffffffffffffffffffffffffffffffffffffffff1673ffffffffffffffffffffffffffffffffffffffff16815260200190815260200160002060006101000a81548160ff0219169083151502179055508173ffffffffffffffffffffffffffffffffffffffff16610d7b6110b7565b73ffffffffffffffffffffffffffffffffffffffff167f17307eab39ab6107e8899845ad3d59bd9653f200f220920489ca2b5937696c3183604051610dc09190612383565b60405180910390a35050565b610ddd610dd76110b7565b836111ba565b610e1c576040517f08c379a0000000000000000000000000000000000000000000000000000000008152600401610e13906125a0565b60405180910390fd5b610e2884848484611605565b50505050565b6060610e398261104b565b610e78576040517f08c379a0000000000000000000000000000000000000000000000000000000008152600401610e6f90612560565b60405180910390fd5b6000610e82611661565b90506000815111610ea25760405180602001604052806000815250610ecd565b80610eac84611678565b604051602001610ebd929190612298565b6040516020818303038152906040525b915050919050565b6000600560008473ffffffffffffffffffffffffffffffffffffffff1673ffffffffffffffffffffffffffffffffffffffff16815260200190815260200160002060008373ffffffffffffffffffffffffffffffffffffffff1673ffffffffffffffffffffffffffffffffffffffff16815260200190815260200160002060009054906101000a900460ff16905092915050565b60007f80ac58cd000000000000000000000000000000000000000000000000000000007bffffffffffffffffffffffffffffffffffffffffffffffffffffffff1916827bffffffffffffffffffffffffffffffffffffffffffffffffffffffff1916148061103457507f5b5e139f000000000000000000000000000000000000000000000000000000007bffffffffffffffffffffffffffffffffffffffffffffffffffffffff1916827bffffffffffffffffffffffffffffffffffffffffffffffffffffffff1916145b80611044575061104382611825565b5b9050919050565b60008073ffffffffffffffffffffffffffffffffffffffff166002600084815260200190815260200160002060009054906101000a900473ffffffffffffffffffffffffffffffffffffffff1673ffffffffffffffffffffffffffffffffffffffff1614159050919050565b600033905090565b816004600083815260200190815260200160002060006101000a81548173ffffffffffffffffffffffffffffffffffffffff021916908373ffffffffffffffffffffffffffffffffffffffff160217905550808273ffffffffffffffffffffffffffffffffffffffff1661113283610a29565b73ffffffffffffffffffffffffffffffffffffffff167f8c5be1e5ebec7d5bd14f71427d1e84f3dd0314c0f7b2291e5b200ac8c7c3b92560405160405180910390a45050565b600081600001549050919050565b6111a082826040518060200160405280600081525061188f565b5050565b6001816000016000828254019250508190555050565b60006111c58261104b565b611204576040517f08c379a00000000000000000000000000000000000000000000000000000000081526004016111fb90612460565b60405180910390fd5b600061120f83610a29565b90508073ffffffffffffffffffffffffffffffffffffffff168473ffffffffffffffffffffffffffffffffffffffff16148061127e57508373ffffffffffffffffffffffffffffffffffffffff1661126684610412565b73ffffffffffffffffffffffffffffffffffffffff16145b8061128f575061128e8185610ed5565b5b91505092915050565b8273ffffffffffffffffffffffffffffffffffffffff166112b882610a29565b73ffffffffffffffffffffffffffffffffffffffff161461130e576040517f08c379a000000000000000000000000000000000000000000000000000000000815260040161130590612540565b60405180910390fd5b600073ffffffffffffffffffffffffffffffffffffffff168273ffffffffffffffffffffffffffffffffffffffff16141561137e576040517f08c379a000000000000000000000000000000000000000000000000000000000815260040161137590612420565b60405180910390fd5b6113898383836118ea565b6113946000826110bf565b6001600360008573ffffffffffffffffffffffffffffffffffffffff1673ffffffffffffffffffffffffffffffffffffffff16815260200190815260200160002060008282546113e491906126fb565b925050819055506001600360008473ffffffffffffffffffffffffffffffffffffffff1673ffffffffffffffffffffffffffffffffffffffff168152602001908152602001600020600082825461143b9190612674565b92505081905550816002600083815260200190815260200160002060006101000a81548173ffffffffffffffffffffffffffffffffffffffff021916908373ffffffffffffffffffffffffffffffffffffffff160217905550808273ffffffffffffffffffffffffffffffffffffffff168473ffffffffffffffffffffffffffffffffffffffff167fddf252ad1be2c89b69c2b068fc378daa952ba7f163c4a11628f55a4df523b3ef60405160405180910390a4505050565b60006114ff82610a29565b905061150d816000846118ea565b6115186000836110bf565b6001600360008373ffffffffffffffffffffffffffffffffffffffff1673ffffffffffffffffffffffffffffffffffffffff168152602001908152602001600020600082825461156891906126fb565b925050819055506002600083815260200190815260200160002060006101000a81549073ffffffffffffffffffffffffffffffffffffffff021916905581600073ffffffffffffffffffffffffffffffffffffffff168273ffffffffffffffffffffffffffffffffffffffff167fddf252ad1be2c89b69c2b068fc378daa952ba7f163c4a11628f55a4df523b3ef60405160405180910390a45050565b611610848484611298565b61161c848484846118ef565b61165b576040517f08c379a0000000000000000000000000000000000000000000000000000000008152600401611652906123e0565b60405180910390fd5b50505050565b606060405180602001604052806000815250905090565b606060008214156116c0576040518060400160405280600181526020017f30000000000000000000000000000000000000000000000000000000000000008152509050611820565b600082905060005b600082146116f25780806116db90612848565b915050600a826116eb91906126ca565b91506116c8565b60008167ffffffffffffffff811115611734577f4e487b7100000000000000000000000000000000000000000000000000000000600052604160045260246000fd5b6040519080825280601f01601f1916602001820160405280156117665781602001600182028036833780820191505090505b5090505b600085146118195760018261177f91906126fb565b9150600a8561178e9190612891565b603061179a9190612674565b60f81b8183815181106117d6577f4e487b7100000000000000000000000000000000000000000000000000000000600052603260045260246000fd5b60200101907effffffffffffffffffffffffffffffffffffffffffffffffffffffffffffff1916908160001a905350600a8561181291906126ca565b945061176a565b8093505050505b919050565b60007f01ffc9a7000000000000000000000000000000000000000000000000000000007bffffffffffffffffffffffffffffffffffffffffffffffffffffffff1916827bffffffffffffffffffffffffffffffffffffffffffffffffffffffff1916149050919050565b6118998383611a86565b6118a660008484846118ef565b6118e5576040517f08c379a00000000000000000000000000000000000000000000000000000000081526004016118dc906123e0565b60405180910390fd5b505050565b505050565b60006119108473ffffffffffffffffffffffffffffffffffffffff16611c54565b15611a79578373ffffffffffffffffffffffffffffffffffffffff1663150b7a026119396110b7565b8786866040518563ffffffff1660e01b815260040161195b949392919061230e565b602060405180830381600087803b15801561197557600080fd5b505af19250505080156119a657506040513d601f19601f820116820180604052508101906119a39190611f46565b60015b611a29573d80600081146119d6576040519150601f19603f3d011682016040523d82523d6000602084013e6119db565b606091505b50600081511415611a21576040517f08c379a0000000000000000000000000000000000000000000000000000000008152600401611a18906123e0565b60405180910390fd5b805181602001fd5b63150b7a0260e01b7bffffffffffffffffffffffffffffffffffffffffffffffffffffffff1916817bffffffffffffffffffffffffffffffffffffffffffffffffffffffff191614915050611a7e565b600190505b949350505050565b600073ffffffffffffffffffffffffffffffffffffffff168273ffffffffffffffffffffffffffffffffffffffff161415611af6576040517f08c379a0000000000000000000000000000000000000000000000000000000008152600401611aed90612500565b60405180910390fd5b611aff8161104b565b15611b3f576040517f08c379a0000000000000000000000000000000000000000000000000000000008152600401611b3690612400565b60405180910390fd5b611b4b600083836118ea565b6001600360008473ffffffffffffffffffffffffffffffffffffffff1673ffffffffffffffffffffffffffffffffffffffff1681526020019081526020016000206000828254611b9b9190612674565b92505081905550816002600083815260200190815260200160002060006101000a81548173ffffffffffffffffffffffffffffffffffffffff021916908373ffffffffffffffffffffffffffffffffffffffff160217905550808273ffffffffffffffffffffffffffffffffffffffff16600073ffffffffffffffffffffffffffffffffffffffff167fddf252ad1be2c89b69c2b068fc378daa952ba7f163c4a11628f55a4df523b3ef60405160405180910390a45050565b600080823b905060008111915050919050565b6000611c7a611c7584612600565b6125db565b905082815260208101848484011115611c9257600080fd5b611c9d8482856127a3565b509392505050565b600081359050611cb481612dc1565b92915050565b600081359050611cc981612dd8565b92915050565b600081519050611cde81612dd8565b92915050565b600081359050611cf381612def565b92915050565b600081519050611d0881612def565b92915050565b600082601f830112611d1f57600080fd5b8135611d2f848260208601611c67565b91505092915050565b600081359050611d4781612e06565b92915050565b600060208284031215611d5f57600080fd5b6000611d6d84828501611ca5565b91505092915050565b60008060408385031215611d8957600080fd5b6000611d9785828601611ca5565b9250506020611da885828601611ca5565b9150509250929050565b600080600060608486031215611dc757600080fd5b6000611dd586828701611ca5565b9350506020611de686828701611ca5565b9250506040611df786828701611d38565b9150509250925092565b60008060008060808587031215611e1757600080fd5b6000611e2587828801611ca5565b9450506020611e3687828801611ca5565b9350506040611e4787828801611d38565b925050606085013567ffffffffffffffff811115611e6457600080fd5b611e7087828801611d0e565b91505092959194509250565b60008060408385031215611e8f57600080fd5b6000611e9d85828601611ca5565b9250506020611eae85828601611cba565b9150509250929050565b60008060408385031215611ecb57600080fd5b6000611ed985828601611ca5565b9250506020611eea85828601611d38565b9150509250929050565b600060208284031215611f0657600080fd5b6000611f1484828501611ccf565b91505092915050565b600060208284031215611f2f57600080fd5b6000611f3d84828501611ce4565b91505092915050565b600060208284031215611f5857600080fd5b6000611f6684828501611cf9565b91505092915050565b600060208284031215611f8157600080fd5b6000611f8f84828501611d38565b91505092915050565b611fa18161272f565b82525050565b611fb081612741565b82525050565b6000611fc182612631565b611fcb8185612647565b9350611fdb8185602086016127b2565b611fe48161297e565b840191505092915050565b6000611ffa8261263c565b6120048185612658565b93506120148185602086016127b2565b61201d8161297e565b840191505092915050565b60006120338261263c565b61203d8185612669565b935061204d8185602086016127b2565b80840191505092915050565b6000612066601b83612658565b91506120718261298f565b602082019050919050565b6000612089603283612658565b9150612094826129b8565b604082019050919050565b60006120ac601c83612658565b91506120b782612a07565b602082019050919050565b60006120cf602483612658565b91506120da82612a30565b604082019050919050565b60006120f2601983612658565b91506120fd82612a7f565b602082019050919050565b6000612115602c83612658565b915061212082612aa8565b604082019050919050565b6000612138601d83612658565b915061214382612af7565b602082019050919050565b600061215b603883612658565b915061216682612b20565b604082019050919050565b600061217e602a83612658565b915061218982612b6f565b604082019050919050565b60006121a1602983612658565b91506121ac82612bbe565b604082019050919050565b60006121c4602083612658565b91506121cf82612c0d565b602082019050919050565b60006121e7602c83612658565b91506121f282612c36565b604082019050919050565b600061220a602983612658565b915061221582612c85565b604082019050919050565b600061222d602f83612658565b915061223882612cd4565b604082019050919050565b6000612250602183612658565b915061225b82612d23565b604082019050919050565b6000612273603183612658565b915061227e82612d72565b604082019050919050565b61229281612799565b82525050565b60006122a48285612028565b91506122b08284612028565b91508190509392505050565b60006020820190506122d16000830184611f98565b92915050565b60006060820190506122ec6000830186611f98565b6122f96020830185611f98565b6123066040830184612289565b949350505050565b60006080820190506123236000830187611f98565b6123306020830186611f98565b61233d6040830185612289565b818103606083015261234f8184611fb6565b905095945050505050565b600060408201905061236f6000830185611f98565b61237c6020830184612289565b9392505050565b60006020820190506123986000830184611fa7565b92915050565b600060208201905081810360008301526123b88184611fef565b905092915050565b600060208201905081810360008301526123d981612059565b9050919050565b600060208201905081810360008301526123f98161207c565b9050919050565b600060208201905081810360008301526124198161209f565b9050919050565b60006020820190508181036000830152612439816120c2565b9050919050565b60006020820190508181036000830152612459816120e5565b9050919050565b6000602082019050818103600083015261247981612108565b9050919050565b600060208201905081810360008301526124998161212b565b9050919050565b600060208201905081810360008301526124b98161214e565b9050919050565b600060208201905081810360008301526124d981612171565b9050919050565b600060208201905081810360008301526124f981612194565b9050919050565b60006020820190508181036000830152612519816121b7565b9050919050565b60006020820190508181036000830152612539816121da565b9050919050565b60006020820190508181036000830152612559816121fd565b9050919050565b6000602082019050818103600083015261257981612220565b9050919050565b6000602082019050818103600083015261259981612243565b9050919050565b600060208201905081810360008301526125b981612266565b9050919050565b60006020820190506125d56000830184612289565b92915050565b60006125e56125f6565b90506125f18282612817565b919050565b6000604051905090565b600067ffffffffffffffff82111561261b5761261a61294f565b5b6126248261297e565b9050602081019050919050565b600081519050919050565b600081519050919050565b600082825260208201905092915050565b600082825260208201905092915050565b600081905092915050565b600061267f82612799565b915061268a83612799565b9250827fffffffffffffffffffffffffffffffffffffffffffffffffffffffffffffffff038211156126bf576126be6128c2565b5b828201905092915050565b60006126d582612799565b91506126e083612799565b9250826126f0576126ef6128f1565b5b828204905092915050565b600061270682612799565b915061271183612799565b925082821015612724576127236128c2565b5b828203905092915050565b600061273a82612779565b9050919050565b60008115159050919050565b60007fffffffff0000000000000000000000000000000000000000000000000000000082169050919050565b600073ffffffffffffffffffffffffffffffffffffffff82169050919050565b6000819050919050565b82818337600083830152505050565b60005b838110156127d05780820151818401526020810190506127b5565b838111156127df576000848401525b50505050565b600060028204905060018216806127fd57607f821691505b6020821081141561281157612810612920565b5b50919050565b6128208261297e565b810181811067ffffffffffffffff8211171561283f5761283e61294f565b5b80604052505050565b600061285382612799565b91507fffffffffffffffffffffffffffffffffffffffffffffffffffffffffffffffff821415612886576128856128c2565b5b600182019050919050565b600061289c82612799565b91506128a783612799565b9250826128b7576128b66128f1565b5b828206905092915050565b7f4e487b7100000000000000000000000000000000000000000000000000000000600052601160045260246000fd5b7f4e487b7100000000000000000000000000000000000000000000000000000000600052601260045260246000fd5b7f4e487b7100000000000000000000000000000000000000000000000000000000600052602260045260246000fd5b7f4e487b7100000000000000000000000000000000000000000000000000000000600052604160045260246000fd5b6000601f19601f8301169050919050565b7f416c7068613a2073656e646572206973206e6f7420686f6c6465720000000000600082015250565b7f4552433732313a207472616e7366657220746f206e6f6e20455243373231526560008201527f63656976657220696d706c656d656e7465720000000000000000000000000000602082015250565b7f4552433732313a20746f6b656e20616c7265616479206d696e74656400000000600082015250565b7f4552433732313a207472616e7366657220746f20746865207a65726f2061646460008201527f7265737300000000000000000000000000000000000000000000000000000000602082015250565b7f4552433732313a20617070726f766520746f2063616c6c657200000000000000600082015250565b7f4552433732313a206f70657261746f7220717565727920666f72206e6f6e657860008201527f697374656e7420746f6b656e0000000000000000000000000000000000000000602082015250565b7f416c7068613a2073656e64657220686173206265656e20686f6c646572000000600082015250565b7f4552433732313a20617070726f76652063616c6c6572206973206e6f74206f7760008201527f6e6572206e6f7220617070726f76656420666f7220616c6c0000000000000000602082015250565b7f4552433732313a2062616c616e636520717565727920666f7220746865207a6560008201527f726f206164647265737300000000000000000000000000000000000000000000602082015250565b7f4552433732313a206f776e657220717565727920666f72206e6f6e657869737460008201527f656e7420746f6b656e0000000000000000000000000000000000000000000000602082015250565b7f4552433732313a206d696e7420746f20746865207a65726f2061646472657373600082015250565b7f4552433732313a20617070726f76656420717565727920666f72206e6f6e657860008201527f697374656e7420746f6b656e0000000000000000000000000000000000000000602082015250565b7f4552433732313a207472616e73666572206f6620746f6b656e2074686174206960008201527f73206e6f74206f776e0000000000000000000000000000000000000000000000602082015250565b7f4552433732314d657461646174613a2055524920717565727920666f72206e6f60008201527f6e6578697374656e7420746f6b656e0000000000000000000000000000000000602082015250565b7f4552433732313a20617070726f76616c20746f2063757272656e74206f776e6560008201527f7200000000000000000000000000000000000000000000000000000000000000602082015250565b7f4552433732313a207472616e736665722063616c6c6572206973206e6f74206f60008201527f776e6572206e6f7220617070726f766564000000000000000000000000000000602082015250565b612dca8161272f565b8114612dd557600080fd5b50565b612de181612741565b8114612dec57600080fd5b50565b612df88161274d565b8114612e0357600080fd5b50565b612e0f81612799565b8114612e1a57600080fd5b5056fea264697066735822122013564369b46c87f135e0e3a802eaba4d22d68da8f24e873fe7e080554c275d2c64736f6c63430008040033",
  "linkReferences": {},
  "deployedLinkReferences": {}
}