{
  "_format": "hh-sol-artifact-1",
  "contractName": "Alpha",
  "sourceName": "contracts/Alpha.sol",
  "abi": [
    {
      "inputs": [
        {
          "internalType": "string",
          "name": "_name",
          "type": "string"
        },
        {
          "internalType": "string",
          "name": "_symbol",
          "type": "string"
        },
        {
          "internalType": "string",
          "name": "_bURI",
          "type": "string"
        },
        {
          "internalType": "address",
          "name": "_erc20",
          "type": "address"
        },
        {
          "internalType": "uint256",
          "name": "_rate",
          "type": "uint256"
        }
      ],
      "stateMutability": "nonpayable",
      "type": "constructor"
    },
    {
      "anonymous": false,
      "inputs": [
        {
          "indexed": true,
          "internalType": "address",
          "name": "owner",
          "type": "address"
        },
        {
          "indexed": true,
          "internalType": "address",
          "name": "approved",
          "type": "address"
        },
        {
          "indexed": true,
          "internalType": "uint256",
          "name": "tokenId",
          "type": "uint256"
        }
      ],
      "name": "Approval",
      "type": "event"
    },
    {
      "anonymous": false,
      "inputs": [
        {
          "indexed": true,
          "internalType": "address",
          "name": "owner",
          "type": "address"
        },
        {
          "indexed": true,
          "internalType": "address",
          "name": "operator",
          "type": "address"
        },
        {
          "indexed": false,
          "internalType": "bool",
          "name": "approved",
          "type": "bool"
        }
      ],
      "name": "ApprovalForAll",
      "type": "event"
    },
    {
      "anonymous": false,
      "inputs": [
        {
          "indexed": true,
          "internalType": "address",
          "name": "from",
          "type": "address"
        },
        {
          "indexed": true,
          "internalType": "uint256",
          "name": "tokenId",
          "type": "uint256"
        }
      ],
      "name": "Burn",
      "type": "event"
    },
    {
      "anonymous": false,
      "inputs": [
        {
          "indexed": true,
          "internalType": "address",
          "name": "from",
          "type": "address"
        },
        {
          "indexed": true,
          "internalType": "uint256",
          "name": "tokenId",
          "type": "uint256"
        }
      ],
      "name": "Mint",
      "type": "event"
    },
    {
      "anonymous": false,
      "inputs": [
        {
          "indexed": true,
          "internalType": "address",
          "name": "previousOwner",
          "type": "address"
        },
        {
          "indexed": true,
          "internalType": "address",
          "name": "newOwner",
          "type": "address"
        }
      ],
      "name": "OwnershipTransferred",
      "type": "event"
    },
    {
      "anonymous": false,
      "inputs": [
        {
          "indexed": true,
          "internalType": "address",
          "name": "from",
          "type": "address"
        },
        {
          "indexed": true,
          "internalType": "address",
          "name": "to",
          "type": "address"
        },
        {
          "indexed": true,
          "internalType": "uint256",
          "name": "tokenId",
          "type": "uint256"
        }
      ],
      "name": "Transfer",
      "type": "event"
    },
    {
      "inputs": [
        {
          "internalType": "address",
          "name": "to",
          "type": "address"
        },
        {
          "internalType": "uint256",
          "name": "tokenId",
          "type": "uint256"
        }
      ],
      "name": "approve",
      "outputs": [],
      "stateMutability": "nonpayable",
      "type": "function"
    },
    {
      "inputs": [
        {
          "internalType": "address",
          "name": "owner",
          "type": "address"
        }
      ],
      "name": "balanceOf",
      "outputs": [
        {
          "internalType": "uint256",
          "name": "",
          "type": "uint256"
        }
      ],
      "stateMutability": "view",
      "type": "function"
    },
    {
      "inputs": [
        {
          "internalType": "uint256",
          "name": "tokenId",
          "type": "uint256"
        }
      ],
      "name": "burn",
      "outputs": [],
      "stateMutability": "nonpayable",
      "type": "function"
    },
    {
      "inputs": [],
      "name": "currentowner",
      "outputs": [
        {
          "internalType": "address",
          "name": "",
          "type": "address"
        }
      ],
      "stateMutability": "view",
      "type": "function"
    },
    {
      "inputs": [],
      "name": "erc20",
      "outputs": [
        {
          "internalType": "address",
          "name": "",
          "type": "address"
        }
      ],
      "stateMutability": "view",
      "type": "function"
    },
    {
      "inputs": [
        {
          "internalType": "uint256",
          "name": "tokenId",
          "type": "uint256"
        }
      ],
      "name": "getApproved",
      "outputs": [
        {
          "internalType": "address",
          "name": "",
          "type": "address"
        }
      ],
      "stateMutability": "view",
      "type": "function"
    },
    {
      "inputs": [
        {
          "internalType": "address",
          "name": "owner",
          "type": "address"
        },
        {
          "internalType": "address",
          "name": "operator",
          "type": "address"
        }
      ],
      "name": "isApprovedForAll",
      "outputs": [
        {
          "internalType": "bool",
          "name": "",
          "type": "bool"
        }
      ],
      "stateMutability": "view",
      "type": "function"
    },
    {
      "inputs": [],
      "name": "mint",
      "outputs": [
        {
          "internalType": "uint256",
          "name": "tokenId",
          "type": "uint256"
        }
      ],
      "stateMutability": "nonpayable",
      "type": "function"
    },
    {
      "inputs": [],
      "name": "name",
      "outputs": [
        {
          "internalType": "string",
          "name": "",
          "type": "string"
        }
      ],
      "stateMutability": "view",
      "type": "function"
    },
    {
      "inputs": [],
      "name": "owner",
      "outputs": [
        {
          "internalType": "address",
          "name": "",
          "type": "address"
        }
      ],
      "stateMutability": "view",
      "type": "function"
    },
    {
      "inputs": [
        {
          "internalType": "uint256",
          "name": "tokenId",
          "type": "uint256"
        }
      ],
      "name": "ownerOf",
      "outputs": [
        {
          "internalType": "address",
          "name": "",
          "type": "address"
        }
      ],
      "stateMutability": "view",
      "type": "function"
    },
    {
      "inputs": [],
      "name": "rate",
      "outputs": [
        {
          "internalType": "uint256",
          "name": "",
          "type": "uint256"
        }
      ],
      "stateMutability": "view",
      "type": "function"
    },
    {
      "inputs": [],
      "name": "renounceOwnership",
      "outputs": [],
      "stateMutability": "nonpayable",
      "type": "function"
    },
    {
      "inputs": [
        {
          "internalType": "address",
          "name": "from",
          "type": "address"
        },
        {
          "internalType": "address",
          "name": "to",
          "type": "address"
        },
        {
          "internalType": "uint256",
          "name": "tokenId",
          "type": "uint256"
        }
      ],
      "name": "safeTransferFrom",
      "outputs": [],
      "stateMutability": "nonpayable",
      "type": "function"
    },
    {
      "inputs": [
        {
          "internalType": "address",
          "name": "from",
          "type": "address"
        },
        {
          "internalType": "address",
          "name": "to",
          "type": "address"
        },
        {
          "internalType": "uint256",
          "name": "tokenId",
          "type": "uint256"
        },
        {
          "internalType": "bytes",
          "name": "_data",
          "type": "bytes"
        }
      ],
      "name": "safeTransferFrom",
      "outputs": [],
      "stateMutability": "nonpayable",
      "type": "function"
    },
    {
      "inputs": [
        {
          "internalType": "address",
          "name": "operator",
          "type": "address"
        },
        {
          "internalType": "bool",
          "name": "approved",
          "type": "bool"
        }
      ],
      "name": "setApprovalForAll",
      "outputs": [],
      "stateMutability": "nonpayable",
      "type": "function"
    },
    {
      "inputs": [
        {
          "internalType": "string",
          "name": "baseURI_",
          "type": "string"
        }
      ],
      "name": "setBaseURI",
      "outputs": [],
      "stateMutability": "nonpayable",
      "type": "function"
    },
    {
      "inputs": [
        {
          "internalType": "uint256",
          "name": "tokenId",
          "type": "uint256"
        },
        {
          "internalType": "string",
          "name": "_tokenURI",
          "type": "string"
        }
      ],
      "name": "setTokenURI",
      "outputs": [],
      "stateMutability": "nonpayable",
      "type": "function"
    },
    {
      "inputs": [
        {
          "internalType": "bytes4",
          "name": "interfaceId",
          "type": "bytes4"
        }
      ],
      "name": "supportsInterface",
      "outputs": [
        {
          "internalType": "bool",
          "name": "",
          "type": "bool"
        }
      ],
      "stateMutability": "view",
      "type": "function"
    },
    {
      "inputs": [],
      "name": "symbol",
      "outputs": [
        {
          "internalType": "string",
          "name": "",
          "type": "string"
        }
      ],
      "stateMutability": "view",
      "type": "function"
    },
    {
      "inputs": [
        {
          "internalType": "uint256",
          "name": "tokenId",
          "type": "uint256"
        }
      ],
      "name": "tokenURI",
      "outputs": [
        {
          "internalType": "string",
          "name": "",
          "type": "string"
        }
      ],
      "stateMutability": "view",
      "type": "function"
    },
    {
      "inputs": [
        {
          "internalType": "address",
          "name": "from",
          "type": "address"
        },
        {
          "internalType": "address",
          "name": "to",
          "type": "address"
        },
        {
          "internalType": "uint256",
          "name": "tokenId",
          "type": "uint256"
        }
      ],
      "name": "transferFrom",
      "outputs": [],
      "stateMutability": "nonpayable",
      "type": "function"
    },
    {
      "inputs": [
        {
          "internalType": "address",
          "name": "newOwner",
          "type": "address"
        }
      ],
      "name": "transferOwnership",
      "outputs": [],
      "stateMutability": "nonpayable",
      "type": "function"
    }
  ],
  "bytecode": "0x608060405260405180602001604052806001815250600c6000820151816000015550503480156200002f57600080fd5b5060405162003dc038038062003dc0833981810160405281019062000055919062000376565b848481600090805190602001906200006f92919062000226565b5080600190805190602001906200008892919062000226565b505050620000ab6200009f6200015860201b60201c565b6200016060201b60201c565b32600760006101000a81548173ffffffffffffffffffffffffffffffffffffffff021916908373ffffffffffffffffffffffffffffffffffffffff16021790555082600b90805190602001906200010492919062000226565b5081600860006101000a81548173ffffffffffffffffffffffffffffffffffffffff021916908373ffffffffffffffffffffffffffffffffffffffff16021790555080600981905550505050505062000625565b600033905090565b6000600660009054906101000a900473ffffffffffffffffffffffffffffffffffffffff16905081600660006101000a81548173ffffffffffffffffffffffffffffffffffffffff021916908373ffffffffffffffffffffffffffffffffffffffff1602179055508173ffffffffffffffffffffffffffffffffffffffff168173ffffffffffffffffffffffffffffffffffffffff167f8be0079c531659141344cd1fd0a4f28419497f9722a3daafe3b4186f6b6457e060405160405180910390a35050565b828054620002349062000516565b90600052602060002090601f016020900481019282620002585760008555620002a4565b82601f106200027357805160ff1916838001178555620002a4565b82800160010185558215620002a4579182015b82811115620002a357825182559160200191906001019062000286565b5b509050620002b39190620002b7565b5090565b5b80821115620002d2576000816000905550600101620002b8565b5090565b6000620002ed620002e7846200046c565b62000443565b9050828152602081018484840111156200030657600080fd5b62000313848285620004e0565b509392505050565b6000815190506200032c81620005f1565b92915050565b600082601f8301126200034457600080fd5b815162000356848260208601620002d6565b91505092915050565b60008151905062000370816200060b565b92915050565b600080600080600060a086880312156200038f57600080fd5b600086015167ffffffffffffffff811115620003aa57600080fd5b620003b88882890162000332565b955050602086015167ffffffffffffffff811115620003d657600080fd5b620003e48882890162000332565b945050604086015167ffffffffffffffff8111156200040257600080fd5b620004108882890162000332565b935050606062000423888289016200031b565b925050608062000436888289016200035f565b9150509295509295909350565b60006200044f62000462565b90506200045d82826200054c565b919050565b6000604051905090565b600067ffffffffffffffff8211156200048a5762000489620005b1565b5b6200049582620005e0565b9050602081019050919050565b6000620004af82620004b6565b9050919050565b600073ffffffffffffffffffffffffffffffffffffffff82169050919050565b6000819050919050565b60005b8381101562000500578082015181840152602081019050620004e3565b8381111562000510576000848401525b50505050565b600060028204905060018216806200052f57607f821691505b6020821081141562000546576200054562000582565b5b50919050565b6200055782620005e0565b810181811067ffffffffffffffff82111715620005795762000578620005b1565b5b80604052505050565b7f4e487b7100000000000000000000000000000000000000000000000000000000600052602260045260246000fd5b7f4e487b7100000000000000000000000000000000000000000000000000000000600052604160045260246000fd5b6000601f19601f8301169050919050565b620005fc81620004a2565b81146200060857600080fd5b50565b6200061681620004d6565b81146200062257600080fd5b50565b61378b80620006356000396000f3fe608060405234801561001057600080fd5b506004361061014d5760003560e01c80636352211e116100c3578063a22cb4651161007c578063a22cb46514610378578063b88d4fde14610394578063c87b56dd146103b0578063e985e9c5146103e0578063eb5416fa14610410578063f2fde38b1461042e5761014d565b80636352211e146102b457806370a08231146102e4578063715018a614610314578063785e9e861461031e5780638da5cb5b1461033c57806395d89b411461035a5761014d565b8063162094c411610115578063162094c41461020a57806323b872dd146102265780632c4e722e1461024257806342842e0e1461026057806342966c681461027c57806355f804b3146102985761014d565b806301ffc9a71461015257806306fdde0314610182578063081812fc146101a0578063095ea7b3146101d05780631249c58b146101ec575b600080fd5b61016c60048036038101906101679190612593565b61044a565b6040516101799190612b1a565b60405180910390f35b61018a61045c565b6040516101979190612b35565b60405180910390f35b6101ba60048036038101906101b59190612626565b6104ee565b6040516101c79190612a53565b60405180910390f35b6101ea60048036038101906101e5919061252e565b610573565b005b6101f461068b565b6040516102019190612dd7565b60405180910390f35b610224600480360381019061021f919061264f565b610813565b005b610240600480360381019061023b9190612428565b6108b8565b005b61024a610918565b6040516102579190612dd7565b60405180910390f35b61027a60048036038101906102759190612428565b61091e565b005b61029660048036038101906102919190612626565b61093e565b005b6102b260048036038101906102ad91906125e5565b610a92565b005b6102ce60048036038101906102c99190612626565b610b43565b6040516102db9190612a53565b60405180910390f35b6102fe60048036038101906102f991906123c3565b610bf5565b60405161030b9190612dd7565b60405180910390f35b61031c610cad565b005b610326610d35565b6040516103339190612a53565b60405180910390f35b610344610d5b565b6040516103519190612a53565b60405180910390f35b610362610d85565b60405161036f9190612b35565b60405180910390f35b610392600480360381019061038d91906124f2565b610e17565b005b6103ae60048036038101906103a99190612477565b610f98565b005b6103ca60048036038101906103c59190612626565b610ffa565b6040516103d79190612b35565b60405180910390f35b6103fa60048036038101906103f591906123ec565b61116d565b6040516104079190612b1a565b60405180910390f35b610418611201565b6040516104259190612a53565b60405180910390f35b610448600480360381019061044391906123c3565b611227565b005b60006104558261131f565b9050919050565b60606000805461046b9061302d565b80601f01602080910402602001604051908101604052809291908181526020018280546104979061302d565b80156104e45780601f106104b9576101008083540402835291602001916104e4565b820191906000526020600020905b8154815290600101906020018083116104c757829003601f168201915b5050505050905090565b60006104f982611401565b610538576040517f08c379a000000000000000000000000000000000000000000000000000000000815260040161052f90612c97565b60405180910390fd5b6004600083815260200190815260200160002060009054906101000a900473ffffffffffffffffffffffffffffffffffffffff169050919050565b600061057e82610b43565b90508073ffffffffffffffffffffffffffffffffffffffff168373ffffffffffffffffffffffffffffffffffffffff1614156105ef576040517f08c379a00000000000000000000000000000000000000000000000000000000081526004016105e690612d57565b60405180910390fd5b8073ffffffffffffffffffffffffffffffffffffffff1661060e61146d565b73ffffffffffffffffffffffffffffffffffffffff16148061063d575061063c8161063761146d565b61116d565b5b61067c576040517f08c379a000000000000000000000000000000000000000000000000000000000815260040161067390612c17565b60405180910390fd5b6106868383611475565b505050565b6000610697600c61152e565b90506000600860009054906101000a900473ffffffffffffffffffffffffffffffffffffffff1673ffffffffffffffffffffffffffffffffffffffff166323b872dd6106e161146d565b306009546040518463ffffffff1660e01b815260040161070393929190612a6e565b602060405180830381600087803b15801561071d57600080fd5b505af1158015610731573d6000803e3d6000fd5b505050506040513d601f19601f82011682018060405250810190610755919061256a565b905080610797576040517f08c379a000000000000000000000000000000000000000000000000000000000815260040161078e90612d77565b60405180910390fd5b6107a86107a261146d565b8361153c565b816107b161146d565b73ffffffffffffffffffffffffffffffffffffffff167f0f6798a560793a54c3bcfe86a93cde1e73087d944c0ea20544137d412139688560405160405180910390a3610805826108008461155a565b611707565b61080f600c61177b565b5090565b61081b61146d565b73ffffffffffffffffffffffffffffffffffffffff16600760009054906101000a900473ffffffffffffffffffffffffffffffffffffffff1673ffffffffffffffffffffffffffffffffffffffff16146108aa576040517f08c379a00000000000000000000000000000000000000000000000000000000081526004016108a190612d37565b60405180910390fd5b6108b48282611707565b5050565b6108c96108c361146d565b82611791565b610908576040517f08c379a00000000000000000000000000000000000000000000000000000000081526004016108ff90612d97565b60405180910390fd5b61091383838361186f565b505050565b60095481565b61093983838360405180602001604052806000815250610f98565b505050565b6000811415610982576040517f08c379a000000000000000000000000000000000000000000000000000000000815260040161097990612db7565b60405180910390fd5b61098b81611acb565b600860009054906101000a900473ffffffffffffffffffffffffffffffffffffffff1673ffffffffffffffffffffffffffffffffffffffff1663a9059cbb6109d161146d565b6009546040518363ffffffff1660e01b81526004016109f1929190612af1565b602060405180830381600087803b158015610a0b57600080fd5b505af1158015610a1f573d6000803e3d6000fd5b505050506040513d601f19601f82011682018060405250810190610a43919061256a565b5080610a4d61146d565b73ffffffffffffffffffffffffffffffffffffffff167fcc16f5dbb4873280815c1ee09dbd06736cffcc184412cf7a71a0fdb75d397ca560405160405180910390a350565b610a9a61146d565b73ffffffffffffffffffffffffffffffffffffffff16600760009054906101000a900473ffffffffffffffffffffffffffffffffffffffff1673ffffffffffffffffffffffffffffffffffffffff1614610b29576040517f08c379a0000000000000000000000000000000000000000000000000000000008152600401610b2090612d37565b60405180910390fd5b80600b9080519060200190610b3f9291906121d2565b5050565b6000806002600084815260200190815260200160002060009054906101000a900473ffffffffffffffffffffffffffffffffffffffff169050600073ffffffffffffffffffffffffffffffffffffffff168173ffffffffffffffffffffffffffffffffffffffff161415610bec576040517f08c379a0000000000000000000000000000000000000000000000000000000008152600401610be390612c57565b60405180910390fd5b80915050919050565b60008073ffffffffffffffffffffffffffffffffffffffff168273ffffffffffffffffffffffffffffffffffffffff161415610c66576040517f08c379a0000000000000000000000000000000000000000000000000000000008152600401610c5d90612c37565b60405180910390fd5b600360008373ffffffffffffffffffffffffffffffffffffffff1673ffffffffffffffffffffffffffffffffffffffff168152602001908152602001600020549050919050565b610cb561146d565b73ffffffffffffffffffffffffffffffffffffffff16610cd3610d5b565b73ffffffffffffffffffffffffffffffffffffffff1614610d29576040517f08c379a0000000000000000000000000000000000000000000000000000000008152600401610d2090612cd7565b60405180910390fd5b610d336000611bdc565b565b600860009054906101000a900473ffffffffffffffffffffffffffffffffffffffff1681565b6000600660009054906101000a900473ffffffffffffffffffffffffffffffffffffffff16905090565b606060018054610d949061302d565b80601f0160208091040260200160405190810160405280929190818152602001828054610dc09061302d565b8015610e0d5780601f10610de257610100808354040283529160200191610e0d565b820191906000526020600020905b815481529060010190602001808311610df057829003601f168201915b5050505050905090565b610e1f61146d565b73ffffffffffffffffffffffffffffffffffffffff168273ffffffffffffffffffffffffffffffffffffffff161415610e8d576040517f08c379a0000000000000000000000000000000000000000000000000000000008152600401610e8490612bd7565b60405180910390fd5b8060056000610e9a61146d565b73ffffffffffffffffffffffffffffffffffffffff1673ffffffffffffffffffffffffffffffffffffffff16815260200190815260200160002060008473ffffffffffffffffffffffffffffffffffffffff1673ffffffffffffffffffffffffffffffffffffffff16815260200190815260200160002060006101000a81548160ff0219169083151502179055508173ffffffffffffffffffffffffffffffffffffffff16610f4761146d565b73ffffffffffffffffffffffffffffffffffffffff167f17307eab39ab6107e8899845ad3d59bd9653f200f220920489ca2b5937696c3183604051610f8c9190612b1a565b60405180910390a35050565b610fa9610fa361146d565b83611791565b610fe8576040517f08c379a0000000000000000000000000000000000000000000000000000000008152600401610fdf90612d97565b60405180910390fd5b610ff484848484611ca2565b50505050565b606061100582611401565b611044576040517f08c379a000000000000000000000000000000000000000000000000000000000815260040161103b90612d17565b60405180910390fd5b6000600a600084815260200190815260200160002080546110649061302d565b80601f01602080910402602001604051908101604052809291908181526020018280546110909061302d565b80156110dd5780601f106110b2576101008083540402835291602001916110dd565b820191906000526020600020905b8154815290600101906020018083116110c057829003601f168201915b5050505050905060006110ee611cfe565b9050600081511415611104578192505050611168565b600082511115611139578082604051602001611121929190612a2f565b60405160208183030381529060405292505050611168565b806111438561155a565b604051602001611154929190612a2f565b604051602081830303815290604052925050505b919050565b6000600560008473ffffffffffffffffffffffffffffffffffffffff1673ffffffffffffffffffffffffffffffffffffffff16815260200190815260200160002060008373ffffffffffffffffffffffffffffffffffffffff1673ffffffffffffffffffffffffffffffffffffffff16815260200190815260200160002060009054906101000a900460ff16905092915050565b600760009054906101000a900473ffffffffffffffffffffffffffffffffffffffff1681565b61122f61146d565b73ffffffffffffffffffffffffffffffffffffffff1661124d610d5b565b73ffffffffffffffffffffffffffffffffffffffff16146112a3576040517f08c379a000000000000000000000000000000000000000000000000000000000815260040161129a90612cd7565b60405180910390fd5b600073ffffffffffffffffffffffffffffffffffffffff168173ffffffffffffffffffffffffffffffffffffffff161415611313576040517f08c379a000000000000000000000000000000000000000000000000000000000815260040161130a90612b77565b60405180910390fd5b61131c81611bdc565b50565b60007f80ac58cd000000000000000000000000000000000000000000000000000000007bffffffffffffffffffffffffffffffffffffffffffffffffffffffff1916827bffffffffffffffffffffffffffffffffffffffffffffffffffffffff191614806113ea57507f5b5e139f000000000000000000000000000000000000000000000000000000007bffffffffffffffffffffffffffffffffffffffffffffffffffffffff1916827bffffffffffffffffffffffffffffffffffffffffffffffffffffffff1916145b806113fa57506113f982611d90565b5b9050919050565b60008073ffffffffffffffffffffffffffffffffffffffff166002600084815260200190815260200160002060009054906101000a900473ffffffffffffffffffffffffffffffffffffffff1673ffffffffffffffffffffffffffffffffffffffff1614159050919050565b600033905090565b816004600083815260200190815260200160002060006101000a81548173ffffffffffffffffffffffffffffffffffffffff021916908373ffffffffffffffffffffffffffffffffffffffff160217905550808273ffffffffffffffffffffffffffffffffffffffff166114e883610b43565b73ffffffffffffffffffffffffffffffffffffffff167f8c5be1e5ebec7d5bd14f71427d1e84f3dd0314c0f7b2291e5b200ac8c7c3b92560405160405180910390a45050565b600081600001549050919050565b611556828260405180602001604052806000815250611dfa565b5050565b606060008214156115a2576040518060400160405280600181526020017f30000000000000000000000000000000000000000000000000000000000000008152509050611702565b600082905060005b600082146115d45780806115bd90613090565b915050600a826115cd9190612f12565b91506115aa565b60008167ffffffffffffffff811115611616577f4e487b7100000000000000000000000000000000000000000000000000000000600052604160045260246000fd5b6040519080825280601f01601f1916602001820160405280156116485781602001600182028036833780820191505090505b5090505b600085146116fb576001826116619190612f43565b9150600a8561167091906130d9565b603061167c9190612ebc565b60f81b8183815181106116b8577f4e487b7100000000000000000000000000000000000000000000000000000000600052603260045260246000fd5b60200101907effffffffffffffffffffffffffffffffffffffffffffffffffffffffffffff1916908160001a905350600a856116f49190612f12565b945061164c565b8093505050505b919050565b61171082611401565b61174f576040517f08c379a000000000000000000000000000000000000000000000000000000000815260040161174690612cb7565b60405180910390fd5b80600a600084815260200190815260200160002090805190602001906117769291906121d2565b505050565b6001816000016000828254019250508190555050565b600061179c82611401565b6117db576040517f08c379a00000000000000000000000000000000000000000000000000000000081526004016117d290612bf7565b60405180910390fd5b60006117e683610b43565b90508073ffffffffffffffffffffffffffffffffffffffff168473ffffffffffffffffffffffffffffffffffffffff16148061185557508373ffffffffffffffffffffffffffffffffffffffff1661183d846104ee565b73ffffffffffffffffffffffffffffffffffffffff16145b806118665750611865818561116d565b5b91505092915050565b8273ffffffffffffffffffffffffffffffffffffffff1661188f82610b43565b73ffffffffffffffffffffffffffffffffffffffff16146118e5576040517f08c379a00000000000000000000000000000000000000000000000000000000081526004016118dc90612cf7565b60405180910390fd5b600073ffffffffffffffffffffffffffffffffffffffff168273ffffffffffffffffffffffffffffffffffffffff161415611955576040517f08c379a000000000000000000000000000000000000000000000000000000000815260040161194c90612bb7565b60405180910390fd5b611960838383611e55565b61196b600082611475565b6001600360008573ffffffffffffffffffffffffffffffffffffffff1673ffffffffffffffffffffffffffffffffffffffff16815260200190815260200160002060008282546119bb9190612f43565b925050819055506001600360008473ffffffffffffffffffffffffffffffffffffffff1673ffffffffffffffffffffffffffffffffffffffff1681526020019081526020016000206000828254611a129190612ebc565b92505081905550816002600083815260200190815260200160002060006101000a81548173ffffffffffffffffffffffffffffffffffffffff021916908373ffffffffffffffffffffffffffffffffffffffff160217905550808273ffffffffffffffffffffffffffffffffffffffff168473ffffffffffffffffffffffffffffffffffffffff167fddf252ad1be2c89b69c2b068fc378daa952ba7f163c4a11628f55a4df523b3ef60405160405180910390a4505050565b6000611ad682610b43565b9050611ae481600084611e55565b611aef600083611475565b6001600360008373ffffffffffffffffffffffffffffffffffffffff1673ffffffffffffffffffffffffffffffffffffffff1681526020019081526020016000206000828254611b3f9190612f43565b925050819055506002600083815260200190815260200160002060006101000a81549073ffffffffffffffffffffffffffffffffffffffff021916905581600073ffffffffffffffffffffffffffffffffffffffff168273ffffffffffffffffffffffffffffffffffffffff167fddf252ad1be2c89b69c2b068fc378daa952ba7f163c4a11628f55a4df523b3ef60405160405180910390a45050565b6000600660009054906101000a900473ffffffffffffffffffffffffffffffffffffffff16905081600660006101000a81548173ffffffffffffffffffffffffffffffffffffffff021916908373ffffffffffffffffffffffffffffffffffffffff1602179055508173ffffffffffffffffffffffffffffffffffffffff168173ffffffffffffffffffffffffffffffffffffffff167f8be0079c531659141344cd1fd0a4f28419497f9722a3daafe3b4186f6b6457e060405160405180910390a35050565b611cad84848461186f565b611cb984848484611e5a565b611cf8576040517f08c379a0000000000000000000000000000000000000000000000000000000008152600401611cef90612b57565b60405180910390fd5b50505050565b6060600b8054611d0d9061302d565b80601f0160208091040260200160405190810160405280929190818152602001828054611d399061302d565b8015611d865780601f10611d5b57610100808354040283529160200191611d86565b820191906000526020600020905b815481529060010190602001808311611d6957829003601f168201915b5050505050905090565b60007f01ffc9a7000000000000000000000000000000000000000000000000000000007bffffffffffffffffffffffffffffffffffffffffffffffffffffffff1916827bffffffffffffffffffffffffffffffffffffffffffffffffffffffff1916149050919050565b611e048383611ff1565b611e116000848484611e5a565b611e50576040517f08c379a0000000000000000000000000000000000000000000000000000000008152600401611e4790612b57565b60405180910390fd5b505050565b505050565b6000611e7b8473ffffffffffffffffffffffffffffffffffffffff166121bf565b15611fe4578373ffffffffffffffffffffffffffffffffffffffff1663150b7a02611ea461146d565b8786866040518563ffffffff1660e01b8152600401611ec69493929190612aa5565b602060405180830381600087803b158015611ee057600080fd5b505af1925050508015611f1157506040513d601f19601f82011682018060405250810190611f0e91906125bc565b60015b611f94573d8060008114611f41576040519150601f19603f3d011682016040523d82523d6000602084013e611f46565b606091505b50600081511415611f8c576040517f08c379a0000000000000000000000000000000000000000000000000000000008152600401611f8390612b57565b60405180910390fd5b805181602001fd5b63150b7a0260e01b7bffffffffffffffffffffffffffffffffffffffffffffffffffffffff1916817bffffffffffffffffffffffffffffffffffffffffffffffffffffffff191614915050611fe9565b600190505b949350505050565b600073ffffffffffffffffffffffffffffffffffffffff168273ffffffffffffffffffffffffffffffffffffffff161415612061576040517f08c379a000000000000000000000000000000000000000000000000000000000815260040161205890612c77565b60405180910390fd5b61206a81611401565b156120aa576040517f08c379a00000000000000000000000000000000000000000000000000000000081526004016120a190612b97565b60405180910390fd5b6120b660008383611e55565b6001600360008473ffffffffffffffffffffffffffffffffffffffff1673ffffffffffffffffffffffffffffffffffffffff16815260200190815260200160002060008282546121069190612ebc565b92505081905550816002600083815260200190815260200160002060006101000a81548173ffffffffffffffffffffffffffffffffffffffff021916908373ffffffffffffffffffffffffffffffffffffffff160217905550808273ffffffffffffffffffffffffffffffffffffffff16600073ffffffffffffffffffffffffffffffffffffffff167fddf252ad1be2c89b69c2b068fc378daa952ba7f163c4a11628f55a4df523b3ef60405160405180910390a45050565b600080823b905060008111915050919050565b8280546121de9061302d565b90600052602060002090601f0160209004810192826122005760008555612247565b82601f1061221957805160ff1916838001178555612247565b82800160010185558215612247579182015b8281111561224657825182559160200191906001019061222b565b5b5090506122549190612258565b5090565b5b80821115612271576000816000905550600101612259565b5090565b600061228861228384612e17565b612df2565b9050828152602081018484840111156122a057600080fd5b6122ab848285612feb565b509392505050565b60006122c66122c184612e48565b612df2565b9050828152602081018484840111156122de57600080fd5b6122e9848285612feb565b509392505050565b600081359050612300816136f9565b92915050565b60008135905061231581613710565b92915050565b60008151905061232a81613710565b92915050565b60008135905061233f81613727565b92915050565b60008151905061235481613727565b92915050565b600082601f83011261236b57600080fd5b813561237b848260208601612275565b91505092915050565b600082601f83011261239557600080fd5b81356123a58482602086016122b3565b91505092915050565b6000813590506123bd8161373e565b92915050565b6000602082840312156123d557600080fd5b60006123e3848285016122f1565b91505092915050565b600080604083850312156123ff57600080fd5b600061240d858286016122f1565b925050602061241e858286016122f1565b9150509250929050565b60008060006060848603121561243d57600080fd5b600061244b868287016122f1565b935050602061245c868287016122f1565b925050604061246d868287016123ae565b9150509250925092565b6000806000806080858703121561248d57600080fd5b600061249b878288016122f1565b94505060206124ac878288016122f1565b93505060406124bd878288016123ae565b925050606085013567ffffffffffffffff8111156124da57600080fd5b6124e68782880161235a565b91505092959194509250565b6000806040838503121561250557600080fd5b6000612513858286016122f1565b925050602061252485828601612306565b9150509250929050565b6000806040838503121561254157600080fd5b600061254f858286016122f1565b9250506020612560858286016123ae565b9150509250929050565b60006020828403121561257c57600080fd5b600061258a8482850161231b565b91505092915050565b6000602082840312156125a557600080fd5b60006125b384828501612330565b91505092915050565b6000602082840312156125ce57600080fd5b60006125dc84828501612345565b91505092915050565b6000602082840312156125f757600080fd5b600082013567ffffffffffffffff81111561261157600080fd5b61261d84828501612384565b91505092915050565b60006020828403121561263857600080fd5b6000612646848285016123ae565b91505092915050565b6000806040838503121561266257600080fd5b6000612670858286016123ae565b925050602083013567ffffffffffffffff81111561268d57600080fd5b61269985828601612384565b9150509250929050565b6126ac81612f77565b82525050565b6126bb81612f89565b82525050565b60006126cc82612e79565b6126d68185612e8f565b93506126e6818560208601612ffa565b6126ef816131c6565b840191505092915050565b600061270582612e84565b61270f8185612ea0565b935061271f818560208601612ffa565b612728816131c6565b840191505092915050565b600061273e82612e84565b6127488185612eb1565b9350612758818560208601612ffa565b80840191505092915050565b6000612771603283612ea0565b915061277c826131d7565b604082019050919050565b6000612794602683612ea0565b915061279f82613226565b604082019050919050565b60006127b7601c83612ea0565b91506127c282613275565b602082019050919050565b60006127da602483612ea0565b91506127e58261329e565b604082019050919050565b60006127fd601983612ea0565b9150612808826132ed565b602082019050919050565b6000612820602c83612ea0565b915061282b82613316565b604082019050919050565b6000612843603883612ea0565b915061284e82613365565b604082019050919050565b6000612866602a83612ea0565b9150612871826133b4565b604082019050919050565b6000612889602983612ea0565b915061289482613403565b604082019050919050565b60006128ac602083612ea0565b91506128b782613452565b602082019050919050565b60006128cf602c83612ea0565b91506128da8261347b565b604082019050919050565b60006128f2602c83612ea0565b91506128fd826134ca565b604082019050919050565b6000612915602083612ea0565b915061292082613519565b602082019050919050565b6000612938602983612ea0565b915061294382613542565b604082019050919050565b600061295b602f83612ea0565b915061296682613591565b604082019050919050565b600061297e601b83612ea0565b9150612989826135e0565b602082019050919050565b60006129a1602183612ea0565b91506129ac82613609565b604082019050919050565b60006129c4601083612ea0565b91506129cf82613658565b602082019050919050565b60006129e7603183612ea0565b91506129f282613681565b604082019050919050565b6000612a0a601e83612ea0565b9150612a15826136d0565b602082019050919050565b612a2981612fe1565b82525050565b6000612a3b8285612733565b9150612a478284612733565b91508190509392505050565b6000602082019050612a6860008301846126a3565b92915050565b6000606082019050612a8360008301866126a3565b612a9060208301856126a3565b612a9d6040830184612a20565b949350505050565b6000608082019050612aba60008301876126a3565b612ac760208301866126a3565b612ad46040830185612a20565b8181036060830152612ae681846126c1565b905095945050505050565b6000604082019050612b0660008301856126a3565b612b136020830184612a20565b9392505050565b6000602082019050612b2f60008301846126b2565b92915050565b60006020820190508181036000830152612b4f81846126fa565b905092915050565b60006020820190508181036000830152612b7081612764565b9050919050565b60006020820190508181036000830152612b9081612787565b9050919050565b60006020820190508181036000830152612bb0816127aa565b9050919050565b60006020820190508181036000830152612bd0816127cd565b9050919050565b60006020820190508181036000830152612bf0816127f0565b9050919050565b60006020820190508181036000830152612c1081612813565b9050919050565b60006020820190508181036000830152612c3081612836565b9050919050565b60006020820190508181036000830152612c5081612859565b9050919050565b60006020820190508181036000830152612c708161287c565b9050919050565b60006020820190508181036000830152612c908161289f565b9050919050565b60006020820190508181036000830152612cb0816128c2565b9050919050565b60006020820190508181036000830152612cd0816128e5565b9050919050565b60006020820190508181036000830152612cf081612908565b9050919050565b60006020820190508181036000830152612d108161292b565b9050919050565b60006020820190508181036000830152612d308161294e565b9050919050565b60006020820190508181036000830152612d5081612971565b9050919050565b60006020820190508181036000830152612d7081612994565b9050919050565b60006020820190508181036000830152612d90816129b7565b9050919050565b60006020820190508181036000830152612db0816129da565b9050919050565b60006020820190508181036000830152612dd0816129fd565b9050919050565b6000602082019050612dec6000830184612a20565b92915050565b6000612dfc612e0d565b9050612e08828261305f565b919050565b6000604051905090565b600067ffffffffffffffff821115612e3257612e31613197565b5b612e3b826131c6565b9050602081019050919050565b600067ffffffffffffffff821115612e6357612e62613197565b5b612e6c826131c6565b9050602081019050919050565b600081519050919050565b600081519050919050565b600082825260208201905092915050565b600082825260208201905092915050565b600081905092915050565b6000612ec782612fe1565b9150612ed283612fe1565b9250827fffffffffffffffffffffffffffffffffffffffffffffffffffffffffffffffff03821115612f0757612f0661310a565b5b828201905092915050565b6000612f1d82612fe1565b9150612f2883612fe1565b925082612f3857612f37613139565b5b828204905092915050565b6000612f4e82612fe1565b9150612f5983612fe1565b925082821015612f6c57612f6b61310a565b5b828203905092915050565b6000612f8282612fc1565b9050919050565b60008115159050919050565b60007fffffffff0000000000000000000000000000000000000000000000000000000082169050919050565b600073ffffffffffffffffffffffffffffffffffffffff82169050919050565b6000819050919050565b82818337600083830152505050565b60005b83811015613018578082015181840152602081019050612ffd565b83811115613027576000848401525b50505050565b6000600282049050600182168061304557607f821691505b6020821081141561305957613058613168565b5b50919050565b613068826131c6565b810181811067ffffffffffffffff8211171561308757613086613197565b5b80604052505050565b600061309b82612fe1565b91507fffffffffffffffffffffffffffffffffffffffffffffffffffffffffffffffff8214156130ce576130cd61310a565b5b600182019050919050565b60006130e482612fe1565b91506130ef83612fe1565b9250826130ff576130fe613139565b5b828206905092915050565b7f4e487b7100000000000000000000000000000000000000000000000000000000600052601160045260246000fd5b7f4e487b7100000000000000000000000000000000000000000000000000000000600052601260045260246000fd5b7f4e487b7100000000000000000000000000000000000000000000000000000000600052602260045260246000fd5b7f4e487b7100000000000000000000000000000000000000000000000000000000600052604160045260246000fd5b6000601f19601f8301169050919050565b7f4552433732313a207472616e7366657220746f206e6f6e20455243373231526560008201527f63656976657220696d706c656d656e7465720000000000000000000000000000602082015250565b7f4f776e61626c653a206e6577206f776e657220697320746865207a65726f206160008201527f6464726573730000000000000000000000000000000000000000000000000000602082015250565b7f4552433732313a20746f6b656e20616c7265616479206d696e74656400000000600082015250565b7f4552433732313a207472616e7366657220746f20746865207a65726f2061646460008201527f7265737300000000000000000000000000000000000000000000000000000000602082015250565b7f4552433732313a20617070726f766520746f2063616c6c657200000000000000600082015250565b7f4552433732313a206f70657261746f7220717565727920666f72206e6f6e657860008201527f697374656e7420746f6b656e0000000000000000000000000000000000000000602082015250565b7f4552433732313a20617070726f76652063616c6c6572206973206e6f74206f7760008201527f6e6572206e6f7220617070726f76656420666f7220616c6c0000000000000000602082015250565b7f4552433732313a2062616c616e636520717565727920666f7220746865207a6560008201527f726f206164647265737300000000000000000000000000000000000000000000602082015250565b7f4552433732313a206f776e657220717565727920666f72206e6f6e657869737460008201527f656e7420746f6b656e0000000000000000000000000000000000000000000000602082015250565b7f4552433732313a206d696e7420746f20746865207a65726f2061646472657373600082015250565b7f4552433732313a20617070726f76656420717565727920666f72206e6f6e657860008201527f697374656e7420746f6b656e0000000000000000000000000000000000000000602082015250565b7f4552433732314d657461646174613a2055524920736574206f66206e6f6e657860008201527f697374656e7420746f6b656e0000000000000000000000000000000000000000602082015250565b7f4f776e61626c653a2063616c6c6572206973206e6f7420746865206f776e6572600082015250565b7f4552433732313a207472616e73666572206f6620746f6b656e2074686174206960008201527f73206e6f74206f776e0000000000000000000000000000000000000000000000602082015250565b7f4552433732314d657461646174613a2055524920717565727920666f72206e6f60008201527f6e6578697374656e7420746f6b656e0000000000000000000000000000000000602082015250565b7f4572726f723a206d75737420686176652061646d696e20726f6c650000000000600082015250565b7f4552433732313a20617070726f76616c20746f2063757272656e74206f776e6560008201527f7200000000000000000000000000000000000000000000000000000000000000602082015250565b7f5472616e73666572206661696c65642e00000000000000000000000000000000600082015250565b7f4552433732313a207472616e736665722063616c6c6572206973206e6f74206f60008201527f776e6572206e6f7220617070726f766564000000000000000000000000000000602082015250565b7f4572726f723a20746f6b656e2069642063616e6e6f74206265207a65726f0000600082015250565b61370281612f77565b811461370d57600080fd5b50565b61371981612f89565b811461372457600080fd5b50565b61373081612f95565b811461373b57600080fd5b50565b61374781612fe1565b811461375257600080fd5b5056fea264697066735822122056c67d53561fae78f8b62076ed00fee2d335c329cc9c4058af2f9e1bd67a963964736f6c63430008040033",
  "linkReferences": {},
  "deployedLinkReferences": {}
}