{
  "_format": "hh-sol-artifact-1",
  "contractName": "GammaDeployer",
  "sourceName": "contracts/deployers/GammaDeployer.sol",
  "abi": [
    {
      "inputs": [
        {
          "internalType": "string",
          "name": "_name",
          "type": "string"
        },
        {
          "internalType": "string",
          "name": "_symbol",
          "type": "string"
        },
        {
          "internalType": "string",
          "name": "_bURI",
          "type": "string"
        },
        {
          "internalType": "address",
          "name": "_erc20",
          "type": "address"
        },
        {
          "internalType": "uint256",
          "name": "_rate",
          "type": "uint256"
        },
        {
          "internalType": "uint256",
          "name": "_maxSupply",
          "type": "uint256"
        }
      ],
      "name": "deployGamma",
      "outputs": [
        {
          "internalType": "address",
          "name": "",
          "type": "address"
        }
      ],
      "stateMutability": "nonpayable",
      "type": "function"
    }
  ],
  "bytecode": "0x608060405234801561001057600080fd5b506143a3806100206000396000f3fe60806040523480156200001157600080fd5b50600436106200002e5760003560e01c8063fcd495e71462000033575b600080fd5b6200005160048036038101906200004b91906200016d565b62000069565b604051620000609190620002b1565b60405180910390f35b6000808787878787876040516200008090620000bf565b6200009196959493929190620002ce565b604051809103906000f080158015620000ae573d6000803e3d6000fd5b509050809150509695505050505050565b613e7580620004f983390190565b6000620000e4620000de8462000379565b62000350565b905082815260208101848484011115620000fd57600080fd5b6200010a84828562000409565b509392505050565b6000813590506200012381620004c4565b92915050565b600082601f8301126200013b57600080fd5b81356200014d848260208601620000cd565b91505092915050565b6000813590506200016781620004de565b92915050565b60008060008060008060c087890312156200018757600080fd5b600087013567ffffffffffffffff811115620001a257600080fd5b620001b089828a0162000129565b965050602087013567ffffffffffffffff811115620001ce57600080fd5b620001dc89828a0162000129565b955050604087013567ffffffffffffffff811115620001fa57600080fd5b6200020889828a0162000129565b94505060606200021b89828a0162000112565b93505060806200022e89828a0162000156565b92505060a06200024189828a0162000156565b9150509295509295509295565b6200025981620003cb565b82525050565b60006200026c82620003af565b620002788185620003ba565b93506200028a81856020860162000418565b6200029581620004b3565b840191505092915050565b620002ab81620003ff565b82525050565b6000602082019050620002c860008301846200024e565b92915050565b600060c0820190508181036000830152620002ea81896200025f565b905081810360208301526200030081886200025f565b905081810360408301526200031681876200025f565b90506200032760608301866200024e565b620003366080830185620002a0565b6200034560a0830184620002a0565b979650505050505050565b60006200035c6200036f565b90506200036a82826200044e565b919050565b6000604051905090565b600067ffffffffffffffff82111562000397576200039662000484565b5b620003a282620004b3565b9050602081019050919050565b600081519050919050565b600082825260208201905092915050565b6000620003d882620003df565b9050919050565b600073ffffffffffffffffffffffffffffffffffffffff82169050919050565b6000819050919050565b82818337600083830152505050565b60005b83811015620004385780820151818401526020810190506200041b565b8381111562000448576000848401525b50505050565b6200045982620004b3565b810181811067ffffffffffffffff821117156200047b576200047a62000484565b5b80604052505050565b7f4e487b7100000000000000000000000000000000000000000000000000000000600052604160045260246000fd5b6000601f19601f8301169050919050565b620004cf81620003cb565b8114620004db57600080fd5b50565b620004e981620003ff565b8114620004f557600080fd5b5056fe608060405260405180602001604052806001815250600d6000820151816000015550503480156200002f57600080fd5b5060405162003e7538038062003e7583398181016040528101906200005591906200037e565b858581600090805190602001906200006f9291906200022e565b508060019080519060200190620000889291906200022e565b505050620000ab6200009f6200016060201b60201c565b6200016860201b60201c565b32600760006101000a81548173ffffffffffffffffffffffffffffffffffffffff021916908373ffffffffffffffffffffffffffffffffffffffff16021790555083600c9080519060200190620001049291906200022e565b5082600860006101000a81548173ffffffffffffffffffffffffffffffffffffffff021916908373ffffffffffffffffffffffffffffffffffffffff1602179055508160098190555080600a8190555050505050505062000641565b600033905090565b6000600660009054906101000a900473ffffffffffffffffffffffffffffffffffffffff16905081600660006101000a81548173ffffffffffffffffffffffffffffffffffffffff021916908373ffffffffffffffffffffffffffffffffffffffff1602179055508173ffffffffffffffffffffffffffffffffffffffff168173ffffffffffffffffffffffffffffffffffffffff167f8be0079c531659141344cd1fd0a4f28419497f9722a3daafe3b4186f6b6457e060405160405180910390a35050565b8280546200023c9062000532565b90600052602060002090601f016020900481019282620002605760008555620002ac565b82601f106200027b57805160ff1916838001178555620002ac565b82800160010185558215620002ac579182015b82811115620002ab5782518255916020019190600101906200028e565b5b509050620002bb9190620002bf565b5090565b5b80821115620002da576000816000905550600101620002c0565b5090565b6000620002f5620002ef8462000488565b6200045f565b9050828152602081018484840111156200030e57600080fd5b6200031b848285620004fc565b509392505050565b60008151905062000334816200060d565b92915050565b600082601f8301126200034c57600080fd5b81516200035e848260208601620002de565b91505092915050565b600081519050620003788162000627565b92915050565b60008060008060008060c087890312156200039857600080fd5b600087015167ffffffffffffffff811115620003b357600080fd5b620003c189828a016200033a565b965050602087015167ffffffffffffffff811115620003df57600080fd5b620003ed89828a016200033a565b955050604087015167ffffffffffffffff8111156200040b57600080fd5b6200041989828a016200033a565b94505060606200042c89828a0162000323565b93505060806200043f89828a0162000367565b92505060a06200045289828a0162000367565b9150509295509295509295565b60006200046b6200047e565b905062000479828262000568565b919050565b6000604051905090565b600067ffffffffffffffff821115620004a657620004a5620005cd565b5b620004b182620005fc565b9050602081019050919050565b6000620004cb82620004d2565b9050919050565b600073ffffffffffffffffffffffffffffffffffffffff82169050919050565b6000819050919050565b60005b838110156200051c578082015181840152602081019050620004ff565b838111156200052c576000848401525b50505050565b600060028204905060018216806200054b57607f821691505b602082108114156200056257620005616200059e565b5b50919050565b6200057382620005fc565b810181811067ffffffffffffffff82111715620005955762000594620005cd565b5b80604052505050565b7f4e487b7100000000000000000000000000000000000000000000000000000000600052602260045260246000fd5b7f4e487b7100000000000000000000000000000000000000000000000000000000600052604160045260246000fd5b6000601f19601f8301169050919050565b6200061881620004be565b81146200062457600080fd5b50565b6200063281620004f2565b81146200063e57600080fd5b50565b61382480620006516000396000f3fe608060405234801561001057600080fd5b50600436106101585760003560e01c806370a08231116100c3578063b88d4fde1161007c578063b88d4fde1461038d578063c87b56dd146103a9578063d5abeb01146103d9578063e985e9c5146103f7578063eb5416fa14610427578063f2fde38b1461044557610158565b806370a08231146102dd578063715018a61461030d578063785e9e86146103175780638da5cb5b1461033557806395d89b4114610353578063a22cb4651461037157610158565b806323b872dd1161011557806323b872dd146102315780632c4e722e1461024d5780633ccfd60b1461026b57806342842e0e1461027557806355f804b3146102915780636352211e146102ad57610158565b806301ffc9a71461015d57806306fdde031461018d578063081812fc146101ab578063095ea7b3146101db5780631249c58b146101f7578063162094c414610215575b600080fd5b61017760048036038101906101729190612603565b610461565b6040516101849190612bb3565b60405180910390f35b610195610473565b6040516101a29190612bce565b60405180910390f35b6101c560048036038101906101c09190612696565b610505565b6040516101d29190612aec565b60405180910390f35b6101f560048036038101906101f0919061259e565b61058a565b005b6101ff6106a2565b60405161020c9190612e70565b60405180910390f35b61022f600480360381019061022a91906126e8565b610878565b005b61024b60048036038101906102469190612498565b61091d565b005b61025561097d565b6040516102629190612e70565b60405180910390f35b610273610983565b005b61028f600480360381019061028a9190612498565b610bd8565b005b6102ab60048036038101906102a69190612655565b610bf8565b005b6102c760048036038101906102c29190612696565b610ca9565b6040516102d49190612aec565b60405180910390f35b6102f760048036038101906102f29190612433565b610d5b565b6040516103049190612e70565b60405180910390f35b610315610e13565b005b61031f610e9b565b60405161032c9190612aec565b60405180910390f35b61033d610ec1565b60405161034a9190612aec565b60405180910390f35b61035b610eeb565b6040516103689190612bce565b60405180910390f35b61038b60048036038101906103869190612562565b610f7d565b005b6103a760048036038101906103a291906124e7565b6110fe565b005b6103c360048036038101906103be9190612696565b611160565b6040516103d09190612bce565b60405180910390f35b6103e16112d3565b6040516103ee9190612e70565b60405180910390f35b610411600480360381019061040c919061245c565b6112d9565b60405161041e9190612bb3565b60405180910390f35b61042f61136d565b60405161043c9190612aec565b60405180910390f35b61045f600480360381019061045a9190612433565b611393565b005b600061046c8261148b565b9050919050565b606060008054610482906130c6565b80601f01602080910402602001604051908101604052809291908181526020018280546104ae906130c6565b80156104fb5780601f106104d0576101008083540402835291602001916104fb565b820191906000526020600020905b8154815290600101906020018083116104de57829003601f168201915b5050505050905090565b60006105108261156d565b61054f576040517f08c379a000000000000000000000000000000000000000000000000000000000815260040161054690612d30565b60405180910390fd5b6004600083815260200190815260200160002060009054906101000a900473ffffffffffffffffffffffffffffffffffffffff169050919050565b600061059582610ca9565b90508073ffffffffffffffffffffffffffffffffffffffff168373ffffffffffffffffffffffffffffffffffffffff161415610606576040517f08c379a00000000000000000000000000000000000000000000000000000000081526004016105fd90612e10565b60405180910390fd5b8073ffffffffffffffffffffffffffffffffffffffff166106256115d9565b73ffffffffffffffffffffffffffffffffffffffff16148061065457506106538161064e6115d9565b6112d9565b5b610693576040517f08c379a000000000000000000000000000000000000000000000000000000000815260040161068a90612cb0565b60405180910390fd5b61069d83836115e1565b505050565b6000600a546106b1600d61169a565b11156106f2576040517f08c379a00000000000000000000000000000000000000000000000000000000081526004016106e990612d70565b60405180910390fd5b6106fc600d61169a565b90506000600860009054906101000a900473ffffffffffffffffffffffffffffffffffffffff1673ffffffffffffffffffffffffffffffffffffffff166323b872dd6107466115d9565b306009546040518463ffffffff1660e01b815260040161076893929190612b07565b602060405180830381600087803b15801561078257600080fd5b505af1158015610796573d6000803e3d6000fd5b505050506040513d601f19601f820116820180604052508101906107ba91906125da565b9050806107fc576040517f08c379a00000000000000000000000000000000000000000000000000000000081526004016107f390612e30565b60405180910390fd5b61080d6108076115d9565b836116a8565b816108166115d9565b73ffffffffffffffffffffffffffffffffffffffff167f0f6798a560793a54c3bcfe86a93cde1e73087d944c0ea20544137d412139688560405160405180910390a361086a82610865846116c6565b611873565b610874600d6118e7565b5090565b6108806115d9565b73ffffffffffffffffffffffffffffffffffffffff16600760009054906101000a900473ffffffffffffffffffffffffffffffffffffffff1673ffffffffffffffffffffffffffffffffffffffff161461090f576040517f08c379a000000000000000000000000000000000000000000000000000000000815260040161090690612df0565b60405180910390fd5b6109198282611873565b5050565b61092e6109286115d9565b826118fd565b61096d576040517f08c379a000000000000000000000000000000000000000000000000000000000815260040161096490612e50565b60405180910390fd5b6109788383836119db565b505050565b60095481565b61098b6115d9565b73ffffffffffffffffffffffffffffffffffffffff16600760009054906101000a900473ffffffffffffffffffffffffffffffffffffffff1673ffffffffffffffffffffffffffffffffffffffff1614610a1a576040517f08c379a0000000000000000000000000000000000000000000000000000000008152600401610a1190612df0565b60405180910390fd5b6000600860009054906101000a900473ffffffffffffffffffffffffffffffffffffffff1673ffffffffffffffffffffffffffffffffffffffff166370a08231306040518263ffffffff1660e01b8152600401610a779190612aec565b60206040518083038186803b158015610a8f57600080fd5b505afa158015610aa3573d6000803e3d6000fd5b505050506040513d601f19601f82011682018060405250810190610ac791906126bf565b9050600860009054906101000a900473ffffffffffffffffffffffffffffffffffffffff1673ffffffffffffffffffffffffffffffffffffffff1663a9059cbb610b0f6115d9565b836040518363ffffffff1660e01b8152600401610b2d929190612b8a565b602060405180830381600087803b158015610b4757600080fd5b505af1158015610b5b573d6000803e3d6000fd5b505050506040513d601f19601f82011682018060405250810190610b7f91906125da565b50610b886115d9565b73ffffffffffffffffffffffffffffffffffffffff167f884edad9ce6fa2440d8a54cc123490eb96d2768479d49ff9c7366125a942436482604051610bcd9190612e70565b60405180910390a250565b610bf3838383604051806020016040528060008152506110fe565b505050565b610c006115d9565b73ffffffffffffffffffffffffffffffffffffffff16600760009054906101000a900473ffffffffffffffffffffffffffffffffffffffff1673ffffffffffffffffffffffffffffffffffffffff1614610c8f576040517f08c379a0000000000000000000000000000000000000000000000000000000008152600401610c8690612df0565b60405180910390fd5b80600c9080519060200190610ca592919061222d565b5050565b6000806002600084815260200190815260200160002060009054906101000a900473ffffffffffffffffffffffffffffffffffffffff169050600073ffffffffffffffffffffffffffffffffffffffff168173ffffffffffffffffffffffffffffffffffffffff161415610d52576040517f08c379a0000000000000000000000000000000000000000000000000000000008152600401610d4990612cf0565b60405180910390fd5b80915050919050565b60008073ffffffffffffffffffffffffffffffffffffffff168273ffffffffffffffffffffffffffffffffffffffff161415610dcc576040517f08c379a0000000000000000000000000000000000000000000000000000000008152600401610dc390612cd0565b60405180910390fd5b600360008373ffffffffffffffffffffffffffffffffffffffff1673ffffffffffffffffffffffffffffffffffffffff168152602001908152602001600020549050919050565b610e1b6115d9565b73ffffffffffffffffffffffffffffffffffffffff16610e39610ec1565b73ffffffffffffffffffffffffffffffffffffffff1614610e8f576040517f08c379a0000000000000000000000000000000000000000000000000000000008152600401610e8690612d90565b60405180910390fd5b610e996000611c37565b565b600860009054906101000a900473ffffffffffffffffffffffffffffffffffffffff1681565b6000600660009054906101000a900473ffffffffffffffffffffffffffffffffffffffff16905090565b606060018054610efa906130c6565b80601f0160208091040260200160405190810160405280929190818152602001828054610f26906130c6565b8015610f735780601f10610f4857610100808354040283529160200191610f73565b820191906000526020600020905b815481529060010190602001808311610f5657829003601f168201915b5050505050905090565b610f856115d9565b73ffffffffffffffffffffffffffffffffffffffff168273ffffffffffffffffffffffffffffffffffffffff161415610ff3576040517f08c379a0000000000000000000000000000000000000000000000000000000008152600401610fea90612c70565b60405180910390fd5b80600560006110006115d9565b73ffffffffffffffffffffffffffffffffffffffff1673ffffffffffffffffffffffffffffffffffffffff16815260200190815260200160002060008473ffffffffffffffffffffffffffffffffffffffff1673ffffffffffffffffffffffffffffffffffffffff16815260200190815260200160002060006101000a81548160ff0219169083151502179055508173ffffffffffffffffffffffffffffffffffffffff166110ad6115d9565b73ffffffffffffffffffffffffffffffffffffffff167f17307eab39ab6107e8899845ad3d59bd9653f200f220920489ca2b5937696c31836040516110f29190612bb3565b60405180910390a35050565b61110f6111096115d9565b836118fd565b61114e576040517f08c379a000000000000000000000000000000000000000000000000000000000815260040161114590612e50565b60405180910390fd5b61115a84848484611cfd565b50505050565b606061116b8261156d565b6111aa576040517f08c379a00000000000000000000000000000000000000000000000000000000081526004016111a190612dd0565b60405180910390fd5b6000600b600084815260200190815260200160002080546111ca906130c6565b80601f01602080910402602001604051908101604052809291908181526020018280546111f6906130c6565b80156112435780601f1061121857610100808354040283529160200191611243565b820191906000526020600020905b81548152906001019060200180831161122657829003601f168201915b505050505090506000611254611d59565b905060008151141561126a5781925050506112ce565b60008251111561129f578082604051602001611287929190612ac8565b604051602081830303815290604052925050506112ce565b806112a9856116c6565b6040516020016112ba929190612ac8565b604051602081830303815290604052925050505b919050565b600a5481565b6000600560008473ffffffffffffffffffffffffffffffffffffffff1673ffffffffffffffffffffffffffffffffffffffff16815260200190815260200160002060008373ffffffffffffffffffffffffffffffffffffffff1673ffffffffffffffffffffffffffffffffffffffff16815260200190815260200160002060009054906101000a900460ff16905092915050565b600760009054906101000a900473ffffffffffffffffffffffffffffffffffffffff1681565b61139b6115d9565b73ffffffffffffffffffffffffffffffffffffffff166113b9610ec1565b73ffffffffffffffffffffffffffffffffffffffff161461140f576040517f08c379a000000000000000000000000000000000000000000000000000000000815260040161140690612d90565b60405180910390fd5b600073ffffffffffffffffffffffffffffffffffffffff168173ffffffffffffffffffffffffffffffffffffffff16141561147f576040517f08c379a000000000000000000000000000000000000000000000000000000000815260040161147690612c10565b60405180910390fd5b61148881611c37565b50565b60007f80ac58cd000000000000000000000000000000000000000000000000000000007bffffffffffffffffffffffffffffffffffffffffffffffffffffffff1916827bffffffffffffffffffffffffffffffffffffffffffffffffffffffff1916148061155657507f5b5e139f000000000000000000000000000000000000000000000000000000007bffffffffffffffffffffffffffffffffffffffffffffffffffffffff1916827bffffffffffffffffffffffffffffffffffffffffffffffffffffffff1916145b80611566575061156582611deb565b5b9050919050565b60008073ffffffffffffffffffffffffffffffffffffffff166002600084815260200190815260200160002060009054906101000a900473ffffffffffffffffffffffffffffffffffffffff1673ffffffffffffffffffffffffffffffffffffffff1614159050919050565b600033905090565b816004600083815260200190815260200160002060006101000a81548173ffffffffffffffffffffffffffffffffffffffff021916908373ffffffffffffffffffffffffffffffffffffffff160217905550808273ffffffffffffffffffffffffffffffffffffffff1661165483610ca9565b73ffffffffffffffffffffffffffffffffffffffff167f8c5be1e5ebec7d5bd14f71427d1e84f3dd0314c0f7b2291e5b200ac8c7c3b92560405160405180910390a45050565b600081600001549050919050565b6116c2828260405180602001604052806000815250611e55565b5050565b6060600082141561170e576040518060400160405280600181526020017f3000000000000000000000000000000000000000000000000000000000000000815250905061186e565b600082905060005b6000821461174057808061172990613129565b915050600a826117399190612fab565b9150611716565b60008167ffffffffffffffff811115611782577f4e487b7100000000000000000000000000000000000000000000000000000000600052604160045260246000fd5b6040519080825280601f01601f1916602001820160405280156117b45781602001600182028036833780820191505090505b5090505b60008514611867576001826117cd9190612fdc565b9150600a856117dc9190613172565b60306117e89190612f55565b60f81b818381518110611824577f4e487b7100000000000000000000000000000000000000000000000000000000600052603260045260246000fd5b60200101907effffffffffffffffffffffffffffffffffffffffffffffffffffffffffffff1916908160001a905350600a856118609190612fab565b94506117b8565b8093505050505b919050565b61187c8261156d565b6118bb576040517f08c379a00000000000000000000000000000000000000000000000000000000081526004016118b290612d50565b60405180910390fd5b80600b600084815260200190815260200160002090805190602001906118e292919061222d565b505050565b6001816000016000828254019250508190555050565b60006119088261156d565b611947576040517f08c379a000000000000000000000000000000000000000000000000000000000815260040161193e90612c90565b60405180910390fd5b600061195283610ca9565b90508073ffffffffffffffffffffffffffffffffffffffff168473ffffffffffffffffffffffffffffffffffffffff1614806119c157508373ffffffffffffffffffffffffffffffffffffffff166119a984610505565b73ffffffffffffffffffffffffffffffffffffffff16145b806119d257506119d181856112d9565b5b91505092915050565b8273ffffffffffffffffffffffffffffffffffffffff166119fb82610ca9565b73ffffffffffffffffffffffffffffffffffffffff1614611a51576040517f08c379a0000000000000000000000000000000000000000000000000000000008152600401611a4890612db0565b60405180910390fd5b600073ffffffffffffffffffffffffffffffffffffffff168273ffffffffffffffffffffffffffffffffffffffff161415611ac1576040517f08c379a0000000000000000000000000000000000000000000000000000000008152600401611ab890612c50565b60405180910390fd5b611acc838383611eb0565b611ad76000826115e1565b6001600360008573ffffffffffffffffffffffffffffffffffffffff1673ffffffffffffffffffffffffffffffffffffffff1681526020019081526020016000206000828254611b279190612fdc565b925050819055506001600360008473ffffffffffffffffffffffffffffffffffffffff1673ffffffffffffffffffffffffffffffffffffffff1681526020019081526020016000206000828254611b7e9190612f55565b92505081905550816002600083815260200190815260200160002060006101000a81548173ffffffffffffffffffffffffffffffffffffffff021916908373ffffffffffffffffffffffffffffffffffffffff160217905550808273ffffffffffffffffffffffffffffffffffffffff168473ffffffffffffffffffffffffffffffffffffffff167fddf252ad1be2c89b69c2b068fc378daa952ba7f163c4a11628f55a4df523b3ef60405160405180910390a4505050565b6000600660009054906101000a900473ffffffffffffffffffffffffffffffffffffffff16905081600660006101000a81548173ffffffffffffffffffffffffffffffffffffffff021916908373ffffffffffffffffffffffffffffffffffffffff1602179055508173ffffffffffffffffffffffffffffffffffffffff168173ffffffffffffffffffffffffffffffffffffffff167f8be0079c531659141344cd1fd0a4f28419497f9722a3daafe3b4186f6b6457e060405160405180910390a35050565b611d088484846119db565b611d1484848484611eb5565b611d53576040517f08c379a0000000000000000000000000000000000000000000000000000000008152600401611d4a90612bf0565b60405180910390fd5b50505050565b6060600c8054611d68906130c6565b80601f0160208091040260200160405190810160405280929190818152602001828054611d94906130c6565b8015611de15780601f10611db657610100808354040283529160200191611de1565b820191906000526020600020905b815481529060010190602001808311611dc457829003601f168201915b5050505050905090565b60007f01ffc9a7000000000000000000000000000000000000000000000000000000007bffffffffffffffffffffffffffffffffffffffffffffffffffffffff1916827bffffffffffffffffffffffffffffffffffffffffffffffffffffffff1916149050919050565b611e5f838361204c565b611e6c6000848484611eb5565b611eab576040517f08c379a0000000000000000000000000000000000000000000000000000000008152600401611ea290612bf0565b60405180910390fd5b505050565b505050565b6000611ed68473ffffffffffffffffffffffffffffffffffffffff1661221a565b1561203f578373ffffffffffffffffffffffffffffffffffffffff1663150b7a02611eff6115d9565b8786866040518563ffffffff1660e01b8152600401611f219493929190612b3e565b602060405180830381600087803b158015611f3b57600080fd5b505af1925050508015611f6c57506040513d601f19601f82011682018060405250810190611f69919061262c565b60015b611fef573d8060008114611f9c576040519150601f19603f3d011682016040523d82523d6000602084013e611fa1565b606091505b50600081511415611fe7576040517f08c379a0000000000000000000000000000000000000000000000000000000008152600401611fde90612bf0565b60405180910390fd5b805181602001fd5b63150b7a0260e01b7bffffffffffffffffffffffffffffffffffffffffffffffffffffffff1916817bffffffffffffffffffffffffffffffffffffffffffffffffffffffff191614915050612044565b600190505b949350505050565b600073ffffffffffffffffffffffffffffffffffffffff168273ffffffffffffffffffffffffffffffffffffffff1614156120bc576040517f08c379a00000000000000000000000000000000000000000000000000000000081526004016120b390612d10565b60405180910390fd5b6120c58161156d565b15612105576040517f08c379a00000000000000000000000000000000000000000000000000000000081526004016120fc90612c30565b60405180910390fd5b61211160008383611eb0565b6001600360008473ffffffffffffffffffffffffffffffffffffffff1673ffffffffffffffffffffffffffffffffffffffff16815260200190815260200160002060008282546121619190612f55565b92505081905550816002600083815260200190815260200160002060006101000a81548173ffffffffffffffffffffffffffffffffffffffff021916908373ffffffffffffffffffffffffffffffffffffffff160217905550808273ffffffffffffffffffffffffffffffffffffffff16600073ffffffffffffffffffffffffffffffffffffffff167fddf252ad1be2c89b69c2b068fc378daa952ba7f163c4a11628f55a4df523b3ef60405160405180910390a45050565b600080823b905060008111915050919050565b828054612239906130c6565b90600052602060002090601f01602090048101928261225b57600085556122a2565b82601f1061227457805160ff19168380011785556122a2565b828001600101855582156122a2579182015b828111156122a1578251825591602001919060010190612286565b5b5090506122af91906122b3565b5090565b5b808211156122cc5760008160009055506001016122b4565b5090565b60006122e36122de84612eb0565b612e8b565b9050828152602081018484840111156122fb57600080fd5b612306848285613084565b509392505050565b600061232161231c84612ee1565b612e8b565b90508281526020810184848401111561233957600080fd5b612344848285613084565b509392505050565b60008135905061235b81613792565b92915050565b600081359050612370816137a9565b92915050565b600081519050612385816137a9565b92915050565b60008135905061239a816137c0565b92915050565b6000815190506123af816137c0565b92915050565b600082601f8301126123c657600080fd5b81356123d68482602086016122d0565b91505092915050565b600082601f8301126123f057600080fd5b813561240084826020860161230e565b91505092915050565b600081359050612418816137d7565b92915050565b60008151905061242d816137d7565b92915050565b60006020828403121561244557600080fd5b60006124538482850161234c565b91505092915050565b6000806040838503121561246f57600080fd5b600061247d8582860161234c565b925050602061248e8582860161234c565b9150509250929050565b6000806000606084860312156124ad57600080fd5b60006124bb8682870161234c565b93505060206124cc8682870161234c565b92505060406124dd86828701612409565b9150509250925092565b600080600080608085870312156124fd57600080fd5b600061250b8782880161234c565b945050602061251c8782880161234c565b935050604061252d87828801612409565b925050606085013567ffffffffffffffff81111561254a57600080fd5b612556878288016123b5565b91505092959194509250565b6000806040838503121561257557600080fd5b60006125838582860161234c565b925050602061259485828601612361565b9150509250929050565b600080604083850312156125b157600080fd5b60006125bf8582860161234c565b92505060206125d085828601612409565b9150509250929050565b6000602082840312156125ec57600080fd5b60006125fa84828501612376565b91505092915050565b60006020828403121561261557600080fd5b60006126238482850161238b565b91505092915050565b60006020828403121561263e57600080fd5b600061264c848285016123a0565b91505092915050565b60006020828403121561266757600080fd5b600082013567ffffffffffffffff81111561268157600080fd5b61268d848285016123df565b91505092915050565b6000602082840312156126a857600080fd5b60006126b684828501612409565b91505092915050565b6000602082840312156126d157600080fd5b60006126df8482850161241e565b91505092915050565b600080604083850312156126fb57600080fd5b600061270985828601612409565b925050602083013567ffffffffffffffff81111561272657600080fd5b612732858286016123df565b9150509250929050565b61274581613010565b82525050565b61275481613022565b82525050565b600061276582612f12565b61276f8185612f28565b935061277f818560208601613093565b6127888161325f565b840191505092915050565b600061279e82612f1d565b6127a88185612f39565b93506127b8818560208601613093565b6127c18161325f565b840191505092915050565b60006127d782612f1d565b6127e18185612f4a565b93506127f1818560208601613093565b80840191505092915050565b600061280a603283612f39565b915061281582613270565b604082019050919050565b600061282d602683612f39565b9150612838826132bf565b604082019050919050565b6000612850601c83612f39565b915061285b8261330e565b602082019050919050565b6000612873602483612f39565b915061287e82613337565b604082019050919050565b6000612896601983612f39565b91506128a182613386565b602082019050919050565b60006128b9602c83612f39565b91506128c4826133af565b604082019050919050565b60006128dc603883612f39565b91506128e7826133fe565b604082019050919050565b60006128ff602a83612f39565b915061290a8261344d565b604082019050919050565b6000612922602983612f39565b915061292d8261349c565b604082019050919050565b6000612945602083612f39565b9150612950826134eb565b602082019050919050565b6000612968602c83612f39565b915061297382613514565b604082019050919050565b600061298b602c83612f39565b915061299682613563565b604082019050919050565b60006129ae601d83612f39565b91506129b9826135b2565b602082019050919050565b60006129d1602083612f39565b91506129dc826135db565b602082019050919050565b60006129f4602983612f39565b91506129ff82613604565b604082019050919050565b6000612a17602f83612f39565b9150612a2282613653565b604082019050919050565b6000612a3a601b83612f39565b9150612a45826136a2565b602082019050919050565b6000612a5d602183612f39565b9150612a68826136cb565b604082019050919050565b6000612a80601083612f39565b9150612a8b8261371a565b602082019050919050565b6000612aa3603183612f39565b9150612aae82613743565b604082019050919050565b612ac28161307a565b82525050565b6000612ad482856127cc565b9150612ae082846127cc565b91508190509392505050565b6000602082019050612b01600083018461273c565b92915050565b6000606082019050612b1c600083018661273c565b612b29602083018561273c565b612b366040830184612ab9565b949350505050565b6000608082019050612b53600083018761273c565b612b60602083018661273c565b612b6d6040830185612ab9565b8181036060830152612b7f818461275a565b905095945050505050565b6000604082019050612b9f600083018561273c565b612bac6020830184612ab9565b9392505050565b6000602082019050612bc8600083018461274b565b92915050565b60006020820190508181036000830152612be88184612793565b905092915050565b60006020820190508181036000830152612c09816127fd565b9050919050565b60006020820190508181036000830152612c2981612820565b9050919050565b60006020820190508181036000830152612c4981612843565b9050919050565b60006020820190508181036000830152612c6981612866565b9050919050565b60006020820190508181036000830152612c8981612889565b9050919050565b60006020820190508181036000830152612ca9816128ac565b9050919050565b60006020820190508181036000830152612cc9816128cf565b9050919050565b60006020820190508181036000830152612ce9816128f2565b9050919050565b60006020820190508181036000830152612d0981612915565b9050919050565b60006020820190508181036000830152612d2981612938565b9050919050565b60006020820190508181036000830152612d498161295b565b9050919050565b60006020820190508181036000830152612d698161297e565b9050919050565b60006020820190508181036000830152612d89816129a1565b9050919050565b60006020820190508181036000830152612da9816129c4565b9050919050565b60006020820190508181036000830152612dc9816129e7565b9050919050565b60006020820190508181036000830152612de981612a0a565b9050919050565b60006020820190508181036000830152612e0981612a2d565b9050919050565b60006020820190508181036000830152612e2981612a50565b9050919050565b60006020820190508181036000830152612e4981612a73565b9050919050565b60006020820190508181036000830152612e6981612a96565b9050919050565b6000602082019050612e856000830184612ab9565b92915050565b6000612e95612ea6565b9050612ea182826130f8565b919050565b6000604051905090565b600067ffffffffffffffff821115612ecb57612eca613230565b5b612ed48261325f565b9050602081019050919050565b600067ffffffffffffffff821115612efc57612efb613230565b5b612f058261325f565b9050602081019050919050565b600081519050919050565b600081519050919050565b600082825260208201905092915050565b600082825260208201905092915050565b600081905092915050565b6000612f608261307a565b9150612f6b8361307a565b9250827fffffffffffffffffffffffffffffffffffffffffffffffffffffffffffffffff03821115612fa057612f9f6131a3565b5b828201905092915050565b6000612fb68261307a565b9150612fc18361307a565b925082612fd157612fd06131d2565b5b828204905092915050565b6000612fe78261307a565b9150612ff28361307a565b925082821015613005576130046131a3565b5b828203905092915050565b600061301b8261305a565b9050919050565b60008115159050919050565b60007fffffffff0000000000000000000000000000000000000000000000000000000082169050919050565b600073ffffffffffffffffffffffffffffffffffffffff82169050919050565b6000819050919050565b82818337600083830152505050565b60005b838110156130b1578082015181840152602081019050613096565b838111156130c0576000848401525b50505050565b600060028204905060018216806130de57607f821691505b602082108114156130f2576130f1613201565b5b50919050565b6131018261325f565b810181811067ffffffffffffffff821117156131205761311f613230565b5b80604052505050565b60006131348261307a565b91507fffffffffffffffffffffffffffffffffffffffffffffffffffffffffffffffff821415613167576131666131a3565b5b600182019050919050565b600061317d8261307a565b91506131888361307a565b925082613198576131976131d2565b5b828206905092915050565b7f4e487b7100000000000000000000000000000000000000000000000000000000600052601160045260246000fd5b7f4e487b7100000000000000000000000000000000000000000000000000000000600052601260045260246000fd5b7f4e487b7100000000000000000000000000000000000000000000000000000000600052602260045260246000fd5b7f4e487b7100000000000000000000000000000000000000000000000000000000600052604160045260246000fd5b6000601f19601f8301169050919050565b7f4552433732313a207472616e7366657220746f206e6f6e20455243373231526560008201527f63656976657220696d706c656d656e7465720000000000000000000000000000602082015250565b7f4f776e61626c653a206e6577206f776e657220697320746865207a65726f206160008201527f6464726573730000000000000000000000000000000000000000000000000000602082015250565b7f4552433732313a20746f6b656e20616c7265616479206d696e74656400000000600082015250565b7f4552433732313a207472616e7366657220746f20746865207a65726f2061646460008201527f7265737300000000000000000000000000000000000000000000000000000000602082015250565b7f4552433732313a20617070726f766520746f2063616c6c657200000000000000600082015250565b7f4552433732313a206f70657261746f7220717565727920666f72206e6f6e657860008201527f697374656e7420746f6b656e0000000000000000000000000000000000000000602082015250565b7f4552433732313a20617070726f76652063616c6c6572206973206e6f74206f7760008201527f6e6572206e6f7220617070726f76656420666f7220616c6c0000000000000000602082015250565b7f4552433732313a2062616c616e636520717565727920666f7220746865207a6560008201527f726f206164647265737300000000000000000000000000000000000000000000602082015250565b7f4552433732313a206f776e657220717565727920666f72206e6f6e657869737460008201527f656e7420746f6b656e0000000000000000000000000000000000000000000000602082015250565b7f4552433732313a206d696e7420746f20746865207a65726f2061646472657373600082015250565b7f4552433732313a20617070726f76656420717565727920666f72206e6f6e657860008201527f697374656e7420746f6b656e0000000000000000000000000000000000000000602082015250565b7f4552433732314d657461646174613a2055524920736574206f66206e6f6e657860008201527f697374656e7420746f6b656e0000000000000000000000000000000000000000602082015250565b7f4572726f723a2065786365656473206d6178696d756d20737570706c79000000600082015250565b7f4f776e61626c653a2063616c6c6572206973206e6f7420746865206f776e6572600082015250565b7f4552433732313a207472616e73666572206f6620746f6b656e2074686174206960008201527f73206e6f74206f776e0000000000000000000000000000000000000000000000602082015250565b7f4552433732314d657461646174613a2055524920717565727920666f72206e6f60008201527f6e6578697374656e7420746f6b656e0000000000000000000000000000000000602082015250565b7f4572726f723a206d75737420686176652061646d696e20726f6c650000000000600082015250565b7f4552433732313a20617070726f76616c20746f2063757272656e74206f776e6560008201527f7200000000000000000000000000000000000000000000000000000000000000602082015250565b7f5472616e73666572206661696c65642e00000000000000000000000000000000600082015250565b7f4552433732313a207472616e736665722063616c6c6572206973206e6f74206f60008201527f776e6572206e6f7220617070726f766564000000000000000000000000000000602082015250565b61379b81613010565b81146137a657600080fd5b50565b6137b281613022565b81146137bd57600080fd5b50565b6137c98161302e565b81146137d457600080fd5b50565b6137e08161307a565b81146137eb57600080fd5b5056fea26469706673582212200075a28c32dd95ca4d40bfdba7a53e042ed20ff4723fcb000e525d2bf56a455964736f6c63430008040033a26469706673582212208b08ae03948fdac8fc7c45f65db4761657df2ee0b5d6b409fb71ddd1f92d725c64736f6c63430008040033",
  "linkReferences": {},
  "deployedLinkReferences": {}
}