{
  "_format": "hh-sol-artifact-1",
  "contractName": "GammaDeployer",
  "sourceName": "contracts/deployers/GammaDeployer.sol",
  "abi": [
    {
      "inputs": [
        {
          "internalType": "string",
          "name": "_name",
          "type": "string"
        },
        {
          "internalType": "string",
          "name": "_symbol",
          "type": "string"
        },
        {
          "internalType": "address",
          "name": "_erc20",
          "type": "address"
        },
        {
          "internalType": "uint256",
          "name": "_rate",
          "type": "uint256"
        }
      ],
      "name": "deployGamma",
      "outputs": [
        {
          "internalType": "address",
          "name": "",
          "type": "address"
        }
      ],
      "stateMutability": "nonpayable",
      "type": "function"
    }
  ],
  "bytecode": "0x608060405234801561001057600080fd5b506137df806100206000396000f3fe60806040523480156200001157600080fd5b50600436106200002e5760003560e01c806319e049c41462000033575b600080fd5b6200005160048036038101906200004b919062000167565b62000069565b60405162000060919062000268565b60405180910390f35b600080858585856040516200007e90620000b9565b6200008d949392919062000285565b604051809103906000f080158015620000aa573d6000803e3d6000fd5b50905080915050949350505050565b613321806200048983390190565b6000620000de620000d88462000309565b620002e0565b905082815260208101848484011115620000f757600080fd5b6200010484828562000399565b509392505050565b6000813590506200011d8162000454565b92915050565b600082601f8301126200013557600080fd5b813562000147848260208601620000c7565b91505092915050565b60008135905062000161816200046e565b92915050565b600080600080608085870312156200017e57600080fd5b600085013567ffffffffffffffff8111156200019957600080fd5b620001a78782880162000123565b945050602085013567ffffffffffffffff811115620001c557600080fd5b620001d38782880162000123565b9350506040620001e6878288016200010c565b9250506060620001f98782880162000150565b91505092959194509250565b62000210816200035b565b82525050565b600062000223826200033f565b6200022f81856200034a565b935062000241818560208601620003a8565b6200024c8162000443565b840191505092915050565b62000262816200038f565b82525050565b60006020820190506200027f600083018462000205565b92915050565b60006080820190508181036000830152620002a1818762000216565b90508181036020830152620002b7818662000216565b9050620002c8604083018562000205565b620002d7606083018462000257565b95945050505050565b6000620002ec620002ff565b9050620002fa8282620003de565b919050565b6000604051905090565b600067ffffffffffffffff82111562000327576200032662000414565b5b620003328262000443565b9050602081019050919050565b600081519050919050565b600082825260208201905092915050565b600062000368826200036f565b9050919050565b600073ffffffffffffffffffffffffffffffffffffffff82169050919050565b6000819050919050565b82818337600083830152505050565b60005b83811015620003c8578082015181840152602081019050620003ab565b83811115620003d8576000848401525b50505050565b620003e98262000443565b810181811067ffffffffffffffff821117156200040b576200040a62000414565b5b80604052505050565b7f4e487b7100000000000000000000000000000000000000000000000000000000600052604160045260246000fd5b6000601f19601f8301169050919050565b6200045f816200035b565b81146200046b57600080fd5b50565b62000479816200038f565b81146200048557600080fd5b5056fe60806040526040518060200160405280600181525060096000820151816000015550503480156200002f57600080fd5b50604051620033213803806200332183398181016040528101906200005591906200026e565b838381600090805190602001906200006f9291906200011e565b508060019080519060200190620000889291906200011e565b50505032600660006101000a81548173ffffffffffffffffffffffffffffffffffffffff021916908373ffffffffffffffffffffffffffffffffffffffff16021790555081600760006101000a81548173ffffffffffffffffffffffffffffffffffffffff021916908373ffffffffffffffffffffffffffffffffffffffff1602179055508060088190555050505050620004ee565b8280546200012c90620003df565b90600052602060002090601f0160209004810192826200015057600085556200019c565b82601f106200016b57805160ff19168380011785556200019c565b828001600101855582156200019c579182015b828111156200019b5782518255916020019190600101906200017e565b5b509050620001ab9190620001af565b5090565b5b80821115620001ca576000816000905550600101620001b0565b5090565b6000620001e5620001df8462000335565b6200030c565b905082815260208101848484011115620001fe57600080fd5b6200020b848285620003a9565b509392505050565b6000815190506200022481620004ba565b92915050565b600082601f8301126200023c57600080fd5b81516200024e848260208601620001ce565b91505092915050565b6000815190506200026881620004d4565b92915050565b600080600080608085870312156200028557600080fd5b600085015167ffffffffffffffff811115620002a057600080fd5b620002ae878288016200022a565b945050602085015167ffffffffffffffff811115620002cc57600080fd5b620002da878288016200022a565b9350506040620002ed8782880162000213565b9250506060620003008782880162000257565b91505092959194509250565b6000620003186200032b565b905062000326828262000415565b919050565b6000604051905090565b600067ffffffffffffffff8211156200035357620003526200047a565b5b6200035e82620004a9565b9050602081019050919050565b600062000378826200037f565b9050919050565b600073ffffffffffffffffffffffffffffffffffffffff82169050919050565b6000819050919050565b60005b83811015620003c9578082015181840152602081019050620003ac565b83811115620003d9576000848401525b50505050565b60006002820490506001821680620003f857607f821691505b602082108114156200040f576200040e6200044b565b5b50919050565b6200042082620004a9565b810181811067ffffffffffffffff821117156200044257620004416200047a565b5b80604052505050565b7f4e487b7100000000000000000000000000000000000000000000000000000000600052602260045260246000fd5b7f4e487b7100000000000000000000000000000000000000000000000000000000600052604160045260246000fd5b6000601f19601f8301169050919050565b620004c5816200036b565b8114620004d157600080fd5b50565b620004df816200039f565b8114620004eb57600080fd5b50565b612e2380620004fe6000396000f3fe608060405234801561001057600080fd5b50600436106101165760003560e01c80636352211e116100a257806395d89b411161007157806395d89b41146102cf578063a22cb465146102ed578063b88d4fde14610309578063c87b56dd14610325578063e985e9c51461035557610116565b80636352211e1461023357806370a0823114610263578063785e9e86146102935780638da5cb5b146102b157610116565b80631249c58b116100e95780631249c58b146101b557806323b872dd146101d35780632c4e722e146101ef5780633ccfd60b1461020d57806342842e0e1461021757610116565b806301ffc9a71461011b57806306fdde031461014b578063081812fc14610169578063095ea7b314610199575b600080fd5b61013560048036038101906101309190611ec4565b610385565b6040516101429190612353565b60405180910390f35b610153610397565b604051610160919061236e565b60405180910390f35b610183600480360381019061017e9190611f16565b610429565b604051610190919061228c565b60405180910390f35b6101b360048036038101906101ae9190611e5f565b6104ae565b005b6101bd6105c6565b6040516101ca9190612590565b60405180910390f35b6101ed60048036038101906101e89190611d59565b6107cb565b005b6101f761082b565b6040516102049190612590565b60405180910390f35b610215610831565b005b610231600480360381019061022c9190611d59565b610a86565b005b61024d60048036038101906102489190611f16565b610aa6565b60405161025a919061228c565b60405180910390f35b61027d60048036038101906102789190611cf4565b610b58565b60405161028a9190612590565b60405180910390f35b61029b610c10565b6040516102a8919061228c565b60405180910390f35b6102b9610c36565b6040516102c6919061228c565b60405180910390f35b6102d7610c5c565b6040516102e4919061236e565b60405180910390f35b61030760048036038101906103029190611e23565b610cee565b005b610323600480360381019061031e9190611da8565b610e6f565b005b61033f600480360381019061033a9190611f16565b610ed1565b60405161034c919061236e565b60405180910390f35b61036f600480360381019061036a9190611d1d565b610f78565b60405161037c9190612353565b60405180910390f35b60006103908261100c565b9050919050565b6060600080546103a6906127b5565b80601f01602080910402602001604051908101604052809291908181526020018280546103d2906127b5565b801561041f5780601f106103f45761010080835404028352916020019161041f565b820191906000526020600020905b81548152906001019060200180831161040257829003601f168201915b5050505050905090565b6000610434826110ee565b610473576040517f08c379a000000000000000000000000000000000000000000000000000000000815260040161046a906124b0565b60405180910390fd5b6004600083815260200190815260200160002060009054906101000a900473ffffffffffffffffffffffffffffffffffffffff169050919050565b60006104b982610aa6565b90508073ffffffffffffffffffffffffffffffffffffffff168373ffffffffffffffffffffffffffffffffffffffff16141561052a576040517f08c379a000000000000000000000000000000000000000000000000000000000815260040161052190612550565b60405180910390fd5b8073ffffffffffffffffffffffffffffffffffffffff1661054961115a565b73ffffffffffffffffffffffffffffffffffffffff16148061057857506105778161057261115a565b610f78565b5b6105b7576040517f08c379a00000000000000000000000000000000000000000000000000000000081526004016105ae90612430565b60405180910390fd5b6105c18383611162565b505050565b600080600a60006105d561115a565b73ffffffffffffffffffffffffffffffffffffffff1673ffffffffffffffffffffffffffffffffffffffff1681526020019081526020016000205414610650576040517f08c379a000000000000000000000000000000000000000000000000000000000815260040161064790612530565b60405180910390fd5b61065a600961121b565b9050600760009054906101000a900473ffffffffffffffffffffffffffffffffffffffff1673ffffffffffffffffffffffffffffffffffffffff166323b872dd6106a261115a565b306008546040518463ffffffff1660e01b81526004016106c4939291906122a7565b602060405180830381600087803b1580156106de57600080fd5b505af11580156106f2573d6000803e3d6000fd5b505050506040513d601f19601f820116820180604052508101906107169190611e9b565b5061072861072261115a565b82611229565b80600a600061073561115a565b73ffffffffffffffffffffffffffffffffffffffff1673ffffffffffffffffffffffffffffffffffffffff168152602001908152602001600020819055508061077c61115a565b73ffffffffffffffffffffffffffffffffffffffff167f0f6798a560793a54c3bcfe86a93cde1e73087d944c0ea20544137d412139688560405160405180910390a36107c86009611247565b90565b6107dc6107d661115a565b8261125d565b61081b576040517f08c379a000000000000000000000000000000000000000000000000000000000815260040161081290612570565b60405180910390fd5b61082683838361133b565b505050565b60085481565b61083961115a565b73ffffffffffffffffffffffffffffffffffffffff16600660009054906101000a900473ffffffffffffffffffffffffffffffffffffffff1673ffffffffffffffffffffffffffffffffffffffff16146108c8576040517f08c379a00000000000000000000000000000000000000000000000000000000081526004016108bf906124d0565b60405180910390fd5b6000600760009054906101000a900473ffffffffffffffffffffffffffffffffffffffff1673ffffffffffffffffffffffffffffffffffffffff166370a08231306040518263ffffffff1660e01b8152600401610925919061228c565b60206040518083038186803b15801561093d57600080fd5b505afa158015610951573d6000803e3d6000fd5b505050506040513d601f19601f820116820180604052508101906109759190611f3f565b9050600760009054906101000a900473ffffffffffffffffffffffffffffffffffffffff1673ffffffffffffffffffffffffffffffffffffffff1663a9059cbb6109bd61115a565b836040518363ffffffff1660e01b81526004016109db92919061232a565b602060405180830381600087803b1580156109f557600080fd5b505af1158015610a09573d6000803e3d6000fd5b505050506040513d601f19601f82011682018060405250810190610a2d9190611e9b565b50610a3661115a565b73ffffffffffffffffffffffffffffffffffffffff167f884edad9ce6fa2440d8a54cc123490eb96d2768479d49ff9c7366125a942436482604051610a7b9190612590565b60405180910390a250565b610aa183838360405180602001604052806000815250610e6f565b505050565b6000806002600084815260200190815260200160002060009054906101000a900473ffffffffffffffffffffffffffffffffffffffff169050600073ffffffffffffffffffffffffffffffffffffffff168173ffffffffffffffffffffffffffffffffffffffff161415610b4f576040517f08c379a0000000000000000000000000000000000000000000000000000000008152600401610b4690612470565b60405180910390fd5b80915050919050565b60008073ffffffffffffffffffffffffffffffffffffffff168273ffffffffffffffffffffffffffffffffffffffff161415610bc9576040517f08c379a0000000000000000000000000000000000000000000000000000000008152600401610bc090612450565b60405180910390fd5b600360008373ffffffffffffffffffffffffffffffffffffffff1673ffffffffffffffffffffffffffffffffffffffff168152602001908152602001600020549050919050565b600760009054906101000a900473ffffffffffffffffffffffffffffffffffffffff1681565b600660009054906101000a900473ffffffffffffffffffffffffffffffffffffffff1681565b606060018054610c6b906127b5565b80601f0160208091040260200160405190810160405280929190818152602001828054610c97906127b5565b8015610ce45780601f10610cb957610100808354040283529160200191610ce4565b820191906000526020600020905b815481529060010190602001808311610cc757829003601f168201915b5050505050905090565b610cf661115a565b73ffffffffffffffffffffffffffffffffffffffff168273ffffffffffffffffffffffffffffffffffffffff161415610d64576040517f08c379a0000000000000000000000000000000000000000000000000000000008152600401610d5b906123f0565b60405180910390fd5b8060056000610d7161115a565b73ffffffffffffffffffffffffffffffffffffffff1673ffffffffffffffffffffffffffffffffffffffff16815260200190815260200160002060008473ffffffffffffffffffffffffffffffffffffffff1673ffffffffffffffffffffffffffffffffffffffff16815260200190815260200160002060006101000a81548160ff0219169083151502179055508173ffffffffffffffffffffffffffffffffffffffff16610e1e61115a565b73ffffffffffffffffffffffffffffffffffffffff167f17307eab39ab6107e8899845ad3d59bd9653f200f220920489ca2b5937696c3183604051610e639190612353565b60405180910390a35050565b610e80610e7a61115a565b8361125d565b610ebf576040517f08c379a0000000000000000000000000000000000000000000000000000000008152600401610eb690612570565b60405180910390fd5b610ecb84848484611597565b50505050565b6060610edc826110ee565b610f1b576040517f08c379a0000000000000000000000000000000000000000000000000000000008152600401610f1290612510565b60405180910390fd5b6000610f256115f3565b90506000815111610f455760405180602001604052806000815250610f70565b80610f4f8461160a565b604051602001610f60929190612268565b6040516020818303038152906040525b915050919050565b6000600560008473ffffffffffffffffffffffffffffffffffffffff1673ffffffffffffffffffffffffffffffffffffffff16815260200190815260200160002060008373ffffffffffffffffffffffffffffffffffffffff1673ffffffffffffffffffffffffffffffffffffffff16815260200190815260200160002060009054906101000a900460ff16905092915050565b60007f80ac58cd000000000000000000000000000000000000000000000000000000007bffffffffffffffffffffffffffffffffffffffffffffffffffffffff1916827bffffffffffffffffffffffffffffffffffffffffffffffffffffffff191614806110d757507f5b5e139f000000000000000000000000000000000000000000000000000000007bffffffffffffffffffffffffffffffffffffffffffffffffffffffff1916827bffffffffffffffffffffffffffffffffffffffffffffffffffffffff1916145b806110e757506110e6826117b7565b5b9050919050565b60008073ffffffffffffffffffffffffffffffffffffffff166002600084815260200190815260200160002060009054906101000a900473ffffffffffffffffffffffffffffffffffffffff1673ffffffffffffffffffffffffffffffffffffffff1614159050919050565b600033905090565b816004600083815260200190815260200160002060006101000a81548173ffffffffffffffffffffffffffffffffffffffff021916908373ffffffffffffffffffffffffffffffffffffffff160217905550808273ffffffffffffffffffffffffffffffffffffffff166111d583610aa6565b73ffffffffffffffffffffffffffffffffffffffff167f8c5be1e5ebec7d5bd14f71427d1e84f3dd0314c0f7b2291e5b200ac8c7c3b92560405160405180910390a45050565b600081600001549050919050565b611243828260405180602001604052806000815250611821565b5050565b6001816000016000828254019250508190555050565b6000611268826110ee565b6112a7576040517f08c379a000000000000000000000000000000000000000000000000000000000815260040161129e90612410565b60405180910390fd5b60006112b283610aa6565b90508073ffffffffffffffffffffffffffffffffffffffff168473ffffffffffffffffffffffffffffffffffffffff16148061132157508373ffffffffffffffffffffffffffffffffffffffff1661130984610429565b73ffffffffffffffffffffffffffffffffffffffff16145b8061133257506113318185610f78565b5b91505092915050565b8273ffffffffffffffffffffffffffffffffffffffff1661135b82610aa6565b73ffffffffffffffffffffffffffffffffffffffff16146113b1576040517f08c379a00000000000000000000000000000000000000000000000000000000081526004016113a8906124f0565b60405180910390fd5b600073ffffffffffffffffffffffffffffffffffffffff168273ffffffffffffffffffffffffffffffffffffffff161415611421576040517f08c379a0000000000000000000000000000000000000000000000000000000008152600401611418906123d0565b60405180910390fd5b61142c83838361187c565b611437600082611162565b6001600360008573ffffffffffffffffffffffffffffffffffffffff1673ffffffffffffffffffffffffffffffffffffffff168152602001908152602001600020600082825461148791906126cb565b925050819055506001600360008473ffffffffffffffffffffffffffffffffffffffff1673ffffffffffffffffffffffffffffffffffffffff16815260200190815260200160002060008282546114de9190612644565b92505081905550816002600083815260200190815260200160002060006101000a81548173ffffffffffffffffffffffffffffffffffffffff021916908373ffffffffffffffffffffffffffffffffffffffff160217905550808273ffffffffffffffffffffffffffffffffffffffff168473ffffffffffffffffffffffffffffffffffffffff167fddf252ad1be2c89b69c2b068fc378daa952ba7f163c4a11628f55a4df523b3ef60405160405180910390a4505050565b6115a284848461133b565b6115ae84848484611881565b6115ed576040517f08c379a00000000000000000000000000000000000000000000000000000000081526004016115e490612390565b60405180910390fd5b50505050565b606060405180602001604052806000815250905090565b60606000821415611652576040518060400160405280600181526020017f300000000000000000000000000000000000000000000000000000000000000081525090506117b2565b600082905060005b6000821461168457808061166d90612818565b915050600a8261167d919061269a565b915061165a565b60008167ffffffffffffffff8111156116c6577f4e487b7100000000000000000000000000000000000000000000000000000000600052604160045260246000fd5b6040519080825280601f01601f1916602001820160405280156116f85781602001600182028036833780820191505090505b5090505b600085146117ab5760018261171191906126cb565b9150600a856117209190612861565b603061172c9190612644565b60f81b818381518110611768577f4e487b7100000000000000000000000000000000000000000000000000000000600052603260045260246000fd5b60200101907effffffffffffffffffffffffffffffffffffffffffffffffffffffffffffff1916908160001a905350600a856117a4919061269a565b94506116fc565b8093505050505b919050565b60007f01ffc9a7000000000000000000000000000000000000000000000000000000007bffffffffffffffffffffffffffffffffffffffffffffffffffffffff1916827bffffffffffffffffffffffffffffffffffffffffffffffffffffffff1916149050919050565b61182b8383611a18565b6118386000848484611881565b611877576040517f08c379a000000000000000000000000000000000000000000000000000000000815260040161186e90612390565b60405180910390fd5b505050565b505050565b60006118a28473ffffffffffffffffffffffffffffffffffffffff16611be6565b15611a0b578373ffffffffffffffffffffffffffffffffffffffff1663150b7a026118cb61115a565b8786866040518563ffffffff1660e01b81526004016118ed94939291906122de565b602060405180830381600087803b15801561190757600080fd5b505af192505050801561193857506040513d601f19601f820116820180604052508101906119359190611eed565b60015b6119bb573d8060008114611968576040519150601f19603f3d011682016040523d82523d6000602084013e61196d565b606091505b506000815114156119b3576040517f08c379a00000000000000000000000000000000000000000000000000000000081526004016119aa90612390565b60405180910390fd5b805181602001fd5b63150b7a0260e01b7bffffffffffffffffffffffffffffffffffffffffffffffffffffffff1916817bffffffffffffffffffffffffffffffffffffffffffffffffffffffff191614915050611a10565b600190505b949350505050565b600073ffffffffffffffffffffffffffffffffffffffff168273ffffffffffffffffffffffffffffffffffffffff161415611a88576040517f08c379a0000000000000000000000000000000000000000000000000000000008152600401611a7f90612490565b60405180910390fd5b611a91816110ee565b15611ad1576040517f08c379a0000000000000000000000000000000000000000000000000000000008152600401611ac8906123b0565b60405180910390fd5b611add6000838361187c565b6001600360008473ffffffffffffffffffffffffffffffffffffffff1673ffffffffffffffffffffffffffffffffffffffff1681526020019081526020016000206000828254611b2d9190612644565b92505081905550816002600083815260200190815260200160002060006101000a81548173ffffffffffffffffffffffffffffffffffffffff021916908373ffffffffffffffffffffffffffffffffffffffff160217905550808273ffffffffffffffffffffffffffffffffffffffff16600073ffffffffffffffffffffffffffffffffffffffff167fddf252ad1be2c89b69c2b068fc378daa952ba7f163c4a11628f55a4df523b3ef60405160405180910390a45050565b600080823b905060008111915050919050565b6000611c0c611c07846125d0565b6125ab565b905082815260208101848484011115611c2457600080fd5b611c2f848285612773565b509392505050565b600081359050611c4681612d91565b92915050565b600081359050611c5b81612da8565b92915050565b600081519050611c7081612da8565b92915050565b600081359050611c8581612dbf565b92915050565b600081519050611c9a81612dbf565b92915050565b600082601f830112611cb157600080fd5b8135611cc1848260208601611bf9565b91505092915050565b600081359050611cd981612dd6565b92915050565b600081519050611cee81612dd6565b92915050565b600060208284031215611d0657600080fd5b6000611d1484828501611c37565b91505092915050565b60008060408385031215611d3057600080fd5b6000611d3e85828601611c37565b9250506020611d4f85828601611c37565b9150509250929050565b600080600060608486031215611d6e57600080fd5b6000611d7c86828701611c37565b9350506020611d8d86828701611c37565b9250506040611d9e86828701611cca565b9150509250925092565b60008060008060808587031215611dbe57600080fd5b6000611dcc87828801611c37565b9450506020611ddd87828801611c37565b9350506040611dee87828801611cca565b925050606085013567ffffffffffffffff811115611e0b57600080fd5b611e1787828801611ca0565b91505092959194509250565b60008060408385031215611e3657600080fd5b6000611e4485828601611c37565b9250506020611e5585828601611c4c565b9150509250929050565b60008060408385031215611e7257600080fd5b6000611e8085828601611c37565b9250506020611e9185828601611cca565b9150509250929050565b600060208284031215611ead57600080fd5b6000611ebb84828501611c61565b91505092915050565b600060208284031215611ed657600080fd5b6000611ee484828501611c76565b91505092915050565b600060208284031215611eff57600080fd5b6000611f0d84828501611c8b565b91505092915050565b600060208284031215611f2857600080fd5b6000611f3684828501611cca565b91505092915050565b600060208284031215611f5157600080fd5b6000611f5f84828501611cdf565b91505092915050565b611f71816126ff565b82525050565b611f8081612711565b82525050565b6000611f9182612601565b611f9b8185612617565b9350611fab818560208601612782565b611fb48161294e565b840191505092915050565b6000611fca8261260c565b611fd48185612628565b9350611fe4818560208601612782565b611fed8161294e565b840191505092915050565b60006120038261260c565b61200d8185612639565b935061201d818560208601612782565b80840191505092915050565b6000612036603283612628565b91506120418261295f565b604082019050919050565b6000612059601c83612628565b9150612064826129ae565b602082019050919050565b600061207c602483612628565b9150612087826129d7565b604082019050919050565b600061209f601983612628565b91506120aa82612a26565b602082019050919050565b60006120c2602c83612628565b91506120cd82612a4f565b604082019050919050565b60006120e5603883612628565b91506120f082612a9e565b604082019050919050565b6000612108602a83612628565b915061211382612aed565b604082019050919050565b600061212b602983612628565b915061213682612b3c565b604082019050919050565b600061214e602083612628565b915061215982612b8b565b602082019050919050565b6000612171602c83612628565b915061217c82612bb4565b604082019050919050565b6000612194601b83612628565b915061219f82612c03565b602082019050919050565b60006121b7602983612628565b91506121c282612c2c565b604082019050919050565b60006121da602f83612628565b91506121e582612c7b565b604082019050919050565b60006121fd601d83612628565b915061220882612cca565b602082019050919050565b6000612220602183612628565b915061222b82612cf3565b604082019050919050565b6000612243603183612628565b915061224e82612d42565b604082019050919050565b61226281612769565b82525050565b60006122748285611ff8565b91506122808284611ff8565b91508190509392505050565b60006020820190506122a16000830184611f68565b92915050565b60006060820190506122bc6000830186611f68565b6122c96020830185611f68565b6122d66040830184612259565b949350505050565b60006080820190506122f36000830187611f68565b6123006020830186611f68565b61230d6040830185612259565b818103606083015261231f8184611f86565b905095945050505050565b600060408201905061233f6000830185611f68565b61234c6020830184612259565b9392505050565b60006020820190506123686000830184611f77565b92915050565b600060208201905081810360008301526123888184611fbf565b905092915050565b600060208201905081810360008301526123a981612029565b9050919050565b600060208201905081810360008301526123c98161204c565b9050919050565b600060208201905081810360008301526123e98161206f565b9050919050565b6000602082019050818103600083015261240981612092565b9050919050565b60006020820190508181036000830152612429816120b5565b9050919050565b60006020820190508181036000830152612449816120d8565b9050919050565b60006020820190508181036000830152612469816120fb565b9050919050565b600060208201905081810360008301526124898161211e565b9050919050565b600060208201905081810360008301526124a981612141565b9050919050565b600060208201905081810360008301526124c981612164565b9050919050565b600060208201905081810360008301526124e981612187565b9050919050565b60006020820190508181036000830152612509816121aa565b9050919050565b60006020820190508181036000830152612529816121cd565b9050919050565b60006020820190508181036000830152612549816121f0565b9050919050565b6000602082019050818103600083015261256981612213565b9050919050565b6000602082019050818103600083015261258981612236565b9050919050565b60006020820190506125a56000830184612259565b92915050565b60006125b56125c6565b90506125c182826127e7565b919050565b6000604051905090565b600067ffffffffffffffff8211156125eb576125ea61291f565b5b6125f48261294e565b9050602081019050919050565b600081519050919050565b600081519050919050565b600082825260208201905092915050565b600082825260208201905092915050565b600081905092915050565b600061264f82612769565b915061265a83612769565b9250827fffffffffffffffffffffffffffffffffffffffffffffffffffffffffffffffff0382111561268f5761268e612892565b5b828201905092915050565b60006126a582612769565b91506126b083612769565b9250826126c0576126bf6128c1565b5b828204905092915050565b60006126d682612769565b91506126e183612769565b9250828210156126f4576126f3612892565b5b828203905092915050565b600061270a82612749565b9050919050565b60008115159050919050565b60007fffffffff0000000000000000000000000000000000000000000000000000000082169050919050565b600073ffffffffffffffffffffffffffffffffffffffff82169050919050565b6000819050919050565b82818337600083830152505050565b60005b838110156127a0578082015181840152602081019050612785565b838111156127af576000848401525b50505050565b600060028204905060018216806127cd57607f821691505b602082108114156127e1576127e06128f0565b5b50919050565b6127f08261294e565b810181811067ffffffffffffffff8211171561280f5761280e61291f565b5b80604052505050565b600061282382612769565b91507fffffffffffffffffffffffffffffffffffffffffffffffffffffffffffffffff82141561285657612855612892565b5b600182019050919050565b600061286c82612769565b915061287783612769565b925082612887576128866128c1565b5b828206905092915050565b7f4e487b7100000000000000000000000000000000000000000000000000000000600052601160045260246000fd5b7f4e487b7100000000000000000000000000000000000000000000000000000000600052601260045260246000fd5b7f4e487b7100000000000000000000000000000000000000000000000000000000600052602260045260246000fd5b7f4e487b7100000000000000000000000000000000000000000000000000000000600052604160045260246000fd5b6000601f19601f8301169050919050565b7f4552433732313a207472616e7366657220746f206e6f6e20455243373231526560008201527f63656976657220696d706c656d656e7465720000000000000000000000000000602082015250565b7f4552433732313a20746f6b656e20616c7265616479206d696e74656400000000600082015250565b7f4552433732313a207472616e7366657220746f20746865207a65726f2061646460008201527f7265737300000000000000000000000000000000000000000000000000000000602082015250565b7f4552433732313a20617070726f766520746f2063616c6c657200000000000000600082015250565b7f4552433732313a206f70657261746f7220717565727920666f72206e6f6e657860008201527f697374656e7420746f6b656e0000000000000000000000000000000000000000602082015250565b7f4552433732313a20617070726f76652063616c6c6572206973206e6f74206f7760008201527f6e6572206e6f7220617070726f76656420666f7220616c6c0000000000000000602082015250565b7f4552433732313a2062616c616e636520717565727920666f7220746865207a6560008201527f726f206164647265737300000000000000000000000000000000000000000000602082015250565b7f4552433732313a206f776e657220717565727920666f72206e6f6e657869737460008201527f656e7420746f6b656e0000000000000000000000000000000000000000000000602082015250565b7f4552433732313a206d696e7420746f20746865207a65726f2061646472657373600082015250565b7f4552433732313a20617070726f76656420717565727920666f72206e6f6e657860008201527f697374656e7420746f6b656e0000000000000000000000000000000000000000602082015250565b7f47616d6d613a206d75737420686176652061646d696e20726f6c650000000000600082015250565b7f4552433732313a207472616e73666572206f6620746f6b656e2074686174206960008201527f73206e6f74206f776e0000000000000000000000000000000000000000000000602082015250565b7f4552433732314d657461646174613a2055524920717565727920666f72206e6f60008201527f6e6578697374656e7420746f6b656e0000000000000000000000000000000000602082015250565b7f47616d6d613a2073656e64657220686173206265656e20686f6c646572000000600082015250565b7f4552433732313a20617070726f76616c20746f2063757272656e74206f776e6560008201527f7200000000000000000000000000000000000000000000000000000000000000602082015250565b7f4552433732313a207472616e736665722063616c6c6572206973206e6f74206f60008201527f776e6572206e6f7220617070726f766564000000000000000000000000000000602082015250565b612d9a816126ff565b8114612da557600080fd5b50565b612db181612711565b8114612dbc57600080fd5b50565b612dc88161271d565b8114612dd357600080fd5b50565b612ddf81612769565b8114612dea57600080fd5b5056fea26469706673582212203ae59d2e569639f3a59adcd57928c086ea439739a85e7ddfc221d2d0f8168a5464736f6c63430008040033a2646970667358221220d97f9ad0fc260dd95e814ef841b389cb6b8a06ed7d9bd05c82bdd43d40e085a064736f6c63430008040033",
  "linkReferences": {},
  "deployedLinkReferences": {}
}