{
  "_format": "hh-sol-artifact-1",
  "contractName": "AlphaDeployer",
  "sourceName": "contracts/deployers/AlphaDeployer.sol",
  "abi": [
    {
      "inputs": [
        {
          "internalType": "string",
          "name": "_name",
          "type": "string"
        },
        {
          "internalType": "string",
          "name": "_symbol",
          "type": "string"
        },
        {
          "internalType": "address",
          "name": "_erc20",
          "type": "address"
        },
        {
          "internalType": "uint256",
          "name": "_rate",
          "type": "uint256"
        }
      ],
      "name": "deployAlpha",
      "outputs": [
        {
          "internalType": "address",
          "name": "",
          "type": "address"
        }
      ],
      "stateMutability": "nonpayable",
      "type": "function"
    }
  ],
  "bytecode": "0x608060405234801561001057600080fd5b506136aa806100206000396000f3fe60806040523480156200001157600080fd5b50600436106200002e5760003560e01c8063fd74a0f31462000033575b600080fd5b6200005160048036038101906200004b91906200016d565b62000069565b6040516200006091906200026e565b60405180910390f35b600080858585856040516200007e90620000bf565b6200008d94939291906200028b565b604051809103906000f080158015620000aa573d6000803e3d6000fd5b50905060008190508092505050949350505050565b6131e6806200048f83390190565b6000620000e4620000de846200030f565b620002e6565b905082815260208101848484011115620000fd57600080fd5b6200010a8482856200039f565b509392505050565b60008135905062000123816200045a565b92915050565b600082601f8301126200013b57600080fd5b81356200014d848260208601620000cd565b91505092915050565b600081359050620001678162000474565b92915050565b600080600080608085870312156200018457600080fd5b600085013567ffffffffffffffff8111156200019f57600080fd5b620001ad8782880162000129565b945050602085013567ffffffffffffffff811115620001cb57600080fd5b620001d98782880162000129565b9350506040620001ec8782880162000112565b9250506060620001ff8782880162000156565b91505092959194509250565b620002168162000361565b82525050565b6000620002298262000345565b62000235818562000350565b935062000247818560208601620003ae565b620002528162000449565b840191505092915050565b620002688162000395565b82525050565b60006020820190506200028560008301846200020b565b92915050565b60006080820190508181036000830152620002a781876200021c565b90508181036020830152620002bd81866200021c565b9050620002ce60408301856200020b565b620002dd60608301846200025d565b95945050505050565b6000620002f262000305565b9050620003008282620003e4565b919050565b6000604051905090565b600067ffffffffffffffff8211156200032d576200032c6200041a565b5b620003388262000449565b9050602081019050919050565b600081519050919050565b600082825260208201905092915050565b60006200036e8262000375565b9050919050565b600073ffffffffffffffffffffffffffffffffffffffff82169050919050565b6000819050919050565b82818337600083830152505050565b60005b83811015620003ce578082015181840152602081019050620003b1565b83811115620003de576000848401525b50505050565b620003ef8262000449565b810181811067ffffffffffffffff821117156200041157620004106200041a565b5b80604052505050565b7f4e487b7100000000000000000000000000000000000000000000000000000000600052604160045260246000fd5b6000601f19601f8301169050919050565b620004658162000361565b81146200047157600080fd5b50565b6200047f8162000395565b81146200048b57600080fd5b5056fe60806040526040518060200160405280600181525060086000820151816000015550503480156200002f57600080fd5b50604051620031e6380380620031e683398181016040528101906200005591906200022d565b838381600090805190602001906200006f929190620000dd565b50806001908051906020019062000088929190620000dd565b50505081600660006101000a81548173ffffffffffffffffffffffffffffffffffffffff021916908373ffffffffffffffffffffffffffffffffffffffff1602179055508060078190555050505050620004ad565b828054620000eb906200039e565b90600052602060002090601f0160209004810192826200010f57600085556200015b565b82601f106200012a57805160ff19168380011785556200015b565b828001600101855582156200015b579182015b828111156200015a5782518255916020019190600101906200013d565b5b5090506200016a91906200016e565b5090565b5b80821115620001895760008160009055506001016200016f565b5090565b6000620001a46200019e84620002f4565b620002cb565b905082815260208101848484011115620001bd57600080fd5b620001ca84828562000368565b509392505050565b600081519050620001e38162000479565b92915050565b600082601f830112620001fb57600080fd5b81516200020d8482602086016200018d565b91505092915050565b600081519050620002278162000493565b92915050565b600080600080608085870312156200024457600080fd5b600085015167ffffffffffffffff8111156200025f57600080fd5b6200026d87828801620001e9565b945050602085015167ffffffffffffffff8111156200028b57600080fd5b6200029987828801620001e9565b9350506040620002ac87828801620001d2565b9250506060620002bf8782880162000216565b91505092959194509250565b6000620002d7620002ea565b9050620002e58282620003d4565b919050565b6000604051905090565b600067ffffffffffffffff82111562000312576200031162000439565b5b6200031d8262000468565b9050602081019050919050565b600062000337826200033e565b9050919050565b600073ffffffffffffffffffffffffffffffffffffffff82169050919050565b6000819050919050565b60005b83811015620003885780820151818401526020810190506200036b565b8381111562000398576000848401525b50505050565b60006002820490506001821680620003b757607f821691505b60208210811415620003ce57620003cd6200040a565b5b50919050565b620003df8262000468565b810181811067ffffffffffffffff8211171562000401576200040062000439565b5b80604052505050565b7f4e487b7100000000000000000000000000000000000000000000000000000000600052602260045260246000fd5b7f4e487b7100000000000000000000000000000000000000000000000000000000600052604160045260246000fd5b6000601f19601f8301169050919050565b62000484816200032a565b81146200049057600080fd5b50565b6200049e816200035e565b8114620004aa57600080fd5b50565b612d2980620004bd6000396000f3fe608060405234801561001057600080fd5b506004361061010b5760003560e01c806342966c68116100a257806395d89b411161007157806395d89b41146102b8578063a22cb465146102d6578063b88d4fde146102f2578063c87b56dd1461030e578063e985e9c51461033e5761010b565b806342966c681461021e5780636352211e1461023a57806370a082311461026a578063785e9e861461029a5761010b565b80631249c58b116100de5780631249c58b146101aa57806323b872dd146101c85780632c4e722e146101e457806342842e0e146102025761010b565b806301ffc9a71461011057806306fdde0314610140578063081812fc1461015e578063095ea7b31461018e575b600080fd5b61012a60048036038101906101259190611df3565b61036e565b6040516101379190612259565b60405180910390f35b610148610380565b6040516101559190612274565b60405180910390f35b61017860048036038101906101739190611e45565b610412565b6040516101859190612192565b60405180910390f35b6101a860048036038101906101a39190611d8e565b610497565b005b6101b26105af565b6040516101bf9190612496565b60405180910390f35b6101e260048036038101906101dd9190611c88565b610725565b005b6101ec610785565b6040516101f99190612496565b60405180910390f35b61021c60048036038101906102179190611c88565b61078b565b005b61023860048036038101906102339190611e45565b6107ab565b005b610254600480360381019061024f9190611e45565b6108ff565b6040516102619190612192565b60405180910390f35b610284600480360381019061027f9190611c23565b6109b1565b6040516102919190612496565b60405180910390f35b6102a2610a69565b6040516102af9190612192565b60405180910390f35b6102c0610a8f565b6040516102cd9190612274565b60405180910390f35b6102f060048036038101906102eb9190611d52565b610b21565b005b61030c60048036038101906103079190611cd7565b610ca2565b005b61032860048036038101906103239190611e45565b610d04565b6040516103359190612274565b60405180910390f35b61035860048036038101906103539190611c4c565b610dab565b6040516103659190612259565b60405180910390f35b600061037982610e3f565b9050919050565b60606000805461038f906126bb565b80601f01602080910402602001604051908101604052809291908181526020018280546103bb906126bb565b80156104085780601f106103dd57610100808354040283529160200191610408565b820191906000526020600020905b8154815290600101906020018083116103eb57829003601f168201915b5050505050905090565b600061041d82610f21565b61045c576040517f08c379a0000000000000000000000000000000000000000000000000000000008152600401610453906123b6565b60405180910390fd5b6004600083815260200190815260200160002060009054906101000a900473ffffffffffffffffffffffffffffffffffffffff169050919050565b60006104a2826108ff565b90508073ffffffffffffffffffffffffffffffffffffffff168373ffffffffffffffffffffffffffffffffffffffff161415610513576040517f08c379a000000000000000000000000000000000000000000000000000000000815260040161050a90612416565b60405180910390fd5b8073ffffffffffffffffffffffffffffffffffffffff16610532610f8d565b73ffffffffffffffffffffffffffffffffffffffff16148061056157506105608161055b610f8d565b610dab565b5b6105a0576040517f08c379a000000000000000000000000000000000000000000000000000000000815260040161059790612336565b60405180910390fd5b6105aa8383610f95565b505050565b60006105bb600861104e565b90506000600660009054906101000a900473ffffffffffffffffffffffffffffffffffffffff1673ffffffffffffffffffffffffffffffffffffffff166323b872dd610605610f8d565b306007546040518463ffffffff1660e01b8152600401610627939291906121ad565b602060405180830381600087803b15801561064157600080fd5b505af1158015610655573d6000803e3d6000fd5b505050506040513d601f19601f820116820180604052508101906106799190611dca565b9050806106bb576040517f08c379a00000000000000000000000000000000000000000000000000000000081526004016106b290612436565b60405180910390fd5b6106cc6106c6610f8d565b8361105c565b816106d5610f8d565b73ffffffffffffffffffffffffffffffffffffffff167f0f6798a560793a54c3bcfe86a93cde1e73087d944c0ea20544137d412139688560405160405180910390a3610721600861107a565b5090565b610736610730610f8d565b82611090565b610775576040517f08c379a000000000000000000000000000000000000000000000000000000000815260040161076c90612456565b60405180910390fd5b61078083838361116e565b505050565b60075481565b6107a683838360405180602001604052806000815250610ca2565b505050565b60008114156107ef576040517f08c379a00000000000000000000000000000000000000000000000000000000081526004016107e690612476565b60405180910390fd5b6107f8816113ca565b600660009054906101000a900473ffffffffffffffffffffffffffffffffffffffff1673ffffffffffffffffffffffffffffffffffffffff1663a9059cbb61083e610f8d565b6007546040518363ffffffff1660e01b815260040161085e929190612230565b602060405180830381600087803b15801561087857600080fd5b505af115801561088c573d6000803e3d6000fd5b505050506040513d601f19601f820116820180604052508101906108b09190611dca565b50806108ba610f8d565b73ffffffffffffffffffffffffffffffffffffffff167fcc16f5dbb4873280815c1ee09dbd06736cffcc184412cf7a71a0fdb75d397ca560405160405180910390a350565b6000806002600084815260200190815260200160002060009054906101000a900473ffffffffffffffffffffffffffffffffffffffff169050600073ffffffffffffffffffffffffffffffffffffffff168173ffffffffffffffffffffffffffffffffffffffff1614156109a8576040517f08c379a000000000000000000000000000000000000000000000000000000000815260040161099f90612376565b60405180910390fd5b80915050919050565b60008073ffffffffffffffffffffffffffffffffffffffff168273ffffffffffffffffffffffffffffffffffffffff161415610a22576040517f08c379a0000000000000000000000000000000000000000000000000000000008152600401610a1990612356565b60405180910390fd5b600360008373ffffffffffffffffffffffffffffffffffffffff1673ffffffffffffffffffffffffffffffffffffffff168152602001908152602001600020549050919050565b600660009054906101000a900473ffffffffffffffffffffffffffffffffffffffff1681565b606060018054610a9e906126bb565b80601f0160208091040260200160405190810160405280929190818152602001828054610aca906126bb565b8015610b175780601f10610aec57610100808354040283529160200191610b17565b820191906000526020600020905b815481529060010190602001808311610afa57829003601f168201915b5050505050905090565b610b29610f8d565b73ffffffffffffffffffffffffffffffffffffffff168273ffffffffffffffffffffffffffffffffffffffff161415610b97576040517f08c379a0000000000000000000000000000000000000000000000000000000008152600401610b8e906122f6565b60405180910390fd5b8060056000610ba4610f8d565b73ffffffffffffffffffffffffffffffffffffffff1673ffffffffffffffffffffffffffffffffffffffff16815260200190815260200160002060008473ffffffffffffffffffffffffffffffffffffffff1673ffffffffffffffffffffffffffffffffffffffff16815260200190815260200160002060006101000a81548160ff0219169083151502179055508173ffffffffffffffffffffffffffffffffffffffff16610c51610f8d565b73ffffffffffffffffffffffffffffffffffffffff167f17307eab39ab6107e8899845ad3d59bd9653f200f220920489ca2b5937696c3183604051610c969190612259565b60405180910390a35050565b610cb3610cad610f8d565b83611090565b610cf2576040517f08c379a0000000000000000000000000000000000000000000000000000000008152600401610ce990612456565b60405180910390fd5b610cfe848484846114db565b50505050565b6060610d0f82610f21565b610d4e576040517f08c379a0000000000000000000000000000000000000000000000000000000008152600401610d45906123f6565b60405180910390fd5b6000610d58611537565b90506000815111610d785760405180602001604052806000815250610da3565b80610d828461154e565b604051602001610d9392919061216e565b6040516020818303038152906040525b915050919050565b6000600560008473ffffffffffffffffffffffffffffffffffffffff1673ffffffffffffffffffffffffffffffffffffffff16815260200190815260200160002060008373ffffffffffffffffffffffffffffffffffffffff1673ffffffffffffffffffffffffffffffffffffffff16815260200190815260200160002060009054906101000a900460ff16905092915050565b60007f80ac58cd000000000000000000000000000000000000000000000000000000007bffffffffffffffffffffffffffffffffffffffffffffffffffffffff1916827bffffffffffffffffffffffffffffffffffffffffffffffffffffffff19161480610f0a57507f5b5e139f000000000000000000000000000000000000000000000000000000007bffffffffffffffffffffffffffffffffffffffffffffffffffffffff1916827bffffffffffffffffffffffffffffffffffffffffffffffffffffffff1916145b80610f1a5750610f19826116fb565b5b9050919050565b60008073ffffffffffffffffffffffffffffffffffffffff166002600084815260200190815260200160002060009054906101000a900473ffffffffffffffffffffffffffffffffffffffff1673ffffffffffffffffffffffffffffffffffffffff1614159050919050565b600033905090565b816004600083815260200190815260200160002060006101000a81548173ffffffffffffffffffffffffffffffffffffffff021916908373ffffffffffffffffffffffffffffffffffffffff160217905550808273ffffffffffffffffffffffffffffffffffffffff16611008836108ff565b73ffffffffffffffffffffffffffffffffffffffff167f8c5be1e5ebec7d5bd14f71427d1e84f3dd0314c0f7b2291e5b200ac8c7c3b92560405160405180910390a45050565b600081600001549050919050565b611076828260405180602001604052806000815250611765565b5050565b6001816000016000828254019250508190555050565b600061109b82610f21565b6110da576040517f08c379a00000000000000000000000000000000000000000000000000000000081526004016110d190612316565b60405180910390fd5b60006110e5836108ff565b90508073ffffffffffffffffffffffffffffffffffffffff168473ffffffffffffffffffffffffffffffffffffffff16148061115457508373ffffffffffffffffffffffffffffffffffffffff1661113c84610412565b73ffffffffffffffffffffffffffffffffffffffff16145b8061116557506111648185610dab565b5b91505092915050565b8273ffffffffffffffffffffffffffffffffffffffff1661118e826108ff565b73ffffffffffffffffffffffffffffffffffffffff16146111e4576040517f08c379a00000000000000000000000000000000000000000000000000000000081526004016111db906123d6565b60405180910390fd5b600073ffffffffffffffffffffffffffffffffffffffff168273ffffffffffffffffffffffffffffffffffffffff161415611254576040517f08c379a000000000000000000000000000000000000000000000000000000000815260040161124b906122d6565b60405180910390fd5b61125f8383836117c0565b61126a600082610f95565b6001600360008573ffffffffffffffffffffffffffffffffffffffff1673ffffffffffffffffffffffffffffffffffffffff16815260200190815260200160002060008282546112ba91906125d1565b925050819055506001600360008473ffffffffffffffffffffffffffffffffffffffff1673ffffffffffffffffffffffffffffffffffffffff1681526020019081526020016000206000828254611311919061254a565b92505081905550816002600083815260200190815260200160002060006101000a81548173ffffffffffffffffffffffffffffffffffffffff021916908373ffffffffffffffffffffffffffffffffffffffff160217905550808273ffffffffffffffffffffffffffffffffffffffff168473ffffffffffffffffffffffffffffffffffffffff167fddf252ad1be2c89b69c2b068fc378daa952ba7f163c4a11628f55a4df523b3ef60405160405180910390a4505050565b60006113d5826108ff565b90506113e3816000846117c0565b6113ee600083610f95565b6001600360008373ffffffffffffffffffffffffffffffffffffffff1673ffffffffffffffffffffffffffffffffffffffff168152602001908152602001600020600082825461143e91906125d1565b925050819055506002600083815260200190815260200160002060006101000a81549073ffffffffffffffffffffffffffffffffffffffff021916905581600073ffffffffffffffffffffffffffffffffffffffff168273ffffffffffffffffffffffffffffffffffffffff167fddf252ad1be2c89b69c2b068fc378daa952ba7f163c4a11628f55a4df523b3ef60405160405180910390a45050565b6114e684848461116e565b6114f2848484846117c5565b611531576040517f08c379a000000000000000000000000000000000000000000000000000000000815260040161152890612296565b60405180910390fd5b50505050565b606060405180602001604052806000815250905090565b60606000821415611596576040518060400160405280600181526020017f300000000000000000000000000000000000000000000000000000000000000081525090506116f6565b600082905060005b600082146115c85780806115b19061271e565b915050600a826115c191906125a0565b915061159e565b60008167ffffffffffffffff81111561160a577f4e487b7100000000000000000000000000000000000000000000000000000000600052604160045260246000fd5b6040519080825280601f01601f19166020018201604052801561163c5781602001600182028036833780820191505090505b5090505b600085146116ef5760018261165591906125d1565b9150600a856116649190612767565b6030611670919061254a565b60f81b8183815181106116ac577f4e487b7100000000000000000000000000000000000000000000000000000000600052603260045260246000fd5b60200101907effffffffffffffffffffffffffffffffffffffffffffffffffffffffffffff1916908160001a905350600a856116e891906125a0565b9450611640565b8093505050505b919050565b60007f01ffc9a7000000000000000000000000000000000000000000000000000000007bffffffffffffffffffffffffffffffffffffffffffffffffffffffff1916827bffffffffffffffffffffffffffffffffffffffffffffffffffffffff1916149050919050565b61176f838361195c565b61177c60008484846117c5565b6117bb576040517f08c379a00000000000000000000000000000000000000000000000000000000081526004016117b290612296565b60405180910390fd5b505050565b505050565b60006117e68473ffffffffffffffffffffffffffffffffffffffff16611b2a565b1561194f578373ffffffffffffffffffffffffffffffffffffffff1663150b7a0261180f610f8d565b8786866040518563ffffffff1660e01b815260040161183194939291906121e4565b602060405180830381600087803b15801561184b57600080fd5b505af192505050801561187c57506040513d601f19601f820116820180604052508101906118799190611e1c565b60015b6118ff573d80600081146118ac576040519150601f19603f3d011682016040523d82523d6000602084013e6118b1565b606091505b506000815114156118f7576040517f08c379a00000000000000000000000000000000000000000000000000000000081526004016118ee90612296565b60405180910390fd5b805181602001fd5b63150b7a0260e01b7bffffffffffffffffffffffffffffffffffffffffffffffffffffffff1916817bffffffffffffffffffffffffffffffffffffffffffffffffffffffff191614915050611954565b600190505b949350505050565b600073ffffffffffffffffffffffffffffffffffffffff168273ffffffffffffffffffffffffffffffffffffffff1614156119cc576040517f08c379a00000000000000000000000000000000000000000000000000000000081526004016119c390612396565b60405180910390fd5b6119d581610f21565b15611a15576040517f08c379a0000000000000000000000000000000000000000000000000000000008152600401611a0c906122b6565b60405180910390fd5b611a21600083836117c0565b6001600360008473ffffffffffffffffffffffffffffffffffffffff1673ffffffffffffffffffffffffffffffffffffffff1681526020019081526020016000206000828254611a71919061254a565b92505081905550816002600083815260200190815260200160002060006101000a81548173ffffffffffffffffffffffffffffffffffffffff021916908373ffffffffffffffffffffffffffffffffffffffff160217905550808273ffffffffffffffffffffffffffffffffffffffff16600073ffffffffffffffffffffffffffffffffffffffff167fddf252ad1be2c89b69c2b068fc378daa952ba7f163c4a11628f55a4df523b3ef60405160405180910390a45050565b600080823b905060008111915050919050565b6000611b50611b4b846124d6565b6124b1565b905082815260208101848484011115611b6857600080fd5b611b73848285612679565b509392505050565b600081359050611b8a81612c97565b92915050565b600081359050611b9f81612cae565b92915050565b600081519050611bb481612cae565b92915050565b600081359050611bc981612cc5565b92915050565b600081519050611bde81612cc5565b92915050565b600082601f830112611bf557600080fd5b8135611c05848260208601611b3d565b91505092915050565b600081359050611c1d81612cdc565b92915050565b600060208284031215611c3557600080fd5b6000611c4384828501611b7b565b91505092915050565b60008060408385031215611c5f57600080fd5b6000611c6d85828601611b7b565b9250506020611c7e85828601611b7b565b9150509250929050565b600080600060608486031215611c9d57600080fd5b6000611cab86828701611b7b565b9350506020611cbc86828701611b7b565b9250506040611ccd86828701611c0e565b9150509250925092565b60008060008060808587031215611ced57600080fd5b6000611cfb87828801611b7b565b9450506020611d0c87828801611b7b565b9350506040611d1d87828801611c0e565b925050606085013567ffffffffffffffff811115611d3a57600080fd5b611d4687828801611be4565b91505092959194509250565b60008060408385031215611d6557600080fd5b6000611d7385828601611b7b565b9250506020611d8485828601611b90565b9150509250929050565b60008060408385031215611da157600080fd5b6000611daf85828601611b7b565b9250506020611dc085828601611c0e565b9150509250929050565b600060208284031215611ddc57600080fd5b6000611dea84828501611ba5565b91505092915050565b600060208284031215611e0557600080fd5b6000611e1384828501611bba565b91505092915050565b600060208284031215611e2e57600080fd5b6000611e3c84828501611bcf565b91505092915050565b600060208284031215611e5757600080fd5b6000611e6584828501611c0e565b91505092915050565b611e7781612605565b82525050565b611e8681612617565b82525050565b6000611e9782612507565b611ea1818561251d565b9350611eb1818560208601612688565b611eba81612854565b840191505092915050565b6000611ed082612512565b611eda818561252e565b9350611eea818560208601612688565b611ef381612854565b840191505092915050565b6000611f0982612512565b611f13818561253f565b9350611f23818560208601612688565b80840191505092915050565b6000611f3c60328361252e565b9150611f4782612865565b604082019050919050565b6000611f5f601c8361252e565b9150611f6a826128b4565b602082019050919050565b6000611f8260248361252e565b9150611f8d826128dd565b604082019050919050565b6000611fa560198361252e565b9150611fb08261292c565b602082019050919050565b6000611fc8602c8361252e565b9150611fd382612955565b604082019050919050565b6000611feb60388361252e565b9150611ff6826129a4565b604082019050919050565b600061200e602a8361252e565b9150612019826129f3565b604082019050919050565b600061203160298361252e565b915061203c82612a42565b604082019050919050565b600061205460208361252e565b915061205f82612a91565b602082019050919050565b6000612077602c8361252e565b915061208282612aba565b604082019050919050565b600061209a60298361252e565b91506120a582612b09565b604082019050919050565b60006120bd602f8361252e565b91506120c882612b58565b604082019050919050565b60006120e060218361252e565b91506120eb82612ba7565b604082019050919050565b600061210360108361252e565b915061210e82612bf6565b602082019050919050565b600061212660318361252e565b915061213182612c1f565b604082019050919050565b6000612149601e8361252e565b915061215482612c6e565b602082019050919050565b6121688161266f565b82525050565b600061217a8285611efe565b91506121868284611efe565b91508190509392505050565b60006020820190506121a76000830184611e6e565b92915050565b60006060820190506121c26000830186611e6e565b6121cf6020830185611e6e565b6121dc604083018461215f565b949350505050565b60006080820190506121f96000830187611e6e565b6122066020830186611e6e565b612213604083018561215f565b81810360608301526122258184611e8c565b905095945050505050565b60006040820190506122456000830185611e6e565b612252602083018461215f565b9392505050565b600060208201905061226e6000830184611e7d565b92915050565b6000602082019050818103600083015261228e8184611ec5565b905092915050565b600060208201905081810360008301526122af81611f2f565b9050919050565b600060208201905081810360008301526122cf81611f52565b9050919050565b600060208201905081810360008301526122ef81611f75565b9050919050565b6000602082019050818103600083015261230f81611f98565b9050919050565b6000602082019050818103600083015261232f81611fbb565b9050919050565b6000602082019050818103600083015261234f81611fde565b9050919050565b6000602082019050818103600083015261236f81612001565b9050919050565b6000602082019050818103600083015261238f81612024565b9050919050565b600060208201905081810360008301526123af81612047565b9050919050565b600060208201905081810360008301526123cf8161206a565b9050919050565b600060208201905081810360008301526123ef8161208d565b9050919050565b6000602082019050818103600083015261240f816120b0565b9050919050565b6000602082019050818103600083015261242f816120d3565b9050919050565b6000602082019050818103600083015261244f816120f6565b9050919050565b6000602082019050818103600083015261246f81612119565b9050919050565b6000602082019050818103600083015261248f8161213c565b9050919050565b60006020820190506124ab600083018461215f565b92915050565b60006124bb6124cc565b90506124c782826126ed565b919050565b6000604051905090565b600067ffffffffffffffff8211156124f1576124f0612825565b5b6124fa82612854565b9050602081019050919050565b600081519050919050565b600081519050919050565b600082825260208201905092915050565b600082825260208201905092915050565b600081905092915050565b60006125558261266f565b91506125608361266f565b9250827fffffffffffffffffffffffffffffffffffffffffffffffffffffffffffffffff0382111561259557612594612798565b5b828201905092915050565b60006125ab8261266f565b91506125b68361266f565b9250826125c6576125c56127c7565b5b828204905092915050565b60006125dc8261266f565b91506125e78361266f565b9250828210156125fa576125f9612798565b5b828203905092915050565b60006126108261264f565b9050919050565b60008115159050919050565b60007fffffffff0000000000000000000000000000000000000000000000000000000082169050919050565b600073ffffffffffffffffffffffffffffffffffffffff82169050919050565b6000819050919050565b82818337600083830152505050565b60005b838110156126a657808201518184015260208101905061268b565b838111156126b5576000848401525b50505050565b600060028204905060018216806126d357607f821691505b602082108114156126e7576126e66127f6565b5b50919050565b6126f682612854565b810181811067ffffffffffffffff8211171561271557612714612825565b5b80604052505050565b60006127298261266f565b91507fffffffffffffffffffffffffffffffffffffffffffffffffffffffffffffffff82141561275c5761275b612798565b5b600182019050919050565b60006127728261266f565b915061277d8361266f565b92508261278d5761278c6127c7565b5b828206905092915050565b7f4e487b7100000000000000000000000000000000000000000000000000000000600052601160045260246000fd5b7f4e487b7100000000000000000000000000000000000000000000000000000000600052601260045260246000fd5b7f4e487b7100000000000000000000000000000000000000000000000000000000600052602260045260246000fd5b7f4e487b7100000000000000000000000000000000000000000000000000000000600052604160045260246000fd5b6000601f19601f8301169050919050565b7f4552433732313a207472616e7366657220746f206e6f6e20455243373231526560008201527f63656976657220696d706c656d656e7465720000000000000000000000000000602082015250565b7f4552433732313a20746f6b656e20616c7265616479206d696e74656400000000600082015250565b7f4552433732313a207472616e7366657220746f20746865207a65726f2061646460008201527f7265737300000000000000000000000000000000000000000000000000000000602082015250565b7f4552433732313a20617070726f766520746f2063616c6c657200000000000000600082015250565b7f4552433732313a206f70657261746f7220717565727920666f72206e6f6e657860008201527f697374656e7420746f6b656e0000000000000000000000000000000000000000602082015250565b7f4552433732313a20617070726f76652063616c6c6572206973206e6f74206f7760008201527f6e6572206e6f7220617070726f76656420666f7220616c6c0000000000000000602082015250565b7f4552433732313a2062616c616e636520717565727920666f7220746865207a6560008201527f726f206164647265737300000000000000000000000000000000000000000000602082015250565b7f4552433732313a206f776e657220717565727920666f72206e6f6e657869737460008201527f656e7420746f6b656e0000000000000000000000000000000000000000000000602082015250565b7f4552433732313a206d696e7420746f20746865207a65726f2061646472657373600082015250565b7f4552433732313a20617070726f76656420717565727920666f72206e6f6e657860008201527f697374656e7420746f6b656e0000000000000000000000000000000000000000602082015250565b7f4552433732313a207472616e73666572206f6620746f6b656e2074686174206960008201527f73206e6f74206f776e0000000000000000000000000000000000000000000000602082015250565b7f4552433732314d657461646174613a2055524920717565727920666f72206e6f60008201527f6e6578697374656e7420746f6b656e0000000000000000000000000000000000602082015250565b7f4552433732313a20617070726f76616c20746f2063757272656e74206f776e6560008201527f7200000000000000000000000000000000000000000000000000000000000000602082015250565b7f5472616e73666572206661696c65642e00000000000000000000000000000000600082015250565b7f4552433732313a207472616e736665722063616c6c6572206973206e6f74206f60008201527f776e6572206e6f7220617070726f766564000000000000000000000000000000602082015250565b7f4572726f723a20746f6b656e2069642063616e6e6f74206265207a65726f0000600082015250565b612ca081612605565b8114612cab57600080fd5b50565b612cb781612617565b8114612cc257600080fd5b50565b612cce81612623565b8114612cd957600080fd5b50565b612ce58161266f565b8114612cf057600080fd5b5056fea26469706673582212205830d98264204d0dacd9bbe6b6155585036c2310d196a59eebb8c3d3df57bc7964736f6c63430008040033a264697066735822122065c15130b372ae07ef58080fb47be245b82d61b8c71e2076901cecff0d8741af64736f6c63430008040033",
  "linkReferences": {},
  "deployedLinkReferences": {}
}