{
  "_format": "hh-sol-artifact-1",
  "contractName": "Factory",
  "sourceName": "contracts/Factory.sol",
  "abi": [
    {
      "inputs": [
        {
          "internalType": "address",
          "name": "_alphaDeployer",
          "type": "address"
        },
        {
          "internalType": "address",
          "name": "_betaDeployer",
          "type": "address"
        },
        {
          "internalType": "address",
          "name": "_gammaDeployer",
          "type": "address"
        }
      ],
      "stateMutability": "nonpayable",
      "type": "constructor"
    },
    {
      "anonymous": false,
      "inputs": [
        {
          "indexed": true,
          "internalType": "address",
          "name": "_addr",
          "type": "address"
        },
        {
          "indexed": true,
          "internalType": "uint256",
          "name": "id",
          "type": "uint256"
        },
        {
          "indexed": false,
          "internalType": "string",
          "name": "_name",
          "type": "string"
        },
        {
          "indexed": false,
          "internalType": "string",
          "name": "_symbol",
          "type": "string"
        },
        {
          "indexed": false,
          "internalType": "address",
          "name": "_erc20",
          "type": "address"
        },
        {
          "indexed": false,
          "internalType": "uint256",
          "name": "_rate",
          "type": "uint256"
        }
      ],
      "name": "AlphaDeploy",
      "type": "event"
    },
    {
      "anonymous": false,
      "inputs": [
        {
          "indexed": true,
          "internalType": "address",
          "name": "_addr",
          "type": "address"
        },
        {
          "indexed": true,
          "internalType": "uint256",
          "name": "id",
          "type": "uint256"
        },
        {
          "indexed": false,
          "internalType": "string",
          "name": "_name",
          "type": "string"
        },
        {
          "indexed": false,
          "internalType": "string",
          "name": "_symbol",
          "type": "string"
        },
        {
          "indexed": false,
          "internalType": "address",
          "name": "_erc721",
          "type": "address"
        }
      ],
      "name": "BetaDeploy",
      "type": "event"
    },
    {
      "anonymous": false,
      "inputs": [
        {
          "indexed": true,
          "internalType": "address",
          "name": "_addr",
          "type": "address"
        },
        {
          "indexed": true,
          "internalType": "uint256",
          "name": "id",
          "type": "uint256"
        },
        {
          "indexed": false,
          "internalType": "string",
          "name": "_name",
          "type": "string"
        },
        {
          "indexed": false,
          "internalType": "string",
          "name": "_symbol",
          "type": "string"
        },
        {
          "indexed": false,
          "internalType": "address",
          "name": "_erc20",
          "type": "address"
        },
        {
          "indexed": false,
          "internalType": "uint256",
          "name": "_rate",
          "type": "uint256"
        },
        {
          "indexed": false,
          "internalType": "uint256",
          "name": "_maxSupply",
          "type": "uint256"
        }
      ],
      "name": "GamaDeploy",
      "type": "event"
    },
    {
      "inputs": [
        {
          "internalType": "uint256",
          "name": "_id",
          "type": "uint256"
        },
        {
          "internalType": "string",
          "name": "_name",
          "type": "string"
        },
        {
          "internalType": "string",
          "name": "_symbol",
          "type": "string"
        },
        {
          "internalType": "address",
          "name": "_erc20",
          "type": "address"
        },
        {
          "internalType": "uint256",
          "name": "_rate",
          "type": "uint256"
        }
      ],
      "name": "alphaDeploy",
      "outputs": [],
      "stateMutability": "payable",
      "type": "function"
    },
    {
      "inputs": [
        {
          "internalType": "uint256",
          "name": "_id",
          "type": "uint256"
        },
        {
          "internalType": "string",
          "name": "_name",
          "type": "string"
        },
        {
          "internalType": "string",
          "name": "_symbol",
          "type": "string"
        },
        {
          "internalType": "address",
          "name": "_erc721",
          "type": "address"
        }
      ],
      "name": "betaDeploy",
      "outputs": [],
      "stateMutability": "payable",
      "type": "function"
    },
    {
      "inputs": [
        {
          "internalType": "uint256",
          "name": "_id",
          "type": "uint256"
        },
        {
          "internalType": "string",
          "name": "_name",
          "type": "string"
        },
        {
          "internalType": "string",
          "name": "_symbol",
          "type": "string"
        },
        {
          "internalType": "address",
          "name": "_erc20",
          "type": "address"
        },
        {
          "internalType": "uint256",
          "name": "_rate",
          "type": "uint256"
        },
        {
          "internalType": "uint256",
          "name": "_maxSupply",
          "type": "uint256"
        }
      ],
      "name": "gammaDeploy",
      "outputs": [],
      "stateMutability": "payable",
      "type": "function"
    }
  ],
  "bytecode": "0x608060405234801561001057600080fd5b50604051610b6a380380610b6a83398181016040528101906100329190610111565b826000806101000a81548173ffffffffffffffffffffffffffffffffffffffff021916908373ffffffffffffffffffffffffffffffffffffffff16021790555081600160006101000a81548173ffffffffffffffffffffffffffffffffffffffff021916908373ffffffffffffffffffffffffffffffffffffffff16021790555080600260006101000a81548173ffffffffffffffffffffffffffffffffffffffff021916908373ffffffffffffffffffffffffffffffffffffffff1602179055505050506101a9565b60008151905061010b81610192565b92915050565b60008060006060848603121561012657600080fd5b6000610134868287016100fc565b9350506020610145868287016100fc565b9250506040610156868287016100fc565b9150509250925092565b600061016b82610172565b9050919050565b600073ffffffffffffffffffffffffffffffffffffffff82169050919050565b61019b81610160565b81146101a657600080fd5b50565b6109b2806101b86000396000f3fe6080604052600436106100345760003560e01c806320234ad6146100395780638d59b2a214610055578063e0883bd114610071575b600080fd5b610053600480360381019061004e91906104aa565b61008d565b005b61006f600480360381019061006a91906105e4565b6101a2565b005b61008b6004803603810190610086919061053d565b6102c1565b005b6000600160009054906101000a900473ffffffffffffffffffffffffffffffffffffffff16905060008173ffffffffffffffffffffffffffffffffffffffff1663111035fa8686866040518463ffffffff1660e01b81526004016100f3939291906106f4565b602060405180830381600087803b15801561010d57600080fd5b505af1158015610121573d6000803e3d6000fd5b505050506040513d601f19601f820116820180604052508101906101459190610481565b9050858173ffffffffffffffffffffffffffffffffffffffff167f08355779b2f5af200c839054e246c556eef023f310fe918c0491a17f52b672c8878787604051610192939291906106f4565b60405180910390a3505050505050565b6000600260009054906101000a900473ffffffffffffffffffffffffffffffffffffffff16905060008173ffffffffffffffffffffffffffffffffffffffff16630adcdd1b88888888886040518663ffffffff1660e01b815260040161020c95949392919061078c565b602060405180830381600087803b15801561022657600080fd5b505af115801561023a573d6000803e3d6000fd5b505050506040513d601f19601f8201168201806040525081019061025e9190610481565b9050878173ffffffffffffffffffffffffffffffffffffffff167ff03fc75782adab584bcbbe0a50829e0bbf1cd277299b8601d3976e4f204a232e89898989896040516102af95949392919061078c565b60405180910390a35050505050505050565b60008060009054906101000a900473ffffffffffffffffffffffffffffffffffffffff16905060008173ffffffffffffffffffffffffffffffffffffffff1663fd74a0f3878787876040518563ffffffff1660e01b81526004016103289493929190610739565b602060405180830381600087803b15801561034257600080fd5b505af1158015610356573d6000803e3d6000fd5b505050506040513d601f19601f8201168201806040525081019061037a9190610481565b9050868173ffffffffffffffffffffffffffffffffffffffff167fb75d1284de7e5a489aedd2a7ed89d624a4a4713309f62fea61342bb7d0309e36888888886040516103c99493929190610739565b60405180910390a350505050505050565b60006103ed6103e884610812565b6107ed565b90508281526020810184848401111561040557600080fd5b61041084828561089b565b509392505050565b6000813590506104278161094e565b92915050565b60008151905061043c8161094e565b92915050565b600082601f83011261045357600080fd5b81356104638482602086016103da565b91505092915050565b60008135905061047b81610965565b92915050565b60006020828403121561049357600080fd5b60006104a18482850161042d565b91505092915050565b600080600080608085870312156104c057600080fd5b60006104ce8782880161046c565b945050602085013567ffffffffffffffff8111156104eb57600080fd5b6104f787828801610442565b935050604085013567ffffffffffffffff81111561051457600080fd5b61052087828801610442565b925050606061053187828801610418565b91505092959194509250565b600080600080600060a0868803121561055557600080fd5b60006105638882890161046c565b955050602086013567ffffffffffffffff81111561058057600080fd5b61058c88828901610442565b945050604086013567ffffffffffffffff8111156105a957600080fd5b6105b588828901610442565b93505060606105c688828901610418565b92505060806105d78882890161046c565b9150509295509295909350565b60008060008060008060c087890312156105fd57600080fd5b600061060b89828a0161046c565b965050602087013567ffffffffffffffff81111561062857600080fd5b61063489828a01610442565b955050604087013567ffffffffffffffff81111561065157600080fd5b61065d89828a01610442565b945050606061066e89828a01610418565b935050608061067f89828a0161046c565b92505060a061069089828a0161046c565b9150509295509295509295565b6106a68161085f565b82525050565b60006106b782610843565b6106c1818561084e565b93506106d18185602086016108aa565b6106da8161093d565b840191505092915050565b6106ee81610891565b82525050565b6000606082019050818103600083015261070e81866106ac565b9050818103602083015261072281856106ac565b9050610731604083018461069d565b949350505050565b6000608082019050818103600083015261075381876106ac565b9050818103602083015261076781866106ac565b9050610776604083018561069d565b61078360608301846106e5565b95945050505050565b600060a08201905081810360008301526107a681886106ac565b905081810360208301526107ba81876106ac565b90506107c9604083018661069d565b6107d660608301856106e5565b6107e360808301846106e5565b9695505050505050565b60006107f7610808565b905061080382826108dd565b919050565b6000604051905090565b600067ffffffffffffffff82111561082d5761082c61090e565b5b6108368261093d565b9050602081019050919050565b600081519050919050565b600082825260208201905092915050565b600061086a82610871565b9050919050565b600073ffffffffffffffffffffffffffffffffffffffff82169050919050565b6000819050919050565b82818337600083830152505050565b60005b838110156108c85780820151818401526020810190506108ad565b838111156108d7576000848401525b50505050565b6108e68261093d565b810181811067ffffffffffffffff821117156109055761090461090e565b5b80604052505050565b7f4e487b7100000000000000000000000000000000000000000000000000000000600052604160045260246000fd5b6000601f19601f8301169050919050565b6109578161085f565b811461096257600080fd5b50565b61096e81610891565b811461097957600080fd5b5056fea2646970667358221220bf4aa9334c2b0a6ae3c6a0c4ace440589c76a88633e13ea6a17dc0952385fe6b64736f6c63430008040033",
  "linkReferences": {},
  "deployedLinkReferences": {}
}