{
  "_format": "hh-sol-artifact-1",
  "contractName": "Factory",
  "sourceName": "contracts/Factory.sol",
  "abi": [
    {
      "inputs": [
        {
          "internalType": "address",
          "name": "_tokenBaseDeployer",
          "type": "address"
        },
        {
          "internalType": "address",
          "name": "_nftBaseDeployer",
          "type": "address"
        },
        {
          "internalType": "address",
          "name": "_fixedPriceDeployer",
          "type": "address"
        }
      ],
      "stateMutability": "nonpayable",
      "type": "constructor"
    },
    {
      "anonymous": false,
      "inputs": [
        {
          "indexed": true,
          "internalType": "address",
          "name": "_addr",
          "type": "address"
        },
        {
          "indexed": false,
          "internalType": "string",
          "name": "_name",
          "type": "string"
        },
        {
          "indexed": false,
          "internalType": "string",
          "name": "_symbol",
          "type": "string"
        },
        {
          "indexed": false,
          "internalType": "string",
          "name": "_bURI",
          "type": "string"
        },
        {
          "indexed": false,
          "internalType": "address",
          "name": "_erc20",
          "type": "address"
        },
        {
          "indexed": false,
          "internalType": "uint256",
          "name": "_rate",
          "type": "uint256"
        },
        {
          "indexed": false,
          "internalType": "uint256",
          "name": "_maxSupply",
          "type": "uint256"
        }
      ],
      "name": "FixedPriceDeploy",
      "type": "event"
    },
    {
      "anonymous": false,
      "inputs": [
        {
          "indexed": true,
          "internalType": "address",
          "name": "_addr",
          "type": "address"
        },
        {
          "indexed": false,
          "internalType": "string",
          "name": "_name",
          "type": "string"
        },
        {
          "indexed": false,
          "internalType": "string",
          "name": "_symbol",
          "type": "string"
        },
        {
          "indexed": false,
          "internalType": "string",
          "name": "_bURI",
          "type": "string"
        },
        {
          "indexed": false,
          "internalType": "address",
          "name": "_erc721",
          "type": "address"
        }
      ],
      "name": "NFTBaseDeploy",
      "type": "event"
    },
    {
      "anonymous": false,
      "inputs": [
        {
          "indexed": true,
          "internalType": "address",
          "name": "_addr",
          "type": "address"
        },
        {
          "indexed": false,
          "internalType": "string",
          "name": "_name",
          "type": "string"
        },
        {
          "indexed": false,
          "internalType": "string",
          "name": "_symbol",
          "type": "string"
        },
        {
          "indexed": false,
          "internalType": "string",
          "name": "_bURI",
          "type": "string"
        },
        {
          "indexed": false,
          "internalType": "address",
          "name": "_erc20",
          "type": "address"
        },
        {
          "indexed": false,
          "internalType": "uint256",
          "name": "_rate",
          "type": "uint256"
        }
      ],
      "name": "TokenBaseDeploy",
      "type": "event"
    },
    {
      "inputs": [
        {
          "internalType": "string",
          "name": "_name",
          "type": "string"
        },
        {
          "internalType": "string",
          "name": "_symbol",
          "type": "string"
        },
        {
          "internalType": "string",
          "name": "_bURI",
          "type": "string"
        },
        {
          "internalType": "address",
          "name": "_erc20",
          "type": "address"
        },
        {
          "internalType": "uint256",
          "name": "_rate",
          "type": "uint256"
        },
        {
          "internalType": "uint256",
          "name": "_maxSupply",
          "type": "uint256"
        }
      ],
      "name": "fixedPriceDeploy",
      "outputs": [],
      "stateMutability": "payable",
      "type": "function"
    },
    {
      "inputs": [
        {
          "internalType": "string",
          "name": "_name",
          "type": "string"
        },
        {
          "internalType": "string",
          "name": "_symbol",
          "type": "string"
        },
        {
          "internalType": "string",
          "name": "_bURI",
          "type": "string"
        },
        {
          "internalType": "address",
          "name": "_erc721",
          "type": "address"
        }
      ],
      "name": "nftBaseDeploy",
      "outputs": [],
      "stateMutability": "payable",
      "type": "function"
    },
    {
      "inputs": [
        {
          "internalType": "string",
          "name": "_name",
          "type": "string"
        },
        {
          "internalType": "string",
          "name": "_symbol",
          "type": "string"
        },
        {
          "internalType": "string",
          "name": "_bURI",
          "type": "string"
        },
        {
          "internalType": "address",
          "name": "_erc20",
          "type": "address"
        },
        {
          "internalType": "uint256",
          "name": "_rate",
          "type": "uint256"
        }
      ],
      "name": "tokenBaseDeploy",
      "outputs": [],
      "stateMutability": "payable",
      "type": "function"
    }
  ],
  "bytecode": "0x608060405234801561001057600080fd5b50604051610bfa380380610bfa83398181016040528101906100329190610111565b826000806101000a81548173ffffffffffffffffffffffffffffffffffffffff021916908373ffffffffffffffffffffffffffffffffffffffff16021790555081600160006101000a81548173ffffffffffffffffffffffffffffffffffffffff021916908373ffffffffffffffffffffffffffffffffffffffff16021790555080600260006101000a81548173ffffffffffffffffffffffffffffffffffffffff021916908373ffffffffffffffffffffffffffffffffffffffff1602179055505050506101a9565b60008151905061010b81610192565b92915050565b60008060006060848603121561012657600080fd5b6000610134868287016100fc565b9350506020610145868287016100fc565b9250506040610156868287016100fc565b9150509250925092565b600061016b82610172565b9050919050565b600073ffffffffffffffffffffffffffffffffffffffff82169050919050565b61019b81610160565b81146101a657600080fd5b50565b610a42806101b86000396000f3fe6080604052600436106100345760003560e01c8063a15d0acb14610039578063a1af88c014610055578063bc3b940a14610071575b600080fd5b610053600480360381019061004e919061055e565b61008d565b005b61006f600480360381019061006a91906104b3565b6101a9565b005b61008b6004803603810190610086919061061d565b6102c1565b005b60008060009054906101000a900473ffffffffffffffffffffffffffffffffffffffff16905060008173ffffffffffffffffffffffffffffffffffffffff1663a4c826db88888888886040518663ffffffff1660e01b81526004016100f695949392919061079f565b602060405180830381600087803b15801561011057600080fd5b505af1158015610124573d6000803e3d6000fd5b505050506040513d601f19601f82011682018060405250810190610148919061048a565b90508073ffffffffffffffffffffffffffffffffffffffff167fb29d5124cac0bcd917135028c4d5765c23268249bbd66188b8e84b844bc4d23d888888888860405161019895949392919061079f565b60405180910390a250505050505050565b6000600160009054906101000a900473ffffffffffffffffffffffffffffffffffffffff16905060008173ffffffffffffffffffffffffffffffffffffffff16633cf05304878787876040518563ffffffff1660e01b81526004016102119493929190610745565b602060405180830381600087803b15801561022b57600080fd5b505af115801561023f573d6000803e3d6000fd5b505050506040513d601f19601f82011682018060405250810190610263919061048a565b90508073ffffffffffffffffffffffffffffffffffffffff167f79f2f14993e04909821c65795165cad743682a46b55b3dd7ce6e0179acc88388878787876040516102b19493929190610745565b60405180910390a2505050505050565b6000600260009054906101000a900473ffffffffffffffffffffffffffffffffffffffff16905060008173ffffffffffffffffffffffffffffffffffffffff166333a93d048989898989896040518763ffffffff1660e01b815260040161032d96959493929190610807565b602060405180830381600087803b15801561034757600080fd5b505af115801561035b573d6000803e3d6000fd5b505050506040513d601f19601f8201168201806040525081019061037f919061048a565b90508073ffffffffffffffffffffffffffffffffffffffff167f040f683f96cfeb7458c018affc09375c6d41bda946cd34214597a4025fb214aa8989898989896040516103d196959493929190610807565b60405180910390a25050505050505050565b60006103f66103f1846108a2565b61087d565b90508281526020810184848401111561040e57600080fd5b61041984828561092b565b509392505050565b600081359050610430816109de565b92915050565b600081519050610445816109de565b92915050565b600082601f83011261045c57600080fd5b813561046c8482602086016103e3565b91505092915050565b600081359050610484816109f5565b92915050565b60006020828403121561049c57600080fd5b60006104aa84828501610436565b91505092915050565b600080600080608085870312156104c957600080fd5b600085013567ffffffffffffffff8111156104e357600080fd5b6104ef8782880161044b565b945050602085013567ffffffffffffffff81111561050c57600080fd5b6105188782880161044b565b935050604085013567ffffffffffffffff81111561053557600080fd5b6105418782880161044b565b925050606061055287828801610421565b91505092959194509250565b600080600080600060a0868803121561057657600080fd5b600086013567ffffffffffffffff81111561059057600080fd5b61059c8882890161044b565b955050602086013567ffffffffffffffff8111156105b957600080fd5b6105c58882890161044b565b945050604086013567ffffffffffffffff8111156105e257600080fd5b6105ee8882890161044b565b93505060606105ff88828901610421565b925050608061061088828901610475565b9150509295509295909350565b60008060008060008060c0878903121561063657600080fd5b600087013567ffffffffffffffff81111561065057600080fd5b61065c89828a0161044b565b965050602087013567ffffffffffffffff81111561067957600080fd5b61068589828a0161044b565b955050604087013567ffffffffffffffff8111156106a257600080fd5b6106ae89828a0161044b565b94505060606106bf89828a01610421565b93505060806106d089828a01610475565b92505060a06106e189828a01610475565b9150509295509295509295565b6106f7816108ef565b82525050565b6000610708826108d3565b61071281856108de565b935061072281856020860161093a565b61072b816109cd565b840191505092915050565b61073f81610921565b82525050565b6000608082019050818103600083015261075f81876106fd565b9050818103602083015261077381866106fd565b9050818103604083015261078781856106fd565b905061079660608301846106ee565b95945050505050565b600060a08201905081810360008301526107b981886106fd565b905081810360208301526107cd81876106fd565b905081810360408301526107e181866106fd565b90506107f060608301856106ee565b6107fd6080830184610736565b9695505050505050565b600060c082019050818103600083015261082181896106fd565b9050818103602083015261083581886106fd565b9050818103604083015261084981876106fd565b905061085860608301866106ee565b6108656080830185610736565b61087260a0830184610736565b979650505050505050565b6000610887610898565b9050610893828261096d565b919050565b6000604051905090565b600067ffffffffffffffff8211156108bd576108bc61099e565b5b6108c6826109cd565b9050602081019050919050565b600081519050919050565b600082825260208201905092915050565b60006108fa82610901565b9050919050565b600073ffffffffffffffffffffffffffffffffffffffff82169050919050565b6000819050919050565b82818337600083830152505050565b60005b8381101561095857808201518184015260208101905061093d565b83811115610967576000848401525b50505050565b610976826109cd565b810181811067ffffffffffffffff821117156109955761099461099e565b5b80604052505050565b7f4e487b7100000000000000000000000000000000000000000000000000000000600052604160045260246000fd5b6000601f19601f8301169050919050565b6109e7816108ef565b81146109f257600080fd5b50565b6109fe81610921565b8114610a0957600080fd5b5056fea2646970667358221220d9e9c534b01966087c0fcbe038f30eab295af329bfe58dacf6f23f87407a1f2a64736f6c63430008040033",
  "linkReferences": {},
  "deployedLinkReferences": {}
}