{
  "_format": "hh-sol-artifact-1",
  "contractName": "Factory",
  "sourceName": "contracts/Factory.sol",
  "abi": [
    {
      "inputs": [
        {
          "internalType": "address",
          "name": "_alphaDeployer",
          "type": "address"
        },
        {
          "internalType": "address",
          "name": "_betaDeployer",
          "type": "address"
        },
        {
          "internalType": "address",
          "name": "_gammaDeployer",
          "type": "address"
        },
        {
          "internalType": "address",
          "name": "_deltaDeployer",
          "type": "address"
        }
      ],
      "stateMutability": "nonpayable",
      "type": "constructor"
    },
    {
      "anonymous": false,
      "inputs": [
        {
          "indexed": true,
          "internalType": "address",
          "name": "_addr",
          "type": "address"
        },
        {
          "indexed": true,
          "internalType": "uint256",
          "name": "id",
          "type": "uint256"
        },
        {
          "indexed": false,
          "internalType": "string",
          "name": "_name",
          "type": "string"
        },
        {
          "indexed": false,
          "internalType": "string",
          "name": "_symbol",
          "type": "string"
        },
        {
          "indexed": false,
          "internalType": "address",
          "name": "_erc20",
          "type": "address"
        },
        {
          "indexed": false,
          "internalType": "uint256",
          "name": "_rate",
          "type": "uint256"
        }
      ],
      "name": "AlphaDeploy",
      "type": "event"
    },
    {
      "anonymous": false,
      "inputs": [
        {
          "indexed": true,
          "internalType": "address",
          "name": "_addr",
          "type": "address"
        },
        {
          "indexed": true,
          "internalType": "uint256",
          "name": "id",
          "type": "uint256"
        },
        {
          "indexed": false,
          "internalType": "string",
          "name": "_name",
          "type": "string"
        },
        {
          "indexed": false,
          "internalType": "string",
          "name": "_symbol",
          "type": "string"
        },
        {
          "indexed": false,
          "internalType": "address",
          "name": "_erc721",
          "type": "address"
        }
      ],
      "name": "BetaDeploy",
      "type": "event"
    },
    {
      "anonymous": false,
      "inputs": [
        {
          "indexed": true,
          "internalType": "address",
          "name": "_addr",
          "type": "address"
        },
        {
          "indexed": true,
          "internalType": "uint256",
          "name": "id",
          "type": "uint256"
        },
        {
          "indexed": false,
          "internalType": "string",
          "name": "_name",
          "type": "string"
        },
        {
          "indexed": false,
          "internalType": "string",
          "name": "_symbol",
          "type": "string"
        },
        {
          "indexed": false,
          "internalType": "address",
          "name": "_erc20",
          "type": "address"
        },
        {
          "indexed": false,
          "internalType": "uint256",
          "name": "_ownerRate",
          "type": "uint256"
        },
        {
          "indexed": false,
          "internalType": "uint256",
          "name": "_startPrice",
          "type": "uint256"
        },
        {
          "indexed": false,
          "internalType": "uint256",
          "name": "_totalSupply",
          "type": "uint256"
        },
        {
          "indexed": false,
          "internalType": "address",
          "name": "_incentiveAddress",
          "type": "address"
        },
        {
          "indexed": false,
          "internalType": "uint256",
          "name": "_amount",
          "type": "uint256"
        }
      ],
      "name": "DeltaDeploy",
      "type": "event"
    },
    {
      "anonymous": false,
      "inputs": [
        {
          "indexed": true,
          "internalType": "address",
          "name": "_addr",
          "type": "address"
        },
        {
          "indexed": true,
          "internalType": "uint256",
          "name": "id",
          "type": "uint256"
        },
        {
          "indexed": false,
          "internalType": "string",
          "name": "_name",
          "type": "string"
        },
        {
          "indexed": false,
          "internalType": "string",
          "name": "_symbol",
          "type": "string"
        },
        {
          "indexed": false,
          "internalType": "address",
          "name": "_erc20",
          "type": "address"
        },
        {
          "indexed": false,
          "internalType": "uint256",
          "name": "_rate",
          "type": "uint256"
        }
      ],
      "name": "GamaDeploy",
      "type": "event"
    },
    {
      "inputs": [
        {
          "internalType": "uint256",
          "name": "_id",
          "type": "uint256"
        },
        {
          "internalType": "string",
          "name": "_name",
          "type": "string"
        },
        {
          "internalType": "string",
          "name": "_symbol",
          "type": "string"
        },
        {
          "internalType": "address",
          "name": "_erc20",
          "type": "address"
        },
        {
          "internalType": "uint256",
          "name": "_rate",
          "type": "uint256"
        }
      ],
      "name": "alphaDeploy",
      "outputs": [],
      "stateMutability": "payable",
      "type": "function"
    },
    {
      "inputs": [
        {
          "internalType": "uint256",
          "name": "_id",
          "type": "uint256"
        },
        {
          "internalType": "string",
          "name": "_name",
          "type": "string"
        },
        {
          "internalType": "string",
          "name": "_symbol",
          "type": "string"
        },
        {
          "internalType": "address",
          "name": "_erc721",
          "type": "address"
        }
      ],
      "name": "betaDeploy",
      "outputs": [],
      "stateMutability": "payable",
      "type": "function"
    },
    {
      "inputs": [
        {
          "internalType": "uint256",
          "name": "_id",
          "type": "uint256"
        },
        {
          "internalType": "string",
          "name": "_name",
          "type": "string"
        },
        {
          "internalType": "string",
          "name": "_symbol",
          "type": "string"
        },
        {
          "internalType": "address",
          "name": "_erc20",
          "type": "address"
        },
        {
          "internalType": "uint256",
          "name": "_ownerRate",
          "type": "uint256"
        },
        {
          "internalType": "uint256",
          "name": "_startPrice",
          "type": "uint256"
        },
        {
          "internalType": "uint256",
          "name": "_totalSupply",
          "type": "uint256"
        },
        {
          "internalType": "address",
          "name": "_incentiveAddress",
          "type": "address"
        },
        {
          "internalType": "uint256",
          "name": "_amount",
          "type": "uint256"
        }
      ],
      "name": "deltaDeploy",
      "outputs": [],
      "stateMutability": "payable",
      "type": "function"
    },
    {
      "inputs": [
        {
          "internalType": "uint256",
          "name": "_id",
          "type": "uint256"
        },
        {
          "internalType": "string",
          "name": "_name",
          "type": "string"
        },
        {
          "internalType": "string",
          "name": "_symbol",
          "type": "string"
        },
        {
          "internalType": "address",
          "name": "_erc20",
          "type": "address"
        },
        {
          "internalType": "uint256",
          "name": "_rate",
          "type": "uint256"
        }
      ],
      "name": "gammaDeploy",
      "outputs": [],
      "stateMutability": "payable",
      "type": "function"
    }
  ],
  "bytecode": "0x608060405234801561001057600080fd5b50604051610d78380380610d7883398181016040528101906100329190610153565b836000806101000a81548173ffffffffffffffffffffffffffffffffffffffff021916908373ffffffffffffffffffffffffffffffffffffffff16021790555082600160006101000a81548173ffffffffffffffffffffffffffffffffffffffff021916908373ffffffffffffffffffffffffffffffffffffffff16021790555081600260006101000a81548173ffffffffffffffffffffffffffffffffffffffff021916908373ffffffffffffffffffffffffffffffffffffffff16021790555080600360006101000a81548173ffffffffffffffffffffffffffffffffffffffff021916908373ffffffffffffffffffffffffffffffffffffffff160217905550505050506101ff565b60008151905061014d816101e8565b92915050565b6000806000806080858703121561016957600080fd5b60006101778782880161013e565b94505060206101888782880161013e565b93505060406101998782880161013e565b92505060606101aa8782880161013e565b91505092959194509250565b60006101c1826101c8565b9050919050565b600073ffffffffffffffffffffffffffffffffffffffff82169050919050565b6101f1816101b6565b81146101fc57600080fd5b50565b610b6a8061020e6000396000f3fe60806040526004361061003f5760003560e01c806320234ad61461004457806371522a5414610060578063a614b7141461007c578063e0883bd114610098575b600080fd5b61005e600480360381019061005991906105fa565b6100b4565b005b61007a60048036038101906100759190610734565b6101c9565b005b6100966004803603810190610091919061068d565b6102f7565b005b6100b260048036038101906100ad919061068d565b610411565b005b6000600160009054906101000a900473ffffffffffffffffffffffffffffffffffffffff16905060008173ffffffffffffffffffffffffffffffffffffffff1663111035fa8686866040518463ffffffff1660e01b815260040161011a93929190610881565b602060405180830381600087803b15801561013457600080fd5b505af1158015610148573d6000803e3d6000fd5b505050506040513d601f19601f8201168201806040525081019061016c91906105d1565b9050858173ffffffffffffffffffffffffffffffffffffffff167f08355779b2f5af200c839054e246c556eef023f310fe918c0491a17f52b672c88787876040516101b993929190610881565b60405180910390a3505050505050565b6000600360009054906101000a900473ffffffffffffffffffffffffffffffffffffffff16905060008173ffffffffffffffffffffffffffffffffffffffff1663164574a38b8b8b8b8b8b8b8b6040518963ffffffff1660e01b8152600401610239989796959493929190610919565b602060405180830381600087803b15801561025357600080fd5b505af1158015610267573d6000803e3d6000fd5b505050506040513d601f19601f8201168201806040525081019061028b91906105d1565b90508a8173ffffffffffffffffffffffffffffffffffffffff167fef2338448e84f2385782b4578b6b7a883553d10c47abc74106bbe1de28a76ca68c8c8c8c8c8c8c8c6040516102e2989796959493929190610919565b60405180910390a35050505050505050505050565b6000600260009054906101000a900473ffffffffffffffffffffffffffffffffffffffff16905060008173ffffffffffffffffffffffffffffffffffffffff166319e049c4878787876040518563ffffffff1660e01b815260040161035f94939291906108c6565b602060405180830381600087803b15801561037957600080fd5b505af115801561038d573d6000803e3d6000fd5b505050506040513d601f19601f820116820180604052508101906103b191906105d1565b9050868173ffffffffffffffffffffffffffffffffffffffff167f9ce55c0b2a3cacc5e0863f778a14163f3ef043c7485fd1ed26c25cbf9b485d4f8888888860405161040094939291906108c6565b60405180910390a350505050505050565b60008060009054906101000a900473ffffffffffffffffffffffffffffffffffffffff16905060008173ffffffffffffffffffffffffffffffffffffffff1663fd74a0f3878787876040518563ffffffff1660e01b815260040161047894939291906108c6565b602060405180830381600087803b15801561049257600080fd5b505af11580156104a6573d6000803e3d6000fd5b505050506040513d601f19601f820116820180604052508101906104ca91906105d1565b9050868173ffffffffffffffffffffffffffffffffffffffff167fb75d1284de7e5a489aedd2a7ed89d624a4a4713309f62fea61342bb7d0309e368888888860405161051994939291906108c6565b60405180910390a350505050505050565b600061053d610538846109ca565b6109a5565b90508281526020810184848401111561055557600080fd5b610560848285610a53565b509392505050565b60008135905061057781610b06565b92915050565b60008151905061058c81610b06565b92915050565b600082601f8301126105a357600080fd5b81356105b384826020860161052a565b91505092915050565b6000813590506105cb81610b1d565b92915050565b6000602082840312156105e357600080fd5b60006105f18482850161057d565b91505092915050565b6000806000806080858703121561061057600080fd5b600061061e878288016105bc565b945050602085013567ffffffffffffffff81111561063b57600080fd5b61064787828801610592565b935050604085013567ffffffffffffffff81111561066457600080fd5b61067087828801610592565b925050606061068187828801610568565b91505092959194509250565b600080600080600060a086880312156106a557600080fd5b60006106b3888289016105bc565b955050602086013567ffffffffffffffff8111156106d057600080fd5b6106dc88828901610592565b945050604086013567ffffffffffffffff8111156106f957600080fd5b61070588828901610592565b935050606061071688828901610568565b9250506080610727888289016105bc565b9150509295509295909350565b60008060008060008060008060006101208a8c03121561075357600080fd5b60006107618c828d016105bc565b99505060208a013567ffffffffffffffff81111561077e57600080fd5b61078a8c828d01610592565b98505060408a013567ffffffffffffffff8111156107a757600080fd5b6107b38c828d01610592565b97505060606107c48c828d01610568565b96505060806107d58c828d016105bc565b95505060a06107e68c828d016105bc565b94505060c06107f78c828d016105bc565b93505060e06108088c828d01610568565b92505061010061081a8c828d016105bc565b9150509295985092959850929598565b61083381610a17565b82525050565b6000610844826109fb565b61084e8185610a06565b935061085e818560208601610a62565b61086781610af5565b840191505092915050565b61087b81610a49565b82525050565b6000606082019050818103600083015261089b8186610839565b905081810360208301526108af8185610839565b90506108be604083018461082a565b949350505050565b600060808201905081810360008301526108e08187610839565b905081810360208301526108f48186610839565b9050610903604083018561082a565b6109106060830184610872565b95945050505050565b6000610100820190508181036000830152610934818b610839565b90508181036020830152610948818a610839565b9050610957604083018961082a565b6109646060830188610872565b6109716080830187610872565b61097e60a0830186610872565b61098b60c083018561082a565b61099860e0830184610872565b9998505050505050505050565b60006109af6109c0565b90506109bb8282610a95565b919050565b6000604051905090565b600067ffffffffffffffff8211156109e5576109e4610ac6565b5b6109ee82610af5565b9050602081019050919050565b600081519050919050565b600082825260208201905092915050565b6000610a2282610a29565b9050919050565b600073ffffffffffffffffffffffffffffffffffffffff82169050919050565b6000819050919050565b82818337600083830152505050565b60005b83811015610a80578082015181840152602081019050610a65565b83811115610a8f576000848401525b50505050565b610a9e82610af5565b810181811067ffffffffffffffff82111715610abd57610abc610ac6565b5b80604052505050565b7f4e487b7100000000000000000000000000000000000000000000000000000000600052604160045260246000fd5b6000601f19601f8301169050919050565b610b0f81610a17565b8114610b1a57600080fd5b50565b610b2681610a49565b8114610b3157600080fd5b5056fea26469706673582212209cbbe1838ef20b1fe18bc9e611f5be000d92d02f08303f2c623087ee30ecfa1164736f6c63430008040033",
  "linkReferences": {},
  "deployedLinkReferences": {}
}