{
  "_format": "hh-sol-artifact-1",
  "contractName": "Factory",
  "sourceName": "contracts/Factory.sol",
  "abi": [
    {
      "inputs": [
        {
          "internalType": "address",
          "name": "_alphaDeployer",
          "type": "address"
        },
        {
          "internalType": "address",
          "name": "_betaDeployer",
          "type": "address"
        },
        {
          "internalType": "address",
          "name": "_gammaDeployer",
          "type": "address"
        }
      ],
      "stateMutability": "nonpayable",
      "type": "constructor"
    },
    {
      "anonymous": false,
      "inputs": [
        {
          "indexed": true,
          "internalType": "address",
          "name": "_addr",
          "type": "address"
        },
        {
          "indexed": true,
          "internalType": "uint256",
          "name": "id",
          "type": "uint256"
        },
        {
          "indexed": false,
          "internalType": "string",
          "name": "_name",
          "type": "string"
        },
        {
          "indexed": false,
          "internalType": "string",
          "name": "_symbol",
          "type": "string"
        },
        {
          "indexed": false,
          "internalType": "string",
          "name": "_bURI",
          "type": "string"
        },
        {
          "indexed": false,
          "internalType": "address",
          "name": "_erc20",
          "type": "address"
        },
        {
          "indexed": false,
          "internalType": "uint256",
          "name": "_rate",
          "type": "uint256"
        }
      ],
      "name": "AlphaDeploy",
      "type": "event"
    },
    {
      "anonymous": false,
      "inputs": [
        {
          "indexed": true,
          "internalType": "address",
          "name": "_addr",
          "type": "address"
        },
        {
          "indexed": true,
          "internalType": "uint256",
          "name": "id",
          "type": "uint256"
        },
        {
          "indexed": false,
          "internalType": "string",
          "name": "_name",
          "type": "string"
        },
        {
          "indexed": false,
          "internalType": "string",
          "name": "_symbol",
          "type": "string"
        },
        {
          "indexed": false,
          "internalType": "string",
          "name": "_bURI",
          "type": "string"
        },
        {
          "indexed": false,
          "internalType": "address",
          "name": "_erc721",
          "type": "address"
        }
      ],
      "name": "BetaDeploy",
      "type": "event"
    },
    {
      "anonymous": false,
      "inputs": [
        {
          "indexed": true,
          "internalType": "address",
          "name": "_addr",
          "type": "address"
        },
        {
          "indexed": true,
          "internalType": "uint256",
          "name": "id",
          "type": "uint256"
        },
        {
          "indexed": false,
          "internalType": "string",
          "name": "_name",
          "type": "string"
        },
        {
          "indexed": false,
          "internalType": "string",
          "name": "_symbol",
          "type": "string"
        },
        {
          "indexed": false,
          "internalType": "string",
          "name": "_bURI",
          "type": "string"
        },
        {
          "indexed": false,
          "internalType": "address",
          "name": "_erc20",
          "type": "address"
        },
        {
          "indexed": false,
          "internalType": "uint256",
          "name": "_rate",
          "type": "uint256"
        },
        {
          "indexed": false,
          "internalType": "uint256",
          "name": "_maxSupply",
          "type": "uint256"
        }
      ],
      "name": "GamaDeploy",
      "type": "event"
    },
    {
      "inputs": [
        {
          "internalType": "uint256",
          "name": "_id",
          "type": "uint256"
        },
        {
          "internalType": "string",
          "name": "_name",
          "type": "string"
        },
        {
          "internalType": "string",
          "name": "_symbol",
          "type": "string"
        },
        {
          "internalType": "string",
          "name": "_bURI",
          "type": "string"
        },
        {
          "internalType": "address",
          "name": "_erc20",
          "type": "address"
        },
        {
          "internalType": "uint256",
          "name": "_rate",
          "type": "uint256"
        }
      ],
      "name": "alphaDeploy",
      "outputs": [],
      "stateMutability": "payable",
      "type": "function"
    },
    {
      "inputs": [
        {
          "internalType": "uint256",
          "name": "_id",
          "type": "uint256"
        },
        {
          "internalType": "string",
          "name": "_name",
          "type": "string"
        },
        {
          "internalType": "string",
          "name": "_symbol",
          "type": "string"
        },
        {
          "internalType": "string",
          "name": "_bURI",
          "type": "string"
        },
        {
          "internalType": "address",
          "name": "_erc721",
          "type": "address"
        }
      ],
      "name": "betaDeploy",
      "outputs": [],
      "stateMutability": "payable",
      "type": "function"
    },
    {
      "inputs": [
        {
          "internalType": "uint256",
          "name": "_id",
          "type": "uint256"
        },
        {
          "internalType": "string",
          "name": "_name",
          "type": "string"
        },
        {
          "internalType": "string",
          "name": "_symbol",
          "type": "string"
        },
        {
          "internalType": "string",
          "name": "_bURI",
          "type": "string"
        },
        {
          "internalType": "address",
          "name": "_erc20",
          "type": "address"
        },
        {
          "internalType": "uint256",
          "name": "_rate",
          "type": "uint256"
        },
        {
          "internalType": "uint256",
          "name": "_maxSupply",
          "type": "uint256"
        }
      ],
      "name": "gammaDeploy",
      "outputs": [],
      "stateMutability": "payable",
      "type": "function"
    }
  ],
  "bytecode": "0x608060405234801561001057600080fd5b50604051610c3b380380610c3b83398181016040528101906100329190610111565b826000806101000a81548173ffffffffffffffffffffffffffffffffffffffff021916908373ffffffffffffffffffffffffffffffffffffffff16021790555081600160006101000a81548173ffffffffffffffffffffffffffffffffffffffff021916908373ffffffffffffffffffffffffffffffffffffffff16021790555080600260006101000a81548173ffffffffffffffffffffffffffffffffffffffff021916908373ffffffffffffffffffffffffffffffffffffffff1602179055505050506101a9565b60008151905061010b81610192565b92915050565b60008060006060848603121561012657600080fd5b6000610134868287016100fc565b9350506020610145868287016100fc565b9250506040610156868287016100fc565b9150509250925092565b600061016b82610172565b9050919050565b600073ffffffffffffffffffffffffffffffffffffffff82169050919050565b61019b81610160565b81146101a657600080fd5b50565b610a83806101b86000396000f3fe6080604052600436106100345760003560e01c806322940c7a14610039578063c467e75214610055578063d7a679d114610071575b600080fd5b610053600480360381019061004e9190610649565b61008d565b005b61006f600480360381019061006a9190610578565b6101b1565b005b61008b600480360381019061008691906104b9565b6102cf565b005b6000600260009054906101000a900473ffffffffffffffffffffffffffffffffffffffff16905060008173ffffffffffffffffffffffffffffffffffffffff1663fcd495e78989898989896040518763ffffffff1660e01b81526004016100f996959493929190610848565b602060405180830381600087803b15801561011357600080fd5b505af1158015610127573d6000803e3d6000fd5b505050506040513d601f19601f8201168201806040525081019061014b9190610490565b9050888173ffffffffffffffffffffffffffffffffffffffff167f081d561ce91a9c868c9da1d26fbdcdb6a5a1ab5d2bbd7f63e7956455ba3020898a8a8a8a8a8a60405161019e96959493929190610848565b60405180910390a3505050505050505050565b60008060009054906101000a900473ffffffffffffffffffffffffffffffffffffffff16905060008173ffffffffffffffffffffffffffffffffffffffff1663cfc58b1588888888886040518663ffffffff1660e01b815260040161021a9594939291906107e0565b602060405180830381600087803b15801561023457600080fd5b505af1158015610248573d6000803e3d6000fd5b505050506040513d601f19601f8201168201806040525081019061026c9190610490565b9050878173ffffffffffffffffffffffffffffffffffffffff167f6c5b234e8031a5611abc5aeb76db67342525969959b6a29aac890cdd8d50fa9789898989896040516102bd9594939291906107e0565b60405180910390a35050505050505050565b6000600160009054906101000a900473ffffffffffffffffffffffffffffffffffffffff16905060008173ffffffffffffffffffffffffffffffffffffffff1663f7cd0f04878787876040518563ffffffff1660e01b81526004016103379493929190610786565b602060405180830381600087803b15801561035157600080fd5b505af1158015610365573d6000803e3d6000fd5b505050506040513d601f19601f820116820180604052508101906103899190610490565b9050868173ffffffffffffffffffffffffffffffffffffffff167f1959b8b715962e8a1c6a48d75554c355b0c1cc8f43792f98631610907544e91d888888886040516103d89493929190610786565b60405180910390a350505050505050565b60006103fc6103f7846108e3565b6108be565b90508281526020810184848401111561041457600080fd5b61041f84828561096c565b509392505050565b60008135905061043681610a1f565b92915050565b60008151905061044b81610a1f565b92915050565b600082601f83011261046257600080fd5b81356104728482602086016103e9565b91505092915050565b60008135905061048a81610a36565b92915050565b6000602082840312156104a257600080fd5b60006104b08482850161043c565b91505092915050565b600080600080600060a086880312156104d157600080fd5b60006104df8882890161047b565b955050602086013567ffffffffffffffff8111156104fc57600080fd5b61050888828901610451565b945050604086013567ffffffffffffffff81111561052557600080fd5b61053188828901610451565b935050606086013567ffffffffffffffff81111561054e57600080fd5b61055a88828901610451565b925050608061056b88828901610427565b9150509295509295909350565b60008060008060008060c0878903121561059157600080fd5b600061059f89828a0161047b565b965050602087013567ffffffffffffffff8111156105bc57600080fd5b6105c889828a01610451565b955050604087013567ffffffffffffffff8111156105e557600080fd5b6105f189828a01610451565b945050606087013567ffffffffffffffff81111561060e57600080fd5b61061a89828a01610451565b935050608061062b89828a01610427565b92505060a061063c89828a0161047b565b9150509295509295509295565b600080600080600080600060e0888a03121561066457600080fd5b60006106728a828b0161047b565b975050602088013567ffffffffffffffff81111561068f57600080fd5b61069b8a828b01610451565b965050604088013567ffffffffffffffff8111156106b857600080fd5b6106c48a828b01610451565b955050606088013567ffffffffffffffff8111156106e157600080fd5b6106ed8a828b01610451565b94505060806106fe8a828b01610427565b93505060a061070f8a828b0161047b565b92505060c06107208a828b0161047b565b91505092959891949750929550565b61073881610930565b82525050565b600061074982610914565b610753818561091f565b935061076381856020860161097b565b61076c81610a0e565b840191505092915050565b61078081610962565b82525050565b600060808201905081810360008301526107a0818761073e565b905081810360208301526107b4818661073e565b905081810360408301526107c8818561073e565b90506107d7606083018461072f565b95945050505050565b600060a08201905081810360008301526107fa818861073e565b9050818103602083015261080e818761073e565b90508181036040830152610822818661073e565b9050610831606083018561072f565b61083e6080830184610777565b9695505050505050565b600060c0820190508181036000830152610862818961073e565b90508181036020830152610876818861073e565b9050818103604083015261088a818761073e565b9050610899606083018661072f565b6108a66080830185610777565b6108b360a0830184610777565b979650505050505050565b60006108c86108d9565b90506108d482826109ae565b919050565b6000604051905090565b600067ffffffffffffffff8211156108fe576108fd6109df565b5b61090782610a0e565b9050602081019050919050565b600081519050919050565b600082825260208201905092915050565b600061093b82610942565b9050919050565b600073ffffffffffffffffffffffffffffffffffffffff82169050919050565b6000819050919050565b82818337600083830152505050565b60005b8381101561099957808201518184015260208101905061097e565b838111156109a8576000848401525b50505050565b6109b782610a0e565b810181811067ffffffffffffffff821117156109d6576109d56109df565b5b80604052505050565b7f4e487b7100000000000000000000000000000000000000000000000000000000600052604160045260246000fd5b6000601f19601f8301169050919050565b610a2881610930565b8114610a3357600080fd5b50565b610a3f81610962565b8114610a4a57600080fd5b5056fea264697066735822122064296b930e66d692916b0e958b133eefc141909977476dded704cbe24855560564736f6c63430008040033",
  "linkReferences": {},
  "deployedLinkReferences": {}
}