{
  "_format": "hh-sol-artifact-1",
  "contractName": "BetaDeployer",
  "sourceName": "contracts/deployers/BetaDeployer.sol",
  "abi": [
    {
      "inputs": [
        {
          "internalType": "string",
          "name": "_name",
          "type": "string"
        },
        {
          "internalType": "string",
          "name": "_symbol",
          "type": "string"
        },
        {
          "internalType": "address",
          "name": "_erc721",
          "type": "address"
        }
      ],
      "name": "deployBeta",
      "outputs": [
        {
          "internalType": "address",
          "name": "",
          "type": "address"
        }
      ],
      "stateMutability": "nonpayable",
      "type": "function"
    }
  ],
  "bytecode": "0x608060405234801561001057600080fd5b5061348b806100206000396000f3fe60806040523480156200001157600080fd5b50600436106200002e5760003560e01c8063111035fa1462000033575b600080fd5b6200005160048036038101906200004b91906200014d565b62000069565b60405162000060919062000227565b60405180910390f35b6000808484846040516200007d90620000b6565b6200008b9392919062000244565b604051809103906000f080158015620000a8573d6000803e3d6000fd5b509050809150509392505050565b613042806200041483390190565b6000620000db620000d584620002b8565b6200028f565b905082815260208101848484011115620000f457600080fd5b620001018482856200033e565b509392505050565b6000813590506200011a81620003f9565b92915050565b600082601f8301126200013257600080fd5b813562000144848260208601620000c4565b91505092915050565b6000806000606084860312156200016357600080fd5b600084013567ffffffffffffffff8111156200017e57600080fd5b6200018c8682870162000120565b935050602084013567ffffffffffffffff811115620001aa57600080fd5b620001b88682870162000120565b9250506040620001cb8682870162000109565b9150509250925092565b620001e0816200030a565b82525050565b6000620001f382620002ee565b620001ff8185620002f9565b9350620002118185602086016200034d565b6200021c81620003e8565b840191505092915050565b60006020820190506200023e6000830184620001d5565b92915050565b60006060820190508181036000830152620002608186620001e6565b90508181036020830152620002768185620001e6565b9050620002876040830184620001d5565b949350505050565b60006200029b620002ae565b9050620002a9828262000383565b919050565b6000604051905090565b600067ffffffffffffffff821115620002d657620002d5620003b9565b5b620002e182620003e8565b9050602081019050919050565b600081519050919050565b600082825260208201905092915050565b600062000317826200031e565b9050919050565b600073ffffffffffffffffffffffffffffffffffffffff82169050919050565b82818337600083830152505050565b60005b838110156200036d57808201518184015260208101905062000350565b838111156200037d576000848401525b50505050565b6200038e82620003e8565b810181811067ffffffffffffffff82111715620003b057620003af620003b9565b5b80604052505050565b7f4e487b7100000000000000000000000000000000000000000000000000000000600052604160045260246000fd5b6000601f19601f8301169050919050565b62000404816200030a565b81146200041057600080fd5b5056fe60806040526040518060200160405280600181525060086000820151816000015550503480156200002f57600080fd5b50604051620030423803806200304283398181016040528101906200005591906200020e565b828281600090805190602001906200006f929190620000d5565b50806001908051906020019062000088929190620000d5565b50505080600660006101000a81548173ffffffffffffffffffffffffffffffffffffffff021916908373ffffffffffffffffffffffffffffffffffffffff16021790555050505062000454565b828054620000e3906200035f565b90600052602060002090601f01602090048101928262000107576000855562000153565b82601f106200012257805160ff191683800117855562000153565b8280016001018555821562000153579182015b828111156200015257825182559160200191906001019062000135565b5b50905062000162919062000166565b5090565b5b808211156200018157600081600090555060010162000167565b5090565b60006200019c6200019684620002bf565b62000296565b905082815260208101848484011115620001b557600080fd5b620001c284828562000329565b509392505050565b600081519050620001db816200043a565b92915050565b600082601f830112620001f357600080fd5b81516200020584826020860162000185565b91505092915050565b6000806000606084860312156200022457600080fd5b600084015167ffffffffffffffff8111156200023f57600080fd5b6200024d86828701620001e1565b935050602084015167ffffffffffffffff8111156200026b57600080fd5b6200027986828701620001e1565b92505060406200028c86828701620001ca565b9150509250925092565b6000620002a2620002b5565b9050620002b0828262000395565b919050565b6000604051905090565b600067ffffffffffffffff821115620002dd57620002dc620003fa565b5b620002e88262000429565b9050602081019050919050565b6000620003028262000309565b9050919050565b600073ffffffffffffffffffffffffffffffffffffffff82169050919050565b60005b83811015620003495780820151818401526020810190506200032c565b8381111562000359576000848401525b50505050565b600060028204905060018216806200037857607f821691505b602082108114156200038f576200038e620003cb565b5b50919050565b620003a08262000429565b810181811067ffffffffffffffff82111715620003c257620003c1620003fa565b5b80604052505050565b7f4e487b7100000000000000000000000000000000000000000000000000000000600052602260045260246000fd5b7f4e487b7100000000000000000000000000000000000000000000000000000000600052604160045260246000fd5b6000601f19601f8301169050919050565b6200044581620002f5565b81146200045157600080fd5b50565b612bde80620004646000396000f3fe608060405234801561001057600080fd5b50600436106101005760003560e01c806370a0823111610097578063b88d4fde11610066578063b88d4fde146102bd578063bca6ce64146102d9578063c87b56dd146102f7578063e985e9c51461032757610100565b806370a082311461022357806395d89b4114610253578063a0712d6814610271578063a22cb465146102a157610100565b806323b872dd116100d357806323b872dd1461019f57806342842e0e146101bb57806342966c68146101d75780636352211e146101f357610100565b806301ffc9a71461010557806306fdde0314610135578063081812fc14610153578063095ea7b314610183575b600080fd5b61011f600480360381019061011a9190611d3d565b610357565b60405161012c9190612157565b60405180910390f35b61013d610369565b60405161014a9190612172565b60405180910390f35b61016d60048036038101906101689190611d8f565b6103fb565b60405161017a91906120b9565b60405180910390f35b61019d60048036038101906101989190611d01565b610480565b005b6101b960048036038101906101b49190611bfb565b610598565b005b6101d560048036038101906101d09190611bfb565b6105f8565b005b6101f160048036038101906101ec9190611d8f565b610618565b005b61020d60048036038101906102089190611d8f565b61075e565b60405161021a91906120b9565b60405180910390f35b61023d60048036038101906102389190611b96565b610810565b60405161024a9190612374565b60405180910390f35b61025b6108c8565b6040516102689190612172565b60405180910390f35b61028b60048036038101906102869190611d8f565b61095a565b6040516102989190612374565b60405180910390f35b6102bb60048036038101906102b69190611cc5565b610a83565b005b6102d760048036038101906102d29190611c4a565b610c04565b005b6102e1610c66565b6040516102ee91906120b9565b60405180910390f35b610311600480360381019061030c9190611d8f565b610c8c565b60405161031e9190612172565b60405180910390f35b610341600480360381019061033c9190611bbf565b610d33565b60405161034e9190612157565b60405180910390f35b600061036282610dc7565b9050919050565b60606000805461037890612599565b80601f01602080910402602001604051908101604052809291908181526020018280546103a490612599565b80156103f15780601f106103c6576101008083540402835291602001916103f1565b820191906000526020600020905b8154815290600101906020018083116103d457829003601f168201915b5050505050905090565b600061040682610ea9565b610445576040517f08c379a000000000000000000000000000000000000000000000000000000000815260040161043c906122b4565b60405180910390fd5b6004600083815260200190815260200160002060009054906101000a900473ffffffffffffffffffffffffffffffffffffffff169050919050565b600061048b8261075e565b90508073ffffffffffffffffffffffffffffffffffffffff168373ffffffffffffffffffffffffffffffffffffffff1614156104fc576040517f08c379a00000000000000000000000000000000000000000000000000000000081526004016104f390612334565b60405180910390fd5b8073ffffffffffffffffffffffffffffffffffffffff1661051b610f15565b73ffffffffffffffffffffffffffffffffffffffff16148061054a575061054981610544610f15565b610d33565b5b610589576040517f08c379a000000000000000000000000000000000000000000000000000000000815260040161058090612234565b60405180910390fd5b6105938383610f1d565b505050565b6105a96105a3610f15565b82610fd6565b6105e8576040517f08c379a00000000000000000000000000000000000000000000000000000000081526004016105df90612354565b60405180910390fd5b6105f38383836110b4565b505050565b61061383838360405180602001604052806000815250610c04565b505050565b600081141561065c576040517f08c379a000000000000000000000000000000000000000000000000000000000815260040161065390612314565b60405180910390fd5b61066581611310565b600660009054906101000a900473ffffffffffffffffffffffffffffffffffffffff1673ffffffffffffffffffffffffffffffffffffffff166323b872dd306106ac610f15565b60076000868152602001908152602001600020546040518463ffffffff1660e01b81526004016106de939291906120d4565b600060405180830381600087803b1580156106f857600080fd5b505af115801561070c573d6000803e3d6000fd5b5050505080610719610f15565b73ffffffffffffffffffffffffffffffffffffffff167fcc16f5dbb4873280815c1ee09dbd06736cffcc184412cf7a71a0fdb75d397ca560405160405180910390a350565b6000806002600084815260200190815260200160002060009054906101000a900473ffffffffffffffffffffffffffffffffffffffff169050600073ffffffffffffffffffffffffffffffffffffffff168173ffffffffffffffffffffffffffffffffffffffff161415610807576040517f08c379a00000000000000000000000000000000000000000000000000000000081526004016107fe90612274565b60405180910390fd5b80915050919050565b60008073ffffffffffffffffffffffffffffffffffffffff168273ffffffffffffffffffffffffffffffffffffffff161415610881576040517f08c379a000000000000000000000000000000000000000000000000000000000815260040161087890612254565b60405180910390fd5b600360008373ffffffffffffffffffffffffffffffffffffffff1673ffffffffffffffffffffffffffffffffffffffff168152602001908152602001600020549050919050565b6060600180546108d790612599565b80601f016020809104026020016040519081016040528092919081815260200182805461090390612599565b80156109505780601f1061092557610100808354040283529160200191610950565b820191906000526020600020905b81548152906001019060200180831161093357829003601f168201915b5050505050905090565b60006109666008611421565b9050816007600083815260200190815260200160002081905550600660009054906101000a900473ffffffffffffffffffffffffffffffffffffffff1673ffffffffffffffffffffffffffffffffffffffff166323b872dd6109c6610f15565b30856040518463ffffffff1660e01b81526004016109e6939291906120d4565b600060405180830381600087803b158015610a0057600080fd5b505af1158015610a14573d6000803e3d6000fd5b50505050610a29610a23610f15565b8261142f565b80610a32610f15565b73ffffffffffffffffffffffffffffffffffffffff167f0f6798a560793a54c3bcfe86a93cde1e73087d944c0ea20544137d412139688560405160405180910390a3610a7e600861144d565b919050565b610a8b610f15565b73ffffffffffffffffffffffffffffffffffffffff168273ffffffffffffffffffffffffffffffffffffffff161415610af9576040517f08c379a0000000000000000000000000000000000000000000000000000000008152600401610af0906121f4565b60405180910390fd5b8060056000610b06610f15565b73ffffffffffffffffffffffffffffffffffffffff1673ffffffffffffffffffffffffffffffffffffffff16815260200190815260200160002060008473ffffffffffffffffffffffffffffffffffffffff1673ffffffffffffffffffffffffffffffffffffffff16815260200190815260200160002060006101000a81548160ff0219169083151502179055508173ffffffffffffffffffffffffffffffffffffffff16610bb3610f15565b73ffffffffffffffffffffffffffffffffffffffff167f17307eab39ab6107e8899845ad3d59bd9653f200f220920489ca2b5937696c3183604051610bf89190612157565b60405180910390a35050565b610c15610c0f610f15565b83610fd6565b610c54576040517f08c379a0000000000000000000000000000000000000000000000000000000008152600401610c4b90612354565b60405180910390fd5b610c6084848484611463565b50505050565b600660009054906101000a900473ffffffffffffffffffffffffffffffffffffffff1681565b6060610c9782610ea9565b610cd6576040517f08c379a0000000000000000000000000000000000000000000000000000000008152600401610ccd906122f4565b60405180910390fd5b6000610ce06114bf565b90506000815111610d005760405180602001604052806000815250610d2b565b80610d0a846114d6565b604051602001610d1b929190612095565b6040516020818303038152906040525b915050919050565b6000600560008473ffffffffffffffffffffffffffffffffffffffff1673ffffffffffffffffffffffffffffffffffffffff16815260200190815260200160002060008373ffffffffffffffffffffffffffffffffffffffff1673ffffffffffffffffffffffffffffffffffffffff16815260200190815260200160002060009054906101000a900460ff16905092915050565b60007f80ac58cd000000000000000000000000000000000000000000000000000000007bffffffffffffffffffffffffffffffffffffffffffffffffffffffff1916827bffffffffffffffffffffffffffffffffffffffffffffffffffffffff19161480610e9257507f5b5e139f000000000000000000000000000000000000000000000000000000007bffffffffffffffffffffffffffffffffffffffffffffffffffffffff1916827bffffffffffffffffffffffffffffffffffffffffffffffffffffffff1916145b80610ea25750610ea182611683565b5b9050919050565b60008073ffffffffffffffffffffffffffffffffffffffff166002600084815260200190815260200160002060009054906101000a900473ffffffffffffffffffffffffffffffffffffffff1673ffffffffffffffffffffffffffffffffffffffff1614159050919050565b600033905090565b816004600083815260200190815260200160002060006101000a81548173ffffffffffffffffffffffffffffffffffffffff021916908373ffffffffffffffffffffffffffffffffffffffff160217905550808273ffffffffffffffffffffffffffffffffffffffff16610f908361075e565b73ffffffffffffffffffffffffffffffffffffffff167f8c5be1e5ebec7d5bd14f71427d1e84f3dd0314c0f7b2291e5b200ac8c7c3b92560405160405180910390a45050565b6000610fe182610ea9565b611020576040517f08c379a000000000000000000000000000000000000000000000000000000000815260040161101790612214565b60405180910390fd5b600061102b8361075e565b90508073ffffffffffffffffffffffffffffffffffffffff168473ffffffffffffffffffffffffffffffffffffffff16148061109a57508373ffffffffffffffffffffffffffffffffffffffff16611082846103fb565b73ffffffffffffffffffffffffffffffffffffffff16145b806110ab57506110aa8185610d33565b5b91505092915050565b8273ffffffffffffffffffffffffffffffffffffffff166110d48261075e565b73ffffffffffffffffffffffffffffffffffffffff161461112a576040517f08c379a0000000000000000000000000000000000000000000000000000000008152600401611121906122d4565b60405180910390fd5b600073ffffffffffffffffffffffffffffffffffffffff168273ffffffffffffffffffffffffffffffffffffffff16141561119a576040517f08c379a0000000000000000000000000000000000000000000000000000000008152600401611191906121d4565b60405180910390fd5b6111a58383836116ed565b6111b0600082610f1d565b6001600360008573ffffffffffffffffffffffffffffffffffffffff1673ffffffffffffffffffffffffffffffffffffffff168152602001908152602001600020600082825461120091906124af565b925050819055506001600360008473ffffffffffffffffffffffffffffffffffffffff1673ffffffffffffffffffffffffffffffffffffffff16815260200190815260200160002060008282546112579190612428565b92505081905550816002600083815260200190815260200160002060006101000a81548173ffffffffffffffffffffffffffffffffffffffff021916908373ffffffffffffffffffffffffffffffffffffffff160217905550808273ffffffffffffffffffffffffffffffffffffffff168473ffffffffffffffffffffffffffffffffffffffff167fddf252ad1be2c89b69c2b068fc378daa952ba7f163c4a11628f55a4df523b3ef60405160405180910390a4505050565b600061131b8261075e565b9050611329816000846116ed565b611334600083610f1d565b6001600360008373ffffffffffffffffffffffffffffffffffffffff1673ffffffffffffffffffffffffffffffffffffffff168152602001908152602001600020600082825461138491906124af565b925050819055506002600083815260200190815260200160002060006101000a81549073ffffffffffffffffffffffffffffffffffffffff021916905581600073ffffffffffffffffffffffffffffffffffffffff168273ffffffffffffffffffffffffffffffffffffffff167fddf252ad1be2c89b69c2b068fc378daa952ba7f163c4a11628f55a4df523b3ef60405160405180910390a45050565b600081600001549050919050565b6114498282604051806020016040528060008152506116f2565b5050565b6001816000016000828254019250508190555050565b61146e8484846110b4565b61147a8484848461174d565b6114b9576040517f08c379a00000000000000000000000000000000000000000000000000000000081526004016114b090612194565b60405180910390fd5b50505050565b606060405180602001604052806000815250905090565b6060600082141561151e576040518060400160405280600181526020017f3000000000000000000000000000000000000000000000000000000000000000815250905061167e565b600082905060005b60008214611550578080611539906125fc565b915050600a82611549919061247e565b9150611526565b60008167ffffffffffffffff811115611592577f4e487b7100000000000000000000000000000000000000000000000000000000600052604160045260246000fd5b6040519080825280601f01601f1916602001820160405280156115c45781602001600182028036833780820191505090505b5090505b60008514611677576001826115dd91906124af565b9150600a856115ec9190612645565b60306115f89190612428565b60f81b818381518110611634577f4e487b7100000000000000000000000000000000000000000000000000000000600052603260045260246000fd5b60200101907effffffffffffffffffffffffffffffffffffffffffffffffffffffffffffff1916908160001a905350600a85611670919061247e565b94506115c8565b8093505050505b919050565b60007f01ffc9a7000000000000000000000000000000000000000000000000000000007bffffffffffffffffffffffffffffffffffffffffffffffffffffffff1916827bffffffffffffffffffffffffffffffffffffffffffffffffffffffff1916149050919050565b505050565b6116fc83836118e4565b611709600084848461174d565b611748576040517f08c379a000000000000000000000000000000000000000000000000000000000815260040161173f90612194565b60405180910390fd5b505050565b600061176e8473ffffffffffffffffffffffffffffffffffffffff16611ab2565b156118d7578373ffffffffffffffffffffffffffffffffffffffff1663150b7a02611797610f15565b8786866040518563ffffffff1660e01b81526004016117b9949392919061210b565b602060405180830381600087803b1580156117d357600080fd5b505af192505050801561180457506040513d601f19601f820116820180604052508101906118019190611d66565b60015b611887573d8060008114611834576040519150601f19603f3d011682016040523d82523d6000602084013e611839565b606091505b5060008151141561187f576040517f08c379a000000000000000000000000000000000000000000000000000000000815260040161187690612194565b60405180910390fd5b805181602001fd5b63150b7a0260e01b7bffffffffffffffffffffffffffffffffffffffffffffffffffffffff1916817bffffffffffffffffffffffffffffffffffffffffffffffffffffffff1916149150506118dc565b600190505b949350505050565b600073ffffffffffffffffffffffffffffffffffffffff168273ffffffffffffffffffffffffffffffffffffffff161415611954576040517f08c379a000000000000000000000000000000000000000000000000000000000815260040161194b90612294565b60405180910390fd5b61195d81610ea9565b1561199d576040517f08c379a0000000000000000000000000000000000000000000000000000000008152600401611994906121b4565b60405180910390fd5b6119a9600083836116ed565b6001600360008473ffffffffffffffffffffffffffffffffffffffff1673ffffffffffffffffffffffffffffffffffffffff16815260200190815260200160002060008282546119f99190612428565b92505081905550816002600083815260200190815260200160002060006101000a81548173ffffffffffffffffffffffffffffffffffffffff021916908373ffffffffffffffffffffffffffffffffffffffff160217905550808273ffffffffffffffffffffffffffffffffffffffff16600073ffffffffffffffffffffffffffffffffffffffff167fddf252ad1be2c89b69c2b068fc378daa952ba7f163c4a11628f55a4df523b3ef60405160405180910390a45050565b600080823b905060008111915050919050565b6000611ad8611ad3846123b4565b61238f565b905082815260208101848484011115611af057600080fd5b611afb848285612557565b509392505050565b600081359050611b1281612b4c565b92915050565b600081359050611b2781612b63565b92915050565b600081359050611b3c81612b7a565b92915050565b600081519050611b5181612b7a565b92915050565b600082601f830112611b6857600080fd5b8135611b78848260208601611ac5565b91505092915050565b600081359050611b9081612b91565b92915050565b600060208284031215611ba857600080fd5b6000611bb684828501611b03565b91505092915050565b60008060408385031215611bd257600080fd5b6000611be085828601611b03565b9250506020611bf185828601611b03565b9150509250929050565b600080600060608486031215611c1057600080fd5b6000611c1e86828701611b03565b9350506020611c2f86828701611b03565b9250506040611c4086828701611b81565b9150509250925092565b60008060008060808587031215611c6057600080fd5b6000611c6e87828801611b03565b9450506020611c7f87828801611b03565b9350506040611c9087828801611b81565b925050606085013567ffffffffffffffff811115611cad57600080fd5b611cb987828801611b57565b91505092959194509250565b60008060408385031215611cd857600080fd5b6000611ce685828601611b03565b9250506020611cf785828601611b18565b9150509250929050565b60008060408385031215611d1457600080fd5b6000611d2285828601611b03565b9250506020611d3385828601611b81565b9150509250929050565b600060208284031215611d4f57600080fd5b6000611d5d84828501611b2d565b91505092915050565b600060208284031215611d7857600080fd5b6000611d8684828501611b42565b91505092915050565b600060208284031215611da157600080fd5b6000611daf84828501611b81565b91505092915050565b611dc1816124e3565b82525050565b611dd0816124f5565b82525050565b6000611de1826123e5565b611deb81856123fb565b9350611dfb818560208601612566565b611e0481612732565b840191505092915050565b6000611e1a826123f0565b611e24818561240c565b9350611e34818560208601612566565b611e3d81612732565b840191505092915050565b6000611e53826123f0565b611e5d818561241d565b9350611e6d818560208601612566565b80840191505092915050565b6000611e8660328361240c565b9150611e9182612743565b604082019050919050565b6000611ea9601c8361240c565b9150611eb482612792565b602082019050919050565b6000611ecc60248361240c565b9150611ed7826127bb565b604082019050919050565b6000611eef60198361240c565b9150611efa8261280a565b602082019050919050565b6000611f12602c8361240c565b9150611f1d82612833565b604082019050919050565b6000611f3560388361240c565b9150611f4082612882565b604082019050919050565b6000611f58602a8361240c565b9150611f63826128d1565b604082019050919050565b6000611f7b60298361240c565b9150611f8682612920565b604082019050919050565b6000611f9e60208361240c565b9150611fa98261296f565b602082019050919050565b6000611fc1602c8361240c565b9150611fcc82612998565b604082019050919050565b6000611fe460298361240c565b9150611fef826129e7565b604082019050919050565b6000612007602f8361240c565b915061201282612a36565b604082019050919050565b600061202a601e8361240c565b915061203582612a85565b602082019050919050565b600061204d60218361240c565b915061205882612aae565b604082019050919050565b600061207060318361240c565b915061207b82612afd565b604082019050919050565b61208f8161254d565b82525050565b60006120a18285611e48565b91506120ad8284611e48565b91508190509392505050565b60006020820190506120ce6000830184611db8565b92915050565b60006060820190506120e96000830186611db8565b6120f66020830185611db8565b6121036040830184612086565b949350505050565b60006080820190506121206000830187611db8565b61212d6020830186611db8565b61213a6040830185612086565b818103606083015261214c8184611dd6565b905095945050505050565b600060208201905061216c6000830184611dc7565b92915050565b6000602082019050818103600083015261218c8184611e0f565b905092915050565b600060208201905081810360008301526121ad81611e79565b9050919050565b600060208201905081810360008301526121cd81611e9c565b9050919050565b600060208201905081810360008301526121ed81611ebf565b9050919050565b6000602082019050818103600083015261220d81611ee2565b9050919050565b6000602082019050818103600083015261222d81611f05565b9050919050565b6000602082019050818103600083015261224d81611f28565b9050919050565b6000602082019050818103600083015261226d81611f4b565b9050919050565b6000602082019050818103600083015261228d81611f6e565b9050919050565b600060208201905081810360008301526122ad81611f91565b9050919050565b600060208201905081810360008301526122cd81611fb4565b9050919050565b600060208201905081810360008301526122ed81611fd7565b9050919050565b6000602082019050818103600083015261230d81611ffa565b9050919050565b6000602082019050818103600083015261232d8161201d565b9050919050565b6000602082019050818103600083015261234d81612040565b9050919050565b6000602082019050818103600083015261236d81612063565b9050919050565b60006020820190506123896000830184612086565b92915050565b60006123996123aa565b90506123a582826125cb565b919050565b6000604051905090565b600067ffffffffffffffff8211156123cf576123ce612703565b5b6123d882612732565b9050602081019050919050565b600081519050919050565b600081519050919050565b600082825260208201905092915050565b600082825260208201905092915050565b600081905092915050565b60006124338261254d565b915061243e8361254d565b9250827fffffffffffffffffffffffffffffffffffffffffffffffffffffffffffffffff0382111561247357612472612676565b5b828201905092915050565b60006124898261254d565b91506124948361254d565b9250826124a4576124a36126a5565b5b828204905092915050565b60006124ba8261254d565b91506124c58361254d565b9250828210156124d8576124d7612676565b5b828203905092915050565b60006124ee8261252d565b9050919050565b60008115159050919050565b60007fffffffff0000000000000000000000000000000000000000000000000000000082169050919050565b600073ffffffffffffffffffffffffffffffffffffffff82169050919050565b6000819050919050565b82818337600083830152505050565b60005b83811015612584578082015181840152602081019050612569565b83811115612593576000848401525b50505050565b600060028204905060018216806125b157607f821691505b602082108114156125c5576125c46126d4565b5b50919050565b6125d482612732565b810181811067ffffffffffffffff821117156125f3576125f2612703565b5b80604052505050565b60006126078261254d565b91507fffffffffffffffffffffffffffffffffffffffffffffffffffffffffffffffff82141561263a57612639612676565b5b600182019050919050565b60006126508261254d565b915061265b8361254d565b92508261266b5761266a6126a5565b5b828206905092915050565b7f4e487b7100000000000000000000000000000000000000000000000000000000600052601160045260246000fd5b7f4e487b7100000000000000000000000000000000000000000000000000000000600052601260045260246000fd5b7f4e487b7100000000000000000000000000000000000000000000000000000000600052602260045260246000fd5b7f4e487b7100000000000000000000000000000000000000000000000000000000600052604160045260246000fd5b6000601f19601f8301169050919050565b7f4552433732313a207472616e7366657220746f206e6f6e20455243373231526560008201527f63656976657220696d706c656d656e7465720000000000000000000000000000602082015250565b7f4552433732313a20746f6b656e20616c7265616479206d696e74656400000000600082015250565b7f4552433732313a207472616e7366657220746f20746865207a65726f2061646460008201527f7265737300000000000000000000000000000000000000000000000000000000602082015250565b7f4552433732313a20617070726f766520746f2063616c6c657200000000000000600082015250565b7f4552433732313a206f70657261746f7220717565727920666f72206e6f6e657860008201527f697374656e7420746f6b656e0000000000000000000000000000000000000000602082015250565b7f4552433732313a20617070726f76652063616c6c6572206973206e6f74206f7760008201527f6e6572206e6f7220617070726f76656420666f7220616c6c0000000000000000602082015250565b7f4552433732313a2062616c616e636520717565727920666f7220746865207a6560008201527f726f206164647265737300000000000000000000000000000000000000000000602082015250565b7f4552433732313a206f776e657220717565727920666f72206e6f6e657869737460008201527f656e7420746f6b656e0000000000000000000000000000000000000000000000602082015250565b7f4552433732313a206d696e7420746f20746865207a65726f2061646472657373600082015250565b7f4552433732313a20617070726f76656420717565727920666f72206e6f6e657860008201527f697374656e7420746f6b656e0000000000000000000000000000000000000000602082015250565b7f4552433732313a207472616e73666572206f6620746f6b656e2074686174206960008201527f73206e6f74206f776e0000000000000000000000000000000000000000000000602082015250565b7f4552433732314d657461646174613a2055524920717565727920666f72206e6f60008201527f6e6578697374656e7420746f6b656e0000000000000000000000000000000000602082015250565b7f6572726f723a20746f6b656e2069642063616e6e6f74206265207a65726f0000600082015250565b7f4552433732313a20617070726f76616c20746f2063757272656e74206f776e6560008201527f7200000000000000000000000000000000000000000000000000000000000000602082015250565b7f4552433732313a207472616e736665722063616c6c6572206973206e6f74206f60008201527f776e6572206e6f7220617070726f766564000000000000000000000000000000602082015250565b612b55816124e3565b8114612b6057600080fd5b50565b612b6c816124f5565b8114612b7757600080fd5b50565b612b8381612501565b8114612b8e57600080fd5b50565b612b9a8161254d565b8114612ba557600080fd5b5056fea26469706673582212201359ee8711069ba2edb6bfeb11b9f5616ed50f76e7059bb1b5ad56a02f2566ad64736f6c63430008040033a2646970667358221220ca94f45fd6602106cbcb6b54c7a47a12bf46fec9a4b222712ba61a57f246aee264736f6c63430008040033",
  "linkReferences": {},
  "deployedLinkReferences": {}
}