{
  "_format": "hh-sol-artifact-1",
  "contractName": "BetaDeployer",
  "sourceName": "contracts/deployers/BetaDeployer.sol",
  "abi": [
    {
      "inputs": [
        {
          "internalType": "string",
          "name": "_name",
          "type": "string"
        },
        {
          "internalType": "string",
          "name": "_symbol",
          "type": "string"
        },
        {
          "internalType": "string",
          "name": "_bURI",
          "type": "string"
        },
        {
          "internalType": "address",
          "name": "_erc721",
          "type": "address"
        }
      ],
      "name": "deployBeta",
      "outputs": [
        {
          "internalType": "address",
          "name": "",
          "type": "address"
        }
      ],
      "stateMutability": "nonpayable",
      "type": "function"
    }
  ],
  "bytecode": "0x608060405234801561001057600080fd5b506140ae806100206000396000f3fe60806040523480156200001157600080fd5b50600436106200002e5760003560e01c8063f7cd0f041462000033575b600080fd5b6200005160048036038101906200004b919062000150565b62000069565b60405162000060919062000259565b60405180910390f35b600080858585856040516200007e90620000b9565b6200008d949392919062000276565b604051809103906000f080158015620000aa573d6000803e3d6000fd5b50905080915050949350505050565b613c1c806200045d83390190565b6000620000de620000d88462000301565b620002d8565b905082815260208101848484011115620000f757600080fd5b6200010484828562000387565b509392505050565b6000813590506200011d8162000442565b92915050565b600082601f8301126200013557600080fd5b813562000147848260208601620000c7565b91505092915050565b600080600080608085870312156200016757600080fd5b600085013567ffffffffffffffff8111156200018257600080fd5b620001908782880162000123565b945050602085013567ffffffffffffffff811115620001ae57600080fd5b620001bc8782880162000123565b935050604085013567ffffffffffffffff811115620001da57600080fd5b620001e88782880162000123565b9250506060620001fb878288016200010c565b91505092959194509250565b620002128162000353565b82525050565b6000620002258262000337565b62000231818562000342565b93506200024381856020860162000396565b6200024e8162000431565b840191505092915050565b600060208201905062000270600083018462000207565b92915050565b6000608082019050818103600083015262000292818762000218565b90508181036020830152620002a8818662000218565b90508181036040830152620002be818562000218565b9050620002cf606083018462000207565b95945050505050565b6000620002e4620002f7565b9050620002f28282620003cc565b919050565b6000604051905090565b600067ffffffffffffffff8211156200031f576200031e62000402565b5b6200032a8262000431565b9050602081019050919050565b600081519050919050565b600082825260208201905092915050565b6000620003608262000367565b9050919050565b600073ffffffffffffffffffffffffffffffffffffffff82169050919050565b82818337600083830152505050565b60005b83811015620003b657808201518184015260208101905062000399565b83811115620003c6576000848401525b50505050565b620003d78262000431565b810181811067ffffffffffffffff82111715620003f957620003f862000402565b5b80604052505050565b7f4e487b7100000000000000000000000000000000000000000000000000000000600052604160045260246000fd5b6000601f19601f8301169050919050565b6200044d8162000353565b81146200045957600080fd5b5056fe608060405260405180602001604052806001815250600c6000820151816000015550503480156200002f57600080fd5b5060405162003c1c38038062003c1c833981810160405281019062000055919062000357565b838381600090805190602001906200006f9291906200021e565b508060019080519060200190620000889291906200021e565b505050620000ab6200009f6200015060201b60201c565b6200015860201b60201c565b32600760006101000a81548173ffffffffffffffffffffffffffffffffffffffff021916908373ffffffffffffffffffffffffffffffffffffffff16021790555081600b9080519060200190620001049291906200021e565b5080600860006101000a81548173ffffffffffffffffffffffffffffffffffffffff021916908373ffffffffffffffffffffffffffffffffffffffff16021790555050505050620005cc565b600033905090565b6000600660009054906101000a900473ffffffffffffffffffffffffffffffffffffffff16905081600660006101000a81548173ffffffffffffffffffffffffffffffffffffffff021916908373ffffffffffffffffffffffffffffffffffffffff1602179055508173ffffffffffffffffffffffffffffffffffffffff168173ffffffffffffffffffffffffffffffffffffffff167f8be0079c531659141344cd1fd0a4f28419497f9722a3daafe3b4186f6b6457e060405160405180910390a35050565b8280546200022c90620004d7565b90600052602060002090601f0160209004810192826200025057600085556200029c565b82601f106200026b57805160ff19168380011785556200029c565b828001600101855582156200029c579182015b828111156200029b5782518255916020019190600101906200027e565b5b509050620002ab9190620002af565b5090565b5b80821115620002ca576000816000905550600101620002b0565b5090565b6000620002e5620002df8462000437565b6200040e565b905082815260208101848484011115620002fe57600080fd5b6200030b848285620004a1565b509392505050565b6000815190506200032481620005b2565b92915050565b600082601f8301126200033c57600080fd5b81516200034e848260208601620002ce565b91505092915050565b600080600080608085870312156200036e57600080fd5b600085015167ffffffffffffffff8111156200038957600080fd5b62000397878288016200032a565b945050602085015167ffffffffffffffff811115620003b557600080fd5b620003c3878288016200032a565b935050604085015167ffffffffffffffff811115620003e157600080fd5b620003ef878288016200032a565b9250506060620004028782880162000313565b91505092959194509250565b60006200041a6200042d565b90506200042882826200050d565b919050565b6000604051905090565b600067ffffffffffffffff82111562000455576200045462000572565b5b6200046082620005a1565b9050602081019050919050565b60006200047a8262000481565b9050919050565b600073ffffffffffffffffffffffffffffffffffffffff82169050919050565b60005b83811015620004c1578082015181840152602081019050620004a4565b83811115620004d1576000848401525b50505050565b60006002820490506001821680620004f057607f821691505b6020821081141562000507576200050662000543565b5b50919050565b6200051882620005a1565b810181811067ffffffffffffffff821117156200053a576200053962000572565b5b80604052505050565b7f4e487b7100000000000000000000000000000000000000000000000000000000600052602260045260246000fd5b7f4e487b7100000000000000000000000000000000000000000000000000000000600052604160045260246000fd5b6000601f19601f8301169050919050565b620005bd816200046d565b8114620005c957600080fd5b50565b61364080620005dc6000396000f3fe608060405234801561001057600080fd5b50600436106101425760003560e01c8063715018a6116100b8578063b88d4fde1161007c578063b88d4fde1461035f578063bca6ce641461037b578063c87b56dd14610399578063e985e9c5146103c9578063eb5416fa146103f9578063f2fde38b1461041757610142565b8063715018a6146102cd5780638da5cb5b146102d757806395d89b41146102f5578063a0712d6814610313578063a22cb4651461034357610142565b806323b872dd1161010a57806323b872dd146101fd57806342842e0e1461021957806342966c681461023557806355f804b3146102515780636352211e1461026d57806370a082311461029d57610142565b806301ffc9a71461014757806306fdde0314610177578063081812fc14610195578063095ea7b3146101c5578063162094c4146101e1575b600080fd5b610161600480360381019061015c91906124dd565b610433565b60405161016e9190612a18565b60405180910390f35b61017f610445565b60405161018c9190612a33565b60405180910390f35b6101af60048036038101906101aa9190612570565b6104d7565b6040516101bc919061297a565b60405180910390f35b6101df60048036038101906101da91906124a1565b61055c565b005b6101fb60048036038101906101f69190612599565b610674565b005b6102176004803603810190610212919061239b565b610719565b005b610233600480360381019061022e919061239b565b610779565b005b61024f600480360381019061024a9190612570565b610799565b005b61026b6004803603810190610266919061252f565b6108df565b005b61028760048036038101906102829190612570565b610990565b604051610294919061297a565b60405180910390f35b6102b760048036038101906102b29190612336565b610a42565b6040516102c49190612cb5565b60405180910390f35b6102d5610afa565b005b6102df610b82565b6040516102ec919061297a565b60405180910390f35b6102fd610bac565b60405161030a9190612a33565b60405180910390f35b61032d60048036038101906103289190612570565b610c3e565b60405161033a9190612cb5565b60405180910390f35b61035d60048036038101906103589190612465565b610d79565b005b610379600480360381019061037491906123ea565b610efa565b005b610383610f5c565b604051610390919061297a565b60405180910390f35b6103b360048036038101906103ae9190612570565b610f82565b6040516103c09190612a33565b60405180910390f35b6103e360048036038101906103de919061235f565b6110f5565b6040516103f09190612a18565b60405180910390f35b610401611189565b60405161040e919061297a565b60405180910390f35b610431600480360381019061042c9190612336565b6111af565b005b600061043e826112a7565b9050919050565b60606000805461045490612f0b565b80601f016020809104026020016040519081016040528092919081815260200182805461048090612f0b565b80156104cd5780601f106104a2576101008083540402835291602001916104cd565b820191906000526020600020905b8154815290600101906020018083116104b057829003601f168201915b5050505050905090565b60006104e282611389565b610521576040517f08c379a000000000000000000000000000000000000000000000000000000000815260040161051890612b95565b60405180910390fd5b6004600083815260200190815260200160002060009054906101000a900473ffffffffffffffffffffffffffffffffffffffff169050919050565b600061056782610990565b90508073ffffffffffffffffffffffffffffffffffffffff168373ffffffffffffffffffffffffffffffffffffffff1614156105d8576040517f08c379a00000000000000000000000000000000000000000000000000000000081526004016105cf90612c75565b60405180910390fd5b8073ffffffffffffffffffffffffffffffffffffffff166105f76113f5565b73ffffffffffffffffffffffffffffffffffffffff1614806106265750610625816106206113f5565b6110f5565b5b610665576040517f08c379a000000000000000000000000000000000000000000000000000000000815260040161065c90612b15565b60405180910390fd5b61066f83836113fd565b505050565b61067c6113f5565b73ffffffffffffffffffffffffffffffffffffffff16600760009054906101000a900473ffffffffffffffffffffffffffffffffffffffff1673ffffffffffffffffffffffffffffffffffffffff161461070b576040517f08c379a000000000000000000000000000000000000000000000000000000000815260040161070290612c35565b60405180910390fd5b61071582826114b6565b5050565b61072a6107246113f5565b8261152a565b610769576040517f08c379a000000000000000000000000000000000000000000000000000000000815260040161076090612c95565b60405180910390fd5b610774838383611608565b505050565b61079483838360405180602001604052806000815250610efa565b505050565b60008114156107dd576040517f08c379a00000000000000000000000000000000000000000000000000000000081526004016107d490612c55565b60405180910390fd5b6107e681611864565b600860009054906101000a900473ffffffffffffffffffffffffffffffffffffffff1673ffffffffffffffffffffffffffffffffffffffff166323b872dd3061082d6113f5565b60096000868152602001908152602001600020546040518463ffffffff1660e01b815260040161085f93929190612995565b600060405180830381600087803b15801561087957600080fd5b505af115801561088d573d6000803e3d6000fd5b505050508061089a6113f5565b73ffffffffffffffffffffffffffffffffffffffff167fcc16f5dbb4873280815c1ee09dbd06736cffcc184412cf7a71a0fdb75d397ca560405160405180910390a350565b6108e76113f5565b73ffffffffffffffffffffffffffffffffffffffff16600760009054906101000a900473ffffffffffffffffffffffffffffffffffffffff1673ffffffffffffffffffffffffffffffffffffffff1614610976576040517f08c379a000000000000000000000000000000000000000000000000000000000815260040161096d90612c35565b60405180910390fd5b80600b908051906020019061098c92919061215a565b5050565b6000806002600084815260200190815260200160002060009054906101000a900473ffffffffffffffffffffffffffffffffffffffff169050600073ffffffffffffffffffffffffffffffffffffffff168173ffffffffffffffffffffffffffffffffffffffff161415610a39576040517f08c379a0000000000000000000000000000000000000000000000000000000008152600401610a3090612b55565b60405180910390fd5b80915050919050565b60008073ffffffffffffffffffffffffffffffffffffffff168273ffffffffffffffffffffffffffffffffffffffff161415610ab3576040517f08c379a0000000000000000000000000000000000000000000000000000000008152600401610aaa90612b35565b60405180910390fd5b600360008373ffffffffffffffffffffffffffffffffffffffff1673ffffffffffffffffffffffffffffffffffffffff168152602001908152602001600020549050919050565b610b026113f5565b73ffffffffffffffffffffffffffffffffffffffff16610b20610b82565b73ffffffffffffffffffffffffffffffffffffffff1614610b76576040517f08c379a0000000000000000000000000000000000000000000000000000000008152600401610b6d90612bd5565b60405180910390fd5b610b806000611975565b565b6000600660009054906101000a900473ffffffffffffffffffffffffffffffffffffffff16905090565b606060018054610bbb90612f0b565b80601f0160208091040260200160405190810160405280929190818152602001828054610be790612f0b565b8015610c345780601f10610c0957610100808354040283529160200191610c34565b820191906000526020600020905b815481529060010190602001808311610c1757829003601f168201915b5050505050905090565b6000610c4a600c611a3b565b9050816009600083815260200190815260200160002081905550600860009054906101000a900473ffffffffffffffffffffffffffffffffffffffff1673ffffffffffffffffffffffffffffffffffffffff166323b872dd610caa6113f5565b30856040518463ffffffff1660e01b8152600401610cca93929190612995565b600060405180830381600087803b158015610ce457600080fd5b505af1158015610cf8573d6000803e3d6000fd5b50505050610d0d610d076113f5565b82611a49565b80610d166113f5565b73ffffffffffffffffffffffffffffffffffffffff167f0f6798a560793a54c3bcfe86a93cde1e73087d944c0ea20544137d412139688560405160405180910390a3610d6a81610d6583611a67565b6114b6565b610d74600c611c14565b919050565b610d816113f5565b73ffffffffffffffffffffffffffffffffffffffff168273ffffffffffffffffffffffffffffffffffffffff161415610def576040517f08c379a0000000000000000000000000000000000000000000000000000000008152600401610de690612ad5565b60405180910390fd5b8060056000610dfc6113f5565b73ffffffffffffffffffffffffffffffffffffffff1673ffffffffffffffffffffffffffffffffffffffff16815260200190815260200160002060008473ffffffffffffffffffffffffffffffffffffffff1673ffffffffffffffffffffffffffffffffffffffff16815260200190815260200160002060006101000a81548160ff0219169083151502179055508173ffffffffffffffffffffffffffffffffffffffff16610ea96113f5565b73ffffffffffffffffffffffffffffffffffffffff167f17307eab39ab6107e8899845ad3d59bd9653f200f220920489ca2b5937696c3183604051610eee9190612a18565b60405180910390a35050565b610f0b610f056113f5565b8361152a565b610f4a576040517f08c379a0000000000000000000000000000000000000000000000000000000008152600401610f4190612c95565b60405180910390fd5b610f5684848484611c2a565b50505050565b600860009054906101000a900473ffffffffffffffffffffffffffffffffffffffff1681565b6060610f8d82611389565b610fcc576040517f08c379a0000000000000000000000000000000000000000000000000000000008152600401610fc390612c15565b60405180910390fd5b6000600a60008481526020019081526020016000208054610fec90612f0b565b80601f016020809104026020016040519081016040528092919081815260200182805461101890612f0b565b80156110655780601f1061103a57610100808354040283529160200191611065565b820191906000526020600020905b81548152906001019060200180831161104857829003601f168201915b505050505090506000611076611c86565b905060008151141561108c5781925050506110f0565b6000825111156110c15780826040516020016110a9929190612956565b604051602081830303815290604052925050506110f0565b806110cb85611a67565b6040516020016110dc929190612956565b604051602081830303815290604052925050505b919050565b6000600560008473ffffffffffffffffffffffffffffffffffffffff1673ffffffffffffffffffffffffffffffffffffffff16815260200190815260200160002060008373ffffffffffffffffffffffffffffffffffffffff1673ffffffffffffffffffffffffffffffffffffffff16815260200190815260200160002060009054906101000a900460ff16905092915050565b600760009054906101000a900473ffffffffffffffffffffffffffffffffffffffff1681565b6111b76113f5565b73ffffffffffffffffffffffffffffffffffffffff166111d5610b82565b73ffffffffffffffffffffffffffffffffffffffff161461122b576040517f08c379a000000000000000000000000000000000000000000000000000000000815260040161122290612bd5565b60405180910390fd5b600073ffffffffffffffffffffffffffffffffffffffff168173ffffffffffffffffffffffffffffffffffffffff16141561129b576040517f08c379a000000000000000000000000000000000000000000000000000000000815260040161129290612a75565b60405180910390fd5b6112a481611975565b50565b60007f80ac58cd000000000000000000000000000000000000000000000000000000007bffffffffffffffffffffffffffffffffffffffffffffffffffffffff1916827bffffffffffffffffffffffffffffffffffffffffffffffffffffffff1916148061137257507f5b5e139f000000000000000000000000000000000000000000000000000000007bffffffffffffffffffffffffffffffffffffffffffffffffffffffff1916827bffffffffffffffffffffffffffffffffffffffffffffffffffffffff1916145b80611382575061138182611d18565b5b9050919050565b60008073ffffffffffffffffffffffffffffffffffffffff166002600084815260200190815260200160002060009054906101000a900473ffffffffffffffffffffffffffffffffffffffff1673ffffffffffffffffffffffffffffffffffffffff1614159050919050565b600033905090565b816004600083815260200190815260200160002060006101000a81548173ffffffffffffffffffffffffffffffffffffffff021916908373ffffffffffffffffffffffffffffffffffffffff160217905550808273ffffffffffffffffffffffffffffffffffffffff1661147083610990565b73ffffffffffffffffffffffffffffffffffffffff167f8c5be1e5ebec7d5bd14f71427d1e84f3dd0314c0f7b2291e5b200ac8c7c3b92560405160405180910390a45050565b6114bf82611389565b6114fe576040517f08c379a00000000000000000000000000000000000000000000000000000000081526004016114f590612bb5565b60405180910390fd5b80600a6000848152602001908152602001600020908051906020019061152592919061215a565b505050565b600061153582611389565b611574576040517f08c379a000000000000000000000000000000000000000000000000000000000815260040161156b90612af5565b60405180910390fd5b600061157f83610990565b90508073ffffffffffffffffffffffffffffffffffffffff168473ffffffffffffffffffffffffffffffffffffffff1614806115ee57508373ffffffffffffffffffffffffffffffffffffffff166115d6846104d7565b73ffffffffffffffffffffffffffffffffffffffff16145b806115ff57506115fe81856110f5565b5b91505092915050565b8273ffffffffffffffffffffffffffffffffffffffff1661162882610990565b73ffffffffffffffffffffffffffffffffffffffff161461167e576040517f08c379a000000000000000000000000000000000000000000000000000000000815260040161167590612bf5565b60405180910390fd5b600073ffffffffffffffffffffffffffffffffffffffff168273ffffffffffffffffffffffffffffffffffffffff1614156116ee576040517f08c379a00000000000000000000000000000000000000000000000000000000081526004016116e590612ab5565b60405180910390fd5b6116f9838383611d82565b6117046000826113fd565b6001600360008573ffffffffffffffffffffffffffffffffffffffff1673ffffffffffffffffffffffffffffffffffffffff16815260200190815260200160002060008282546117549190612e21565b925050819055506001600360008473ffffffffffffffffffffffffffffffffffffffff1673ffffffffffffffffffffffffffffffffffffffff16815260200190815260200160002060008282546117ab9190612d9a565b92505081905550816002600083815260200190815260200160002060006101000a81548173ffffffffffffffffffffffffffffffffffffffff021916908373ffffffffffffffffffffffffffffffffffffffff160217905550808273ffffffffffffffffffffffffffffffffffffffff168473ffffffffffffffffffffffffffffffffffffffff167fddf252ad1be2c89b69c2b068fc378daa952ba7f163c4a11628f55a4df523b3ef60405160405180910390a4505050565b600061186f82610990565b905061187d81600084611d82565b6118886000836113fd565b6001600360008373ffffffffffffffffffffffffffffffffffffffff1673ffffffffffffffffffffffffffffffffffffffff16815260200190815260200160002060008282546118d89190612e21565b925050819055506002600083815260200190815260200160002060006101000a81549073ffffffffffffffffffffffffffffffffffffffff021916905581600073ffffffffffffffffffffffffffffffffffffffff168273ffffffffffffffffffffffffffffffffffffffff167fddf252ad1be2c89b69c2b068fc378daa952ba7f163c4a11628f55a4df523b3ef60405160405180910390a45050565b6000600660009054906101000a900473ffffffffffffffffffffffffffffffffffffffff16905081600660006101000a81548173ffffffffffffffffffffffffffffffffffffffff021916908373ffffffffffffffffffffffffffffffffffffffff1602179055508173ffffffffffffffffffffffffffffffffffffffff168173ffffffffffffffffffffffffffffffffffffffff167f8be0079c531659141344cd1fd0a4f28419497f9722a3daafe3b4186f6b6457e060405160405180910390a35050565b600081600001549050919050565b611a63828260405180602001604052806000815250611d87565b5050565b60606000821415611aaf576040518060400160405280600181526020017f30000000000000000000000000000000000000000000000000000000000000008152509050611c0f565b600082905060005b60008214611ae1578080611aca90612f6e565b915050600a82611ada9190612df0565b9150611ab7565b60008167ffffffffffffffff811115611b23577f4e487b7100000000000000000000000000000000000000000000000000000000600052604160045260246000fd5b6040519080825280601f01601f191660200182016040528015611b555781602001600182028036833780820191505090505b5090505b60008514611c0857600182611b6e9190612e21565b9150600a85611b7d9190612fb7565b6030611b899190612d9a565b60f81b818381518110611bc5577f4e487b7100000000000000000000000000000000000000000000000000000000600052603260045260246000fd5b60200101907effffffffffffffffffffffffffffffffffffffffffffffffffffffffffffff1916908160001a905350600a85611c019190612df0565b9450611b59565b8093505050505b919050565b6001816000016000828254019250508190555050565b611c35848484611608565b611c4184848484611de2565b611c80576040517f08c379a0000000000000000000000000000000000000000000000000000000008152600401611c7790612a55565b60405180910390fd5b50505050565b6060600b8054611c9590612f0b565b80601f0160208091040260200160405190810160405280929190818152602001828054611cc190612f0b565b8015611d0e5780601f10611ce357610100808354040283529160200191611d0e565b820191906000526020600020905b815481529060010190602001808311611cf157829003601f168201915b5050505050905090565b60007f01ffc9a7000000000000000000000000000000000000000000000000000000007bffffffffffffffffffffffffffffffffffffffffffffffffffffffff1916827bffffffffffffffffffffffffffffffffffffffffffffffffffffffff1916149050919050565b505050565b611d918383611f79565b611d9e6000848484611de2565b611ddd576040517f08c379a0000000000000000000000000000000000000000000000000000000008152600401611dd490612a55565b60405180910390fd5b505050565b6000611e038473ffffffffffffffffffffffffffffffffffffffff16612147565b15611f6c578373ffffffffffffffffffffffffffffffffffffffff1663150b7a02611e2c6113f5565b8786866040518563ffffffff1660e01b8152600401611e4e94939291906129cc565b602060405180830381600087803b158015611e6857600080fd5b505af1925050508015611e9957506040513d601f19601f82011682018060405250810190611e969190612506565b60015b611f1c573d8060008114611ec9576040519150601f19603f3d011682016040523d82523d6000602084013e611ece565b606091505b50600081511415611f14576040517f08c379a0000000000000000000000000000000000000000000000000000000008152600401611f0b90612a55565b60405180910390fd5b805181602001fd5b63150b7a0260e01b7bffffffffffffffffffffffffffffffffffffffffffffffffffffffff1916817bffffffffffffffffffffffffffffffffffffffffffffffffffffffff191614915050611f71565b600190505b949350505050565b600073ffffffffffffffffffffffffffffffffffffffff168273ffffffffffffffffffffffffffffffffffffffff161415611fe9576040517f08c379a0000000000000000000000000000000000000000000000000000000008152600401611fe090612b75565b60405180910390fd5b611ff281611389565b15612032576040517f08c379a000000000000000000000000000000000000000000000000000000000815260040161202990612a95565b60405180910390fd5b61203e60008383611d82565b6001600360008473ffffffffffffffffffffffffffffffffffffffff1673ffffffffffffffffffffffffffffffffffffffff168152602001908152602001600020600082825461208e9190612d9a565b92505081905550816002600083815260200190815260200160002060006101000a81548173ffffffffffffffffffffffffffffffffffffffff021916908373ffffffffffffffffffffffffffffffffffffffff160217905550808273ffffffffffffffffffffffffffffffffffffffff16600073ffffffffffffffffffffffffffffffffffffffff167fddf252ad1be2c89b69c2b068fc378daa952ba7f163c4a11628f55a4df523b3ef60405160405180910390a45050565b600080823b905060008111915050919050565b82805461216690612f0b565b90600052602060002090601f01602090048101928261218857600085556121cf565b82601f106121a157805160ff19168380011785556121cf565b828001600101855582156121cf579182015b828111156121ce5782518255916020019190600101906121b3565b5b5090506121dc91906121e0565b5090565b5b808211156121f95760008160009055506001016121e1565b5090565b600061221061220b84612cf5565b612cd0565b90508281526020810184848401111561222857600080fd5b612233848285612ec9565b509392505050565b600061224e61224984612d26565b612cd0565b90508281526020810184848401111561226657600080fd5b612271848285612ec9565b509392505050565b600081359050612288816135ae565b92915050565b60008135905061229d816135c5565b92915050565b6000813590506122b2816135dc565b92915050565b6000815190506122c7816135dc565b92915050565b600082601f8301126122de57600080fd5b81356122ee8482602086016121fd565b91505092915050565b600082601f83011261230857600080fd5b813561231884826020860161223b565b91505092915050565b600081359050612330816135f3565b92915050565b60006020828403121561234857600080fd5b600061235684828501612279565b91505092915050565b6000806040838503121561237257600080fd5b600061238085828601612279565b925050602061239185828601612279565b9150509250929050565b6000806000606084860312156123b057600080fd5b60006123be86828701612279565b93505060206123cf86828701612279565b92505060406123e086828701612321565b9150509250925092565b6000806000806080858703121561240057600080fd5b600061240e87828801612279565b945050602061241f87828801612279565b935050604061243087828801612321565b925050606085013567ffffffffffffffff81111561244d57600080fd5b612459878288016122cd565b91505092959194509250565b6000806040838503121561247857600080fd5b600061248685828601612279565b92505060206124978582860161228e565b9150509250929050565b600080604083850312156124b457600080fd5b60006124c285828601612279565b92505060206124d385828601612321565b9150509250929050565b6000602082840312156124ef57600080fd5b60006124fd848285016122a3565b91505092915050565b60006020828403121561251857600080fd5b6000612526848285016122b8565b91505092915050565b60006020828403121561254157600080fd5b600082013567ffffffffffffffff81111561255b57600080fd5b612567848285016122f7565b91505092915050565b60006020828403121561258257600080fd5b600061259084828501612321565b91505092915050565b600080604083850312156125ac57600080fd5b60006125ba85828601612321565b925050602083013567ffffffffffffffff8111156125d757600080fd5b6125e3858286016122f7565b9150509250929050565b6125f681612e55565b82525050565b61260581612e67565b82525050565b600061261682612d57565b6126208185612d6d565b9350612630818560208601612ed8565b612639816130a4565b840191505092915050565b600061264f82612d62565b6126598185612d7e565b9350612669818560208601612ed8565b612672816130a4565b840191505092915050565b600061268882612d62565b6126928185612d8f565b93506126a2818560208601612ed8565b80840191505092915050565b60006126bb603283612d7e565b91506126c6826130b5565b604082019050919050565b60006126de602683612d7e565b91506126e982613104565b604082019050919050565b6000612701601c83612d7e565b915061270c82613153565b602082019050919050565b6000612724602483612d7e565b915061272f8261317c565b604082019050919050565b6000612747601983612d7e565b9150612752826131cb565b602082019050919050565b600061276a602c83612d7e565b9150612775826131f4565b604082019050919050565b600061278d603883612d7e565b915061279882613243565b604082019050919050565b60006127b0602a83612d7e565b91506127bb82613292565b604082019050919050565b60006127d3602983612d7e565b91506127de826132e1565b604082019050919050565b60006127f6602083612d7e565b915061280182613330565b602082019050919050565b6000612819602c83612d7e565b915061282482613359565b604082019050919050565b600061283c602c83612d7e565b9150612847826133a8565b604082019050919050565b600061285f602083612d7e565b915061286a826133f7565b602082019050919050565b6000612882602983612d7e565b915061288d82613420565b604082019050919050565b60006128a5602f83612d7e565b91506128b08261346f565b604082019050919050565b60006128c8601b83612d7e565b91506128d3826134be565b602082019050919050565b60006128eb601e83612d7e565b91506128f6826134e7565b602082019050919050565b600061290e602183612d7e565b915061291982613510565b604082019050919050565b6000612931603183612d7e565b915061293c8261355f565b604082019050919050565b61295081612ebf565b82525050565b6000612962828561267d565b915061296e828461267d565b91508190509392505050565b600060208201905061298f60008301846125ed565b92915050565b60006060820190506129aa60008301866125ed565b6129b760208301856125ed565b6129c46040830184612947565b949350505050565b60006080820190506129e160008301876125ed565b6129ee60208301866125ed565b6129fb6040830185612947565b8181036060830152612a0d818461260b565b905095945050505050565b6000602082019050612a2d60008301846125fc565b92915050565b60006020820190508181036000830152612a4d8184612644565b905092915050565b60006020820190508181036000830152612a6e816126ae565b9050919050565b60006020820190508181036000830152612a8e816126d1565b9050919050565b60006020820190508181036000830152612aae816126f4565b9050919050565b60006020820190508181036000830152612ace81612717565b9050919050565b60006020820190508181036000830152612aee8161273a565b9050919050565b60006020820190508181036000830152612b0e8161275d565b9050919050565b60006020820190508181036000830152612b2e81612780565b9050919050565b60006020820190508181036000830152612b4e816127a3565b9050919050565b60006020820190508181036000830152612b6e816127c6565b9050919050565b60006020820190508181036000830152612b8e816127e9565b9050919050565b60006020820190508181036000830152612bae8161280c565b9050919050565b60006020820190508181036000830152612bce8161282f565b9050919050565b60006020820190508181036000830152612bee81612852565b9050919050565b60006020820190508181036000830152612c0e81612875565b9050919050565b60006020820190508181036000830152612c2e81612898565b9050919050565b60006020820190508181036000830152612c4e816128bb565b9050919050565b60006020820190508181036000830152612c6e816128de565b9050919050565b60006020820190508181036000830152612c8e81612901565b9050919050565b60006020820190508181036000830152612cae81612924565b9050919050565b6000602082019050612cca6000830184612947565b92915050565b6000612cda612ceb565b9050612ce68282612f3d565b919050565b6000604051905090565b600067ffffffffffffffff821115612d1057612d0f613075565b5b612d19826130a4565b9050602081019050919050565b600067ffffffffffffffff821115612d4157612d40613075565b5b612d4a826130a4565b9050602081019050919050565b600081519050919050565b600081519050919050565b600082825260208201905092915050565b600082825260208201905092915050565b600081905092915050565b6000612da582612ebf565b9150612db083612ebf565b9250827fffffffffffffffffffffffffffffffffffffffffffffffffffffffffffffffff03821115612de557612de4612fe8565b5b828201905092915050565b6000612dfb82612ebf565b9150612e0683612ebf565b925082612e1657612e15613017565b5b828204905092915050565b6000612e2c82612ebf565b9150612e3783612ebf565b925082821015612e4a57612e49612fe8565b5b828203905092915050565b6000612e6082612e9f565b9050919050565b60008115159050919050565b60007fffffffff0000000000000000000000000000000000000000000000000000000082169050919050565b600073ffffffffffffffffffffffffffffffffffffffff82169050919050565b6000819050919050565b82818337600083830152505050565b60005b83811015612ef6578082015181840152602081019050612edb565b83811115612f05576000848401525b50505050565b60006002820490506001821680612f2357607f821691505b60208210811415612f3757612f36613046565b5b50919050565b612f46826130a4565b810181811067ffffffffffffffff82111715612f6557612f64613075565b5b80604052505050565b6000612f7982612ebf565b91507fffffffffffffffffffffffffffffffffffffffffffffffffffffffffffffffff821415612fac57612fab612fe8565b5b600182019050919050565b6000612fc282612ebf565b9150612fcd83612ebf565b925082612fdd57612fdc613017565b5b828206905092915050565b7f4e487b7100000000000000000000000000000000000000000000000000000000600052601160045260246000fd5b7f4e487b7100000000000000000000000000000000000000000000000000000000600052601260045260246000fd5b7f4e487b7100000000000000000000000000000000000000000000000000000000600052602260045260246000fd5b7f4e487b7100000000000000000000000000000000000000000000000000000000600052604160045260246000fd5b6000601f19601f8301169050919050565b7f4552433732313a207472616e7366657220746f206e6f6e20455243373231526560008201527f63656976657220696d706c656d656e7465720000000000000000000000000000602082015250565b7f4f776e61626c653a206e6577206f776e657220697320746865207a65726f206160008201527f6464726573730000000000000000000000000000000000000000000000000000602082015250565b7f4552433732313a20746f6b656e20616c7265616479206d696e74656400000000600082015250565b7f4552433732313a207472616e7366657220746f20746865207a65726f2061646460008201527f7265737300000000000000000000000000000000000000000000000000000000602082015250565b7f4552433732313a20617070726f766520746f2063616c6c657200000000000000600082015250565b7f4552433732313a206f70657261746f7220717565727920666f72206e6f6e657860008201527f697374656e7420746f6b656e0000000000000000000000000000000000000000602082015250565b7f4552433732313a20617070726f76652063616c6c6572206973206e6f74206f7760008201527f6e6572206e6f7220617070726f76656420666f7220616c6c0000000000000000602082015250565b7f4552433732313a2062616c616e636520717565727920666f7220746865207a6560008201527f726f206164647265737300000000000000000000000000000000000000000000602082015250565b7f4552433732313a206f776e657220717565727920666f72206e6f6e657869737460008201527f656e7420746f6b656e0000000000000000000000000000000000000000000000602082015250565b7f4552433732313a206d696e7420746f20746865207a65726f2061646472657373600082015250565b7f4552433732313a20617070726f76656420717565727920666f72206e6f6e657860008201527f697374656e7420746f6b656e0000000000000000000000000000000000000000602082015250565b7f4552433732314d657461646174613a2055524920736574206f66206e6f6e657860008201527f697374656e7420746f6b656e0000000000000000000000000000000000000000602082015250565b7f4f776e61626c653a2063616c6c6572206973206e6f7420746865206f776e6572600082015250565b7f4552433732313a207472616e73666572206f6620746f6b656e2074686174206960008201527f73206e6f74206f776e0000000000000000000000000000000000000000000000602082015250565b7f4552433732314d657461646174613a2055524920717565727920666f72206e6f60008201527f6e6578697374656e7420746f6b656e0000000000000000000000000000000000602082015250565b7f4572726f723a206d75737420686176652061646d696e20726f6c650000000000600082015250565b7f6572726f723a20746f6b656e2069642063616e6e6f74206265207a65726f0000600082015250565b7f4552433732313a20617070726f76616c20746f2063757272656e74206f776e6560008201527f7200000000000000000000000000000000000000000000000000000000000000602082015250565b7f4552433732313a207472616e736665722063616c6c6572206973206e6f74206f60008201527f776e6572206e6f7220617070726f766564000000000000000000000000000000602082015250565b6135b781612e55565b81146135c257600080fd5b50565b6135ce81612e67565b81146135d957600080fd5b50565b6135e581612e73565b81146135f057600080fd5b50565b6135fc81612ebf565b811461360757600080fd5b5056fea26469706673582212207d3ee219d0f3dbdc21a5da8647938f4250500e2e072ab4767fbc0f76ac9c81dd64736f6c63430008040033a26469706673582212207623f3ffbfe930c92ff3a843eebfac8d153aedb22745d658f1f0487778e0c44364736f6c63430008040033",
  "linkReferences": {},
  "deployedLinkReferences": {}
}