{
  "_format": "hh-sol-artifact-1",
  "contractName": "Beta",
  "sourceName": "contracts/Beta.sol",
  "abi": [
    {
      "inputs": [
        {
          "internalType": "string",
          "name": "_name",
          "type": "string"
        },
        {
          "internalType": "string",
          "name": "_symbol",
          "type": "string"
        },
        {
          "internalType": "address",
          "name": "_erc721",
          "type": "address"
        }
      ],
      "stateMutability": "nonpayable",
      "type": "constructor"
    },
    {
      "anonymous": false,
      "inputs": [
        {
          "indexed": true,
          "internalType": "address",
          "name": "owner",
          "type": "address"
        },
        {
          "indexed": true,
          "internalType": "address",
          "name": "approved",
          "type": "address"
        },
        {
          "indexed": true,
          "internalType": "uint256",
          "name": "tokenId",
          "type": "uint256"
        }
      ],
      "name": "Approval",
      "type": "event"
    },
    {
      "anonymous": false,
      "inputs": [
        {
          "indexed": true,
          "internalType": "address",
          "name": "owner",
          "type": "address"
        },
        {
          "indexed": true,
          "internalType": "address",
          "name": "operator",
          "type": "address"
        },
        {
          "indexed": false,
          "internalType": "bool",
          "name": "approved",
          "type": "bool"
        }
      ],
      "name": "ApprovalForAll",
      "type": "event"
    },
    {
      "anonymous": false,
      "inputs": [
        {
          "indexed": true,
          "internalType": "address",
          "name": "from",
          "type": "address"
        },
        {
          "indexed": true,
          "internalType": "uint256",
          "name": "tokenId",
          "type": "uint256"
        }
      ],
      "name": "Burn",
      "type": "event"
    },
    {
      "anonymous": false,
      "inputs": [
        {
          "indexed": true,
          "internalType": "address",
          "name": "from",
          "type": "address"
        },
        {
          "indexed": true,
          "internalType": "uint256",
          "name": "tokenId",
          "type": "uint256"
        }
      ],
      "name": "Mint",
      "type": "event"
    },
    {
      "anonymous": false,
      "inputs": [
        {
          "indexed": true,
          "internalType": "address",
          "name": "from",
          "type": "address"
        },
        {
          "indexed": true,
          "internalType": "address",
          "name": "to",
          "type": "address"
        },
        {
          "indexed": true,
          "internalType": "uint256",
          "name": "tokenId",
          "type": "uint256"
        }
      ],
      "name": "Transfer",
      "type": "event"
    },
    {
      "inputs": [
        {
          "internalType": "address",
          "name": "to",
          "type": "address"
        },
        {
          "internalType": "uint256",
          "name": "tokenId",
          "type": "uint256"
        }
      ],
      "name": "approve",
      "outputs": [],
      "stateMutability": "nonpayable",
      "type": "function"
    },
    {
      "inputs": [
        {
          "internalType": "address",
          "name": "owner",
          "type": "address"
        }
      ],
      "name": "balanceOf",
      "outputs": [
        {
          "internalType": "uint256",
          "name": "",
          "type": "uint256"
        }
      ],
      "stateMutability": "view",
      "type": "function"
    },
    {
      "inputs": [
        {
          "internalType": "uint256",
          "name": "tokenId",
          "type": "uint256"
        }
      ],
      "name": "burn",
      "outputs": [],
      "stateMutability": "nonpayable",
      "type": "function"
    },
    {
      "inputs": [],
      "name": "erc721",
      "outputs": [
        {
          "internalType": "address",
          "name": "",
          "type": "address"
        }
      ],
      "stateMutability": "view",
      "type": "function"
    },
    {
      "inputs": [
        {
          "internalType": "uint256",
          "name": "tokenId",
          "type": "uint256"
        }
      ],
      "name": "getApproved",
      "outputs": [
        {
          "internalType": "address",
          "name": "",
          "type": "address"
        }
      ],
      "stateMutability": "view",
      "type": "function"
    },
    {
      "inputs": [
        {
          "internalType": "address",
          "name": "owner",
          "type": "address"
        },
        {
          "internalType": "address",
          "name": "operator",
          "type": "address"
        }
      ],
      "name": "isApprovedForAll",
      "outputs": [
        {
          "internalType": "bool",
          "name": "",
          "type": "bool"
        }
      ],
      "stateMutability": "view",
      "type": "function"
    },
    {
      "inputs": [
        {
          "internalType": "uint256",
          "name": "_tokenId",
          "type": "uint256"
        }
      ],
      "name": "mint",
      "outputs": [
        {
          "internalType": "uint256",
          "name": "tokenId",
          "type": "uint256"
        }
      ],
      "stateMutability": "nonpayable",
      "type": "function"
    },
    {
      "inputs": [],
      "name": "name",
      "outputs": [
        {
          "internalType": "string",
          "name": "",
          "type": "string"
        }
      ],
      "stateMutability": "view",
      "type": "function"
    },
    {
      "inputs": [
        {
          "internalType": "uint256",
          "name": "tokenId",
          "type": "uint256"
        }
      ],
      "name": "ownerOf",
      "outputs": [
        {
          "internalType": "address",
          "name": "",
          "type": "address"
        }
      ],
      "stateMutability": "view",
      "type": "function"
    },
    {
      "inputs": [
        {
          "internalType": "address",
          "name": "from",
          "type": "address"
        },
        {
          "internalType": "address",
          "name": "to",
          "type": "address"
        },
        {
          "internalType": "uint256",
          "name": "tokenId",
          "type": "uint256"
        }
      ],
      "name": "safeTransferFrom",
      "outputs": [],
      "stateMutability": "nonpayable",
      "type": "function"
    },
    {
      "inputs": [
        {
          "internalType": "address",
          "name": "from",
          "type": "address"
        },
        {
          "internalType": "address",
          "name": "to",
          "type": "address"
        },
        {
          "internalType": "uint256",
          "name": "tokenId",
          "type": "uint256"
        },
        {
          "internalType": "bytes",
          "name": "_data",
          "type": "bytes"
        }
      ],
      "name": "safeTransferFrom",
      "outputs": [],
      "stateMutability": "nonpayable",
      "type": "function"
    },
    {
      "inputs": [
        {
          "internalType": "address",
          "name": "operator",
          "type": "address"
        },
        {
          "internalType": "bool",
          "name": "approved",
          "type": "bool"
        }
      ],
      "name": "setApprovalForAll",
      "outputs": [],
      "stateMutability": "nonpayable",
      "type": "function"
    },
    {
      "inputs": [
        {
          "internalType": "bytes4",
          "name": "interfaceId",
          "type": "bytes4"
        }
      ],
      "name": "supportsInterface",
      "outputs": [
        {
          "internalType": "bool",
          "name": "",
          "type": "bool"
        }
      ],
      "stateMutability": "view",
      "type": "function"
    },
    {
      "inputs": [],
      "name": "symbol",
      "outputs": [
        {
          "internalType": "string",
          "name": "",
          "type": "string"
        }
      ],
      "stateMutability": "view",
      "type": "function"
    },
    {
      "inputs": [
        {
          "internalType": "uint256",
          "name": "tokenId",
          "type": "uint256"
        }
      ],
      "name": "tokenURI",
      "outputs": [
        {
          "internalType": "string",
          "name": "",
          "type": "string"
        }
      ],
      "stateMutability": "view",
      "type": "function"
    },
    {
      "inputs": [
        {
          "internalType": "address",
          "name": "from",
          "type": "address"
        },
        {
          "internalType": "address",
          "name": "to",
          "type": "address"
        },
        {
          "internalType": "uint256",
          "name": "tokenId",
          "type": "uint256"
        }
      ],
      "name": "transferFrom",
      "outputs": [],
      "stateMutability": "nonpayable",
      "type": "function"
    }
  ],
  "bytecode": "0x60806040526040518060200160405280600181525060086000820151816000015550503480156200002f57600080fd5b50604051620032cc380380620032cc83398181016040528101906200005591906200020e565b828281600090805190602001906200006f929190620000d5565b50806001908051906020019062000088929190620000d5565b50505080600660006101000a81548173ffffffffffffffffffffffffffffffffffffffff021916908373ffffffffffffffffffffffffffffffffffffffff16021790555050505062000454565b828054620000e3906200035f565b90600052602060002090601f01602090048101928262000107576000855562000153565b82601f106200012257805160ff191683800117855562000153565b8280016001018555821562000153579182015b828111156200015257825182559160200191906001019062000135565b5b50905062000162919062000166565b5090565b5b808211156200018157600081600090555060010162000167565b5090565b60006200019c6200019684620002bf565b62000296565b905082815260208101848484011115620001b557600080fd5b620001c284828562000329565b509392505050565b600081519050620001db816200043a565b92915050565b600082601f830112620001f357600080fd5b81516200020584826020860162000185565b91505092915050565b6000806000606084860312156200022457600080fd5b600084015167ffffffffffffffff8111156200023f57600080fd5b6200024d86828701620001e1565b935050602084015167ffffffffffffffff8111156200026b57600080fd5b6200027986828701620001e1565b92505060406200028c86828701620001ca565b9150509250925092565b6000620002a2620002b5565b9050620002b0828262000395565b919050565b6000604051905090565b600067ffffffffffffffff821115620002dd57620002dc620003fa565b5b620002e88262000429565b9050602081019050919050565b6000620003028262000309565b9050919050565b600073ffffffffffffffffffffffffffffffffffffffff82169050919050565b60005b83811015620003495780820151818401526020810190506200032c565b8381111562000359576000848401525b50505050565b600060028204905060018216806200037857607f821691505b602082108114156200038f576200038e620003cb565b5b50919050565b620003a08262000429565b810181811067ffffffffffffffff82111715620003c257620003c1620003fa565b5b80604052505050565b7f4e487b7100000000000000000000000000000000000000000000000000000000600052602260045260246000fd5b7f4e487b7100000000000000000000000000000000000000000000000000000000600052604160045260246000fd5b6000601f19601f8301169050919050565b6200044581620002f5565b81146200045157600080fd5b50565b612e6880620004646000396000f3fe608060405234801561001057600080fd5b50600436106101005760003560e01c806370a0823111610097578063b88d4fde11610066578063b88d4fde146102bd578063bca6ce64146102d9578063c87b56dd146102f7578063e985e9c51461032757610100565b806370a082311461022357806395d89b4114610253578063a0712d6814610271578063a22cb465146102a157610100565b806323b872dd116100d357806323b872dd1461019f57806342842e0e146101bb57806342966c68146101d75780636352211e146101f357610100565b806301ffc9a71461010557806306fdde0314610135578063081812fc14610153578063095ea7b314610183575b600080fd5b61011f600480360381019061011a9190611f5b565b610357565b60405161012c9190612398565b60405180910390f35b61013d610369565b60405161014a91906123b3565b60405180910390f35b61016d60048036038101906101689190611fad565b6103fb565b60405161017a91906122fa565b60405180910390f35b61019d60048036038101906101989190611f1f565b610480565b005b6101b960048036038101906101b49190611e19565b610598565b005b6101d560048036038101906101d09190611e19565b6105f8565b005b6101f160048036038101906101ec9190611fad565b610618565b005b61020d60048036038101906102089190611fad565b610876565b60405161021a91906122fa565b60405180910390f35b61023d60048036038101906102389190611db4565b610928565b60405161024a91906125d5565b60405180910390f35b61025b6109e0565b60405161026891906123b3565b60405180910390f35b61028b60048036038101906102869190611fad565b610a72565b60405161029891906125d5565b60405180910390f35b6102bb60048036038101906102b69190611ee3565b610ca1565b005b6102d760048036038101906102d29190611e68565b610e22565b005b6102e1610e84565b6040516102ee91906122fa565b60405180910390f35b610311600480360381019061030c9190611fad565b610eaa565b60405161031e91906123b3565b60405180910390f35b610341600480360381019061033c9190611ddd565b610f51565b60405161034e9190612398565b60405180910390f35b600061036282610fe5565b9050919050565b606060008054610378906127fa565b80601f01602080910402602001604051908101604052809291908181526020018280546103a4906127fa565b80156103f15780601f106103c6576101008083540402835291602001916103f1565b820191906000526020600020905b8154815290600101906020018083116103d457829003601f168201915b5050505050905090565b6000610406826110c7565b610445576040517f08c379a000000000000000000000000000000000000000000000000000000000815260040161043c90612515565b60405180910390fd5b6004600083815260200190815260200160002060009054906101000a900473ffffffffffffffffffffffffffffffffffffffff169050919050565b600061048b82610876565b90508073ffffffffffffffffffffffffffffffffffffffff168373ffffffffffffffffffffffffffffffffffffffff1614156104fc576040517f08c379a00000000000000000000000000000000000000000000000000000000081526004016104f390612575565b60405180910390fd5b8073ffffffffffffffffffffffffffffffffffffffff1661051b611133565b73ffffffffffffffffffffffffffffffffffffffff16148061054a575061054981610544611133565b610f51565b5b610589576040517f08c379a000000000000000000000000000000000000000000000000000000000815260040161058090612495565b60405180910390fd5b610593838361113b565b505050565b6105a96105a3611133565b826111f4565b6105e8576040517f08c379a00000000000000000000000000000000000000000000000000000000081526004016105df90612595565b60405180910390fd5b6105f38383836112d2565b505050565b61061383838360405180602001604052806000815250610e22565b505050565b6000811415801561066e575060096000610630611133565b73ffffffffffffffffffffffffffffffffffffffff1673ffffffffffffffffffffffffffffffffffffffff1681526020019081526020016000205481145b6106ad576040517f08c379a00000000000000000000000000000000000000000000000000000000081526004016106a4906125b5565b60405180910390fd5b6106b68161152e565b600960006106c2611133565b73ffffffffffffffffffffffffffffffffffffffff1673ffffffffffffffffffffffffffffffffffffffff16815260200190815260200160002060009055600660009054906101000a900473ffffffffffffffffffffffffffffffffffffffff1673ffffffffffffffffffffffffffffffffffffffff166323b872dd30610747611133565b60076000610753611133565b73ffffffffffffffffffffffffffffffffffffffff1673ffffffffffffffffffffffffffffffffffffffff168152602001908152602001600020546040518463ffffffff1660e01b81526004016107ac93929190612315565b600060405180830381600087803b1580156107c657600080fd5b505af11580156107da573d6000803e3d6000fd5b50505050600760006107ea611133565b73ffffffffffffffffffffffffffffffffffffffff1673ffffffffffffffffffffffffffffffffffffffff1681526020019081526020016000206000905580610831611133565b73ffffffffffffffffffffffffffffffffffffffff167fcc16f5dbb4873280815c1ee09dbd06736cffcc184412cf7a71a0fdb75d397ca560405160405180910390a350565b6000806002600084815260200190815260200160002060009054906101000a900473ffffffffffffffffffffffffffffffffffffffff169050600073ffffffffffffffffffffffffffffffffffffffff168173ffffffffffffffffffffffffffffffffffffffff16141561091f576040517f08c379a0000000000000000000000000000000000000000000000000000000008152600401610916906124d5565b60405180910390fd5b80915050919050565b60008073ffffffffffffffffffffffffffffffffffffffff168273ffffffffffffffffffffffffffffffffffffffff161415610999576040517f08c379a0000000000000000000000000000000000000000000000000000000008152600401610990906124b5565b60405180910390fd5b600360008373ffffffffffffffffffffffffffffffffffffffff1673ffffffffffffffffffffffffffffffffffffffff168152602001908152602001600020549050919050565b6060600180546109ef906127fa565b80601f0160208091040260200160405190810160405280929190818152602001828054610a1b906127fa565b8015610a685780601f10610a3d57610100808354040283529160200191610a68565b820191906000526020600020905b815481529060010190602001808311610a4b57829003601f168201915b5050505050905090565b60008060096000610a81611133565b73ffffffffffffffffffffffffffffffffffffffff1673ffffffffffffffffffffffffffffffffffffffff1681526020019081526020016000205414610afc576040517f08c379a0000000000000000000000000000000000000000000000000000000008152600401610af390612455565b60405180910390fd5b610b06600861163f565b90508160076000610b15611133565b73ffffffffffffffffffffffffffffffffffffffff1673ffffffffffffffffffffffffffffffffffffffff16815260200190815260200160002081905550600660009054906101000a900473ffffffffffffffffffffffffffffffffffffffff1673ffffffffffffffffffffffffffffffffffffffff166323b872dd610b99611133565b30856040518463ffffffff1660e01b8152600401610bb993929190612315565b600060405180830381600087803b158015610bd357600080fd5b505af1158015610be7573d6000803e3d6000fd5b505050508060096000610bf8611133565b73ffffffffffffffffffffffffffffffffffffffff1673ffffffffffffffffffffffffffffffffffffffff16815260200190815260200160002081905550610c47610c41611133565b8261164d565b80610c50611133565b73ffffffffffffffffffffffffffffffffffffffff167f0f6798a560793a54c3bcfe86a93cde1e73087d944c0ea20544137d412139688560405160405180910390a3610c9c600861166b565b919050565b610ca9611133565b73ffffffffffffffffffffffffffffffffffffffff168273ffffffffffffffffffffffffffffffffffffffff161415610d17576040517f08c379a0000000000000000000000000000000000000000000000000000000008152600401610d0e90612435565b60405180910390fd5b8060056000610d24611133565b73ffffffffffffffffffffffffffffffffffffffff1673ffffffffffffffffffffffffffffffffffffffff16815260200190815260200160002060008473ffffffffffffffffffffffffffffffffffffffff1673ffffffffffffffffffffffffffffffffffffffff16815260200190815260200160002060006101000a81548160ff0219169083151502179055508173ffffffffffffffffffffffffffffffffffffffff16610dd1611133565b73ffffffffffffffffffffffffffffffffffffffff167f17307eab39ab6107e8899845ad3d59bd9653f200f220920489ca2b5937696c3183604051610e169190612398565b60405180910390a35050565b610e33610e2d611133565b836111f4565b610e72576040517f08c379a0000000000000000000000000000000000000000000000000000000008152600401610e6990612595565b60405180910390fd5b610e7e84848484611681565b50505050565b600660009054906101000a900473ffffffffffffffffffffffffffffffffffffffff1681565b6060610eb5826110c7565b610ef4576040517f08c379a0000000000000000000000000000000000000000000000000000000008152600401610eeb90612555565b60405180910390fd5b6000610efe6116dd565b90506000815111610f1e5760405180602001604052806000815250610f49565b80610f28846116f4565b604051602001610f399291906122d6565b6040516020818303038152906040525b915050919050565b6000600560008473ffffffffffffffffffffffffffffffffffffffff1673ffffffffffffffffffffffffffffffffffffffff16815260200190815260200160002060008373ffffffffffffffffffffffffffffffffffffffff1673ffffffffffffffffffffffffffffffffffffffff16815260200190815260200160002060009054906101000a900460ff16905092915050565b60007f80ac58cd000000000000000000000000000000000000000000000000000000007bffffffffffffffffffffffffffffffffffffffffffffffffffffffff1916827bffffffffffffffffffffffffffffffffffffffffffffffffffffffff191614806110b057507f5b5e139f000000000000000000000000000000000000000000000000000000007bffffffffffffffffffffffffffffffffffffffffffffffffffffffff1916827bffffffffffffffffffffffffffffffffffffffffffffffffffffffff1916145b806110c057506110bf826118a1565b5b9050919050565b60008073ffffffffffffffffffffffffffffffffffffffff166002600084815260200190815260200160002060009054906101000a900473ffffffffffffffffffffffffffffffffffffffff1673ffffffffffffffffffffffffffffffffffffffff1614159050919050565b600033905090565b816004600083815260200190815260200160002060006101000a81548173ffffffffffffffffffffffffffffffffffffffff021916908373ffffffffffffffffffffffffffffffffffffffff160217905550808273ffffffffffffffffffffffffffffffffffffffff166111ae83610876565b73ffffffffffffffffffffffffffffffffffffffff167f8c5be1e5ebec7d5bd14f71427d1e84f3dd0314c0f7b2291e5b200ac8c7c3b92560405160405180910390a45050565b60006111ff826110c7565b61123e576040517f08c379a000000000000000000000000000000000000000000000000000000000815260040161123590612475565b60405180910390fd5b600061124983610876565b90508073ffffffffffffffffffffffffffffffffffffffff168473ffffffffffffffffffffffffffffffffffffffff1614806112b857508373ffffffffffffffffffffffffffffffffffffffff166112a0846103fb565b73ffffffffffffffffffffffffffffffffffffffff16145b806112c957506112c88185610f51565b5b91505092915050565b8273ffffffffffffffffffffffffffffffffffffffff166112f282610876565b73ffffffffffffffffffffffffffffffffffffffff1614611348576040517f08c379a000000000000000000000000000000000000000000000000000000000815260040161133f90612535565b60405180910390fd5b600073ffffffffffffffffffffffffffffffffffffffff168273ffffffffffffffffffffffffffffffffffffffff1614156113b8576040517f08c379a00000000000000000000000000000000000000000000000000000000081526004016113af90612415565b60405180910390fd5b6113c383838361190b565b6113ce60008261113b565b6001600360008573ffffffffffffffffffffffffffffffffffffffff1673ffffffffffffffffffffffffffffffffffffffff168152602001908152602001600020600082825461141e9190612710565b925050819055506001600360008473ffffffffffffffffffffffffffffffffffffffff1673ffffffffffffffffffffffffffffffffffffffff16815260200190815260200160002060008282546114759190612689565b92505081905550816002600083815260200190815260200160002060006101000a81548173ffffffffffffffffffffffffffffffffffffffff021916908373ffffffffffffffffffffffffffffffffffffffff160217905550808273ffffffffffffffffffffffffffffffffffffffff168473ffffffffffffffffffffffffffffffffffffffff167fddf252ad1be2c89b69c2b068fc378daa952ba7f163c4a11628f55a4df523b3ef60405160405180910390a4505050565b600061153982610876565b90506115478160008461190b565b61155260008361113b565b6001600360008373ffffffffffffffffffffffffffffffffffffffff1673ffffffffffffffffffffffffffffffffffffffff16815260200190815260200160002060008282546115a29190612710565b925050819055506002600083815260200190815260200160002060006101000a81549073ffffffffffffffffffffffffffffffffffffffff021916905581600073ffffffffffffffffffffffffffffffffffffffff168273ffffffffffffffffffffffffffffffffffffffff167fddf252ad1be2c89b69c2b068fc378daa952ba7f163c4a11628f55a4df523b3ef60405160405180910390a45050565b600081600001549050919050565b611667828260405180602001604052806000815250611910565b5050565b6001816000016000828254019250508190555050565b61168c8484846112d2565b6116988484848461196b565b6116d7576040517f08c379a00000000000000000000000000000000000000000000000000000000081526004016116ce906123d5565b60405180910390fd5b50505050565b606060405180602001604052806000815250905090565b6060600082141561173c576040518060400160405280600181526020017f3000000000000000000000000000000000000000000000000000000000000000815250905061189c565b600082905060005b6000821461176e5780806117579061285d565b915050600a8261176791906126df565b9150611744565b60008167ffffffffffffffff8111156117b0577f4e487b7100000000000000000000000000000000000000000000000000000000600052604160045260246000fd5b6040519080825280601f01601f1916602001820160405280156117e25781602001600182028036833780820191505090505b5090505b60008514611895576001826117fb9190612710565b9150600a8561180a91906128a6565b60306118169190612689565b60f81b818381518110611852577f4e487b7100000000000000000000000000000000000000000000000000000000600052603260045260246000fd5b60200101907effffffffffffffffffffffffffffffffffffffffffffffffffffffffffffff1916908160001a905350600a8561188e91906126df565b94506117e6565b8093505050505b919050565b60007f01ffc9a7000000000000000000000000000000000000000000000000000000007bffffffffffffffffffffffffffffffffffffffffffffffffffffffff1916827bffffffffffffffffffffffffffffffffffffffffffffffffffffffff1916149050919050565b505050565b61191a8383611b02565b611927600084848461196b565b611966576040517f08c379a000000000000000000000000000000000000000000000000000000000815260040161195d906123d5565b60405180910390fd5b505050565b600061198c8473ffffffffffffffffffffffffffffffffffffffff16611cd0565b15611af5578373ffffffffffffffffffffffffffffffffffffffff1663150b7a026119b5611133565b8786866040518563ffffffff1660e01b81526004016119d7949392919061234c565b602060405180830381600087803b1580156119f157600080fd5b505af1925050508015611a2257506040513d601f19601f82011682018060405250810190611a1f9190611f84565b60015b611aa5573d8060008114611a52576040519150601f19603f3d011682016040523d82523d6000602084013e611a57565b606091505b50600081511415611a9d576040517f08c379a0000000000000000000000000000000000000000000000000000000008152600401611a94906123d5565b60405180910390fd5b805181602001fd5b63150b7a0260e01b7bffffffffffffffffffffffffffffffffffffffffffffffffffffffff1916817bffffffffffffffffffffffffffffffffffffffffffffffffffffffff191614915050611afa565b600190505b949350505050565b600073ffffffffffffffffffffffffffffffffffffffff168273ffffffffffffffffffffffffffffffffffffffff161415611b72576040517f08c379a0000000000000000000000000000000000000000000000000000000008152600401611b69906124f5565b60405180910390fd5b611b7b816110c7565b15611bbb576040517f08c379a0000000000000000000000000000000000000000000000000000000008152600401611bb2906123f5565b60405180910390fd5b611bc76000838361190b565b6001600360008473ffffffffffffffffffffffffffffffffffffffff1673ffffffffffffffffffffffffffffffffffffffff1681526020019081526020016000206000828254611c179190612689565b92505081905550816002600083815260200190815260200160002060006101000a81548173ffffffffffffffffffffffffffffffffffffffff021916908373ffffffffffffffffffffffffffffffffffffffff160217905550808273ffffffffffffffffffffffffffffffffffffffff16600073ffffffffffffffffffffffffffffffffffffffff167fddf252ad1be2c89b69c2b068fc378daa952ba7f163c4a11628f55a4df523b3ef60405160405180910390a45050565b600080823b905060008111915050919050565b6000611cf6611cf184612615565b6125f0565b905082815260208101848484011115611d0e57600080fd5b611d198482856127b8565b509392505050565b600081359050611d3081612dd6565b92915050565b600081359050611d4581612ded565b92915050565b600081359050611d5a81612e04565b92915050565b600081519050611d6f81612e04565b92915050565b600082601f830112611d8657600080fd5b8135611d96848260208601611ce3565b91505092915050565b600081359050611dae81612e1b565b92915050565b600060208284031215611dc657600080fd5b6000611dd484828501611d21565b91505092915050565b60008060408385031215611df057600080fd5b6000611dfe85828601611d21565b9250506020611e0f85828601611d21565b9150509250929050565b600080600060608486031215611e2e57600080fd5b6000611e3c86828701611d21565b9350506020611e4d86828701611d21565b9250506040611e5e86828701611d9f565b9150509250925092565b60008060008060808587031215611e7e57600080fd5b6000611e8c87828801611d21565b9450506020611e9d87828801611d21565b9350506040611eae87828801611d9f565b925050606085013567ffffffffffffffff811115611ecb57600080fd5b611ed787828801611d75565b91505092959194509250565b60008060408385031215611ef657600080fd5b6000611f0485828601611d21565b9250506020611f1585828601611d36565b9150509250929050565b60008060408385031215611f3257600080fd5b6000611f4085828601611d21565b9250506020611f5185828601611d9f565b9150509250929050565b600060208284031215611f6d57600080fd5b6000611f7b84828501611d4b565b91505092915050565b600060208284031215611f9657600080fd5b6000611fa484828501611d60565b91505092915050565b600060208284031215611fbf57600080fd5b6000611fcd84828501611d9f565b91505092915050565b611fdf81612744565b82525050565b611fee81612756565b82525050565b6000611fff82612646565b612009818561265c565b93506120198185602086016127c7565b61202281612993565b840191505092915050565b600061203882612651565b612042818561266d565b93506120528185602086016127c7565b61205b81612993565b840191505092915050565b600061207182612651565b61207b818561267e565b935061208b8185602086016127c7565b80840191505092915050565b60006120a460328361266d565b91506120af826129a4565b604082019050919050565b60006120c7601c8361266d565b91506120d2826129f3565b602082019050919050565b60006120ea60248361266d565b91506120f582612a1c565b604082019050919050565b600061210d60198361266d565b915061211882612a6b565b602082019050919050565b6000612130601c8361266d565b915061213b82612a94565b602082019050919050565b6000612153602c8361266d565b915061215e82612abd565b604082019050919050565b600061217660388361266d565b915061218182612b0c565b604082019050919050565b6000612199602a8361266d565b91506121a482612b5b565b604082019050919050565b60006121bc60298361266d565b91506121c782612baa565b604082019050919050565b60006121df60208361266d565b91506121ea82612bf9565b602082019050919050565b6000612202602c8361266d565b915061220d82612c22565b604082019050919050565b600061222560298361266d565b915061223082612c71565b604082019050919050565b6000612248602f8361266d565b915061225382612cc0565b604082019050919050565b600061226b60218361266d565b915061227682612d0f565b604082019050919050565b600061228e60318361266d565b915061229982612d5e565b604082019050919050565b60006122b1601a8361266d565b91506122bc82612dad565b602082019050919050565b6122d0816127ae565b82525050565b60006122e28285612066565b91506122ee8284612066565b91508190509392505050565b600060208201905061230f6000830184611fd6565b92915050565b600060608201905061232a6000830186611fd6565b6123376020830185611fd6565b61234460408301846122c7565b949350505050565b60006080820190506123616000830187611fd6565b61236e6020830186611fd6565b61237b60408301856122c7565b818103606083015261238d8184611ff4565b905095945050505050565b60006020820190506123ad6000830184611fe5565b92915050565b600060208201905081810360008301526123cd818461202d565b905092915050565b600060208201905081810360008301526123ee81612097565b9050919050565b6000602082019050818103600083015261240e816120ba565b9050919050565b6000602082019050818103600083015261242e816120dd565b9050919050565b6000602082019050818103600083015261244e81612100565b9050919050565b6000602082019050818103600083015261246e81612123565b9050919050565b6000602082019050818103600083015261248e81612146565b9050919050565b600060208201905081810360008301526124ae81612169565b9050919050565b600060208201905081810360008301526124ce8161218c565b9050919050565b600060208201905081810360008301526124ee816121af565b9050919050565b6000602082019050818103600083015261250e816121d2565b9050919050565b6000602082019050818103600083015261252e816121f5565b9050919050565b6000602082019050818103600083015261254e81612218565b9050919050565b6000602082019050818103600083015261256e8161223b565b9050919050565b6000602082019050818103600083015261258e8161225e565b9050919050565b600060208201905081810360008301526125ae81612281565b9050919050565b600060208201905081810360008301526125ce816122a4565b9050919050565b60006020820190506125ea60008301846122c7565b92915050565b60006125fa61260b565b9050612606828261282c565b919050565b6000604051905090565b600067ffffffffffffffff8211156126305761262f612964565b5b61263982612993565b9050602081019050919050565b600081519050919050565b600081519050919050565b600082825260208201905092915050565b600082825260208201905092915050565b600081905092915050565b6000612694826127ae565b915061269f836127ae565b9250827fffffffffffffffffffffffffffffffffffffffffffffffffffffffffffffffff038211156126d4576126d36128d7565b5b828201905092915050565b60006126ea826127ae565b91506126f5836127ae565b92508261270557612704612906565b5b828204905092915050565b600061271b826127ae565b9150612726836127ae565b925082821015612739576127386128d7565b5b828203905092915050565b600061274f8261278e565b9050919050565b60008115159050919050565b60007fffffffff0000000000000000000000000000000000000000000000000000000082169050919050565b600073ffffffffffffffffffffffffffffffffffffffff82169050919050565b6000819050919050565b82818337600083830152505050565b60005b838110156127e55780820151818401526020810190506127ca565b838111156127f4576000848401525b50505050565b6000600282049050600182168061281257607f821691505b6020821081141561282657612825612935565b5b50919050565b61283582612993565b810181811067ffffffffffffffff8211171561285457612853612964565b5b80604052505050565b6000612868826127ae565b91507fffffffffffffffffffffffffffffffffffffffffffffffffffffffffffffffff82141561289b5761289a6128d7565b5b600182019050919050565b60006128b1826127ae565b91506128bc836127ae565b9250826128cc576128cb612906565b5b828206905092915050565b7f4e487b7100000000000000000000000000000000000000000000000000000000600052601160045260246000fd5b7f4e487b7100000000000000000000000000000000000000000000000000000000600052601260045260246000fd5b7f4e487b7100000000000000000000000000000000000000000000000000000000600052602260045260246000fd5b7f4e487b7100000000000000000000000000000000000000000000000000000000600052604160045260246000fd5b6000601f19601f8301169050919050565b7f4552433732313a207472616e7366657220746f206e6f6e20455243373231526560008201527f63656976657220696d706c656d656e7465720000000000000000000000000000602082015250565b7f4552433732313a20746f6b656e20616c7265616479206d696e74656400000000600082015250565b7f4552433732313a207472616e7366657220746f20746865207a65726f2061646460008201527f7265737300000000000000000000000000000000000000000000000000000000602082015250565b7f4552433732313a20617070726f766520746f2063616c6c657200000000000000600082015250565b7f426574613a2073656e64657220686173206265656e20686f6c64657200000000600082015250565b7f4552433732313a206f70657261746f7220717565727920666f72206e6f6e657860008201527f697374656e7420746f6b656e0000000000000000000000000000000000000000602082015250565b7f4552433732313a20617070726f76652063616c6c6572206973206e6f74206f7760008201527f6e6572206e6f7220617070726f76656420666f7220616c6c0000000000000000602082015250565b7f4552433732313a2062616c616e636520717565727920666f7220746865207a6560008201527f726f206164647265737300000000000000000000000000000000000000000000602082015250565b7f4552433732313a206f776e657220717565727920666f72206e6f6e657869737460008201527f656e7420746f6b656e0000000000000000000000000000000000000000000000602082015250565b7f4552433732313a206d696e7420746f20746865207a65726f2061646472657373600082015250565b7f4552433732313a20617070726f76656420717565727920666f72206e6f6e657860008201527f697374656e7420746f6b656e0000000000000000000000000000000000000000602082015250565b7f4552433732313a207472616e73666572206f6620746f6b656e2074686174206960008201527f73206e6f74206f776e0000000000000000000000000000000000000000000000602082015250565b7f4552433732314d657461646174613a2055524920717565727920666f72206e6f60008201527f6e6578697374656e7420746f6b656e0000000000000000000000000000000000602082015250565b7f4552433732313a20617070726f76616c20746f2063757272656e74206f776e6560008201527f7200000000000000000000000000000000000000000000000000000000000000602082015250565b7f4552433732313a207472616e736665722063616c6c6572206973206e6f74206f60008201527f776e6572206e6f7220617070726f766564000000000000000000000000000000602082015250565b7f426574613a2073656e646572206973206e6f7420686f6c646572000000000000600082015250565b612ddf81612744565b8114612dea57600080fd5b50565b612df681612756565b8114612e0157600080fd5b50565b612e0d81612762565b8114612e1857600080fd5b50565b612e24816127ae565b8114612e2f57600080fd5b5056fea2646970667358221220ac00bc00a897c236b0c9c79e2483e6c35ef0583b1a1c30069fb5b35c823e1bd764736f6c63430008040033",
  "linkReferences": {},
  "deployedLinkReferences": {}
}