{
  "_format": "hh-sol-artifact-1",
  "contractName": "TokenBase",
  "sourceName": "contracts/TokenBase.sol",
  "abi": [
    {
      "inputs": [
        {
          "internalType": "string",
          "name": "_name",
          "type": "string"
        },
        {
          "internalType": "string",
          "name": "_symbol",
          "type": "string"
        },
        {
          "internalType": "string",
          "name": "_bURI",
          "type": "string"
        },
        {
          "internalType": "address",
          "name": "_erc20",
          "type": "address"
        },
        {
          "internalType": "uint256",
          "name": "_rate",
          "type": "uint256"
        }
      ],
      "stateMutability": "nonpayable",
      "type": "constructor"
    },
    {
      "anonymous": false,
      "inputs": [
        {
          "indexed": true,
          "internalType": "address",
          "name": "owner",
          "type": "address"
        },
        {
          "indexed": true,
          "internalType": "address",
          "name": "approved",
          "type": "address"
        },
        {
          "indexed": true,
          "internalType": "uint256",
          "name": "tokenId",
          "type": "uint256"
        }
      ],
      "name": "Approval",
      "type": "event"
    },
    {
      "anonymous": false,
      "inputs": [
        {
          "indexed": true,
          "internalType": "address",
          "name": "owner",
          "type": "address"
        },
        {
          "indexed": true,
          "internalType": "address",
          "name": "operator",
          "type": "address"
        },
        {
          "indexed": false,
          "internalType": "bool",
          "name": "approved",
          "type": "bool"
        }
      ],
      "name": "ApprovalForAll",
      "type": "event"
    },
    {
      "anonymous": false,
      "inputs": [
        {
          "indexed": true,
          "internalType": "address",
          "name": "from",
          "type": "address"
        },
        {
          "indexed": true,
          "internalType": "uint256",
          "name": "tokenId",
          "type": "uint256"
        }
      ],
      "name": "Burn",
      "type": "event"
    },
    {
      "anonymous": false,
      "inputs": [
        {
          "indexed": true,
          "internalType": "address",
          "name": "from",
          "type": "address"
        },
        {
          "indexed": true,
          "internalType": "uint256",
          "name": "tokenId",
          "type": "uint256"
        }
      ],
      "name": "Mint",
      "type": "event"
    },
    {
      "anonymous": false,
      "inputs": [
        {
          "indexed": true,
          "internalType": "address",
          "name": "from",
          "type": "address"
        },
        {
          "indexed": true,
          "internalType": "address",
          "name": "to",
          "type": "address"
        },
        {
          "indexed": true,
          "internalType": "uint256",
          "name": "tokenId",
          "type": "uint256"
        }
      ],
      "name": "Transfer",
      "type": "event"
    },
    {
      "inputs": [
        {
          "internalType": "address",
          "name": "to",
          "type": "address"
        },
        {
          "internalType": "uint256",
          "name": "tokenId",
          "type": "uint256"
        }
      ],
      "name": "approve",
      "outputs": [],
      "stateMutability": "nonpayable",
      "type": "function"
    },
    {
      "inputs": [
        {
          "internalType": "address",
          "name": "owner",
          "type": "address"
        }
      ],
      "name": "balanceOf",
      "outputs": [
        {
          "internalType": "uint256",
          "name": "",
          "type": "uint256"
        }
      ],
      "stateMutability": "view",
      "type": "function"
    },
    {
      "inputs": [
        {
          "internalType": "uint256",
          "name": "tokenId",
          "type": "uint256"
        }
      ],
      "name": "burn",
      "outputs": [],
      "stateMutability": "nonpayable",
      "type": "function"
    },
    {
      "inputs": [],
      "name": "erc20",
      "outputs": [
        {
          "internalType": "address",
          "name": "",
          "type": "address"
        }
      ],
      "stateMutability": "view",
      "type": "function"
    },
    {
      "inputs": [
        {
          "internalType": "uint256",
          "name": "tokenId",
          "type": "uint256"
        }
      ],
      "name": "getApproved",
      "outputs": [
        {
          "internalType": "address",
          "name": "",
          "type": "address"
        }
      ],
      "stateMutability": "view",
      "type": "function"
    },
    {
      "inputs": [
        {
          "internalType": "address",
          "name": "owner",
          "type": "address"
        },
        {
          "internalType": "address",
          "name": "operator",
          "type": "address"
        }
      ],
      "name": "isApprovedForAll",
      "outputs": [
        {
          "internalType": "bool",
          "name": "",
          "type": "bool"
        }
      ],
      "stateMutability": "view",
      "type": "function"
    },
    {
      "inputs": [],
      "name": "mint",
      "outputs": [
        {
          "internalType": "uint256",
          "name": "tokenId",
          "type": "uint256"
        }
      ],
      "stateMutability": "nonpayable",
      "type": "function"
    },
    {
      "inputs": [],
      "name": "name",
      "outputs": [
        {
          "internalType": "string",
          "name": "",
          "type": "string"
        }
      ],
      "stateMutability": "view",
      "type": "function"
    },
    {
      "inputs": [],
      "name": "owner",
      "outputs": [
        {
          "internalType": "address",
          "name": "",
          "type": "address"
        }
      ],
      "stateMutability": "view",
      "type": "function"
    },
    {
      "inputs": [
        {
          "internalType": "uint256",
          "name": "tokenId",
          "type": "uint256"
        }
      ],
      "name": "ownerOf",
      "outputs": [
        {
          "internalType": "address",
          "name": "",
          "type": "address"
        }
      ],
      "stateMutability": "view",
      "type": "function"
    },
    {
      "inputs": [],
      "name": "rate",
      "outputs": [
        {
          "internalType": "uint256",
          "name": "",
          "type": "uint256"
        }
      ],
      "stateMutability": "view",
      "type": "function"
    },
    {
      "inputs": [
        {
          "internalType": "address",
          "name": "from",
          "type": "address"
        },
        {
          "internalType": "address",
          "name": "to",
          "type": "address"
        },
        {
          "internalType": "uint256",
          "name": "tokenId",
          "type": "uint256"
        }
      ],
      "name": "safeTransferFrom",
      "outputs": [],
      "stateMutability": "nonpayable",
      "type": "function"
    },
    {
      "inputs": [
        {
          "internalType": "address",
          "name": "from",
          "type": "address"
        },
        {
          "internalType": "address",
          "name": "to",
          "type": "address"
        },
        {
          "internalType": "uint256",
          "name": "tokenId",
          "type": "uint256"
        },
        {
          "internalType": "bytes",
          "name": "_data",
          "type": "bytes"
        }
      ],
      "name": "safeTransferFrom",
      "outputs": [],
      "stateMutability": "nonpayable",
      "type": "function"
    },
    {
      "inputs": [
        {
          "internalType": "address",
          "name": "operator",
          "type": "address"
        },
        {
          "internalType": "bool",
          "name": "approved",
          "type": "bool"
        }
      ],
      "name": "setApprovalForAll",
      "outputs": [],
      "stateMutability": "nonpayable",
      "type": "function"
    },
    {
      "inputs": [
        {
          "internalType": "string",
          "name": "baseURI_",
          "type": "string"
        }
      ],
      "name": "setBaseURI",
      "outputs": [],
      "stateMutability": "nonpayable",
      "type": "function"
    },
    {
      "inputs": [
        {
          "internalType": "uint256",
          "name": "tokenId",
          "type": "uint256"
        },
        {
          "internalType": "string",
          "name": "_tokenURI",
          "type": "string"
        }
      ],
      "name": "setTokenURI",
      "outputs": [],
      "stateMutability": "nonpayable",
      "type": "function"
    },
    {
      "inputs": [
        {
          "internalType": "bytes4",
          "name": "interfaceId",
          "type": "bytes4"
        }
      ],
      "name": "supportsInterface",
      "outputs": [
        {
          "internalType": "bool",
          "name": "",
          "type": "bool"
        }
      ],
      "stateMutability": "view",
      "type": "function"
    },
    {
      "inputs": [],
      "name": "symbol",
      "outputs": [
        {
          "internalType": "string",
          "name": "",
          "type": "string"
        }
      ],
      "stateMutability": "view",
      "type": "function"
    },
    {
      "inputs": [
        {
          "internalType": "uint256",
          "name": "tokenId",
          "type": "uint256"
        }
      ],
      "name": "tokenURI",
      "outputs": [
        {
          "internalType": "string",
          "name": "",
          "type": "string"
        }
      ],
      "stateMutability": "view",
      "type": "function"
    },
    {
      "inputs": [
        {
          "internalType": "address",
          "name": "from",
          "type": "address"
        },
        {
          "internalType": "address",
          "name": "to",
          "type": "address"
        },
        {
          "internalType": "uint256",
          "name": "tokenId",
          "type": "uint256"
        }
      ],
      "name": "transferFrom",
      "outputs": [],
      "stateMutability": "nonpayable",
      "type": "function"
    }
  ],
  "bytecode": "0x608060405260405180602001604052806001815250600b6000820151816000015550503480156200002f57600080fd5b50604051620039a5380380620039a5833981810160405281019062000055919062000288565b848481600090805190602001906200006f92919062000138565b5080600190805190602001906200008892919062000138565b50505032600660006101000a81548173ffffffffffffffffffffffffffffffffffffffff021916908373ffffffffffffffffffffffffffffffffffffffff16021790555082600a9080519060200190620000e492919062000138565b5081600760006101000a81548173ffffffffffffffffffffffffffffffffffffffff021916908373ffffffffffffffffffffffffffffffffffffffff16021790555080600881905550505050505062000537565b828054620001469062000428565b90600052602060002090601f0160209004810192826200016a5760008555620001b6565b82601f106200018557805160ff1916838001178555620001b6565b82800160010185558215620001b6579182015b82811115620001b557825182559160200191906001019062000198565b5b509050620001c59190620001c9565b5090565b5b80821115620001e4576000816000905550600101620001ca565b5090565b6000620001ff620001f9846200037e565b62000355565b9050828152602081018484840111156200021857600080fd5b62000225848285620003f2565b509392505050565b6000815190506200023e8162000503565b92915050565b600082601f8301126200025657600080fd5b815162000268848260208601620001e8565b91505092915050565b60008151905062000282816200051d565b92915050565b600080600080600060a08688031215620002a157600080fd5b600086015167ffffffffffffffff811115620002bc57600080fd5b620002ca8882890162000244565b955050602086015167ffffffffffffffff811115620002e857600080fd5b620002f68882890162000244565b945050604086015167ffffffffffffffff8111156200031457600080fd5b620003228882890162000244565b935050606062000335888289016200022d565b9250506080620003488882890162000271565b9150509295509295909350565b60006200036162000374565b90506200036f82826200045e565b919050565b6000604051905090565b600067ffffffffffffffff8211156200039c576200039b620004c3565b5b620003a782620004f2565b9050602081019050919050565b6000620003c182620003c8565b9050919050565b600073ffffffffffffffffffffffffffffffffffffffff82169050919050565b6000819050919050565b60005b8381101562000412578082015181840152602081019050620003f5565b8381111562000422576000848401525b50505050565b600060028204905060018216806200044157607f821691505b6020821081141562000458576200045762000494565b5b50919050565b6200046982620004f2565b810181811067ffffffffffffffff821117156200048b576200048a620004c3565b5b80604052505050565b7f4e487b7100000000000000000000000000000000000000000000000000000000600052602260045260246000fd5b7f4e487b7100000000000000000000000000000000000000000000000000000000600052604160045260246000fd5b6000601f19601f8301169050919050565b6200050e81620003b4565b81146200051a57600080fd5b50565b6200052881620003e8565b81146200053457600080fd5b50565b61345e80620005476000396000f3fe608060405234801561001057600080fd5b506004361061012c5760003560e01c806355f804b3116100ad57806395d89b411161007157806395d89b411461032f578063a22cb4651461034d578063b88d4fde14610369578063c87b56dd14610385578063e985e9c5146103b55761012c565b806355f804b3146102775780636352211e1461029357806370a08231146102c3578063785e9e86146102f35780638da5cb5b146103115761012c565b8063162094c4116100f4578063162094c4146101e957806323b872dd146102055780632c4e722e1461022157806342842e0e1461023f57806342966c681461025b5761012c565b806301ffc9a71461013157806306fdde0314610161578063081812fc1461017f578063095ea7b3146101af5780631249c58b146101cb575b600080fd5b61014b600480360381019061014691906122ac565b6103e5565b6040516101589190612810565b60405180910390f35b6101696103f7565b604051610176919061282b565b60405180910390f35b6101996004803603810190610194919061233f565b610489565b6040516101a69190612749565b60405180910390f35b6101c960048036038101906101c49190612247565b61050e565b005b6101d3610626565b6040516101e09190612aad565b60405180910390f35b61020360048036038101906101fe9190612368565b61079c565b005b61021f600480360381019061021a9190612141565b610841565b005b6102296108a1565b6040516102369190612aad565b60405180910390f35b61025960048036038101906102549190612141565b6108a7565b005b6102756004803603810190610270919061233f565b6108c7565b005b610291600480360381019061028c91906122fe565b610a1b565b005b6102ad60048036038101906102a8919061233f565b610acc565b6040516102ba9190612749565b60405180910390f35b6102dd60048036038101906102d891906120dc565b610b7e565b6040516102ea9190612aad565b60405180910390f35b6102fb610c36565b6040516103089190612749565b60405180910390f35b610319610c5c565b6040516103269190612749565b60405180910390f35b610337610c82565b604051610344919061282b565b60405180910390f35b6103676004803603810190610362919061220b565b610d14565b005b610383600480360381019061037e9190612190565b610e95565b005b61039f600480360381019061039a919061233f565b610ef7565b6040516103ac919061282b565b60405180910390f35b6103cf60048036038101906103ca9190612105565b61106a565b6040516103dc9190612810565b60405180910390f35b60006103f0826110fe565b9050919050565b60606000805461040690612d03565b80601f016020809104026020016040519081016040528092919081815260200182805461043290612d03565b801561047f5780601f106104545761010080835404028352916020019161047f565b820191906000526020600020905b81548152906001019060200180831161046257829003601f168201915b5050505050905090565b6000610494826111e0565b6104d3576040517f08c379a00000000000000000000000000000000000000000000000000000000081526004016104ca9061298d565b60405180910390fd5b6004600083815260200190815260200160002060009054906101000a900473ffffffffffffffffffffffffffffffffffffffff169050919050565b600061051982610acc565b90508073ffffffffffffffffffffffffffffffffffffffff168373ffffffffffffffffffffffffffffffffffffffff16141561058a576040517f08c379a000000000000000000000000000000000000000000000000000000000815260040161058190612a4d565b60405180910390fd5b8073ffffffffffffffffffffffffffffffffffffffff166105a961124c565b73ffffffffffffffffffffffffffffffffffffffff1614806105d857506105d7816105d261124c565b61106a565b5b610617576040517f08c379a000000000000000000000000000000000000000000000000000000000815260040161060e906128ed565b60405180910390fd5b6106218383611254565b505050565b6000610632600b61130d565b90506000600760009054906101000a900473ffffffffffffffffffffffffffffffffffffffff1673ffffffffffffffffffffffffffffffffffffffff166323b872dd61067c61124c565b306008546040518463ffffffff1660e01b815260040161069e93929190612764565b602060405180830381600087803b1580156106b857600080fd5b505af11580156106cc573d6000803e3d6000fd5b505050506040513d601f19601f820116820180604052508101906106f09190612283565b905080610732576040517f08c379a000000000000000000000000000000000000000000000000000000000815260040161072990612a8d565b60405180910390fd5b61074361073d61124c565b8361131b565b8161074c61124c565b73ffffffffffffffffffffffffffffffffffffffff167f0f6798a560793a54c3bcfe86a93cde1e73087d944c0ea20544137d412139688560405160405180910390a3610798600b611339565b5090565b6107a461124c565b73ffffffffffffffffffffffffffffffffffffffff16600660009054906101000a900473ffffffffffffffffffffffffffffffffffffffff1673ffffffffffffffffffffffffffffffffffffffff1614610833576040517f08c379a000000000000000000000000000000000000000000000000000000000815260040161082a9061294d565b60405180910390fd5b61083d828261134f565b5050565b61085261084c61124c565b826113c3565b610891576040517f08c379a000000000000000000000000000000000000000000000000000000000815260040161088890612a6d565b60405180910390fd5b61089c8383836114a1565b505050565b60085481565b6108c283838360405180602001604052806000815250610e95565b505050565b600081141561090b576040517f08c379a0000000000000000000000000000000000000000000000000000000008152600401610902906129cd565b60405180910390fd5b610914816116fd565b600760009054906101000a900473ffffffffffffffffffffffffffffffffffffffff1673ffffffffffffffffffffffffffffffffffffffff1663a9059cbb61095a61124c565b6008546040518363ffffffff1660e01b815260040161097a9291906127e7565b602060405180830381600087803b15801561099457600080fd5b505af11580156109a8573d6000803e3d6000fd5b505050506040513d601f19601f820116820180604052508101906109cc9190612283565b50806109d661124c565b73ffffffffffffffffffffffffffffffffffffffff167fcc16f5dbb4873280815c1ee09dbd06736cffcc184412cf7a71a0fdb75d397ca560405160405180910390a350565b610a2361124c565b73ffffffffffffffffffffffffffffffffffffffff16600660009054906101000a900473ffffffffffffffffffffffffffffffffffffffff1673ffffffffffffffffffffffffffffffffffffffff1614610ab2576040517f08c379a0000000000000000000000000000000000000000000000000000000008152600401610aa990612a2d565b60405180910390fd5b80600a9080519060200190610ac8929190611eeb565b5050565b6000806002600084815260200190815260200160002060009054906101000a900473ffffffffffffffffffffffffffffffffffffffff169050600073ffffffffffffffffffffffffffffffffffffffff168173ffffffffffffffffffffffffffffffffffffffff161415610b75576040517f08c379a0000000000000000000000000000000000000000000000000000000008152600401610b6c9061292d565b60405180910390fd5b80915050919050565b60008073ffffffffffffffffffffffffffffffffffffffff168273ffffffffffffffffffffffffffffffffffffffff161415610bef576040517f08c379a0000000000000000000000000000000000000000000000000000000008152600401610be69061290d565b60405180910390fd5b600360008373ffffffffffffffffffffffffffffffffffffffff1673ffffffffffffffffffffffffffffffffffffffff168152602001908152602001600020549050919050565b600760009054906101000a900473ffffffffffffffffffffffffffffffffffffffff1681565b600660009054906101000a900473ffffffffffffffffffffffffffffffffffffffff1681565b606060018054610c9190612d03565b80601f0160208091040260200160405190810160405280929190818152602001828054610cbd90612d03565b8015610d0a5780601f10610cdf57610100808354040283529160200191610d0a565b820191906000526020600020905b815481529060010190602001808311610ced57829003601f168201915b5050505050905090565b610d1c61124c565b73ffffffffffffffffffffffffffffffffffffffff168273ffffffffffffffffffffffffffffffffffffffff161415610d8a576040517f08c379a0000000000000000000000000000000000000000000000000000000008152600401610d81906128ad565b60405180910390fd5b8060056000610d9761124c565b73ffffffffffffffffffffffffffffffffffffffff1673ffffffffffffffffffffffffffffffffffffffff16815260200190815260200160002060008473ffffffffffffffffffffffffffffffffffffffff1673ffffffffffffffffffffffffffffffffffffffff16815260200190815260200160002060006101000a81548160ff0219169083151502179055508173ffffffffffffffffffffffffffffffffffffffff16610e4461124c565b73ffffffffffffffffffffffffffffffffffffffff167f17307eab39ab6107e8899845ad3d59bd9653f200f220920489ca2b5937696c3183604051610e899190612810565b60405180910390a35050565b610ea6610ea061124c565b836113c3565b610ee5576040517f08c379a0000000000000000000000000000000000000000000000000000000008152600401610edc90612a6d565b60405180910390fd5b610ef18484848461180e565b50505050565b6060610f02826111e0565b610f41576040517f08c379a0000000000000000000000000000000000000000000000000000000008152600401610f3890612a0d565b60405180910390fd5b6000600960008481526020019081526020016000208054610f6190612d03565b80601f0160208091040260200160405190810160405280929190818152602001828054610f8d90612d03565b8015610fda5780601f10610faf57610100808354040283529160200191610fda565b820191906000526020600020905b815481529060010190602001808311610fbd57829003601f168201915b505050505090506000610feb61186a565b9050600081511415611001578192505050611065565b60008251111561103657808260405160200161101e929190612725565b60405160208183030381529060405292505050611065565b80611040856118fc565b604051602001611051929190612725565b604051602081830303815290604052925050505b919050565b6000600560008473ffffffffffffffffffffffffffffffffffffffff1673ffffffffffffffffffffffffffffffffffffffff16815260200190815260200160002060008373ffffffffffffffffffffffffffffffffffffffff1673ffffffffffffffffffffffffffffffffffffffff16815260200190815260200160002060009054906101000a900460ff16905092915050565b60007f80ac58cd000000000000000000000000000000000000000000000000000000007bffffffffffffffffffffffffffffffffffffffffffffffffffffffff1916827bffffffffffffffffffffffffffffffffffffffffffffffffffffffff191614806111c957507f5b5e139f000000000000000000000000000000000000000000000000000000007bffffffffffffffffffffffffffffffffffffffffffffffffffffffff1916827bffffffffffffffffffffffffffffffffffffffffffffffffffffffff1916145b806111d957506111d882611aa9565b5b9050919050565b60008073ffffffffffffffffffffffffffffffffffffffff166002600084815260200190815260200160002060009054906101000a900473ffffffffffffffffffffffffffffffffffffffff1673ffffffffffffffffffffffffffffffffffffffff1614159050919050565b600033905090565b816004600083815260200190815260200160002060006101000a81548173ffffffffffffffffffffffffffffffffffffffff021916908373ffffffffffffffffffffffffffffffffffffffff160217905550808273ffffffffffffffffffffffffffffffffffffffff166112c783610acc565b73ffffffffffffffffffffffffffffffffffffffff167f8c5be1e5ebec7d5bd14f71427d1e84f3dd0314c0f7b2291e5b200ac8c7c3b92560405160405180910390a45050565b600081600001549050919050565b611335828260405180602001604052806000815250611b13565b5050565b6001816000016000828254019250508190555050565b611358826111e0565b611397576040517f08c379a000000000000000000000000000000000000000000000000000000000815260040161138e906129ad565b60405180910390fd5b806009600084815260200190815260200160002090805190602001906113be929190611eeb565b505050565b60006113ce826111e0565b61140d576040517f08c379a0000000000000000000000000000000000000000000000000000000008152600401611404906128cd565b60405180910390fd5b600061141883610acc565b90508073ffffffffffffffffffffffffffffffffffffffff168473ffffffffffffffffffffffffffffffffffffffff16148061148757508373ffffffffffffffffffffffffffffffffffffffff1661146f84610489565b73ffffffffffffffffffffffffffffffffffffffff16145b806114985750611497818561106a565b5b91505092915050565b8273ffffffffffffffffffffffffffffffffffffffff166114c182610acc565b73ffffffffffffffffffffffffffffffffffffffff1614611517576040517f08c379a000000000000000000000000000000000000000000000000000000000815260040161150e906129ed565b60405180910390fd5b600073ffffffffffffffffffffffffffffffffffffffff168273ffffffffffffffffffffffffffffffffffffffff161415611587576040517f08c379a000000000000000000000000000000000000000000000000000000000815260040161157e9061288d565b60405180910390fd5b611592838383611b6e565b61159d600082611254565b6001600360008573ffffffffffffffffffffffffffffffffffffffff1673ffffffffffffffffffffffffffffffffffffffff16815260200190815260200160002060008282546115ed9190612c19565b925050819055506001600360008473ffffffffffffffffffffffffffffffffffffffff1673ffffffffffffffffffffffffffffffffffffffff16815260200190815260200160002060008282546116449190612b92565b92505081905550816002600083815260200190815260200160002060006101000a81548173ffffffffffffffffffffffffffffffffffffffff021916908373ffffffffffffffffffffffffffffffffffffffff160217905550808273ffffffffffffffffffffffffffffffffffffffff168473ffffffffffffffffffffffffffffffffffffffff167fddf252ad1be2c89b69c2b068fc378daa952ba7f163c4a11628f55a4df523b3ef60405160405180910390a4505050565b600061170882610acc565b905061171681600084611b6e565b611721600083611254565b6001600360008373ffffffffffffffffffffffffffffffffffffffff1673ffffffffffffffffffffffffffffffffffffffff16815260200190815260200160002060008282546117719190612c19565b925050819055506002600083815260200190815260200160002060006101000a81549073ffffffffffffffffffffffffffffffffffffffff021916905581600073ffffffffffffffffffffffffffffffffffffffff168273ffffffffffffffffffffffffffffffffffffffff167fddf252ad1be2c89b69c2b068fc378daa952ba7f163c4a11628f55a4df523b3ef60405160405180910390a45050565b6118198484846114a1565b61182584848484611b73565b611864576040517f08c379a000000000000000000000000000000000000000000000000000000000815260040161185b9061284d565b60405180910390fd5b50505050565b6060600a805461187990612d03565b80601f01602080910402602001604051908101604052809291908181526020018280546118a590612d03565b80156118f25780601f106118c7576101008083540402835291602001916118f2565b820191906000526020600020905b8154815290600101906020018083116118d557829003601f168201915b5050505050905090565b60606000821415611944576040518060400160405280600181526020017f30000000000000000000000000000000000000000000000000000000000000008152509050611aa4565b600082905060005b6000821461197657808061195f90612d66565b915050600a8261196f9190612be8565b915061194c565b60008167ffffffffffffffff8111156119b8577f4e487b7100000000000000000000000000000000000000000000000000000000600052604160045260246000fd5b6040519080825280601f01601f1916602001820160405280156119ea5781602001600182028036833780820191505090505b5090505b60008514611a9d57600182611a039190612c19565b9150600a85611a129190612daf565b6030611a1e9190612b92565b60f81b818381518110611a5a577f4e487b7100000000000000000000000000000000000000000000000000000000600052603260045260246000fd5b60200101907effffffffffffffffffffffffffffffffffffffffffffffffffffffffffffff1916908160001a905350600a85611a969190612be8565b94506119ee565b8093505050505b919050565b60007f01ffc9a7000000000000000000000000000000000000000000000000000000007bffffffffffffffffffffffffffffffffffffffffffffffffffffffff1916827bffffffffffffffffffffffffffffffffffffffffffffffffffffffff1916149050919050565b611b1d8383611d0a565b611b2a6000848484611b73565b611b69576040517f08c379a0000000000000000000000000000000000000000000000000000000008152600401611b609061284d565b60405180910390fd5b505050565b505050565b6000611b948473ffffffffffffffffffffffffffffffffffffffff16611ed8565b15611cfd578373ffffffffffffffffffffffffffffffffffffffff1663150b7a02611bbd61124c565b8786866040518563ffffffff1660e01b8152600401611bdf949392919061279b565b602060405180830381600087803b158015611bf957600080fd5b505af1925050508015611c2a57506040513d601f19601f82011682018060405250810190611c2791906122d5565b60015b611cad573d8060008114611c5a576040519150601f19603f3d011682016040523d82523d6000602084013e611c5f565b606091505b50600081511415611ca5576040517f08c379a0000000000000000000000000000000000000000000000000000000008152600401611c9c9061284d565b60405180910390fd5b805181602001fd5b63150b7a0260e01b7bffffffffffffffffffffffffffffffffffffffffffffffffffffffff1916817bffffffffffffffffffffffffffffffffffffffffffffffffffffffff191614915050611d02565b600190505b949350505050565b600073ffffffffffffffffffffffffffffffffffffffff168273ffffffffffffffffffffffffffffffffffffffff161415611d7a576040517f08c379a0000000000000000000000000000000000000000000000000000000008152600401611d719061296d565b60405180910390fd5b611d83816111e0565b15611dc3576040517f08c379a0000000000000000000000000000000000000000000000000000000008152600401611dba9061286d565b60405180910390fd5b611dcf60008383611b6e565b6001600360008473ffffffffffffffffffffffffffffffffffffffff1673ffffffffffffffffffffffffffffffffffffffff1681526020019081526020016000206000828254611e1f9190612b92565b92505081905550816002600083815260200190815260200160002060006101000a81548173ffffffffffffffffffffffffffffffffffffffff021916908373ffffffffffffffffffffffffffffffffffffffff160217905550808273ffffffffffffffffffffffffffffffffffffffff16600073ffffffffffffffffffffffffffffffffffffffff167fddf252ad1be2c89b69c2b068fc378daa952ba7f163c4a11628f55a4df523b3ef60405160405180910390a45050565b600080823b905060008111915050919050565b828054611ef790612d03565b90600052602060002090601f016020900481019282611f195760008555611f60565b82601f10611f3257805160ff1916838001178555611f60565b82800160010185558215611f60579182015b82811115611f5f578251825591602001919060010190611f44565b5b509050611f6d9190611f71565b5090565b5b80821115611f8a576000816000905550600101611f72565b5090565b6000611fa1611f9c84612aed565b612ac8565b905082815260208101848484011115611fb957600080fd5b611fc4848285612cc1565b509392505050565b6000611fdf611fda84612b1e565b612ac8565b905082815260208101848484011115611ff757600080fd5b612002848285612cc1565b509392505050565b600081359050612019816133cc565b92915050565b60008135905061202e816133e3565b92915050565b600081519050612043816133e3565b92915050565b600081359050612058816133fa565b92915050565b60008151905061206d816133fa565b92915050565b600082601f83011261208457600080fd5b8135612094848260208601611f8e565b91505092915050565b600082601f8301126120ae57600080fd5b81356120be848260208601611fcc565b91505092915050565b6000813590506120d681613411565b92915050565b6000602082840312156120ee57600080fd5b60006120fc8482850161200a565b91505092915050565b6000806040838503121561211857600080fd5b60006121268582860161200a565b92505060206121378582860161200a565b9150509250929050565b60008060006060848603121561215657600080fd5b60006121648682870161200a565b93505060206121758682870161200a565b9250506040612186868287016120c7565b9150509250925092565b600080600080608085870312156121a657600080fd5b60006121b48782880161200a565b94505060206121c58782880161200a565b93505060406121d6878288016120c7565b925050606085013567ffffffffffffffff8111156121f357600080fd5b6121ff87828801612073565b91505092959194509250565b6000806040838503121561221e57600080fd5b600061222c8582860161200a565b925050602061223d8582860161201f565b9150509250929050565b6000806040838503121561225a57600080fd5b60006122688582860161200a565b9250506020612279858286016120c7565b9150509250929050565b60006020828403121561229557600080fd5b60006122a384828501612034565b91505092915050565b6000602082840312156122be57600080fd5b60006122cc84828501612049565b91505092915050565b6000602082840312156122e757600080fd5b60006122f58482850161205e565b91505092915050565b60006020828403121561231057600080fd5b600082013567ffffffffffffffff81111561232a57600080fd5b6123368482850161209d565b91505092915050565b60006020828403121561235157600080fd5b600061235f848285016120c7565b91505092915050565b6000806040838503121561237b57600080fd5b6000612389858286016120c7565b925050602083013567ffffffffffffffff8111156123a657600080fd5b6123b28582860161209d565b9150509250929050565b6123c581612c4d565b82525050565b6123d481612c5f565b82525050565b60006123e582612b4f565b6123ef8185612b65565b93506123ff818560208601612cd0565b61240881612e9c565b840191505092915050565b600061241e82612b5a565b6124288185612b76565b9350612438818560208601612cd0565b61244181612e9c565b840191505092915050565b600061245782612b5a565b6124618185612b87565b9350612471818560208601612cd0565b80840191505092915050565b600061248a603283612b76565b915061249582612ead565b604082019050919050565b60006124ad601c83612b76565b91506124b882612efc565b602082019050919050565b60006124d0602483612b76565b91506124db82612f25565b604082019050919050565b60006124f3601983612b76565b91506124fe82612f74565b602082019050919050565b6000612516602c83612b76565b915061252182612f9d565b604082019050919050565b6000612539603883612b76565b915061254482612fec565b604082019050919050565b600061255c602a83612b76565b91506125678261303b565b604082019050919050565b600061257f602983612b76565b915061258a8261308a565b604082019050919050565b60006125a2602283612b76565b91506125ad826130d9565b604082019050919050565b60006125c5602083612b76565b91506125d082613128565b602082019050919050565b60006125e8602c83612b76565b91506125f382613151565b604082019050919050565b600061260b602c83612b76565b9150612616826131a0565b604082019050919050565b600061262e602283612b76565b9150612639826131ef565b604082019050919050565b6000612651602983612b76565b915061265c8261323e565b604082019050919050565b6000612674602f83612b76565b915061267f8261328d565b604082019050919050565b6000612697601883612b76565b91506126a2826132dc565b602082019050919050565b60006126ba602183612b76565b91506126c582613305565b604082019050919050565b60006126dd603183612b76565b91506126e882613354565b604082019050919050565b6000612700601783612b76565b915061270b826133a3565b602082019050919050565b61271f81612cb7565b82525050565b6000612731828561244c565b915061273d828461244c565b91508190509392505050565b600060208201905061275e60008301846123bc565b92915050565b600060608201905061277960008301866123bc565b61278660208301856123bc565b6127936040830184612716565b949350505050565b60006080820190506127b060008301876123bc565b6127bd60208301866123bc565b6127ca6040830185612716565b81810360608301526127dc81846123da565b905095945050505050565b60006040820190506127fc60008301856123bc565b6128096020830184612716565b9392505050565b600060208201905061282560008301846123cb565b92915050565b600060208201905081810360008301526128458184612413565b905092915050565b600060208201905081810360008301526128668161247d565b9050919050565b60006020820190508181036000830152612886816124a0565b9050919050565b600060208201905081810360008301526128a6816124c3565b9050919050565b600060208201905081810360008301526128c6816124e6565b9050919050565b600060208201905081810360008301526128e681612509565b9050919050565b600060208201905081810360008301526129068161252c565b9050919050565b600060208201905081810360008301526129268161254f565b9050919050565b6000602082019050818103600083015261294681612572565b9050919050565b6000602082019050818103600083015261296681612595565b9050919050565b60006020820190508181036000830152612986816125b8565b9050919050565b600060208201905081810360008301526129a6816125db565b9050919050565b600060208201905081810360008301526129c6816125fe565b9050919050565b600060208201905081810360008301526129e681612621565b9050919050565b60006020820190508181036000830152612a0681612644565b9050919050565b60006020820190508181036000830152612a2681612667565b9050919050565b60006020820190508181036000830152612a468161268a565b9050919050565b60006020820190508181036000830152612a66816126ad565b9050919050565b60006020820190508181036000830152612a86816126d0565b9050919050565b60006020820190508181036000830152612aa6816126f3565b9050919050565b6000602082019050612ac26000830184612716565b92915050565b6000612ad2612ae3565b9050612ade8282612d35565b919050565b6000604051905090565b600067ffffffffffffffff821115612b0857612b07612e6d565b5b612b1182612e9c565b9050602081019050919050565b600067ffffffffffffffff821115612b3957612b38612e6d565b5b612b4282612e9c565b9050602081019050919050565b600081519050919050565b600081519050919050565b600082825260208201905092915050565b600082825260208201905092915050565b600081905092915050565b6000612b9d82612cb7565b9150612ba883612cb7565b9250827fffffffffffffffffffffffffffffffffffffffffffffffffffffffffffffffff03821115612bdd57612bdc612de0565b5b828201905092915050565b6000612bf382612cb7565b9150612bfe83612cb7565b925082612c0e57612c0d612e0f565b5b828204905092915050565b6000612c2482612cb7565b9150612c2f83612cb7565b925082821015612c4257612c41612de0565b5b828203905092915050565b6000612c5882612c97565b9050919050565b60008115159050919050565b60007fffffffff0000000000000000000000000000000000000000000000000000000082169050919050565b600073ffffffffffffffffffffffffffffffffffffffff82169050919050565b6000819050919050565b82818337600083830152505050565b60005b83811015612cee578082015181840152602081019050612cd3565b83811115612cfd576000848401525b50505050565b60006002820490506001821680612d1b57607f821691505b60208210811415612d2f57612d2e612e3e565b5b50919050565b612d3e82612e9c565b810181811067ffffffffffffffff82111715612d5d57612d5c612e6d565b5b80604052505050565b6000612d7182612cb7565b91507fffffffffffffffffffffffffffffffffffffffffffffffffffffffffffffffff821415612da457612da3612de0565b5b600182019050919050565b6000612dba82612cb7565b9150612dc583612cb7565b925082612dd557612dd4612e0f565b5b828206905092915050565b7f4e487b7100000000000000000000000000000000000000000000000000000000600052601160045260246000fd5b7f4e487b7100000000000000000000000000000000000000000000000000000000600052601260045260246000fd5b7f4e487b7100000000000000000000000000000000000000000000000000000000600052602260045260246000fd5b7f4e487b7100000000000000000000000000000000000000000000000000000000600052604160045260246000fd5b6000601f19601f8301169050919050565b7f4552433732313a207472616e7366657220746f206e6f6e20455243373231526560008201527f63656976657220696d706c656d656e7465720000000000000000000000000000602082015250565b7f4552433732313a20746f6b656e20616c7265616479206d696e74656400000000600082015250565b7f4552433732313a207472616e7366657220746f20746865207a65726f2061646460008201527f7265737300000000000000000000000000000000000000000000000000000000602082015250565b7f4552433732313a20617070726f766520746f2063616c6c657200000000000000600082015250565b7f4552433732313a206f70657261746f7220717565727920666f72206e6f6e657860008201527f697374656e7420746f6b656e0000000000000000000000000000000000000000602082015250565b7f4552433732313a20617070726f76652063616c6c6572206973206e6f74206f7760008201527f6e6572206e6f7220617070726f76656420666f7220616c6c0000000000000000602082015250565b7f4552433732313a2062616c616e636520717565727920666f7220746865207a6560008201527f726f206164647265737300000000000000000000000000000000000000000000602082015250565b7f4552433732313a206f776e657220717565727920666f72206e6f6e657869737460008201527f656e7420746f6b656e0000000000000000000000000000000000000000000000602082015250565b7f546f6b656e426173653a2063616c6c6572206973206e6f7420746865206f776e60008201527f6572000000000000000000000000000000000000000000000000000000000000602082015250565b7f4552433732313a206d696e7420746f20746865207a65726f2061646472657373600082015250565b7f4552433732313a20617070726f76656420717565727920666f72206e6f6e657860008201527f697374656e7420746f6b656e0000000000000000000000000000000000000000602082015250565b7f4552433732314d657461646174613a2055524920736574206f66206e6f6e657860008201527f697374656e7420746f6b656e0000000000000000000000000000000000000000602082015250565b7f546f6b656e426173653a20746f6b656e2069642063616e6e6f74206265207a6560008201527f726f000000000000000000000000000000000000000000000000000000000000602082015250565b7f4552433732313a207472616e73666572206f6620746f6b656e2074686174206960008201527f73206e6f74206f776e0000000000000000000000000000000000000000000000602082015250565b7f4552433732314d657461646174613a2055524920717565727920666f72206e6f60008201527f6e6578697374656e7420746f6b656e0000000000000000000000000000000000602082015250565b7f546f6b656e426173653a206e6f7420746865206f776e65720000000000000000600082015250565b7f4552433732313a20617070726f76616c20746f2063757272656e74206f776e6560008201527f7200000000000000000000000000000000000000000000000000000000000000602082015250565b7f4552433732313a207472616e736665722063616c6c6572206973206e6f74206f60008201527f776e6572206e6f7220617070726f766564000000000000000000000000000000602082015250565b7f45524332303a207472616e73666572206661696c65642e000000000000000000600082015250565b6133d581612c4d565b81146133e057600080fd5b50565b6133ec81612c5f565b81146133f757600080fd5b50565b61340381612c6b565b811461340e57600080fd5b50565b61341a81612cb7565b811461342557600080fd5b5056fea26469706673582212206e2d0ef64abc85a37f9e8b37bebee5c6b497aaf3505a21bffa26f25b42873bf264736f6c63430008040033",
  "linkReferences": {},
  "deployedLinkReferences": {}
}