{
  "_format": "hh-sol-artifact-1",
  "contractName": "TokenBase",
  "sourceName": "contracts/TokenBase.sol",
  "abi": [
    {
      "inputs": [
        {
          "internalType": "string",
          "name": "_name",
          "type": "string"
        },
        {
          "internalType": "string",
          "name": "_symbol",
          "type": "string"
        },
        {
          "internalType": "string",
          "name": "_bURI",
          "type": "string"
        },
        {
          "internalType": "address",
          "name": "_erc20",
          "type": "address"
        },
        {
          "internalType": "uint256",
          "name": "_rate",
          "type": "uint256"
        }
      ],
      "stateMutability": "nonpayable",
      "type": "constructor"
    },
    {
      "anonymous": false,
      "inputs": [
        {
          "indexed": true,
          "internalType": "address",
          "name": "owner",
          "type": "address"
        },
        {
          "indexed": true,
          "internalType": "address",
          "name": "approved",
          "type": "address"
        },
        {
          "indexed": true,
          "internalType": "uint256",
          "name": "tokenId",
          "type": "uint256"
        }
      ],
      "name": "Approval",
      "type": "event"
    },
    {
      "anonymous": false,
      "inputs": [
        {
          "indexed": true,
          "internalType": "address",
          "name": "owner",
          "type": "address"
        },
        {
          "indexed": true,
          "internalType": "address",
          "name": "operator",
          "type": "address"
        },
        {
          "indexed": false,
          "internalType": "bool",
          "name": "approved",
          "type": "bool"
        }
      ],
      "name": "ApprovalForAll",
      "type": "event"
    },
    {
      "anonymous": false,
      "inputs": [
        {
          "indexed": true,
          "internalType": "address",
          "name": "from",
          "type": "address"
        },
        {
          "indexed": true,
          "internalType": "uint256",
          "name": "tokenId",
          "type": "uint256"
        }
      ],
      "name": "Burn",
      "type": "event"
    },
    {
      "anonymous": false,
      "inputs": [
        {
          "indexed": true,
          "internalType": "address",
          "name": "from",
          "type": "address"
        },
        {
          "indexed": true,
          "internalType": "uint256",
          "name": "tokenId",
          "type": "uint256"
        }
      ],
      "name": "Mint",
      "type": "event"
    },
    {
      "anonymous": false,
      "inputs": [
        {
          "indexed": true,
          "internalType": "address",
          "name": "from",
          "type": "address"
        },
        {
          "indexed": true,
          "internalType": "address",
          "name": "to",
          "type": "address"
        },
        {
          "indexed": true,
          "internalType": "uint256",
          "name": "tokenId",
          "type": "uint256"
        }
      ],
      "name": "Transfer",
      "type": "event"
    },
    {
      "inputs": [
        {
          "internalType": "address",
          "name": "to",
          "type": "address"
        },
        {
          "internalType": "uint256",
          "name": "tokenId",
          "type": "uint256"
        }
      ],
      "name": "approve",
      "outputs": [],
      "stateMutability": "nonpayable",
      "type": "function"
    },
    {
      "inputs": [
        {
          "internalType": "address",
          "name": "owner",
          "type": "address"
        }
      ],
      "name": "balanceOf",
      "outputs": [
        {
          "internalType": "uint256",
          "name": "",
          "type": "uint256"
        }
      ],
      "stateMutability": "view",
      "type": "function"
    },
    {
      "inputs": [
        {
          "internalType": "uint256",
          "name": "tokenId",
          "type": "uint256"
        }
      ],
      "name": "burn",
      "outputs": [],
      "stateMutability": "nonpayable",
      "type": "function"
    },
    {
      "inputs": [],
      "name": "erc20",
      "outputs": [
        {
          "internalType": "address",
          "name": "",
          "type": "address"
        }
      ],
      "stateMutability": "view",
      "type": "function"
    },
    {
      "inputs": [
        {
          "internalType": "uint256",
          "name": "tokenId",
          "type": "uint256"
        }
      ],
      "name": "getApproved",
      "outputs": [
        {
          "internalType": "address",
          "name": "",
          "type": "address"
        }
      ],
      "stateMutability": "view",
      "type": "function"
    },
    {
      "inputs": [
        {
          "internalType": "address",
          "name": "owner",
          "type": "address"
        },
        {
          "internalType": "address",
          "name": "operator",
          "type": "address"
        }
      ],
      "name": "isApprovedForAll",
      "outputs": [
        {
          "internalType": "bool",
          "name": "",
          "type": "bool"
        }
      ],
      "stateMutability": "view",
      "type": "function"
    },
    {
      "inputs": [],
      "name": "mint",
      "outputs": [
        {
          "internalType": "uint256",
          "name": "tokenId",
          "type": "uint256"
        }
      ],
      "stateMutability": "nonpayable",
      "type": "function"
    },
    {
      "inputs": [],
      "name": "name",
      "outputs": [
        {
          "internalType": "string",
          "name": "",
          "type": "string"
        }
      ],
      "stateMutability": "view",
      "type": "function"
    },
    {
      "inputs": [],
      "name": "owner",
      "outputs": [
        {
          "internalType": "address",
          "name": "",
          "type": "address"
        }
      ],
      "stateMutability": "view",
      "type": "function"
    },
    {
      "inputs": [
        {
          "internalType": "uint256",
          "name": "tokenId",
          "type": "uint256"
        }
      ],
      "name": "ownerOf",
      "outputs": [
        {
          "internalType": "address",
          "name": "",
          "type": "address"
        }
      ],
      "stateMutability": "view",
      "type": "function"
    },
    {
      "inputs": [],
      "name": "rate",
      "outputs": [
        {
          "internalType": "uint256",
          "name": "",
          "type": "uint256"
        }
      ],
      "stateMutability": "view",
      "type": "function"
    },
    {
      "inputs": [
        {
          "internalType": "address",
          "name": "from",
          "type": "address"
        },
        {
          "internalType": "address",
          "name": "to",
          "type": "address"
        },
        {
          "internalType": "uint256",
          "name": "tokenId",
          "type": "uint256"
        }
      ],
      "name": "safeTransferFrom",
      "outputs": [],
      "stateMutability": "nonpayable",
      "type": "function"
    },
    {
      "inputs": [
        {
          "internalType": "address",
          "name": "from",
          "type": "address"
        },
        {
          "internalType": "address",
          "name": "to",
          "type": "address"
        },
        {
          "internalType": "uint256",
          "name": "tokenId",
          "type": "uint256"
        },
        {
          "internalType": "bytes",
          "name": "_data",
          "type": "bytes"
        }
      ],
      "name": "safeTransferFrom",
      "outputs": [],
      "stateMutability": "nonpayable",
      "type": "function"
    },
    {
      "inputs": [
        {
          "internalType": "address",
          "name": "operator",
          "type": "address"
        },
        {
          "internalType": "bool",
          "name": "approved",
          "type": "bool"
        }
      ],
      "name": "setApprovalForAll",
      "outputs": [],
      "stateMutability": "nonpayable",
      "type": "function"
    },
    {
      "inputs": [
        {
          "internalType": "string",
          "name": "baseURI_",
          "type": "string"
        }
      ],
      "name": "setBaseURI",
      "outputs": [],
      "stateMutability": "nonpayable",
      "type": "function"
    },
    {
      "inputs": [
        {
          "internalType": "uint256",
          "name": "tokenId",
          "type": "uint256"
        },
        {
          "internalType": "string",
          "name": "_tokenURI",
          "type": "string"
        }
      ],
      "name": "setTokenURI",
      "outputs": [],
      "stateMutability": "nonpayable",
      "type": "function"
    },
    {
      "inputs": [
        {
          "internalType": "bytes4",
          "name": "interfaceId",
          "type": "bytes4"
        }
      ],
      "name": "supportsInterface",
      "outputs": [
        {
          "internalType": "bool",
          "name": "",
          "type": "bool"
        }
      ],
      "stateMutability": "view",
      "type": "function"
    },
    {
      "inputs": [],
      "name": "symbol",
      "outputs": [
        {
          "internalType": "string",
          "name": "",
          "type": "string"
        }
      ],
      "stateMutability": "view",
      "type": "function"
    },
    {
      "inputs": [
        {
          "internalType": "uint256",
          "name": "tokenId",
          "type": "uint256"
        }
      ],
      "name": "tokenURI",
      "outputs": [
        {
          "internalType": "string",
          "name": "",
          "type": "string"
        }
      ],
      "stateMutability": "view",
      "type": "function"
    },
    {
      "inputs": [
        {
          "internalType": "address",
          "name": "from",
          "type": "address"
        },
        {
          "internalType": "address",
          "name": "to",
          "type": "address"
        },
        {
          "internalType": "uint256",
          "name": "tokenId",
          "type": "uint256"
        }
      ],
      "name": "transferFrom",
      "outputs": [],
      "stateMutability": "nonpayable",
      "type": "function"
    }
  ],
  "bytecode": "0x608060405260405180602001604052806001815250600b6000820151816000015550503480156200002f57600080fd5b5060405162003e6938038062003e69833981810160405281019062000055919062000288565b848481600090805190602001906200006f92919062000138565b5080600190805190602001906200008892919062000138565b50505032600660006101000a81548173ffffffffffffffffffffffffffffffffffffffff021916908373ffffffffffffffffffffffffffffffffffffffff16021790555082600a9080519060200190620000e492919062000138565b5081600760006101000a81548173ffffffffffffffffffffffffffffffffffffffff021916908373ffffffffffffffffffffffffffffffffffffffff16021790555080600881905550505050505062000537565b828054620001469062000428565b90600052602060002090601f0160209004810192826200016a5760008555620001b6565b82601f106200018557805160ff1916838001178555620001b6565b82800160010185558215620001b6579182015b82811115620001b557825182559160200191906001019062000198565b5b509050620001c59190620001c9565b5090565b5b80821115620001e4576000816000905550600101620001ca565b5090565b6000620001ff620001f9846200037e565b62000355565b9050828152602081018484840111156200021857600080fd5b62000225848285620003f2565b509392505050565b6000815190506200023e8162000503565b92915050565b600082601f8301126200025657600080fd5b815162000268848260208601620001e8565b91505092915050565b60008151905062000282816200051d565b92915050565b600080600080600060a08688031215620002a157600080fd5b600086015167ffffffffffffffff811115620002bc57600080fd5b620002ca8882890162000244565b955050602086015167ffffffffffffffff811115620002e857600080fd5b620002f68882890162000244565b945050604086015167ffffffffffffffff8111156200031457600080fd5b620003228882890162000244565b935050606062000335888289016200022d565b9250506080620003488882890162000271565b9150509295509295909350565b60006200036162000374565b90506200036f82826200045e565b919050565b6000604051905090565b600067ffffffffffffffff8211156200039c576200039b620004c3565b5b620003a782620004f2565b9050602081019050919050565b6000620003c182620003c8565b9050919050565b600073ffffffffffffffffffffffffffffffffffffffff82169050919050565b6000819050919050565b60005b8381101562000412578082015181840152602081019050620003f5565b8381111562000422576000848401525b50505050565b600060028204905060018216806200044157607f821691505b6020821081141562000458576200045762000494565b5b50919050565b6200046982620004f2565b810181811067ffffffffffffffff821117156200048b576200048a620004c3565b5b80604052505050565b7f4e487b7100000000000000000000000000000000000000000000000000000000600052602260045260246000fd5b7f4e487b7100000000000000000000000000000000000000000000000000000000600052604160045260246000fd5b6000601f19601f8301169050919050565b6200050e81620003b4565b81146200051a57600080fd5b50565b6200052881620003e8565b81146200053457600080fd5b50565b61392280620005476000396000f3fe608060405234801561001057600080fd5b506004361061012c5760003560e01c806355f804b3116100ad57806395d89b411161007157806395d89b411461032f578063a22cb4651461034d578063b88d4fde14610369578063c87b56dd14610385578063e985e9c5146103b55761012c565b806355f804b3146102775780636352211e1461029357806370a08231146102c3578063785e9e86146102f35780638da5cb5b146103115761012c565b8063162094c4116100f4578063162094c4146101e957806323b872dd146102055780632c4e722e1461022157806342842e0e1461023f57806342966c681461025b5761012c565b806301ffc9a71461013157806306fdde0314610161578063081812fc1461017f578063095ea7b3146101af5780631249c58b146101cb575b600080fd5b61014b60048036038101906101469190612567565b6103e5565b6040516101589190612b7c565b60405180910390f35b6101696103f7565b6040516101769190612b97565b60405180910390f35b610199600480360381019061019491906125fa565b610489565b6040516101a69190612ab5565b60405180910390f35b6101c960048036038101906101c49190612502565b61050e565b005b6101d3610626565b6040516101e09190612e79565b60405180910390f35b61020360048036038101906101fe9190612623565b6106f5565b005b61021f600480360381019061021a91906123fc565b61079a565b005b6102296107fa565b6040516102369190612e79565b60405180910390f35b610259600480360381019061025491906123fc565b610800565b005b610275600480360381019061027091906125fa565b610820565b005b610291600480360381019061028c91906125b9565b610911565b005b6102ad60048036038101906102a891906125fa565b6109c2565b6040516102ba9190612ab5565b60405180910390f35b6102dd60048036038101906102d89190612397565b610a74565b6040516102ea9190612e79565b60405180910390f35b6102fb610b2c565b6040516103089190612ab5565b60405180910390f35b610319610b52565b6040516103269190612ab5565b60405180910390f35b610337610b78565b6040516103449190612b97565b60405180910390f35b610367600480360381019061036291906124c6565b610c0a565b005b610383600480360381019061037e919061244b565b610d8b565b005b61039f600480360381019061039a91906125fa565b610ded565b6040516103ac9190612b97565b60405180910390f35b6103cf60048036038101906103ca91906123c0565b610f60565b6040516103dc9190612b7c565b60405180910390f35b60006103f082610ff4565b9050919050565b606060008054610406906130da565b80601f0160208091040260200160405190810160405280929190818152602001828054610432906130da565b801561047f5780601f106104545761010080835404028352916020019161047f565b820191906000526020600020905b81548152906001019060200180831161046257829003601f168201915b5050505050905090565b6000610494826110d6565b6104d3576040517f08c379a00000000000000000000000000000000000000000000000000000000081526004016104ca90612d19565b60405180910390fd5b6004600083815260200190815260200160002060009054906101000a900473ffffffffffffffffffffffffffffffffffffffff169050919050565b6000610519826109c2565b90508073ffffffffffffffffffffffffffffffffffffffff168373ffffffffffffffffffffffffffffffffffffffff16141561058a576040517f08c379a000000000000000000000000000000000000000000000000000000000815260040161058190612dd9565b60405180910390fd5b8073ffffffffffffffffffffffffffffffffffffffff166105a9611142565b73ffffffffffffffffffffffffffffffffffffffff1614806105d857506105d7816105d2611142565b610f60565b5b610617576040517f08c379a000000000000000000000000000000000000000000000000000000000815260040161060e90612c79565b60405180910390fd5b610621838361114a565b505050565b6000610632600b611203565b905061068c61063f611142565b30600854600760009054906101000a900473ffffffffffffffffffffffffffffffffffffffff1673ffffffffffffffffffffffffffffffffffffffff16611211909392919063ffffffff16565b61069d610697611142565b8261129a565b806106a6611142565b73ffffffffffffffffffffffffffffffffffffffff167f0f6798a560793a54c3bcfe86a93cde1e73087d944c0ea20544137d412139688560405160405180910390a36106f2600b6112b8565b90565b6106fd611142565b73ffffffffffffffffffffffffffffffffffffffff16600660009054906101000a900473ffffffffffffffffffffffffffffffffffffffff1673ffffffffffffffffffffffffffffffffffffffff161461078c576040517f08c379a000000000000000000000000000000000000000000000000000000000815260040161078390612cd9565b60405180910390fd5b61079682826112ce565b5050565b6107ab6107a5611142565b82611342565b6107ea576040517f08c379a00000000000000000000000000000000000000000000000000000000081526004016107e190612df9565b60405180910390fd5b6107f5838383611420565b505050565b60085481565b61081b83838360405180602001604052806000815250610d8b565b505050565b6000811415610864576040517f08c379a000000000000000000000000000000000000000000000000000000000815260040161085b90612d59565b60405180910390fd5b61086d8161167c565b6108c3610878611142565b600854600760009054906101000a900473ffffffffffffffffffffffffffffffffffffffff1673ffffffffffffffffffffffffffffffffffffffff166116d89092919063ffffffff16565b806108cc611142565b73ffffffffffffffffffffffffffffffffffffffff167fcc16f5dbb4873280815c1ee09dbd06736cffcc184412cf7a71a0fdb75d397ca560405160405180910390a350565b610919611142565b73ffffffffffffffffffffffffffffffffffffffff16600660009054906101000a900473ffffffffffffffffffffffffffffffffffffffff1673ffffffffffffffffffffffffffffffffffffffff16146109a8576040517f08c379a000000000000000000000000000000000000000000000000000000000815260040161099f90612db9565b60405180910390fd5b80600a90805190602001906109be9291906121a6565b5050565b6000806002600084815260200190815260200160002060009054906101000a900473ffffffffffffffffffffffffffffffffffffffff169050600073ffffffffffffffffffffffffffffffffffffffff168173ffffffffffffffffffffffffffffffffffffffff161415610a6b576040517f08c379a0000000000000000000000000000000000000000000000000000000008152600401610a6290612cb9565b60405180910390fd5b80915050919050565b60008073ffffffffffffffffffffffffffffffffffffffff168273ffffffffffffffffffffffffffffffffffffffff161415610ae5576040517f08c379a0000000000000000000000000000000000000000000000000000000008152600401610adc90612c99565b60405180910390fd5b600360008373ffffffffffffffffffffffffffffffffffffffff1673ffffffffffffffffffffffffffffffffffffffff168152602001908152602001600020549050919050565b600760009054906101000a900473ffffffffffffffffffffffffffffffffffffffff1681565b600660009054906101000a900473ffffffffffffffffffffffffffffffffffffffff1681565b606060018054610b87906130da565b80601f0160208091040260200160405190810160405280929190818152602001828054610bb3906130da565b8015610c005780601f10610bd557610100808354040283529160200191610c00565b820191906000526020600020905b815481529060010190602001808311610be357829003601f168201915b5050505050905090565b610c12611142565b73ffffffffffffffffffffffffffffffffffffffff168273ffffffffffffffffffffffffffffffffffffffff161415610c80576040517f08c379a0000000000000000000000000000000000000000000000000000000008152600401610c7790612c19565b60405180910390fd5b8060056000610c8d611142565b73ffffffffffffffffffffffffffffffffffffffff1673ffffffffffffffffffffffffffffffffffffffff16815260200190815260200160002060008473ffffffffffffffffffffffffffffffffffffffff1673ffffffffffffffffffffffffffffffffffffffff16815260200190815260200160002060006101000a81548160ff0219169083151502179055508173ffffffffffffffffffffffffffffffffffffffff16610d3a611142565b73ffffffffffffffffffffffffffffffffffffffff167f17307eab39ab6107e8899845ad3d59bd9653f200f220920489ca2b5937696c3183604051610d7f9190612b7c565b60405180910390a35050565b610d9c610d96611142565b83611342565b610ddb576040517f08c379a0000000000000000000000000000000000000000000000000000000008152600401610dd290612df9565b60405180910390fd5b610de78484848461175e565b50505050565b6060610df8826110d6565b610e37576040517f08c379a0000000000000000000000000000000000000000000000000000000008152600401610e2e90612d99565b60405180910390fd5b6000600960008481526020019081526020016000208054610e57906130da565b80601f0160208091040260200160405190810160405280929190818152602001828054610e83906130da565b8015610ed05780601f10610ea557610100808354040283529160200191610ed0565b820191906000526020600020905b815481529060010190602001808311610eb357829003601f168201915b505050505090506000610ee16117ba565b9050600081511415610ef7578192505050610f5b565b600082511115610f2c578082604051602001610f14929190612a91565b60405160208183030381529060405292505050610f5b565b80610f368561184c565b604051602001610f47929190612a91565b604051602081830303815290604052925050505b919050565b6000600560008473ffffffffffffffffffffffffffffffffffffffff1673ffffffffffffffffffffffffffffffffffffffff16815260200190815260200160002060008373ffffffffffffffffffffffffffffffffffffffff1673ffffffffffffffffffffffffffffffffffffffff16815260200190815260200160002060009054906101000a900460ff16905092915050565b60007f80ac58cd000000000000000000000000000000000000000000000000000000007bffffffffffffffffffffffffffffffffffffffffffffffffffffffff1916827bffffffffffffffffffffffffffffffffffffffffffffffffffffffff191614806110bf57507f5b5e139f000000000000000000000000000000000000000000000000000000007bffffffffffffffffffffffffffffffffffffffffffffffffffffffff1916827bffffffffffffffffffffffffffffffffffffffffffffffffffffffff1916145b806110cf57506110ce826119f9565b5b9050919050565b60008073ffffffffffffffffffffffffffffffffffffffff166002600084815260200190815260200160002060009054906101000a900473ffffffffffffffffffffffffffffffffffffffff1673ffffffffffffffffffffffffffffffffffffffff1614159050919050565b600033905090565b816004600083815260200190815260200160002060006101000a81548173ffffffffffffffffffffffffffffffffffffffff021916908373ffffffffffffffffffffffffffffffffffffffff160217905550808273ffffffffffffffffffffffffffffffffffffffff166111bd836109c2565b73ffffffffffffffffffffffffffffffffffffffff167f8c5be1e5ebec7d5bd14f71427d1e84f3dd0314c0f7b2291e5b200ac8c7c3b92560405160405180910390a45050565b600081600001549050919050565b611294846323b872dd60e01b85858560405160240161123293929190612ad0565b604051602081830303815290604052907bffffffffffffffffffffffffffffffffffffffffffffffffffffffff19166020820180517bffffffffffffffffffffffffffffffffffffffffffffffffffffffff8381831617835250505050611a63565b50505050565b6112b4828260405180602001604052806000815250611b2a565b5050565b6001816000016000828254019250508190555050565b6112d7826110d6565b611316576040517f08c379a000000000000000000000000000000000000000000000000000000000815260040161130d90612d39565b60405180910390fd5b8060096000848152602001908152602001600020908051906020019061133d9291906121a6565b505050565b600061134d826110d6565b61138c576040517f08c379a000000000000000000000000000000000000000000000000000000000815260040161138390612c59565b60405180910390fd5b6000611397836109c2565b90508073ffffffffffffffffffffffffffffffffffffffff168473ffffffffffffffffffffffffffffffffffffffff16148061140657508373ffffffffffffffffffffffffffffffffffffffff166113ee84610489565b73ffffffffffffffffffffffffffffffffffffffff16145b8061141757506114168185610f60565b5b91505092915050565b8273ffffffffffffffffffffffffffffffffffffffff16611440826109c2565b73ffffffffffffffffffffffffffffffffffffffff1614611496576040517f08c379a000000000000000000000000000000000000000000000000000000000815260040161148d90612d79565b60405180910390fd5b600073ffffffffffffffffffffffffffffffffffffffff168273ffffffffffffffffffffffffffffffffffffffff161415611506576040517f08c379a00000000000000000000000000000000000000000000000000000000081526004016114fd90612bf9565b60405180910390fd5b611511838383611b85565b61151c60008261114a565b6001600360008573ffffffffffffffffffffffffffffffffffffffff1673ffffffffffffffffffffffffffffffffffffffff168152602001908152602001600020600082825461156c9190612ff0565b925050819055506001600360008473ffffffffffffffffffffffffffffffffffffffff1673ffffffffffffffffffffffffffffffffffffffff16815260200190815260200160002060008282546115c39190612f69565b92505081905550816002600083815260200190815260200160002060006101000a81548173ffffffffffffffffffffffffffffffffffffffff021916908373ffffffffffffffffffffffffffffffffffffffff160217905550808273ffffffffffffffffffffffffffffffffffffffff168473ffffffffffffffffffffffffffffffffffffffff167fddf252ad1be2c89b69c2b068fc378daa952ba7f163c4a11628f55a4df523b3ef60405160405180910390a4505050565b61168d611687611142565b82611342565b6116cc576040517f08c379a00000000000000000000000000000000000000000000000000000000081526004016116c390612e59565b60405180910390fd5b6116d581611b8a565b50565b6117598363a9059cbb60e01b84846040516024016116f7929190612b53565b604051602081830303815290604052907bffffffffffffffffffffffffffffffffffffffffffffffffffffffff19166020820180517bffffffffffffffffffffffffffffffffffffffffffffffffffffffff8381831617835250505050611a63565b505050565b611769848484611420565b61177584848484611c9b565b6117b4576040517f08c379a00000000000000000000000000000000000000000000000000000000081526004016117ab90612bb9565b60405180910390fd5b50505050565b6060600a80546117c9906130da565b80601f01602080910402602001604051908101604052809291908181526020018280546117f5906130da565b80156118425780601f1061181757610100808354040283529160200191611842565b820191906000526020600020905b81548152906001019060200180831161182557829003601f168201915b5050505050905090565b60606000821415611894576040518060400160405280600181526020017f300000000000000000000000000000000000000000000000000000000000000081525090506119f4565b600082905060005b600082146118c65780806118af9061313d565b915050600a826118bf9190612fbf565b915061189c565b60008167ffffffffffffffff811115611908577f4e487b7100000000000000000000000000000000000000000000000000000000600052604160045260246000fd5b6040519080825280601f01601f19166020018201604052801561193a5781602001600182028036833780820191505090505b5090505b600085146119ed576001826119539190612ff0565b9150600a856119629190613186565b603061196e9190612f69565b60f81b8183815181106119aa577f4e487b7100000000000000000000000000000000000000000000000000000000600052603260045260246000fd5b60200101907effffffffffffffffffffffffffffffffffffffffffffffffffffffffffffff1916908160001a905350600a856119e69190612fbf565b945061193e565b8093505050505b919050565b60007f01ffc9a7000000000000000000000000000000000000000000000000000000007bffffffffffffffffffffffffffffffffffffffffffffffffffffffff1916827bffffffffffffffffffffffffffffffffffffffffffffffffffffffff1916149050919050565b6000611ac5826040518060400160405280602081526020017f5361666545524332303a206c6f772d6c6576656c2063616c6c206661696c65648152508573ffffffffffffffffffffffffffffffffffffffff16611e329092919063ffffffff16565b9050600081511115611b255780806020019051810190611ae5919061253e565b611b24576040517f08c379a0000000000000000000000000000000000000000000000000000000008152600401611b1b90612e39565b60405180910390fd5b5b505050565b611b348383611e4a565b611b416000848484611c9b565b611b80576040517f08c379a0000000000000000000000000000000000000000000000000000000008152600401611b7790612bb9565b60405180910390fd5b505050565b505050565b6000611b95826109c2565b9050611ba381600084611b85565b611bae60008361114a565b6001600360008373ffffffffffffffffffffffffffffffffffffffff1673ffffffffffffffffffffffffffffffffffffffff1681526020019081526020016000206000828254611bfe9190612ff0565b925050819055506002600083815260200190815260200160002060006101000a81549073ffffffffffffffffffffffffffffffffffffffff021916905581600073ffffffffffffffffffffffffffffffffffffffff168273ffffffffffffffffffffffffffffffffffffffff167fddf252ad1be2c89b69c2b068fc378daa952ba7f163c4a11628f55a4df523b3ef60405160405180910390a45050565b6000611cbc8473ffffffffffffffffffffffffffffffffffffffff16612018565b15611e25578373ffffffffffffffffffffffffffffffffffffffff1663150b7a02611ce5611142565b8786866040518563ffffffff1660e01b8152600401611d079493929190612b07565b602060405180830381600087803b158015611d2157600080fd5b505af1925050508015611d5257506040513d601f19601f82011682018060405250810190611d4f9190612590565b60015b611dd5573d8060008114611d82576040519150601f19603f3d011682016040523d82523d6000602084013e611d87565b606091505b50600081511415611dcd576040517f08c379a0000000000000000000000000000000000000000000000000000000008152600401611dc490612bb9565b60405180910390fd5b805181602001fd5b63150b7a0260e01b7bffffffffffffffffffffffffffffffffffffffffffffffffffffffff1916817bffffffffffffffffffffffffffffffffffffffffffffffffffffffff191614915050611e2a565b600190505b949350505050565b6060611e41848460008561202b565b90509392505050565b600073ffffffffffffffffffffffffffffffffffffffff168273ffffffffffffffffffffffffffffffffffffffff161415611eba576040517f08c379a0000000000000000000000000000000000000000000000000000000008152600401611eb190612cf9565b60405180910390fd5b611ec3816110d6565b15611f03576040517f08c379a0000000000000000000000000000000000000000000000000000000008152600401611efa90612bd9565b60405180910390fd5b611f0f60008383611b85565b6001600360008473ffffffffffffffffffffffffffffffffffffffff1673ffffffffffffffffffffffffffffffffffffffff1681526020019081526020016000206000828254611f5f9190612f69565b92505081905550816002600083815260200190815260200160002060006101000a81548173ffffffffffffffffffffffffffffffffffffffff021916908373ffffffffffffffffffffffffffffffffffffffff160217905550808273ffffffffffffffffffffffffffffffffffffffff16600073ffffffffffffffffffffffffffffffffffffffff167fddf252ad1be2c89b69c2b068fc378daa952ba7f163c4a11628f55a4df523b3ef60405160405180910390a45050565b600080823b905060008111915050919050565b606082471015612070576040517f08c379a000000000000000000000000000000000000000000000000000000000815260040161206790612c39565b60405180910390fd5b61207985612018565b6120b8576040517f08c379a00000000000000000000000000000000000000000000000000000000081526004016120af90612e19565b60405180910390fd5b6000808673ffffffffffffffffffffffffffffffffffffffff1685876040516120e19190612a7a565b60006040518083038185875af1925050503d806000811461211e576040519150601f19603f3d011682016040523d82523d6000602084013e612123565b606091505b509150915061213382828661213f565b92505050949350505050565b6060831561214f5782905061219f565b6000835111156121625782518084602001fd5b816040517f08c379a00000000000000000000000000000000000000000000000000000000081526004016121969190612b97565b60405180910390fd5b9392505050565b8280546121b2906130da565b90600052602060002090601f0160209004810192826121d4576000855561221b565b82601f106121ed57805160ff191683800117855561221b565b8280016001018555821561221b579182015b8281111561221a5782518255916020019190600101906121ff565b5b509050612228919061222c565b5090565b5b8082111561224557600081600090555060010161222d565b5090565b600061225c61225784612eb9565b612e94565b90508281526020810184848401111561227457600080fd5b61227f848285613098565b509392505050565b600061229a61229584612eea565b612e94565b9050828152602081018484840111156122b257600080fd5b6122bd848285613098565b509392505050565b6000813590506122d481613890565b92915050565b6000813590506122e9816138a7565b92915050565b6000815190506122fe816138a7565b92915050565b600081359050612313816138be565b92915050565b600081519050612328816138be565b92915050565b600082601f83011261233f57600080fd5b813561234f848260208601612249565b91505092915050565b600082601f83011261236957600080fd5b8135612379848260208601612287565b91505092915050565b600081359050612391816138d5565b92915050565b6000602082840312156123a957600080fd5b60006123b7848285016122c5565b91505092915050565b600080604083850312156123d357600080fd5b60006123e1858286016122c5565b92505060206123f2858286016122c5565b9150509250929050565b60008060006060848603121561241157600080fd5b600061241f868287016122c5565b9350506020612430868287016122c5565b925050604061244186828701612382565b9150509250925092565b6000806000806080858703121561246157600080fd5b600061246f878288016122c5565b9450506020612480878288016122c5565b935050604061249187828801612382565b925050606085013567ffffffffffffffff8111156124ae57600080fd5b6124ba8782880161232e565b91505092959194509250565b600080604083850312156124d957600080fd5b60006124e7858286016122c5565b92505060206124f8858286016122da565b9150509250929050565b6000806040838503121561251557600080fd5b6000612523858286016122c5565b925050602061253485828601612382565b9150509250929050565b60006020828403121561255057600080fd5b600061255e848285016122ef565b91505092915050565b60006020828403121561257957600080fd5b600061258784828501612304565b91505092915050565b6000602082840312156125a257600080fd5b60006125b084828501612319565b91505092915050565b6000602082840312156125cb57600080fd5b600082013567ffffffffffffffff8111156125e557600080fd5b6125f184828501612358565b91505092915050565b60006020828403121561260c57600080fd5b600061261a84828501612382565b91505092915050565b6000806040838503121561263657600080fd5b600061264485828601612382565b925050602083013567ffffffffffffffff81111561266157600080fd5b61266d85828601612358565b9150509250929050565b61268081613024565b82525050565b61268f81613036565b82525050565b60006126a082612f1b565b6126aa8185612f31565b93506126ba8185602086016130a7565b6126c381613273565b840191505092915050565b60006126d982612f1b565b6126e38185612f42565b93506126f38185602086016130a7565b80840191505092915050565b600061270a82612f26565b6127148185612f4d565b93506127248185602086016130a7565b61272d81613273565b840191505092915050565b600061274382612f26565b61274d8185612f5e565b935061275d8185602086016130a7565b80840191505092915050565b6000612776603283612f4d565b915061278182613284565b604082019050919050565b6000612799601c83612f4d565b91506127a4826132d3565b602082019050919050565b60006127bc602483612f4d565b91506127c7826132fc565b604082019050919050565b60006127df601983612f4d565b91506127ea8261334b565b602082019050919050565b6000612802602683612f4d565b915061280d82613374565b604082019050919050565b6000612825602c83612f4d565b9150612830826133c3565b604082019050919050565b6000612848603883612f4d565b915061285382613412565b604082019050919050565b600061286b602a83612f4d565b915061287682613461565b604082019050919050565b600061288e602983612f4d565b9150612899826134b0565b604082019050919050565b60006128b1602283612f4d565b91506128bc826134ff565b604082019050919050565b60006128d4602083612f4d565b91506128df8261354e565b602082019050919050565b60006128f7602c83612f4d565b915061290282613577565b604082019050919050565b600061291a602c83612f4d565b9150612925826135c6565b604082019050919050565b600061293d602283612f4d565b915061294882613615565b604082019050919050565b6000612960602983612f4d565b915061296b82613664565b604082019050919050565b6000612983602f83612f4d565b915061298e826136b3565b604082019050919050565b60006129a6601883612f4d565b91506129b182613702565b602082019050919050565b60006129c9602183612f4d565b91506129d48261372b565b604082019050919050565b60006129ec603183612f4d565b91506129f78261377a565b604082019050919050565b6000612a0f601d83612f4d565b9150612a1a826137c9565b602082019050919050565b6000612a32602a83612f4d565b9150612a3d826137f2565b604082019050919050565b6000612a55603083612f4d565b9150612a6082613841565b604082019050919050565b612a748161308e565b82525050565b6000612a8682846126ce565b915081905092915050565b6000612a9d8285612738565b9150612aa98284612738565b91508190509392505050565b6000602082019050612aca6000830184612677565b92915050565b6000606082019050612ae56000830186612677565b612af26020830185612677565b612aff6040830184612a6b565b949350505050565b6000608082019050612b1c6000830187612677565b612b296020830186612677565b612b366040830185612a6b565b8181036060830152612b488184612695565b905095945050505050565b6000604082019050612b686000830185612677565b612b756020830184612a6b565b9392505050565b6000602082019050612b916000830184612686565b92915050565b60006020820190508181036000830152612bb181846126ff565b905092915050565b60006020820190508181036000830152612bd281612769565b9050919050565b60006020820190508181036000830152612bf28161278c565b9050919050565b60006020820190508181036000830152612c12816127af565b9050919050565b60006020820190508181036000830152612c32816127d2565b9050919050565b60006020820190508181036000830152612c52816127f5565b9050919050565b60006020820190508181036000830152612c7281612818565b9050919050565b60006020820190508181036000830152612c928161283b565b9050919050565b60006020820190508181036000830152612cb28161285e565b9050919050565b60006020820190508181036000830152612cd281612881565b9050919050565b60006020820190508181036000830152612cf2816128a4565b9050919050565b60006020820190508181036000830152612d12816128c7565b9050919050565b60006020820190508181036000830152612d32816128ea565b9050919050565b60006020820190508181036000830152612d528161290d565b9050919050565b60006020820190508181036000830152612d7281612930565b9050919050565b60006020820190508181036000830152612d9281612953565b9050919050565b60006020820190508181036000830152612db281612976565b9050919050565b60006020820190508181036000830152612dd281612999565b9050919050565b60006020820190508181036000830152612df2816129bc565b9050919050565b60006020820190508181036000830152612e12816129df565b9050919050565b60006020820190508181036000830152612e3281612a02565b9050919050565b60006020820190508181036000830152612e5281612a25565b9050919050565b60006020820190508181036000830152612e7281612a48565b9050919050565b6000602082019050612e8e6000830184612a6b565b92915050565b6000612e9e612eaf565b9050612eaa828261310c565b919050565b6000604051905090565b600067ffffffffffffffff821115612ed457612ed3613244565b5b612edd82613273565b9050602081019050919050565b600067ffffffffffffffff821115612f0557612f04613244565b5b612f0e82613273565b9050602081019050919050565b600081519050919050565b600081519050919050565b600082825260208201905092915050565b600081905092915050565b600082825260208201905092915050565b600081905092915050565b6000612f748261308e565b9150612f7f8361308e565b9250827fffffffffffffffffffffffffffffffffffffffffffffffffffffffffffffffff03821115612fb457612fb36131b7565b5b828201905092915050565b6000612fca8261308e565b9150612fd58361308e565b925082612fe557612fe46131e6565b5b828204905092915050565b6000612ffb8261308e565b91506130068361308e565b925082821015613019576130186131b7565b5b828203905092915050565b600061302f8261306e565b9050919050565b60008115159050919050565b60007fffffffff0000000000000000000000000000000000000000000000000000000082169050919050565b600073ffffffffffffffffffffffffffffffffffffffff82169050919050565b6000819050919050565b82818337600083830152505050565b60005b838110156130c55780820151818401526020810190506130aa565b838111156130d4576000848401525b50505050565b600060028204905060018216806130f257607f821691505b6020821081141561310657613105613215565b5b50919050565b61311582613273565b810181811067ffffffffffffffff8211171561313457613133613244565b5b80604052505050565b60006131488261308e565b91507fffffffffffffffffffffffffffffffffffffffffffffffffffffffffffffffff82141561317b5761317a6131b7565b5b600182019050919050565b60006131918261308e565b915061319c8361308e565b9250826131ac576131ab6131e6565b5b828206905092915050565b7f4e487b7100000000000000000000000000000000000000000000000000000000600052601160045260246000fd5b7f4e487b7100000000000000000000000000000000000000000000000000000000600052601260045260246000fd5b7f4e487b7100000000000000000000000000000000000000000000000000000000600052602260045260246000fd5b7f4e487b7100000000000000000000000000000000000000000000000000000000600052604160045260246000fd5b6000601f19601f8301169050919050565b7f4552433732313a207472616e7366657220746f206e6f6e20455243373231526560008201527f63656976657220696d706c656d656e7465720000000000000000000000000000602082015250565b7f4552433732313a20746f6b656e20616c7265616479206d696e74656400000000600082015250565b7f4552433732313a207472616e7366657220746f20746865207a65726f2061646460008201527f7265737300000000000000000000000000000000000000000000000000000000602082015250565b7f4552433732313a20617070726f766520746f2063616c6c657200000000000000600082015250565b7f416464726573733a20696e73756666696369656e742062616c616e636520666f60008201527f722063616c6c0000000000000000000000000000000000000000000000000000602082015250565b7f4552433732313a206f70657261746f7220717565727920666f72206e6f6e657860008201527f697374656e7420746f6b656e0000000000000000000000000000000000000000602082015250565b7f4552433732313a20617070726f76652063616c6c6572206973206e6f74206f7760008201527f6e6572206e6f7220617070726f76656420666f7220616c6c0000000000000000602082015250565b7f4552433732313a2062616c616e636520717565727920666f7220746865207a6560008201527f726f206164647265737300000000000000000000000000000000000000000000602082015250565b7f4552433732313a206f776e657220717565727920666f72206e6f6e657869737460008201527f656e7420746f6b656e0000000000000000000000000000000000000000000000602082015250565b7f546f6b656e426173653a2063616c6c6572206973206e6f7420746865206f776e60008201527f6572000000000000000000000000000000000000000000000000000000000000602082015250565b7f4552433732313a206d696e7420746f20746865207a65726f2061646472657373600082015250565b7f4552433732313a20617070726f76656420717565727920666f72206e6f6e657860008201527f697374656e7420746f6b656e0000000000000000000000000000000000000000602082015250565b7f4552433732314d657461646174613a2055524920736574206f66206e6f6e657860008201527f697374656e7420746f6b656e0000000000000000000000000000000000000000602082015250565b7f546f6b656e426173653a20746f6b656e2069642063616e6e6f74206265207a6560008201527f726f000000000000000000000000000000000000000000000000000000000000602082015250565b7f4552433732313a207472616e73666572206f6620746f6b656e2074686174206960008201527f73206e6f74206f776e0000000000000000000000000000000000000000000000602082015250565b7f4552433732314d657461646174613a2055524920717565727920666f72206e6f60008201527f6e6578697374656e7420746f6b656e0000000000000000000000000000000000602082015250565b7f546f6b656e426173653a206e6f7420746865206f776e65720000000000000000600082015250565b7f4552433732313a20617070726f76616c20746f2063757272656e74206f776e6560008201527f7200000000000000000000000000000000000000000000000000000000000000602082015250565b7f4552433732313a207472616e736665722063616c6c6572206973206e6f74206f60008201527f776e6572206e6f7220617070726f766564000000000000000000000000000000602082015250565b7f416464726573733a2063616c6c20746f206e6f6e2d636f6e7472616374000000600082015250565b7f5361666545524332303a204552433230206f7065726174696f6e20646964206e60008201527f6f74207375636365656400000000000000000000000000000000000000000000602082015250565b7f4552433732314275726e61626c653a2063616c6c6572206973206e6f74206f7760008201527f6e6572206e6f7220617070726f76656400000000000000000000000000000000602082015250565b61389981613024565b81146138a457600080fd5b50565b6138b081613036565b81146138bb57600080fd5b50565b6138c781613042565b81146138d257600080fd5b50565b6138de8161308e565b81146138e957600080fd5b5056fea2646970667358221220a6c026de67afc78b52be50e4838dc41cc50cb459519f9461bc052ac7a681264064736f6c63430008040033",
  "linkReferences": {},
  "deployedLinkReferences": {}
}