{
  "_format": "hh-sol-artifact-1",
  "contractName": "Delta",
  "sourceName": "contracts/Delta.sol",
  "abi": [
    {
      "inputs": [
        {
          "internalType": "string",
          "name": "_name",
          "type": "string"
        },
        {
          "internalType": "string",
          "name": "_symbol",
          "type": "string"
        },
        {
          "internalType": "address",
          "name": "_erc20",
          "type": "address"
        },
        {
          "internalType": "uint256",
          "name": "_ownerRate",
          "type": "uint256"
        },
        {
          "internalType": "uint256",
          "name": "_startPrice",
          "type": "uint256"
        },
        {
          "internalType": "uint256",
          "name": "_totalSupply",
          "type": "uint256"
        },
        {
          "internalType": "address",
          "name": "_incentiveAddress",
          "type": "address"
        },
        {
          "internalType": "uint256",
          "name": "_amount",
          "type": "uint256"
        }
      ],
      "stateMutability": "nonpayable",
      "type": "constructor"
    },
    {
      "inputs": [
        {
          "internalType": "uint256",
          "name": "x",
          "type": "uint256"
        }
      ],
      "name": "PRBMathUD60x18__LogInputTooSmall",
      "type": "error"
    },
    {
      "anonymous": false,
      "inputs": [
        {
          "indexed": true,
          "internalType": "address",
          "name": "owner",
          "type": "address"
        },
        {
          "indexed": true,
          "internalType": "address",
          "name": "approved",
          "type": "address"
        },
        {
          "indexed": true,
          "internalType": "uint256",
          "name": "tokenId",
          "type": "uint256"
        }
      ],
      "name": "Approval",
      "type": "event"
    },
    {
      "anonymous": false,
      "inputs": [
        {
          "indexed": true,
          "internalType": "address",
          "name": "owner",
          "type": "address"
        },
        {
          "indexed": true,
          "internalType": "address",
          "name": "operator",
          "type": "address"
        },
        {
          "indexed": false,
          "internalType": "bool",
          "name": "approved",
          "type": "bool"
        }
      ],
      "name": "ApprovalForAll",
      "type": "event"
    },
    {
      "anonymous": false,
      "inputs": [
        {
          "indexed": true,
          "internalType": "address",
          "name": "from",
          "type": "address"
        },
        {
          "indexed": true,
          "internalType": "uint256",
          "name": "tokenId",
          "type": "uint256"
        }
      ],
      "name": "Mint",
      "type": "event"
    },
    {
      "anonymous": false,
      "inputs": [
        {
          "indexed": true,
          "internalType": "address",
          "name": "from",
          "type": "address"
        },
        {
          "indexed": true,
          "internalType": "address",
          "name": "to",
          "type": "address"
        },
        {
          "indexed": true,
          "internalType": "uint256",
          "name": "tokenId",
          "type": "uint256"
        }
      ],
      "name": "Transfer",
      "type": "event"
    },
    {
      "anonymous": false,
      "inputs": [
        {
          "indexed": true,
          "internalType": "address",
          "name": "from",
          "type": "address"
        },
        {
          "indexed": true,
          "internalType": "uint256",
          "name": "tokenId",
          "type": "uint256"
        }
      ],
      "name": "Withdraw",
      "type": "event"
    },
    {
      "inputs": [],
      "name": "PLATFORM_ADDRESS",
      "outputs": [
        {
          "internalType": "address",
          "name": "",
          "type": "address"
        }
      ],
      "stateMutability": "view",
      "type": "function"
    },
    {
      "inputs": [],
      "name": "PLATFORM_RATE",
      "outputs": [
        {
          "internalType": "uint256",
          "name": "",
          "type": "uint256"
        }
      ],
      "stateMutability": "view",
      "type": "function"
    },
    {
      "inputs": [],
      "name": "_N",
      "outputs": [
        {
          "internalType": "uint256",
          "name": "",
          "type": "uint256"
        }
      ],
      "stateMutability": "view",
      "type": "function"
    },
    {
      "inputs": [],
      "name": "amount",
      "outputs": [
        {
          "internalType": "uint256",
          "name": "",
          "type": "uint256"
        }
      ],
      "stateMutability": "view",
      "type": "function"
    },
    {
      "inputs": [
        {
          "internalType": "address",
          "name": "to",
          "type": "address"
        },
        {
          "internalType": "uint256",
          "name": "tokenId",
          "type": "uint256"
        }
      ],
      "name": "approve",
      "outputs": [],
      "stateMutability": "nonpayable",
      "type": "function"
    },
    {
      "inputs": [
        {
          "internalType": "address",
          "name": "owner",
          "type": "address"
        }
      ],
      "name": "balanceOf",
      "outputs": [
        {
          "internalType": "uint256",
          "name": "",
          "type": "uint256"
        }
      ],
      "stateMutability": "view",
      "type": "function"
    },
    {
      "inputs": [
        {
          "internalType": "uint256",
          "name": "",
          "type": "uint256"
        }
      ],
      "name": "balances",
      "outputs": [
        {
          "internalType": "uint256",
          "name": "",
          "type": "uint256"
        }
      ],
      "stateMutability": "view",
      "type": "function"
    },
    {
      "inputs": [],
      "name": "erc20",
      "outputs": [
        {
          "internalType": "address",
          "name": "",
          "type": "address"
        }
      ],
      "stateMutability": "view",
      "type": "function"
    },
    {
      "inputs": [
        {
          "internalType": "uint256",
          "name": "tokenId",
          "type": "uint256"
        }
      ],
      "name": "getApproved",
      "outputs": [
        {
          "internalType": "address",
          "name": "",
          "type": "address"
        }
      ],
      "stateMutability": "view",
      "type": "function"
    },
    {
      "inputs": [],
      "name": "incentiveAddress",
      "outputs": [
        {
          "internalType": "address",
          "name": "",
          "type": "address"
        }
      ],
      "stateMutability": "view",
      "type": "function"
    },
    {
      "inputs": [
        {
          "internalType": "address",
          "name": "owner",
          "type": "address"
        },
        {
          "internalType": "address",
          "name": "operator",
          "type": "address"
        }
      ],
      "name": "isApprovedForAll",
      "outputs": [
        {
          "internalType": "bool",
          "name": "",
          "type": "bool"
        }
      ],
      "stateMutability": "view",
      "type": "function"
    },
    {
      "inputs": [],
      "name": "mint",
      "outputs": [
        {
          "internalType": "uint256",
          "name": "tokenId",
          "type": "uint256"
        }
      ],
      "stateMutability": "nonpayable",
      "type": "function"
    },
    {
      "inputs": [],
      "name": "name",
      "outputs": [
        {
          "internalType": "string",
          "name": "",
          "type": "string"
        }
      ],
      "stateMutability": "view",
      "type": "function"
    },
    {
      "inputs": [],
      "name": "owner",
      "outputs": [
        {
          "internalType": "address",
          "name": "",
          "type": "address"
        }
      ],
      "stateMutability": "view",
      "type": "function"
    },
    {
      "inputs": [
        {
          "internalType": "uint256",
          "name": "tokenId",
          "type": "uint256"
        }
      ],
      "name": "ownerOf",
      "outputs": [
        {
          "internalType": "address",
          "name": "",
          "type": "address"
        }
      ],
      "stateMutability": "view",
      "type": "function"
    },
    {
      "inputs": [],
      "name": "ownerRate",
      "outputs": [
        {
          "internalType": "uint256",
          "name": "",
          "type": "uint256"
        }
      ],
      "stateMutability": "view",
      "type": "function"
    },
    {
      "inputs": [
        {
          "internalType": "address",
          "name": "from",
          "type": "address"
        },
        {
          "internalType": "address",
          "name": "to",
          "type": "address"
        },
        {
          "internalType": "uint256",
          "name": "tokenId",
          "type": "uint256"
        }
      ],
      "name": "safeTransferFrom",
      "outputs": [],
      "stateMutability": "nonpayable",
      "type": "function"
    },
    {
      "inputs": [
        {
          "internalType": "address",
          "name": "from",
          "type": "address"
        },
        {
          "internalType": "address",
          "name": "to",
          "type": "address"
        },
        {
          "internalType": "uint256",
          "name": "tokenId",
          "type": "uint256"
        },
        {
          "internalType": "bytes",
          "name": "_data",
          "type": "bytes"
        }
      ],
      "name": "safeTransferFrom",
      "outputs": [],
      "stateMutability": "nonpayable",
      "type": "function"
    },
    {
      "inputs": [
        {
          "internalType": "address",
          "name": "operator",
          "type": "address"
        },
        {
          "internalType": "bool",
          "name": "approved",
          "type": "bool"
        }
      ],
      "name": "setApprovalForAll",
      "outputs": [],
      "stateMutability": "nonpayable",
      "type": "function"
    },
    {
      "inputs": [],
      "name": "startPrice",
      "outputs": [
        {
          "internalType": "uint256",
          "name": "",
          "type": "uint256"
        }
      ],
      "stateMutability": "view",
      "type": "function"
    },
    {
      "inputs": [
        {
          "internalType": "bytes4",
          "name": "interfaceId",
          "type": "bytes4"
        }
      ],
      "name": "supportsInterface",
      "outputs": [
        {
          "internalType": "bool",
          "name": "",
          "type": "bool"
        }
      ],
      "stateMutability": "view",
      "type": "function"
    },
    {
      "inputs": [],
      "name": "symbol",
      "outputs": [
        {
          "internalType": "string",
          "name": "",
          "type": "string"
        }
      ],
      "stateMutability": "view",
      "type": "function"
    },
    {
      "inputs": [
        {
          "internalType": "uint256",
          "name": "tokenId",
          "type": "uint256"
        }
      ],
      "name": "tokenURI",
      "outputs": [
        {
          "internalType": "string",
          "name": "",
          "type": "string"
        }
      ],
      "stateMutability": "view",
      "type": "function"
    },
    {
      "inputs": [],
      "name": "totalSupply",
      "outputs": [
        {
          "internalType": "uint256",
          "name": "",
          "type": "uint256"
        }
      ],
      "stateMutability": "view",
      "type": "function"
    },
    {
      "inputs": [
        {
          "internalType": "address",
          "name": "from",
          "type": "address"
        },
        {
          "internalType": "address",
          "name": "to",
          "type": "address"
        },
        {
          "internalType": "uint256",
          "name": "tokenId",
          "type": "uint256"
        }
      ],
      "name": "transferFrom",
      "outputs": [],
      "stateMutability": "nonpayable",
      "type": "function"
    },
    {
      "inputs": [],
      "name": "withdraw",
      "outputs": [],
      "stateMutability": "nonpayable",
      "type": "function"
    }
  ],
  "bytecode": "0x608060405260405180602001604052806001815250600e6000820151816000015550503480156200002f57600080fd5b5060405162004ef338038062004ef38339818101604052810190620000559190620002c8565b878781600090805190602001906200006f92919062000178565b5080600190805190602001906200008892919062000178565b5050508460088190555033600660006101000a81548173ffffffffffffffffffffffffffffffffffffffff021916908373ffffffffffffffffffffffffffffffffffffffff16021790555085600760006101000a81548173ffffffffffffffffffffffffffffffffffffffff021916908373ffffffffffffffffffffffffffffffffffffffff1602179055508360098190555082600a8190555081600b60006101000a81548173ffffffffffffffffffffffffffffffffffffffff021916908373ffffffffffffffffffffffffffffffffffffffff16021790555080600c8190555050505050505050506200059f565b828054620001869062000490565b90600052602060002090601f016020900481019282620001aa5760008555620001f6565b82601f10620001c557805160ff1916838001178555620001f6565b82800160010185558215620001f6579182015b82811115620001f5578251825591602001919060010190620001d8565b5b50905062000205919062000209565b5090565b5b80821115620002245760008160009055506001016200020a565b5090565b60006200023f6200023984620003e6565b620003bd565b9050828152602081018484840111156200025857600080fd5b620002658482856200045a565b509392505050565b6000815190506200027e816200056b565b92915050565b600082601f8301126200029657600080fd5b8151620002a884826020860162000228565b91505092915050565b600081519050620002c28162000585565b92915050565b600080600080600080600080610100898b031215620002e657600080fd5b600089015167ffffffffffffffff8111156200030157600080fd5b6200030f8b828c0162000284565b985050602089015167ffffffffffffffff8111156200032d57600080fd5b6200033b8b828c0162000284565b97505060406200034e8b828c016200026d565b9650506060620003618b828c01620002b1565b9550506080620003748b828c01620002b1565b94505060a0620003878b828c01620002b1565b93505060c06200039a8b828c016200026d565b92505060e0620003ad8b828c01620002b1565b9150509295985092959890939650565b6000620003c9620003dc565b9050620003d78282620004c6565b919050565b6000604051905090565b600067ffffffffffffffff8211156200040457620004036200052b565b5b6200040f826200055a565b9050602081019050919050565b6000620004298262000430565b9050919050565b600073ffffffffffffffffffffffffffffffffffffffff82169050919050565b6000819050919050565b60005b838110156200047a5780820151818401526020810190506200045d565b838111156200048a576000848401525b50505050565b60006002820490506001821680620004a957607f821691505b60208210811415620004c057620004bf620004fc565b5b50919050565b620004d1826200055a565b810181811067ffffffffffffffff82111715620004f357620004f26200052b565b5b80604052505050565b7f4e487b7100000000000000000000000000000000000000000000000000000000600052602260045260246000fd5b7f4e487b7100000000000000000000000000000000000000000000000000000000600052604160045260246000fd5b6000601f19601f8301169050919050565b62000576816200041c565b81146200058257600080fd5b50565b620005908162000450565b81146200059c57600080fd5b50565b61494480620005af6000396000f3fe608060405234801561001057600080fd5b506004361061018e5760003560e01c8063688cdba8116100de578063a696e3b211610097578063bbc2848911610071578063bbc2848914610463578063c87b56dd14610481578063e985e9c5146104b1578063f1a9af89146104e15761018e565b8063a696e3b21461040b578063aa8c217c14610429578063b88d4fde146104475761018e565b8063688cdba81461034757806370a0823114610365578063785e9e86146103955780638da5cb5b146103b357806395d89b41146103d1578063a22cb465146103ef5761018e565b806323b872dd1161014b57806342842e0e1161012557806342842e0e146102ad5780634903b0d1146102c95780635655bb20146102f95780636352211e146103175761018e565b806323b872dd1461026957806328957be2146102855780633ccfd60b146102a35761018e565b806301ffc9a71461019357806306fdde03146101c3578063081812fc146101e1578063095ea7b3146102115780631249c58b1461022d57806318160ddd1461024b575b600080fd5b6101ad60048036038101906101a891906138ac565b6104ff565b6040516101ba9190613d58565b60405180910390f35b6101cb610511565b6040516101d89190613d73565b60405180910390f35b6101fb60048036038101906101f691906138fe565b6105a3565b6040516102089190613c91565b60405180910390f35b61022b60048036038101906102269190613847565b610628565b005b610235610740565b6040516102429190614005565b60405180910390f35b610253610c84565b6040516102609190614005565b60405180910390f35b610283600480360381019061027e9190613741565b610c8a565b005b61028d610cea565b60405161029a9190613c91565b60405180910390f35b6102ab610d10565b005b6102c760048036038101906102c29190613741565b610fdc565b005b6102e360048036038101906102de91906138fe565b610ffc565b6040516102f09190614005565b60405180910390f35b610301611014565b60405161030e9190614005565b60405180910390f35b610331600480360381019061032c91906138fe565b611019565b60405161033e9190613c91565b60405180910390f35b61034f6110cb565b60405161035c9190614005565b60405180910390f35b61037f600480360381019061037a91906136dc565b6110d1565b60405161038c9190614005565b60405180910390f35b61039d611189565b6040516103aa9190613c91565b60405180910390f35b6103bb6111af565b6040516103c89190613c91565b60405180910390f35b6103d96111d5565b6040516103e69190613d73565b60405180910390f35b6104096004803603810190610404919061380b565b611267565b005b6104136113e8565b6040516104209190614005565b60405180910390f35b6104316113ed565b60405161043e9190614005565b60405180910390f35b610461600480360381019061045c9190613790565b6113f3565b005b61046b611455565b6040516104789190613c91565b60405180910390f35b61049b600480360381019061049691906138fe565b61146d565b6040516104a89190613d73565b60405180910390f35b6104cb60048036038101906104c69190613705565b611514565b6040516104d89190613d58565b60405180910390f35b6104e96115a8565b6040516104f69190614005565b60405180910390f35b600061050a826115ae565b9050919050565b60606000805461052090614284565b80601f016020809104026020016040519081016040528092919081815260200182805461054c90614284565b80156105995780601f1061056e57610100808354040283529160200191610599565b820191906000526020600020905b81548152906001019060200180831161057c57829003601f168201915b5050505050905090565b60006105ae82611690565b6105ed576040517f08c379a00000000000000000000000000000000000000000000000000000000081526004016105e490613f45565b60405180910390fd5b6004600083815260200190815260200160002060009054906101000a900473ffffffffffffffffffffffffffffffffffffffff169050919050565b600061063382611019565b90508073ffffffffffffffffffffffffffffffffffffffff168373ffffffffffffffffffffffffffffffffffffffff1614156106a4576040517f08c379a000000000000000000000000000000000000000000000000000000000815260040161069b90613fa5565b60405180910390fd5b8073ffffffffffffffffffffffffffffffffffffffff166106c36116fc565b73ffffffffffffffffffffffffffffffffffffffff1614806106f257506106f1816106ec6116fc565b611514565b5b610731576040517f08c379a000000000000000000000000000000000000000000000000000000000815260040161072890613e85565b60405180910390fd5b61073b8383611704565b505050565b600080600f600061074f6116fc565b73ffffffffffffffffffffffffffffffffffffffff1673ffffffffffffffffffffffffffffffffffffffff16815260200190815260200160002054146107ca576040517f08c379a00000000000000000000000000000000000000000000000000000000081526004016107c190613f05565b60405180910390fd5b600a546107d7600e6117bd565b10610817576040517f08c379a000000000000000000000000000000000000000000000000000000000815260040161080e90613ee5565b60405180910390fd5b600c54610823336110d1565b1115610864576040517f08c379a000000000000000000000000000000000000000000000000000000000815260040161085b90613dc5565b60405180910390fd5b61086e600e6117bd565b9050600061087a6117cb565b90506108bb6040518060400160405280600c81526020017f3d3d3d3d3d3d546f6b656e73000000000000000000000000000000000000000081525082611948565b600760009054906101000a900473ffffffffffffffffffffffffffffffffffffffff1673ffffffffffffffffffffffffffffffffffffffff166323b872dd6109016116fc565b306103e8600a866109129190614140565b61091c919061410f565b85610927919061419a565b85610932919061419a565b6040518463ffffffff1660e01b815260040161095093929190613cac565b602060405180830381600087803b15801561096a57600080fd5b505af115801561097e573d6000803e3d6000fd5b505050506040513d601f19601f820116820180604052508101906109a29190613883565b50600760009054906101000a900473ffffffffffffffffffffffffffffffffffffffff1673ffffffffffffffffffffffffffffffffffffffff166323b872dd6109e96116fc565b735322d18080c18ed152c03c13f09817bb0b51a4866103e8600a86610a0e9190614140565b610a18919061410f565b6040518463ffffffff1660e01b8152600401610a3693929190613cac565b602060405180830381600087803b158015610a5057600080fd5b505af1158015610a64573d6000803e3d6000fd5b505050506040513d601f19601f82011682018060405250810190610a889190613883565b50600760009054906101000a900473ffffffffffffffffffffffffffffffffffffffff1673ffffffffffffffffffffffffffffffffffffffff166323b872dd610acf6116fc565b600b60009054906101000a900473ffffffffffffffffffffffffffffffffffffffff166103e8600a86610b029190614140565b610b0c919061410f565b6040518463ffffffff1660e01b8152600401610b2a93929190613cac565b602060405180830381600087803b158015610b4457600080fd5b505af1158015610b58573d6000803e3d6000fd5b505050506040513d601f19601f82011682018060405250810190610b7c9190613883565b50610b8e610b886116fc565b836119e4565b81600f6000610b9b6116fc565b73ffffffffffffffffffffffffffffffffffffffff1673ffffffffffffffffffffffffffffffffffffffff1681526020019081526020016000208190555081610be26116fc565b73ffffffffffffffffffffffffffffffffffffffff167f0f6798a560793a54c3bcfe86a93cde1e73087d944c0ea20544137d412139688560405160405180910390a3610c2e600e611a02565b6103e8600a600854610c4091906140b9565b82610c4b9190614140565b610c55919061410f565b81610c60919061419a565b600d6000610c6e600e6117bd565b8152602001908152602001600020819055505090565b600a5481565b610c9b610c956116fc565b82611a18565b610cda576040517f08c379a0000000000000000000000000000000000000000000000000000000008152600401610cd190613fe5565b60405180910390fd5b610ce5838383611af6565b505050565b600b60009054906101000a900473ffffffffffffffffffffffffffffffffffffffff1681565b6000600f6000610d1e6116fc565b73ffffffffffffffffffffffffffffffffffffffff1673ffffffffffffffffffffffffffffffffffffffff168152602001908152602001600020541415610d9a576040517f08c379a0000000000000000000000000000000000000000000000000000000008152600401610d9190613fc5565b60405180910390fd5b600760009054906101000a900473ffffffffffffffffffffffffffffffffffffffff1673ffffffffffffffffffffffffffffffffffffffff1663a9059cbb610de06116fc565b6103e8600854600d6000610df4600e6117bd565b815260200190815260200160002054610e0d9190614140565b610e17919061410f565b600d6000610e25600e6117bd565b815260200190815260200160002054610e3e919061419a565b6040518363ffffffff1660e01b8152600401610e5b929190613d2f565b602060405180830381600087803b158015610e7557600080fd5b505af1158015610e89573d6000803e3d6000fd5b505050506040513d601f19601f82011682018060405250810190610ead9190613883565b50600760009054906101000a900473ffffffffffffffffffffffffffffffffffffffff1673ffffffffffffffffffffffffffffffffffffffff1663a9059cbb735322d18080c18ed152c03c13f09817bb0b51a4866103e8600a600c54610f139190614140565b610f1d919061410f565b6040518363ffffffff1660e01b8152600401610f3a929190613d2f565b602060405180830381600087803b158015610f5457600080fd5b505af1158015610f68573d6000803e3d6000fd5b505050506040513d601f19601f82011682018060405250810190610f8c9190613883565b50600c54610f986116fc565b73ffffffffffffffffffffffffffffffffffffffff167f884edad9ce6fa2440d8a54cc123490eb96d2768479d49ff9c7366125a942436460405160405180910390a3565b610ff7838383604051806020016040528060008152506113f3565b505050565b600d6020528060005260406000206000915090505481565b600581565b6000806002600084815260200190815260200160002060009054906101000a900473ffffffffffffffffffffffffffffffffffffffff169050600073ffffffffffffffffffffffffffffffffffffffff168173ffffffffffffffffffffffffffffffffffffffff1614156110c2576040517f08c379a00000000000000000000000000000000000000000000000000000000081526004016110b990613ec5565b60405180910390fd5b80915050919050565b60085481565b60008073ffffffffffffffffffffffffffffffffffffffff168273ffffffffffffffffffffffffffffffffffffffff161415611142576040517f08c379a000000000000000000000000000000000000000000000000000000000815260040161113990613ea5565b60405180910390fd5b600360008373ffffffffffffffffffffffffffffffffffffffff1673ffffffffffffffffffffffffffffffffffffffff168152602001908152602001600020549050919050565b600760009054906101000a900473ffffffffffffffffffffffffffffffffffffffff1681565b600660009054906101000a900473ffffffffffffffffffffffffffffffffffffffff1681565b6060600180546111e490614284565b80601f016020809104026020016040519081016040528092919081815260200182805461121090614284565b801561125d5780601f106112325761010080835404028352916020019161125d565b820191906000526020600020905b81548152906001019060200180831161124057829003601f168201915b5050505050905090565b61126f6116fc565b73ffffffffffffffffffffffffffffffffffffffff168273ffffffffffffffffffffffffffffffffffffffff1614156112dd576040517f08c379a00000000000000000000000000000000000000000000000000000000081526004016112d490613e45565b60405180910390fd5b80600560006112ea6116fc565b73ffffffffffffffffffffffffffffffffffffffff1673ffffffffffffffffffffffffffffffffffffffff16815260200190815260200160002060008473ffffffffffffffffffffffffffffffffffffffff1673ffffffffffffffffffffffffffffffffffffffff16815260200190815260200160002060006101000a81548160ff0219169083151502179055508173ffffffffffffffffffffffffffffffffffffffff166113976116fc565b73ffffffffffffffffffffffffffffffffffffffff167f17307eab39ab6107e8899845ad3d59bd9653f200f220920489ca2b5937696c31836040516113dc9190613d58565b60405180910390a35050565b600a81565b600c5481565b6114046113fe6116fc565b83611a18565b611443576040517f08c379a000000000000000000000000000000000000000000000000000000000815260040161143a90613fe5565b60405180910390fd5b61144f84848484611d52565b50505050565b735322d18080c18ed152c03c13f09817bb0b51a48681565b606061147882611690565b6114b7576040517f08c379a00000000000000000000000000000000000000000000000000000000081526004016114ae90613f85565b60405180910390fd5b60006114c1611dae565b905060008151116114e1576040518060200160405280600081525061150c565b806114eb84611dc5565b6040516020016114fc929190613c6d565b6040516020818303038152906040525b915050919050565b6000600560008473ffffffffffffffffffffffffffffffffffffffff1673ffffffffffffffffffffffffffffffffffffffff16815260200190815260200160002060008373ffffffffffffffffffffffffffffffffffffffff1673ffffffffffffffffffffffffffffffffffffffff16815260200190815260200160002060009054906101000a900460ff16905092915050565b60095481565b60007f80ac58cd000000000000000000000000000000000000000000000000000000007bffffffffffffffffffffffffffffffffffffffffffffffffffffffff1916827bffffffffffffffffffffffffffffffffffffffffffffffffffffffff1916148061167957507f5b5e139f000000000000000000000000000000000000000000000000000000007bffffffffffffffffffffffffffffffffffffffffffffffffffffffff1916827bffffffffffffffffffffffffffffffffffffffffffffffffffffffff1916145b80611689575061168882611f72565b5b9050919050565b60008073ffffffffffffffffffffffffffffffffffffffff166002600084815260200190815260200160002060009054906101000a900473ffffffffffffffffffffffffffffffffffffffff1673ffffffffffffffffffffffffffffffffffffffff1614159050919050565b600033905090565b816004600083815260200190815260200160002060006101000a81548173ffffffffffffffffffffffffffffffffffffffff021916908373ffffffffffffffffffffffffffffffffffffffff160217905550808273ffffffffffffffffffffffffffffffffffffffff1661177783611019565b73ffffffffffffffffffffffffffffffffffffffff167f8c5be1e5ebec7d5bd14f71427d1e84f3dd0314c0f7b2291e5b200ac8c7c3b92560405160405180910390a45050565b600081600001549050919050565b600080670de0b6b3a7640000600a546117e49190614140565b9050600060405180602001604052808381525090506000611804306110d1565b90506000670de0b6b3a764000061181a84611fdc565b60000151611828919061410f565b90506000611837600a54612e2a565b61184760018501600a5401612e2a565b0390506118896040518060400160405280600d81526020017f3d3d3d3d3d64656c7461523a200000000000000000000000000000000000000081525082611948565b6118a161189c600185600a540101612e2a565b612e3e565b6118b46118af600a54612e2a565b612e3e565b6118fd60095460068401600a0a83816118f6577f4e487b7100000000000000000000000000000000000000000000000000000000600052601260045260246000fd5b0401612e3e565b60095460068301600a0a828161193c577f4e487b7100000000000000000000000000000000000000000000000000000000600052601260045260246000fd5b04019550505050505090565b6119e0828260405160240161195e929190613d95565b6040516020818303038152906040527f9710a9d0000000000000000000000000000000000000000000000000000000007bffffffffffffffffffffffffffffffffffffffffffffffffffffffff19166020820180517bffffffffffffffffffffffffffffffffffffffffffffffffffffffff8381831617835250505050612ed7565b5050565b6119fe828260405180602001604052806000815250612f00565b5050565b6001816000016000828254019250508190555050565b6000611a2382611690565b611a62576040517f08c379a0000000000000000000000000000000000000000000000000000000008152600401611a5990613e65565b60405180910390fd5b6000611a6d83611019565b90508073ffffffffffffffffffffffffffffffffffffffff168473ffffffffffffffffffffffffffffffffffffffff161480611adc57508373ffffffffffffffffffffffffffffffffffffffff16611ac4846105a3565b73ffffffffffffffffffffffffffffffffffffffff16145b80611aed5750611aec8185611514565b5b91505092915050565b8273ffffffffffffffffffffffffffffffffffffffff16611b1682611019565b73ffffffffffffffffffffffffffffffffffffffff1614611b6c576040517f08c379a0000000000000000000000000000000000000000000000000000000008152600401611b6390613f65565b60405180910390fd5b600073ffffffffffffffffffffffffffffffffffffffff168273ffffffffffffffffffffffffffffffffffffffff161415611bdc576040517f08c379a0000000000000000000000000000000000000000000000000000000008152600401611bd390613e25565b60405180910390fd5b611be7838383612f5b565b611bf2600082611704565b6001600360008573ffffffffffffffffffffffffffffffffffffffff1673ffffffffffffffffffffffffffffffffffffffff1681526020019081526020016000206000828254611c42919061419a565b925050819055506001600360008473ffffffffffffffffffffffffffffffffffffffff1673ffffffffffffffffffffffffffffffffffffffff1681526020019081526020016000206000828254611c9991906140b9565b92505081905550816002600083815260200190815260200160002060006101000a81548173ffffffffffffffffffffffffffffffffffffffff021916908373ffffffffffffffffffffffffffffffffffffffff160217905550808273ffffffffffffffffffffffffffffffffffffffff168473ffffffffffffffffffffffffffffffffffffffff167fddf252ad1be2c89b69c2b068fc378daa952ba7f163c4a11628f55a4df523b3ef60405160405180910390a4505050565b611d5d848484611af6565b611d6984848484612f60565b611da8576040517f08c379a0000000000000000000000000000000000000000000000000000000008152600401611d9f90613de5565b60405180910390fd5b50505050565b606060405180602001604052806000815250905090565b60606000821415611e0d576040518060400160405280600181526020017f30000000000000000000000000000000000000000000000000000000000000008152509050611f6d565b600082905060005b60008214611e3f578080611e28906142e7565b915050600a82611e38919061410f565b9150611e15565b60008167ffffffffffffffff811115611e81577f4e487b7100000000000000000000000000000000000000000000000000000000600052604160045260246000fd5b6040519080825280601f01601f191660200182016040528015611eb35781602001600182028036833780820191505090505b5090505b60008514611f6657600182611ecc919061419a565b9150600a85611edb9190614330565b6030611ee791906140b9565b60f81b818381518110611f23577f4e487b7100000000000000000000000000000000000000000000000000000000600052603260045260246000fd5b60200101907effffffffffffffffffffffffffffffffffffffffffffffffffffffffffffff1916908160001a905350600a85611f5f919061410f565b9450611eb7565b8093505050505b919050565b60007f01ffc9a7000000000000000000000000000000000000000000000000000000007bffffffffffffffffffffffffffffffffffffffffffffffffffffffff1916827bffffffffffffffffffffffffffffffffffffffffffffffffffffffff1916149050919050565b611fe46135e3565b600082600001519050670de0b6b3a764000081101561203a57806040517fd88504dc0000000000000000000000000000000000000000000000000000000081526004016120319190614005565b60405180910390fd5b6000816001811461278d57600a81146127a357606481146127b9576103e881146127cf5761271081146127e557620186a081146127fb57620f4240811461281157629896808114612827576305f5e100811461283d57633b9aca008114612853576402540be40081146128695764174876e800811461287f5764e8d4a510008114612895576509184e72a00081146128ab57655af3107a400081146128c15766038d7ea4c6800081146128d757662386f26fc1000081146128ed5767016345785d8a0000811461290357670de0b6b3a7640000811461291957678ac7230489e8000081146129225768056bc75e2d63100000811461293257683635c9adc5dea0000081146129455769021e19e0c9bab240000081146129585769152d02c7e14af6800000811461296b5769d3c21bcecceda1000000811461297e576a084595161401484a0000008114612991576a52b7d2dcc80cd2e400000081146129a4576b033b2e3c9fd0803ce800000081146129b7576b204fce5e3e2502611000000081146129ca576c01431e0fae6d7217caa000000081146129dd576c0c9f2c9cd04674edea4000000081146129f0576c7e37be2022c0914b26800000008114612a03576d04ee2d6d415b85acef81000000008114612a16576d314dc6448d9338c15b0a000000008114612a29576e01ed09bead87c0378d8e64000000008114612a3c576e13426172c74d822b878fe8000000008114612a4f576ec097ce7bc90715b34b9f10000000008114612a62576f0785ee10d5da46d900f436a0000000008114612a75576f4b3b4ca85a86c47a098a2240000000008114612a88577002f050fe938943acc45f655680000000008114612a9b57701d6329f1c35ca4bfabb9f56100000000008114612aae57710125dfa371a19e6f7cb54395ca00000000008114612ac157710b7abc627050305adf14a3d9e400000000008114612ad4577172cb5bd86321e38cb6ce6682e800000000008114612ae75772047bf19673df52e37f2410011d1000000000008114612afa57722cd76fe086b93ce2f768a00b22a000000000008114612b0d577301c06a5ec5433c60ddaa16406f5a4000000000008114612b205773118427b3b4a05bc8a8a4de8459868000000000008114612b335773af298d050e4395d69670b12b7f410000000000008114612b46577406d79f82328ea3da61e066ebb2f88a0000000000008114612b595774446c3b15f9926687d2c40534fdb5640000000000008114612b6c577502ac3a4edbbfb8014e3ba83411e915e80000000000008114612b7f57751aba4714957d300d0e549208b31adb100000000000008114612b925776010b46c6cdd6e3e0828f4db456ff0c8ea00000000000008114612ba557760a70c3c40a64e6c51999090b65f67d92400000000000008114612bb857766867a5a867f103b2fffa5a71fba0e7b6800000000000008114612bcb577704140c78940f6a24fdffc78873d4490d21000000000000008114612bde577728c87cb5c89a2571ebfdcb54864ada834a000000000000008114612bf157780197d4df19d605767337e9f14d3eec8920e4000000000000008114612c0457780fee50b7025c36a0802f236d04753d5b48e8000000000000008114612c1757789f4f2726179a224501d762422c946590d910000000000000008114612c2a5779063917877cec0556b21269d695bdcbf7a87aa0000000000000008114612c3d57793e3aeb4ae1383562f4b82261d969f7ac94ca40000000000000008114612c50577a026e4d30eccc3215dd8f3157d27e23acbdcfe680000000000000008114612c63577a184f03e93ff9f4daa797ed6e38ed64bf6a1f0100000000000000008114612c76577af316271c7fc3908a8bef464e3945ef7a25360a00000000000000008114612c89577b097edd871cfda3a5697758bf0e3cbb5ac5741c6400000000000000008114612c9c577b5ef4a74721e864761ea977768e5f518bb6891be800000000000000008114612caf577c03b58e88c75313ec9d329eaaa18fb92f75215b171000000000000000008114612cc2577c25179157c93ec73e23fa32aa4f9d3bda934d8ee6a000000000000000008114612cd5577d0172ebad6ddc73c86d67c5faa71c245689c10795024000000000000000008114612ce8577d0e7d34c64a9c85d4460dbbca87196b61618a4bd2168000000000000000008114612cfb577d90e40fbeea1d3a4abc8955e946fe31cdcf66f634e10000000000000000008114612d0e577e05a8e89d75252446eb5d5d5b1cc5edf20a1a059e10ca0000000000000000008114612d21577e3899162693736ac531a5a58f1fbb4b746504382ca7e40000000000000000008114612d34577f0235fadd81c2822bb3f07877973d50f28bf22a31be8ee80000000000000000008114612d47577f161bcca7119915b50764b4abe86529797775a5f17195100000000000000000008114612d5a577fdd15fe86affad91249ef0eb713f39ebeaa987b6e6fd2a00000000000000000008114612d6d577fffffffffffffffffffffffffffffffffffffffffffffffffffffffffffffffff9150612d7c565b6012600003670de0b6b3a7640000029150612d7c565b6012600103670de0b6b3a7640000029150612d7c565b6012600203670de0b6b3a7640000029150612d7c565b6012600303670de0b6b3a7640000029150612d7c565b6012600403670de0b6b3a7640000029150612d7c565b6012600503670de0b6b3a7640000029150612d7c565b6012600603670de0b6b3a7640000029150612d7c565b6012600703670de0b6b3a7640000029150612d7c565b6012600803670de0b6b3a7640000029150612d7c565b6012600903670de0b6b3a7640000029150612d7c565b6012600a03670de0b6b3a7640000029150612d7c565b6012600b03670de0b6b3a7640000029150612d7c565b6012600c03670de0b6b3a7640000029150612d7c565b6012600d03670de0b6b3a7640000029150612d7c565b6012600e03670de0b6b3a7640000029150612d7c565b6012600f03670de0b6b3a7640000029150612d7c565b6012601003670de0b6b3a7640000029150612d7c565b6012601103670de0b6b3a7640000029150612d7c565b60009150612d7c565b670de0b6b3a76400009150612d7c565b6002670de0b6b3a7640000029150612d7c565b6003670de0b6b3a7640000029150612d7c565b6004670de0b6b3a7640000029150612d7c565b6005670de0b6b3a7640000029150612d7c565b6006670de0b6b3a7640000029150612d7c565b6007670de0b6b3a7640000029150612d7c565b6008670de0b6b3a7640000029150612d7c565b6009670de0b6b3a7640000029150612d7c565b600a670de0b6b3a7640000029150612d7c565b600b670de0b6b3a7640000029150612d7c565b600c670de0b6b3a7640000029150612d7c565b600d670de0b6b3a7640000029150612d7c565b600e670de0b6b3a7640000029150612d7c565b600f670de0b6b3a7640000029150612d7c565b6010670de0b6b3a7640000029150612d7c565b6011670de0b6b3a7640000029150612d7c565b6012670de0b6b3a7640000029150612d7c565b6013670de0b6b3a7640000029150612d7c565b6014670de0b6b3a7640000029150612d7c565b6015670de0b6b3a7640000029150612d7c565b6016670de0b6b3a7640000029150612d7c565b6017670de0b6b3a7640000029150612d7c565b6018670de0b6b3a7640000029150612d7c565b6019670de0b6b3a7640000029150612d7c565b601a670de0b6b3a7640000029150612d7c565b601b670de0b6b3a7640000029150612d7c565b601c670de0b6b3a7640000029150612d7c565b601d670de0b6b3a7640000029150612d7c565b601e670de0b6b3a7640000029150612d7c565b601f670de0b6b3a7640000029150612d7c565b6020670de0b6b3a7640000029150612d7c565b6021670de0b6b3a7640000029150612d7c565b6022670de0b6b3a7640000029150612d7c565b6023670de0b6b3a7640000029150612d7c565b6024670de0b6b3a7640000029150612d7c565b6025670de0b6b3a7640000029150612d7c565b6026670de0b6b3a7640000029150612d7c565b6027670de0b6b3a7640000029150612d7c565b6028670de0b6b3a7640000029150612d7c565b6029670de0b6b3a7640000029150612d7c565b602a670de0b6b3a7640000029150612d7c565b602b670de0b6b3a7640000029150612d7c565b602c670de0b6b3a7640000029150612d7c565b602d670de0b6b3a7640000029150612d7c565b602e670de0b6b3a7640000029150612d7c565b602f670de0b6b3a7640000029150612d7c565b6030670de0b6b3a7640000029150612d7c565b6031670de0b6b3a7640000029150612d7c565b6032670de0b6b3a7640000029150612d7c565b6033670de0b6b3a7640000029150612d7c565b6034670de0b6b3a7640000029150612d7c565b6035670de0b6b3a7640000029150612d7c565b6036670de0b6b3a7640000029150612d7c565b6037670de0b6b3a7640000029150612d7c565b6038670de0b6b3a7640000029150612d7c565b6039670de0b6b3a7640000029150612d7c565b603a670de0b6b3a7640000029150612d7c565b603b670de0b6b3a76400000291505b507fffffffffffffffffffffffffffffffffffffffffffffffffffffffffffffffff8114612dba576040518060200160405280828152509250612e23565b672e19dc008126bf2b670de0b6b3a7640000612dd5866130f7565b600001510281612e0e577f4e487b7100000000000000000000000000000000000000000000000000000000600052601260045260246000fd5b04905060405180602001604052808281525092505b5050919050565b6000612e3582613282565b82019050919050565b612ed481604051602401612e529190614005565b6040516020818303038152906040527ff5b1bba9000000000000000000000000000000000000000000000000000000007bffffffffffffffffffffffffffffffffffffffffffffffffffffffff19166020820180517bffffffffffffffffffffffffffffffffffffffffffffffffffffffff8381831617835250505050612ed7565b50565b60008151905060006a636f6e736f6c652e6c6f679050602083016000808483855afa5050505050565b612f0a83836132eb565b612f176000848484612f60565b612f56576040517f08c379a0000000000000000000000000000000000000000000000000000000008152600401612f4d90613de5565b60405180910390fd5b505050565b505050565b6000612f818473ffffffffffffffffffffffffffffffffffffffff166134b9565b156130ea578373ffffffffffffffffffffffffffffffffffffffff1663150b7a02612faa6116fc565b8786866040518563ffffffff1660e01b8152600401612fcc9493929190613ce3565b602060405180830381600087803b158015612fe657600080fd5b505af192505050801561301757506040513d601f19601f8201168201806040525081019061301491906138d5565b60015b61309a573d8060008114613047576040519150601f19603f3d011682016040523d82523d6000602084013e61304c565b606091505b50600081511415613092576040517f08c379a000000000000000000000000000000000000000000000000000000000815260040161308990613de5565b60405180910390fd5b805181602001fd5b63150b7a0260e01b7bffffffffffffffffffffffffffffffffffffffffffffffffffffffff1916817bffffffffffffffffffffffffffffffffffffffffffffffffffffffff1916149150506130ef565b600190505b949350505050565b6130ff6135e3565b600082600001519050670de0b6b3a764000081101561315557806040517fd88504dc00000000000000000000000000000000000000000000000000000000815260040161314c9190614005565b60405180910390fd5b600061319e670de0b6b3a76400008381613198577f4e487b7100000000000000000000000000000000000000000000000000000000600052601260045260246000fd5b046134cc565b90506000670de0b6b3a76400008202905060008284901c9050670de0b6b3a76400008114156131e15760405180602001604052808381525094505050505061327d565b60006706f05b59d3b2000090505b600081111561326657670de0b6b3a764000082830281613238577f4e487b7100000000000000000000000000000000000000000000000000000000600052601260045260246000fd5b049150670de0b6b3a7640000600202821061325a578083019250600182901c91505b600181901c90506131ef565b506040518060200160405280838152509450505050505b919050565b600080600190505b600581116132e257600a54838402816132cc577f4e487b7100000000000000000000000000000000000000000000000000000000600052601260045260246000fd5b04925080806132da906142e7565b91505061328a565b50819050919050565b600073ffffffffffffffffffffffffffffffffffffffff168273ffffffffffffffffffffffffffffffffffffffff16141561335b576040517f08c379a000000000000000000000000000000000000000000000000000000000815260040161335290613f25565b60405180910390fd5b61336481611690565b156133a4576040517f08c379a000000000000000000000000000000000000000000000000000000000815260040161339b90613e05565b60405180910390fd5b6133b060008383612f5b565b6001600360008473ffffffffffffffffffffffffffffffffffffffff1673ffffffffffffffffffffffffffffffffffffffff168152602001908152602001600020600082825461340091906140b9565b92505081905550816002600083815260200190815260200160002060006101000a81548173ffffffffffffffffffffffffffffffffffffffff021916908373ffffffffffffffffffffffffffffffffffffffff160217905550808273ffffffffffffffffffffffffffffffffffffffff16600073ffffffffffffffffffffffffffffffffffffffff167fddf252ad1be2c89b69c2b068fc378daa952ba7f163c4a11628f55a4df523b3ef60405160405180910390a45050565b600080823b905060008111915050919050565b600070010000000000000000000000000000000082106134fd57608082901c91506080816134fa91906140b9565b90505b68010000000000000000821061352457604082901c915060408161352191906140b9565b90505b640100000000821061354757602082901c915060208161354491906140b9565b90505b62010000821061356857601082901c915060108161356591906140b9565b90505b610100821061358857600882901c915060088161358591906140b9565b90505b601082106135a757600482901c91506004816135a491906140b9565b90505b600482106135c657600282901c91506002816135c391906140b9565b90505b600282106135de576001816135db91906140b9565b90505b919050565b6040518060200160405280600081525090565b600061360961360484614045565b614020565b90508281526020810184848401111561362157600080fd5b61362c848285614242565b509392505050565b600081359050613643816148b2565b92915050565b600081359050613658816148c9565b92915050565b60008151905061366d816148c9565b92915050565b600081359050613682816148e0565b92915050565b600081519050613697816148e0565b92915050565b600082601f8301126136ae57600080fd5b81356136be8482602086016135f6565b91505092915050565b6000813590506136d6816148f7565b92915050565b6000602082840312156136ee57600080fd5b60006136fc84828501613634565b91505092915050565b6000806040838503121561371857600080fd5b600061372685828601613634565b925050602061373785828601613634565b9150509250929050565b60008060006060848603121561375657600080fd5b600061376486828701613634565b935050602061377586828701613634565b9250506040613786868287016136c7565b9150509250925092565b600080600080608085870312156137a657600080fd5b60006137b487828801613634565b94505060206137c587828801613634565b93505060406137d6878288016136c7565b925050606085013567ffffffffffffffff8111156137f357600080fd5b6137ff8782880161369d565b91505092959194509250565b6000806040838503121561381e57600080fd5b600061382c85828601613634565b925050602061383d85828601613649565b9150509250929050565b6000806040838503121561385a57600080fd5b600061386885828601613634565b9250506020613879858286016136c7565b9150509250929050565b60006020828403121561389557600080fd5b60006138a38482850161365e565b91505092915050565b6000602082840312156138be57600080fd5b60006138cc84828501613673565b91505092915050565b6000602082840312156138e757600080fd5b60006138f584828501613688565b91505092915050565b60006020828403121561391057600080fd5b600061391e848285016136c7565b91505092915050565b613930816141ce565b82525050565b61393f816141e0565b82525050565b600061395082614076565b61395a818561408c565b935061396a818560208601614251565b6139738161441d565b840191505092915050565b600061398982614081565b613993818561409d565b93506139a3818560208601614251565b6139ac8161441d565b840191505092915050565b60006139c282614081565b6139cc81856140ae565b93506139dc818560208601614251565b80840191505092915050565b60006139f560188361409d565b9150613a008261442e565b602082019050919050565b6000613a1860328361409d565b9150613a2382614457565b604082019050919050565b6000613a3b601c8361409d565b9150613a46826144a6565b602082019050919050565b6000613a5e60248361409d565b9150613a69826144cf565b604082019050919050565b6000613a8160198361409d565b9150613a8c8261451e565b602082019050919050565b6000613aa4602c8361409d565b9150613aaf82614547565b604082019050919050565b6000613ac760388361409d565b9150613ad282614596565b604082019050919050565b6000613aea602a8361409d565b9150613af5826145e5565b604082019050919050565b6000613b0d60298361409d565b9150613b1882614634565b604082019050919050565b6000613b3060158361409d565b9150613b3b82614683565b602082019050919050565b6000613b53601d8361409d565b9150613b5e826146ac565b602082019050919050565b6000613b7660208361409d565b9150613b81826146d5565b602082019050919050565b6000613b99602c8361409d565b9150613ba4826146fe565b604082019050919050565b6000613bbc60298361409d565b9150613bc78261474d565b604082019050919050565b6000613bdf602f8361409d565b9150613bea8261479c565b604082019050919050565b6000613c0260218361409d565b9150613c0d826147eb565b604082019050919050565b6000613c2560148361409d565b9150613c308261483a565b602082019050919050565b6000613c4860318361409d565b9150613c5382614863565b604082019050919050565b613c6781614238565b82525050565b6000613c7982856139b7565b9150613c8582846139b7565b91508190509392505050565b6000602082019050613ca66000830184613927565b92915050565b6000606082019050613cc16000830186613927565b613cce6020830185613927565b613cdb6040830184613c5e565b949350505050565b6000608082019050613cf86000830187613927565b613d056020830186613927565b613d126040830185613c5e565b8181036060830152613d248184613945565b905095945050505050565b6000604082019050613d446000830185613927565b613d516020830184613c5e565b9392505050565b6000602082019050613d6d6000830184613936565b92915050565b60006020820190508181036000830152613d8d818461397e565b905092915050565b60006040820190508181036000830152613daf818561397e565b9050613dbe6020830184613c5e565b9392505050565b60006020820190508181036000830152613dde816139e8565b9050919050565b60006020820190508181036000830152613dfe81613a0b565b9050919050565b60006020820190508181036000830152613e1e81613a2e565b9050919050565b60006020820190508181036000830152613e3e81613a51565b9050919050565b60006020820190508181036000830152613e5e81613a74565b9050919050565b60006020820190508181036000830152613e7e81613a97565b9050919050565b60006020820190508181036000830152613e9e81613aba565b9050919050565b60006020820190508181036000830152613ebe81613add565b9050919050565b60006020820190508181036000830152613ede81613b00565b9050919050565b60006020820190508181036000830152613efe81613b23565b9050919050565b60006020820190508181036000830152613f1e81613b46565b9050919050565b60006020820190508181036000830152613f3e81613b69565b9050919050565b60006020820190508181036000830152613f5e81613b8c565b9050919050565b60006020820190508181036000830152613f7e81613baf565b9050919050565b60006020820190508181036000830152613f9e81613bd2565b9050919050565b60006020820190508181036000830152613fbe81613bf5565b9050919050565b60006020820190508181036000830152613fde81613c18565b9050919050565b60006020820190508181036000830152613ffe81613c3b565b9050919050565b600060208201905061401a6000830184613c5e565b92915050565b600061402a61403b565b905061403682826142b6565b919050565b6000604051905090565b600067ffffffffffffffff8211156140605761405f6143ee565b5b6140698261441d565b9050602081019050919050565b600081519050919050565b600081519050919050565b600082825260208201905092915050565b600082825260208201905092915050565b600081905092915050565b60006140c482614238565b91506140cf83614238565b9250827fffffffffffffffffffffffffffffffffffffffffffffffffffffffffffffffff0382111561410457614103614361565b5b828201905092915050565b600061411a82614238565b915061412583614238565b92508261413557614134614390565b5b828204905092915050565b600061414b82614238565b915061415683614238565b9250817fffffffffffffffffffffffffffffffffffffffffffffffffffffffffffffffff048311821515161561418f5761418e614361565b5b828202905092915050565b60006141a582614238565b91506141b083614238565b9250828210156141c3576141c2614361565b5b828203905092915050565b60006141d982614218565b9050919050565b60008115159050919050565b60007fffffffff0000000000000000000000000000000000000000000000000000000082169050919050565b600073ffffffffffffffffffffffffffffffffffffffff82169050919050565b6000819050919050565b82818337600083830152505050565b60005b8381101561426f578082015181840152602081019050614254565b8381111561427e576000848401525b50505050565b6000600282049050600182168061429c57607f821691505b602082108114156142b0576142af6143bf565b5b50919050565b6142bf8261441d565b810181811067ffffffffffffffff821117156142de576142dd6143ee565b5b80604052505050565b60006142f282614238565b91507fffffffffffffffffffffffffffffffffffffffffffffffffffffffffffffffff82141561432557614324614361565b5b600182019050919050565b600061433b82614238565b915061434683614238565b92508261435657614355614390565b5b828206905092915050565b7f4e487b7100000000000000000000000000000000000000000000000000000000600052601160045260246000fd5b7f4e487b7100000000000000000000000000000000000000000000000000000000600052601260045260246000fd5b7f4e487b7100000000000000000000000000000000000000000000000000000000600052602260045260246000fd5b7f4e487b7100000000000000000000000000000000000000000000000000000000600052604160045260246000fd5b6000601f19601f8301169050919050565b7f44656c74613a206f76657220616d6f756e74206c696d69740000000000000000600082015250565b7f4552433732313a207472616e7366657220746f206e6f6e20455243373231526560008201527f63656976657220696d706c656d656e7465720000000000000000000000000000602082015250565b7f4552433732313a20746f6b656e20616c7265616479206d696e74656400000000600082015250565b7f4552433732313a207472616e7366657220746f20746865207a65726f2061646460008201527f7265737300000000000000000000000000000000000000000000000000000000602082015250565b7f4552433732313a20617070726f766520746f2063616c6c657200000000000000600082015250565b7f4552433732313a206f70657261746f7220717565727920666f72206e6f6e657860008201527f697374656e7420746f6b656e0000000000000000000000000000000000000000602082015250565b7f4552433732313a20617070726f76652063616c6c6572206973206e6f74206f7760008201527f6e6572206e6f7220617070726f76656420666f7220616c6c0000000000000000602082015250565b7f4552433732313a2062616c616e636520717565727920666f7220746865207a6560008201527f726f206164647265737300000000000000000000000000000000000000000000602082015250565b7f4552433732313a206f776e657220717565727920666f72206e6f6e657869737460008201527f656e7420746f6b656e0000000000000000000000000000000000000000000000602082015250565b7f44656c74613a20737570706c792069732066756c6c0000000000000000000000600082015250565b7f44656c74613a2073656e64657220686173206265656e20686f6c646572000000600082015250565b7f4552433732313a206d696e7420746f20746865207a65726f2061646472657373600082015250565b7f4552433732313a20617070726f76656420717565727920666f72206e6f6e657860008201527f697374656e7420746f6b656e0000000000000000000000000000000000000000602082015250565b7f4552433732313a207472616e73666572206f6620746f6b656e2074686174206960008201527f73206e6f74206f776e0000000000000000000000000000000000000000000000602082015250565b7f4552433732314d657461646174613a2055524920717565727920666f72206e6f60008201527f6e6578697374656e7420746f6b656e0000000000000000000000000000000000602082015250565b7f4552433732313a20617070726f76616c20746f2063757272656e74206f776e6560008201527f7200000000000000000000000000000000000000000000000000000000000000602082015250565b7f44656c74613a206e6f2070617373206f776e6564000000000000000000000000600082015250565b7f4552433732313a207472616e736665722063616c6c6572206973206e6f74206f60008201527f776e6572206e6f7220617070726f766564000000000000000000000000000000602082015250565b6148bb816141ce565b81146148c657600080fd5b50565b6148d2816141e0565b81146148dd57600080fd5b50565b6148e9816141ec565b81146148f457600080fd5b50565b61490081614238565b811461490b57600080fd5b5056fea2646970667358221220b0894bb89d4376e2deebc2de6bdcbc41d6880aa1fa546614d08d0e3732c8cbe964736f6c63430008040033",
  "linkReferences": {},
  "deployedLinkReferences": {}
}