{
  "_format": "hh-sol-artifact-1",
  "contractName": "NFTBaseDeployer",
  "sourceName": "contracts/deployers/NFTBaseDeployer.sol",
  "abi": [
    {
      "inputs": [
        {
          "internalType": "string",
          "name": "_name",
          "type": "string"
        },
        {
          "internalType": "string",
          "name": "_symbol",
          "type": "string"
        },
        {
          "internalType": "string",
          "name": "_bURI",
          "type": "string"
        },
        {
          "internalType": "address",
          "name": "_erc721",
          "type": "address"
        }
      ],
      "name": "deployNFTBase",
      "outputs": [
        {
          "internalType": "address",
          "name": "",
          "type": "address"
        }
      ],
      "stateMutability": "nonpayable",
      "type": "function"
    }
  ],
  "bytecode": "0x608060405234801561001057600080fd5b50613bdb806100206000396000f3fe60806040523480156200001157600080fd5b50600436106200002e5760003560e01c80633cf053041462000033575b600080fd5b6200005160048036038101906200004b919062000150565b62000069565b60405162000060919062000259565b60405180910390f35b600080858585856040516200007e90620000b9565b6200008d949392919062000276565b604051809103906000f080158015620000aa573d6000803e3d6000fd5b50905080915050949350505050565b613749806200045d83390190565b6000620000de620000d88462000301565b620002d8565b905082815260208101848484011115620000f757600080fd5b6200010484828562000387565b509392505050565b6000813590506200011d8162000442565b92915050565b600082601f8301126200013557600080fd5b813562000147848260208601620000c7565b91505092915050565b600080600080608085870312156200016757600080fd5b600085013567ffffffffffffffff8111156200018257600080fd5b620001908782880162000123565b945050602085013567ffffffffffffffff811115620001ae57600080fd5b620001bc8782880162000123565b935050604085013567ffffffffffffffff811115620001da57600080fd5b620001e88782880162000123565b9250506060620001fb878288016200010c565b91505092959194509250565b620002128162000353565b82525050565b6000620002258262000337565b62000231818562000342565b93506200024381856020860162000396565b6200024e8162000431565b840191505092915050565b600060208201905062000270600083018462000207565b92915050565b6000608082019050818103600083015262000292818762000218565b90508181036020830152620002a8818662000218565b90508181036040830152620002be818562000218565b9050620002cf606083018462000207565b95945050505050565b6000620002e4620002f7565b9050620002f28282620003cc565b919050565b6000604051905090565b600067ffffffffffffffff8211156200031f576200031e62000402565b5b6200032a8262000431565b9050602081019050919050565b600081519050919050565b600082825260208201905092915050565b6000620003608262000367565b9050919050565b600073ffffffffffffffffffffffffffffffffffffffff82169050919050565b82818337600083830152505050565b60005b83811015620003b657808201518184015260208101905062000399565b83811115620003c6576000848401525b50505050565b620003d78262000431565b810181811067ffffffffffffffff82111715620003f957620003f862000402565b5b80604052505050565b7f4e487b7100000000000000000000000000000000000000000000000000000000600052604160045260246000fd5b6000601f19601f8301169050919050565b6200044d8162000353565b81146200045957600080fd5b5056fe608060405260405180602001604052806001815250600b6000820151816000015550503480156200002f57600080fd5b506040516200374938038062003749833981810160405281019062000055919062000269565b838381600090805190602001906200006f92919062000130565b5080600190805190602001906200008892919062000130565b50505032600660006101000a81548173ffffffffffffffffffffffffffffffffffffffff021916908373ffffffffffffffffffffffffffffffffffffffff16021790555081600a9080519060200190620000e492919062000130565b5080600760006101000a81548173ffffffffffffffffffffffffffffffffffffffff021916908373ffffffffffffffffffffffffffffffffffffffff16021790555050505050620004de565b8280546200013e90620003e9565b90600052602060002090601f016020900481019282620001625760008555620001ae565b82601f106200017d57805160ff1916838001178555620001ae565b82800160010185558215620001ae579182015b82811115620001ad57825182559160200191906001019062000190565b5b509050620001bd9190620001c1565b5090565b5b80821115620001dc576000816000905550600101620001c2565b5090565b6000620001f7620001f18462000349565b62000320565b9050828152602081018484840111156200021057600080fd5b6200021d848285620003b3565b509392505050565b6000815190506200023681620004c4565b92915050565b600082601f8301126200024e57600080fd5b815162000260848260208601620001e0565b91505092915050565b600080600080608085870312156200028057600080fd5b600085015167ffffffffffffffff8111156200029b57600080fd5b620002a9878288016200023c565b945050602085015167ffffffffffffffff811115620002c757600080fd5b620002d5878288016200023c565b935050604085015167ffffffffffffffff811115620002f357600080fd5b62000301878288016200023c565b9250506060620003148782880162000225565b91505092959194509250565b60006200032c6200033f565b90506200033a82826200041f565b919050565b6000604051905090565b600067ffffffffffffffff82111562000367576200036662000484565b5b6200037282620004b3565b9050602081019050919050565b60006200038c8262000393565b9050919050565b600073ffffffffffffffffffffffffffffffffffffffff82169050919050565b60005b83811015620003d3578082015181840152602081019050620003b6565b83811115620003e3576000848401525b50505050565b600060028204905060018216806200040257607f821691505b6020821081141562000419576200041862000455565b5b50919050565b6200042a82620004b3565b810181811067ffffffffffffffff821117156200044c576200044b62000484565b5b80604052505050565b7f4e487b7100000000000000000000000000000000000000000000000000000000600052602260045260246000fd5b7f4e487b7100000000000000000000000000000000000000000000000000000000600052604160045260246000fd5b6000601f19601f8301169050919050565b620004cf816200037f565b8114620004db57600080fd5b50565b61325b80620004ee6000396000f3fe608060405234801561001057600080fd5b50600436106101215760003560e01c80636352211e116100ad578063a22cb46511610071578063a22cb46514610318578063b88d4fde14610334578063bca6ce6414610350578063c87b56dd1461036e578063e985e9c51461039e57610121565b80636352211e1461024c57806370a082311461027c5780638da5cb5b146102ac57806395d89b41146102ca578063a0712d68146102e857610121565b8063162094c4116100f4578063162094c4146101c057806323b872dd146101dc57806342842e0e146101f857806342966c681461021457806355f804b31461023057610121565b806301ffc9a71461012657806306fdde0314610156578063081812fc14610174578063095ea7b3146101a4575b600080fd5b610140600480360381019061013b91906121f6565b6103ce565b60405161014d91906126eb565b60405180910390f35b61015e6103e0565b60405161016b9190612706565b60405180910390f35b61018e60048036038101906101899190612289565b610472565b60405161019b919061264d565b60405180910390f35b6101be60048036038101906101b991906121ba565b6104f7565b005b6101da60048036038101906101d591906122b2565b61060f565b005b6101f660048036038101906101f191906120b4565b6106b4565b005b610212600480360381019061020d91906120b4565b610714565b005b61022e60048036038101906102299190612289565b610734565b005b61024a60048036038101906102459190612248565b61087a565b005b61026660048036038101906102619190612289565b61092b565b604051610273919061264d565b60405180910390f35b6102966004803603810190610291919061204f565b6109dd565b6040516102a39190612948565b60405180910390f35b6102b4610a95565b6040516102c1919061264d565b60405180910390f35b6102d2610abb565b6040516102df9190612706565b60405180910390f35b61030260048036038101906102fd9190612289565b610b4d565b60405161030f9190612948565b60405180910390f35b610332600480360381019061032d919061217e565b610c76565b005b61034e60048036038101906103499190612103565b610df7565b005b610358610e59565b604051610365919061264d565b60405180910390f35b61038860048036038101906103839190612289565b610e7f565b6040516103959190612706565b60405180910390f35b6103b860048036038101906103b39190612078565b610ff2565b6040516103c591906126eb565b60405180910390f35b60006103d982611086565b9050919050565b6060600080546103ef90612b9e565b80601f016020809104026020016040519081016040528092919081815260200182805461041b90612b9e565b80156104685780601f1061043d57610100808354040283529160200191610468565b820191906000526020600020905b81548152906001019060200180831161044b57829003601f168201915b5050505050905090565b600061047d82611168565b6104bc576040517f08c379a00000000000000000000000000000000000000000000000000000000081526004016104b390612888565b60405180910390fd5b6004600083815260200190815260200160002060009054906101000a900473ffffffffffffffffffffffffffffffffffffffff169050919050565b60006105028261092b565b90508073ffffffffffffffffffffffffffffffffffffffff168373ffffffffffffffffffffffffffffffffffffffff161415610573576040517f08c379a000000000000000000000000000000000000000000000000000000000815260040161056a90612908565b60405180910390fd5b8073ffffffffffffffffffffffffffffffffffffffff166105926111d4565b73ffffffffffffffffffffffffffffffffffffffff1614806105c157506105c0816105bb6111d4565b610ff2565b5b610600576040517f08c379a00000000000000000000000000000000000000000000000000000000081526004016105f790612808565b60405180910390fd5b61060a83836111dc565b505050565b6106176111d4565b73ffffffffffffffffffffffffffffffffffffffff16600660009054906101000a900473ffffffffffffffffffffffffffffffffffffffff1673ffffffffffffffffffffffffffffffffffffffff16146106a6576040517f08c379a000000000000000000000000000000000000000000000000000000000815260040161069d90612728565b60405180910390fd5b6106b08282611295565b5050565b6106c56106bf6111d4565b82611309565b610704576040517f08c379a00000000000000000000000000000000000000000000000000000000081526004016106fb90612928565b60405180910390fd5b61070f8383836113e7565b505050565b61072f83838360405180602001604052806000815250610df7565b505050565b6000811415610778576040517f08c379a000000000000000000000000000000000000000000000000000000000815260040161076f90612748565b60405180910390fd5b61078181611643565b600760009054906101000a900473ffffffffffffffffffffffffffffffffffffffff1673ffffffffffffffffffffffffffffffffffffffff166323b872dd306107c86111d4565b60086000868152602001908152602001600020546040518463ffffffff1660e01b81526004016107fa93929190612668565b600060405180830381600087803b15801561081457600080fd5b505af1158015610828573d6000803e3d6000fd5b50505050806108356111d4565b73ffffffffffffffffffffffffffffffffffffffff167fcc16f5dbb4873280815c1ee09dbd06736cffcc184412cf7a71a0fdb75d397ca560405160405180910390a350565b6108826111d4565b73ffffffffffffffffffffffffffffffffffffffff16600660009054906101000a900473ffffffffffffffffffffffffffffffffffffffff1673ffffffffffffffffffffffffffffffffffffffff1614610911576040517f08c379a000000000000000000000000000000000000000000000000000000000815260040161090890612728565b60405180910390fd5b80600a9080519060200190610927929190611e73565b5050565b6000806002600084815260200190815260200160002060009054906101000a900473ffffffffffffffffffffffffffffffffffffffff169050600073ffffffffffffffffffffffffffffffffffffffff168173ffffffffffffffffffffffffffffffffffffffff1614156109d4576040517f08c379a00000000000000000000000000000000000000000000000000000000081526004016109cb90612848565b60405180910390fd5b80915050919050565b60008073ffffffffffffffffffffffffffffffffffffffff168273ffffffffffffffffffffffffffffffffffffffff161415610a4e576040517f08c379a0000000000000000000000000000000000000000000000000000000008152600401610a4590612828565b60405180910390fd5b600360008373ffffffffffffffffffffffffffffffffffffffff1673ffffffffffffffffffffffffffffffffffffffff168152602001908152602001600020549050919050565b600660009054906101000a900473ffffffffffffffffffffffffffffffffffffffff1681565b606060018054610aca90612b9e565b80601f0160208091040260200160405190810160405280929190818152602001828054610af690612b9e565b8015610b435780601f10610b1857610100808354040283529160200191610b43565b820191906000526020600020905b815481529060010190602001808311610b2657829003601f168201915b5050505050905090565b6000610b59600b611754565b9050816008600083815260200190815260200160002081905550600760009054906101000a900473ffffffffffffffffffffffffffffffffffffffff1673ffffffffffffffffffffffffffffffffffffffff166323b872dd610bb96111d4565b30856040518463ffffffff1660e01b8152600401610bd993929190612668565b600060405180830381600087803b158015610bf357600080fd5b505af1158015610c07573d6000803e3d6000fd5b50505050610c1c610c166111d4565b82611762565b80610c256111d4565b73ffffffffffffffffffffffffffffffffffffffff167f0f6798a560793a54c3bcfe86a93cde1e73087d944c0ea20544137d412139688560405160405180910390a3610c71600b611780565b919050565b610c7e6111d4565b73ffffffffffffffffffffffffffffffffffffffff168273ffffffffffffffffffffffffffffffffffffffff161415610cec576040517f08c379a0000000000000000000000000000000000000000000000000000000008152600401610ce3906127c8565b60405180910390fd5b8060056000610cf96111d4565b73ffffffffffffffffffffffffffffffffffffffff1673ffffffffffffffffffffffffffffffffffffffff16815260200190815260200160002060008473ffffffffffffffffffffffffffffffffffffffff1673ffffffffffffffffffffffffffffffffffffffff16815260200190815260200160002060006101000a81548160ff0219169083151502179055508173ffffffffffffffffffffffffffffffffffffffff16610da66111d4565b73ffffffffffffffffffffffffffffffffffffffff167f17307eab39ab6107e8899845ad3d59bd9653f200f220920489ca2b5937696c3183604051610deb91906126eb565b60405180910390a35050565b610e08610e026111d4565b83611309565b610e47576040517f08c379a0000000000000000000000000000000000000000000000000000000008152600401610e3e90612928565b60405180910390fd5b610e5384848484611796565b50505050565b600760009054906101000a900473ffffffffffffffffffffffffffffffffffffffff1681565b6060610e8a82611168565b610ec9576040517f08c379a0000000000000000000000000000000000000000000000000000000008152600401610ec0906128e8565b60405180910390fd5b6000600960008481526020019081526020016000208054610ee990612b9e565b80601f0160208091040260200160405190810160405280929190818152602001828054610f1590612b9e565b8015610f625780601f10610f3757610100808354040283529160200191610f62565b820191906000526020600020905b815481529060010190602001808311610f4557829003601f168201915b505050505090506000610f736117f2565b9050600081511415610f89578192505050610fed565b600082511115610fbe578082604051602001610fa6929190612629565b60405160208183030381529060405292505050610fed565b80610fc885611884565b604051602001610fd9929190612629565b604051602081830303815290604052925050505b919050565b6000600560008473ffffffffffffffffffffffffffffffffffffffff1673ffffffffffffffffffffffffffffffffffffffff16815260200190815260200160002060008373ffffffffffffffffffffffffffffffffffffffff1673ffffffffffffffffffffffffffffffffffffffff16815260200190815260200160002060009054906101000a900460ff16905092915050565b60007f80ac58cd000000000000000000000000000000000000000000000000000000007bffffffffffffffffffffffffffffffffffffffffffffffffffffffff1916827bffffffffffffffffffffffffffffffffffffffffffffffffffffffff1916148061115157507f5b5e139f000000000000000000000000000000000000000000000000000000007bffffffffffffffffffffffffffffffffffffffffffffffffffffffff1916827bffffffffffffffffffffffffffffffffffffffffffffffffffffffff1916145b80611161575061116082611a31565b5b9050919050565b60008073ffffffffffffffffffffffffffffffffffffffff166002600084815260200190815260200160002060009054906101000a900473ffffffffffffffffffffffffffffffffffffffff1673ffffffffffffffffffffffffffffffffffffffff1614159050919050565b600033905090565b816004600083815260200190815260200160002060006101000a81548173ffffffffffffffffffffffffffffffffffffffff021916908373ffffffffffffffffffffffffffffffffffffffff160217905550808273ffffffffffffffffffffffffffffffffffffffff1661124f8361092b565b73ffffffffffffffffffffffffffffffffffffffff167f8c5be1e5ebec7d5bd14f71427d1e84f3dd0314c0f7b2291e5b200ac8c7c3b92560405160405180910390a45050565b61129e82611168565b6112dd576040517f08c379a00000000000000000000000000000000000000000000000000000000081526004016112d4906128a8565b60405180910390fd5b80600960008481526020019081526020016000209080519060200190611304929190611e73565b505050565b600061131482611168565b611353576040517f08c379a000000000000000000000000000000000000000000000000000000000815260040161134a906127e8565b60405180910390fd5b600061135e8361092b565b90508073ffffffffffffffffffffffffffffffffffffffff168473ffffffffffffffffffffffffffffffffffffffff1614806113cd57508373ffffffffffffffffffffffffffffffffffffffff166113b584610472565b73ffffffffffffffffffffffffffffffffffffffff16145b806113de57506113dd8185610ff2565b5b91505092915050565b8273ffffffffffffffffffffffffffffffffffffffff166114078261092b565b73ffffffffffffffffffffffffffffffffffffffff161461145d576040517f08c379a0000000000000000000000000000000000000000000000000000000008152600401611454906128c8565b60405180910390fd5b600073ffffffffffffffffffffffffffffffffffffffff168273ffffffffffffffffffffffffffffffffffffffff1614156114cd576040517f08c379a00000000000000000000000000000000000000000000000000000000081526004016114c4906127a8565b60405180910390fd5b6114d8838383611a9b565b6114e36000826111dc565b6001600360008573ffffffffffffffffffffffffffffffffffffffff1673ffffffffffffffffffffffffffffffffffffffff16815260200190815260200160002060008282546115339190612ab4565b925050819055506001600360008473ffffffffffffffffffffffffffffffffffffffff1673ffffffffffffffffffffffffffffffffffffffff168152602001908152602001600020600082825461158a9190612a2d565b92505081905550816002600083815260200190815260200160002060006101000a81548173ffffffffffffffffffffffffffffffffffffffff021916908373ffffffffffffffffffffffffffffffffffffffff160217905550808273ffffffffffffffffffffffffffffffffffffffff168473ffffffffffffffffffffffffffffffffffffffff167fddf252ad1be2c89b69c2b068fc378daa952ba7f163c4a11628f55a4df523b3ef60405160405180910390a4505050565b600061164e8261092b565b905061165c81600084611a9b565b6116676000836111dc565b6001600360008373ffffffffffffffffffffffffffffffffffffffff1673ffffffffffffffffffffffffffffffffffffffff16815260200190815260200160002060008282546116b79190612ab4565b925050819055506002600083815260200190815260200160002060006101000a81549073ffffffffffffffffffffffffffffffffffffffff021916905581600073ffffffffffffffffffffffffffffffffffffffff168273ffffffffffffffffffffffffffffffffffffffff167fddf252ad1be2c89b69c2b068fc378daa952ba7f163c4a11628f55a4df523b3ef60405160405180910390a45050565b600081600001549050919050565b61177c828260405180602001604052806000815250611aa0565b5050565b6001816000016000828254019250508190555050565b6117a18484846113e7565b6117ad84848484611afb565b6117ec576040517f08c379a00000000000000000000000000000000000000000000000000000000081526004016117e390612768565b60405180910390fd5b50505050565b6060600a805461180190612b9e565b80601f016020809104026020016040519081016040528092919081815260200182805461182d90612b9e565b801561187a5780601f1061184f5761010080835404028352916020019161187a565b820191906000526020600020905b81548152906001019060200180831161185d57829003601f168201915b5050505050905090565b606060008214156118cc576040518060400160405280600181526020017f30000000000000000000000000000000000000000000000000000000000000008152509050611a2c565b600082905060005b600082146118fe5780806118e790612c01565b915050600a826118f79190612a83565b91506118d4565b60008167ffffffffffffffff811115611940577f4e487b7100000000000000000000000000000000000000000000000000000000600052604160045260246000fd5b6040519080825280601f01601f1916602001820160405280156119725781602001600182028036833780820191505090505b5090505b60008514611a255760018261198b9190612ab4565b9150600a8561199a9190612c4a565b60306119a69190612a2d565b60f81b8183815181106119e2577f4e487b7100000000000000000000000000000000000000000000000000000000600052603260045260246000fd5b60200101907effffffffffffffffffffffffffffffffffffffffffffffffffffffffffffff1916908160001a905350600a85611a1e9190612a83565b9450611976565b8093505050505b919050565b60007f01ffc9a7000000000000000000000000000000000000000000000000000000007bffffffffffffffffffffffffffffffffffffffffffffffffffffffff1916827bffffffffffffffffffffffffffffffffffffffffffffffffffffffff1916149050919050565b505050565b611aaa8383611c92565b611ab76000848484611afb565b611af6576040517f08c379a0000000000000000000000000000000000000000000000000000000008152600401611aed90612768565b60405180910390fd5b505050565b6000611b1c8473ffffffffffffffffffffffffffffffffffffffff16611e60565b15611c85578373ffffffffffffffffffffffffffffffffffffffff1663150b7a02611b456111d4565b8786866040518563ffffffff1660e01b8152600401611b67949392919061269f565b602060405180830381600087803b158015611b8157600080fd5b505af1925050508015611bb257506040513d601f19601f82011682018060405250810190611baf919061221f565b60015b611c35573d8060008114611be2576040519150601f19603f3d011682016040523d82523d6000602084013e611be7565b606091505b50600081511415611c2d576040517f08c379a0000000000000000000000000000000000000000000000000000000008152600401611c2490612768565b60405180910390fd5b805181602001fd5b63150b7a0260e01b7bffffffffffffffffffffffffffffffffffffffffffffffffffffffff1916817bffffffffffffffffffffffffffffffffffffffffffffffffffffffff191614915050611c8a565b600190505b949350505050565b600073ffffffffffffffffffffffffffffffffffffffff168273ffffffffffffffffffffffffffffffffffffffff161415611d02576040517f08c379a0000000000000000000000000000000000000000000000000000000008152600401611cf990612868565b60405180910390fd5b611d0b81611168565b15611d4b576040517f08c379a0000000000000000000000000000000000000000000000000000000008152600401611d4290612788565b60405180910390fd5b611d5760008383611a9b565b6001600360008473ffffffffffffffffffffffffffffffffffffffff1673ffffffffffffffffffffffffffffffffffffffff1681526020019081526020016000206000828254611da79190612a2d565b92505081905550816002600083815260200190815260200160002060006101000a81548173ffffffffffffffffffffffffffffffffffffffff021916908373ffffffffffffffffffffffffffffffffffffffff160217905550808273ffffffffffffffffffffffffffffffffffffffff16600073ffffffffffffffffffffffffffffffffffffffff167fddf252ad1be2c89b69c2b068fc378daa952ba7f163c4a11628f55a4df523b3ef60405160405180910390a45050565b600080823b905060008111915050919050565b828054611e7f90612b9e565b90600052602060002090601f016020900481019282611ea15760008555611ee8565b82601f10611eba57805160ff1916838001178555611ee8565b82800160010185558215611ee8579182015b82811115611ee7578251825591602001919060010190611ecc565b5b509050611ef59190611ef9565b5090565b5b80821115611f12576000816000905550600101611efa565b5090565b6000611f29611f2484612988565b612963565b905082815260208101848484011115611f4157600080fd5b611f4c848285612b5c565b509392505050565b6000611f67611f62846129b9565b612963565b905082815260208101848484011115611f7f57600080fd5b611f8a848285612b5c565b509392505050565b600081359050611fa1816131c9565b92915050565b600081359050611fb6816131e0565b92915050565b600081359050611fcb816131f7565b92915050565b600081519050611fe0816131f7565b92915050565b600082601f830112611ff757600080fd5b8135612007848260208601611f16565b91505092915050565b600082601f83011261202157600080fd5b8135612031848260208601611f54565b91505092915050565b6000813590506120498161320e565b92915050565b60006020828403121561206157600080fd5b600061206f84828501611f92565b91505092915050565b6000806040838503121561208b57600080fd5b600061209985828601611f92565b92505060206120aa85828601611f92565b9150509250929050565b6000806000606084860312156120c957600080fd5b60006120d786828701611f92565b93505060206120e886828701611f92565b92505060406120f98682870161203a565b9150509250925092565b6000806000806080858703121561211957600080fd5b600061212787828801611f92565b945050602061213887828801611f92565b93505060406121498782880161203a565b925050606085013567ffffffffffffffff81111561216657600080fd5b61217287828801611fe6565b91505092959194509250565b6000806040838503121561219157600080fd5b600061219f85828601611f92565b92505060206121b085828601611fa7565b9150509250929050565b600080604083850312156121cd57600080fd5b60006121db85828601611f92565b92505060206121ec8582860161203a565b9150509250929050565b60006020828403121561220857600080fd5b600061221684828501611fbc565b91505092915050565b60006020828403121561223157600080fd5b600061223f84828501611fd1565b91505092915050565b60006020828403121561225a57600080fd5b600082013567ffffffffffffffff81111561227457600080fd5b61228084828501612010565b91505092915050565b60006020828403121561229b57600080fd5b60006122a98482850161203a565b91505092915050565b600080604083850312156122c557600080fd5b60006122d38582860161203a565b925050602083013567ffffffffffffffff8111156122f057600080fd5b6122fc85828601612010565b9150509250929050565b61230f81612ae8565b82525050565b61231e81612afa565b82525050565b600061232f826129ea565b6123398185612a00565b9350612349818560208601612b6b565b61235281612d37565b840191505092915050565b6000612368826129f5565b6123728185612a11565b9350612382818560208601612b6b565b61238b81612d37565b840191505092915050565b60006123a1826129f5565b6123ab8185612a22565b93506123bb818560208601612b6b565b80840191505092915050565b60006123d4602083612a11565b91506123df82612d48565b602082019050919050565b60006123f7602083612a11565b915061240282612d71565b602082019050919050565b600061241a603283612a11565b915061242582612d9a565b604082019050919050565b600061243d601c83612a11565b915061244882612de9565b602082019050919050565b6000612460602483612a11565b915061246b82612e12565b604082019050919050565b6000612483601983612a11565b915061248e82612e61565b602082019050919050565b60006124a6602c83612a11565b91506124b182612e8a565b604082019050919050565b60006124c9603883612a11565b91506124d482612ed9565b604082019050919050565b60006124ec602a83612a11565b91506124f782612f28565b604082019050919050565b600061250f602983612a11565b915061251a82612f77565b604082019050919050565b6000612532602083612a11565b915061253d82612fc6565b602082019050919050565b6000612555602c83612a11565b915061256082612fef565b604082019050919050565b6000612578602c83612a11565b91506125838261303e565b604082019050919050565b600061259b602983612a11565b91506125a68261308d565b604082019050919050565b60006125be602f83612a11565b91506125c9826130dc565b604082019050919050565b60006125e1602183612a11565b91506125ec8261312b565b604082019050919050565b6000612604603183612a11565b915061260f8261317a565b604082019050919050565b61262381612b52565b82525050565b60006126358285612396565b91506126418284612396565b91508190509392505050565b60006020820190506126626000830184612306565b92915050565b600060608201905061267d6000830186612306565b61268a6020830185612306565b612697604083018461261a565b949350505050565b60006080820190506126b46000830187612306565b6126c16020830186612306565b6126ce604083018561261a565b81810360608301526126e08184612324565b905095945050505050565b60006020820190506127006000830184612315565b92915050565b60006020820190508181036000830152612720818461235d565b905092915050565b60006020820190508181036000830152612741816123c7565b9050919050565b60006020820190508181036000830152612761816123ea565b9050919050565b600060208201905081810360008301526127818161240d565b9050919050565b600060208201905081810360008301526127a181612430565b9050919050565b600060208201905081810360008301526127c181612453565b9050919050565b600060208201905081810360008301526127e181612476565b9050919050565b6000602082019050818103600083015261280181612499565b9050919050565b60006020820190508181036000830152612821816124bc565b9050919050565b60006020820190508181036000830152612841816124df565b9050919050565b6000602082019050818103600083015261286181612502565b9050919050565b6000602082019050818103600083015261288181612525565b9050919050565b600060208201905081810360008301526128a181612548565b9050919050565b600060208201905081810360008301526128c18161256b565b9050919050565b600060208201905081810360008301526128e18161258e565b9050919050565b60006020820190508181036000830152612901816125b1565b9050919050565b60006020820190508181036000830152612921816125d4565b9050919050565b60006020820190508181036000830152612941816125f7565b9050919050565b600060208201905061295d600083018461261a565b92915050565b600061296d61297e565b90506129798282612bd0565b919050565b6000604051905090565b600067ffffffffffffffff8211156129a3576129a2612d08565b5b6129ac82612d37565b9050602081019050919050565b600067ffffffffffffffff8211156129d4576129d3612d08565b5b6129dd82612d37565b9050602081019050919050565b600081519050919050565b600081519050919050565b600082825260208201905092915050565b600082825260208201905092915050565b600081905092915050565b6000612a3882612b52565b9150612a4383612b52565b9250827fffffffffffffffffffffffffffffffffffffffffffffffffffffffffffffffff03821115612a7857612a77612c7b565b5b828201905092915050565b6000612a8e82612b52565b9150612a9983612b52565b925082612aa957612aa8612caa565b5b828204905092915050565b6000612abf82612b52565b9150612aca83612b52565b925082821015612add57612adc612c7b565b5b828203905092915050565b6000612af382612b32565b9050919050565b60008115159050919050565b60007fffffffff0000000000000000000000000000000000000000000000000000000082169050919050565b600073ffffffffffffffffffffffffffffffffffffffff82169050919050565b6000819050919050565b82818337600083830152505050565b60005b83811015612b89578082015181840152602081019050612b6e565b83811115612b98576000848401525b50505050565b60006002820490506001821680612bb657607f821691505b60208210811415612bca57612bc9612cd9565b5b50919050565b612bd982612d37565b810181811067ffffffffffffffff82111715612bf857612bf7612d08565b5b80604052505050565b6000612c0c82612b52565b91507fffffffffffffffffffffffffffffffffffffffffffffffffffffffffffffffff821415612c3f57612c3e612c7b565b5b600182019050919050565b6000612c5582612b52565b9150612c6083612b52565b925082612c7057612c6f612caa565b5b828206905092915050565b7f4e487b7100000000000000000000000000000000000000000000000000000000600052601160045260246000fd5b7f4e487b7100000000000000000000000000000000000000000000000000000000600052601260045260246000fd5b7f4e487b7100000000000000000000000000000000000000000000000000000000600052602260045260246000fd5b7f4e487b7100000000000000000000000000000000000000000000000000000000600052604160045260246000fd5b6000601f19601f8301169050919050565b7f4e4654426173653a2063616c6c6572206973206e6f7420746865206f776e6572600082015250565b7f4e4654426173653a20746f6b656e2069642063616e6e6f74206265207a65726f600082015250565b7f4552433732313a207472616e7366657220746f206e6f6e20455243373231526560008201527f63656976657220696d706c656d656e7465720000000000000000000000000000602082015250565b7f4552433732313a20746f6b656e20616c7265616479206d696e74656400000000600082015250565b7f4552433732313a207472616e7366657220746f20746865207a65726f2061646460008201527f7265737300000000000000000000000000000000000000000000000000000000602082015250565b7f4552433732313a20617070726f766520746f2063616c6c657200000000000000600082015250565b7f4552433732313a206f70657261746f7220717565727920666f72206e6f6e657860008201527f697374656e7420746f6b656e0000000000000000000000000000000000000000602082015250565b7f4552433732313a20617070726f76652063616c6c6572206973206e6f74206f7760008201527f6e6572206e6f7220617070726f76656420666f7220616c6c0000000000000000602082015250565b7f4552433732313a2062616c616e636520717565727920666f7220746865207a6560008201527f726f206164647265737300000000000000000000000000000000000000000000602082015250565b7f4552433732313a206f776e657220717565727920666f72206e6f6e657869737460008201527f656e7420746f6b656e0000000000000000000000000000000000000000000000602082015250565b7f4552433732313a206d696e7420746f20746865207a65726f2061646472657373600082015250565b7f4552433732313a20617070726f76656420717565727920666f72206e6f6e657860008201527f697374656e7420746f6b656e0000000000000000000000000000000000000000602082015250565b7f4552433732314d657461646174613a2055524920736574206f66206e6f6e657860008201527f697374656e7420746f6b656e0000000000000000000000000000000000000000602082015250565b7f4552433732313a207472616e73666572206f6620746f6b656e2074686174206960008201527f73206e6f74206f776e0000000000000000000000000000000000000000000000602082015250565b7f4552433732314d657461646174613a2055524920717565727920666f72206e6f60008201527f6e6578697374656e7420746f6b656e0000000000000000000000000000000000602082015250565b7f4552433732313a20617070726f76616c20746f2063757272656e74206f776e6560008201527f7200000000000000000000000000000000000000000000000000000000000000602082015250565b7f4552433732313a207472616e736665722063616c6c6572206973206e6f74206f60008201527f776e6572206e6f7220617070726f766564000000000000000000000000000000602082015250565b6131d281612ae8565b81146131dd57600080fd5b50565b6131e981612afa565b81146131f457600080fd5b50565b61320081612b06565b811461320b57600080fd5b50565b61321781612b52565b811461322257600080fd5b5056fea26469706673582212208f5449ee6d078395037ce8608fd1dba62fd3540f7c7806ed711360d51525cc5164736f6c63430008040033a2646970667358221220e4de7ab95c0be03a39ef00e2b539fd363ce6737a9e25128bfddea65773f277cb64736f6c63430008040033",
  "linkReferences": {},
  "deployedLinkReferences": {}
}