{
  "_format": "hh-sol-artifact-1",
  "contractName": "MyERC721Token",
  "sourceName": "contracts/MyERC721Token.sol",
  "abi": [
    {
      "inputs": [
        {
          "internalType": "string",
          "name": "_name",
          "type": "string"
        },
        {
          "internalType": "string",
          "name": "_symbol",
          "type": "string"
        },
        {
          "internalType": "string",
          "name": "baseTokenURI",
          "type": "string"
        }
      ],
      "stateMutability": "nonpayable",
      "type": "constructor"
    },
    {
      "anonymous": false,
      "inputs": [
        {
          "indexed": true,
          "internalType": "address",
          "name": "owner",
          "type": "address"
        },
        {
          "indexed": true,
          "internalType": "address",
          "name": "approved",
          "type": "address"
        },
        {
          "indexed": true,
          "internalType": "uint256",
          "name": "tokenId",
          "type": "uint256"
        }
      ],
      "name": "Approval",
      "type": "event"
    },
    {
      "anonymous": false,
      "inputs": [
        {
          "indexed": true,
          "internalType": "address",
          "name": "owner",
          "type": "address"
        },
        {
          "indexed": true,
          "internalType": "address",
          "name": "operator",
          "type": "address"
        },
        {
          "indexed": false,
          "internalType": "bool",
          "name": "approved",
          "type": "bool"
        }
      ],
      "name": "ApprovalForAll",
      "type": "event"
    },
    {
      "anonymous": false,
      "inputs": [
        {
          "indexed": false,
          "internalType": "address",
          "name": "account",
          "type": "address"
        }
      ],
      "name": "Paused",
      "type": "event"
    },
    {
      "anonymous": false,
      "inputs": [
        {
          "indexed": true,
          "internalType": "bytes32",
          "name": "role",
          "type": "bytes32"
        },
        {
          "indexed": true,
          "internalType": "bytes32",
          "name": "previousAdminRole",
          "type": "bytes32"
        },
        {
          "indexed": true,
          "internalType": "bytes32",
          "name": "newAdminRole",
          "type": "bytes32"
        }
      ],
      "name": "RoleAdminChanged",
      "type": "event"
    },
    {
      "anonymous": false,
      "inputs": [
        {
          "indexed": true,
          "internalType": "bytes32",
          "name": "role",
          "type": "bytes32"
        },
        {
          "indexed": true,
          "internalType": "address",
          "name": "account",
          "type": "address"
        },
        {
          "indexed": true,
          "internalType": "address",
          "name": "sender",
          "type": "address"
        }
      ],
      "name": "RoleGranted",
      "type": "event"
    },
    {
      "anonymous": false,
      "inputs": [
        {
          "indexed": true,
          "internalType": "bytes32",
          "name": "role",
          "type": "bytes32"
        },
        {
          "indexed": true,
          "internalType": "address",
          "name": "account",
          "type": "address"
        },
        {
          "indexed": true,
          "internalType": "address",
          "name": "sender",
          "type": "address"
        }
      ],
      "name": "RoleRevoked",
      "type": "event"
    },
    {
      "anonymous": false,
      "inputs": [
        {
          "indexed": true,
          "internalType": "address",
          "name": "from",
          "type": "address"
        },
        {
          "indexed": true,
          "internalType": "address",
          "name": "to",
          "type": "address"
        },
        {
          "indexed": true,
          "internalType": "uint256",
          "name": "tokenId",
          "type": "uint256"
        }
      ],
      "name": "Transfer",
      "type": "event"
    },
    {
      "anonymous": false,
      "inputs": [
        {
          "indexed": false,
          "internalType": "address",
          "name": "account",
          "type": "address"
        }
      ],
      "name": "Unpaused",
      "type": "event"
    },
    {
      "inputs": [],
      "name": "DEFAULT_ADMIN_ROLE",
      "outputs": [
        {
          "internalType": "bytes32",
          "name": "",
          "type": "bytes32"
        }
      ],
      "stateMutability": "view",
      "type": "function"
    },
    {
      "inputs": [],
      "name": "MINTER_ROLE",
      "outputs": [
        {
          "internalType": "bytes32",
          "name": "",
          "type": "bytes32"
        }
      ],
      "stateMutability": "view",
      "type": "function"
    },
    {
      "inputs": [],
      "name": "PAUSER_ROLE",
      "outputs": [
        {
          "internalType": "bytes32",
          "name": "",
          "type": "bytes32"
        }
      ],
      "stateMutability": "view",
      "type": "function"
    },
    {
      "inputs": [
        {
          "internalType": "address",
          "name": "to",
          "type": "address"
        },
        {
          "internalType": "uint256",
          "name": "tokenId",
          "type": "uint256"
        }
      ],
      "name": "approve",
      "outputs": [],
      "stateMutability": "nonpayable",
      "type": "function"
    },
    {
      "inputs": [
        {
          "internalType": "address",
          "name": "owner",
          "type": "address"
        }
      ],
      "name": "balanceOf",
      "outputs": [
        {
          "internalType": "uint256",
          "name": "",
          "type": "uint256"
        }
      ],
      "stateMutability": "view",
      "type": "function"
    },
    {
      "inputs": [
        {
          "internalType": "uint256",
          "name": "tokenId",
          "type": "uint256"
        }
      ],
      "name": "burn",
      "outputs": [],
      "stateMutability": "nonpayable",
      "type": "function"
    },
    {
      "inputs": [
        {
          "internalType": "uint256",
          "name": "tokenId",
          "type": "uint256"
        }
      ],
      "name": "getApproved",
      "outputs": [
        {
          "internalType": "address",
          "name": "",
          "type": "address"
        }
      ],
      "stateMutability": "view",
      "type": "function"
    },
    {
      "inputs": [
        {
          "internalType": "bytes32",
          "name": "role",
          "type": "bytes32"
        }
      ],
      "name": "getRoleAdmin",
      "outputs": [
        {
          "internalType": "bytes32",
          "name": "",
          "type": "bytes32"
        }
      ],
      "stateMutability": "view",
      "type": "function"
    },
    {
      "inputs": [
        {
          "internalType": "bytes32",
          "name": "role",
          "type": "bytes32"
        },
        {
          "internalType": "uint256",
          "name": "index",
          "type": "uint256"
        }
      ],
      "name": "getRoleMember",
      "outputs": [
        {
          "internalType": "address",
          "name": "",
          "type": "address"
        }
      ],
      "stateMutability": "view",
      "type": "function"
    },
    {
      "inputs": [
        {
          "internalType": "bytes32",
          "name": "role",
          "type": "bytes32"
        }
      ],
      "name": "getRoleMemberCount",
      "outputs": [
        {
          "internalType": "uint256",
          "name": "",
          "type": "uint256"
        }
      ],
      "stateMutability": "view",
      "type": "function"
    },
    {
      "inputs": [
        {
          "internalType": "bytes32",
          "name": "role",
          "type": "bytes32"
        },
        {
          "internalType": "address",
          "name": "account",
          "type": "address"
        }
      ],
      "name": "grantRole",
      "outputs": [],
      "stateMutability": "nonpayable",
      "type": "function"
    },
    {
      "inputs": [
        {
          "internalType": "bytes32",
          "name": "role",
          "type": "bytes32"
        },
        {
          "internalType": "address",
          "name": "account",
          "type": "address"
        }
      ],
      "name": "hasRole",
      "outputs": [
        {
          "internalType": "bool",
          "name": "",
          "type": "bool"
        }
      ],
      "stateMutability": "view",
      "type": "function"
    },
    {
      "inputs": [
        {
          "internalType": "address",
          "name": "owner",
          "type": "address"
        },
        {
          "internalType": "address",
          "name": "operator",
          "type": "address"
        }
      ],
      "name": "isApprovedForAll",
      "outputs": [
        {
          "internalType": "bool",
          "name": "",
          "type": "bool"
        }
      ],
      "stateMutability": "view",
      "type": "function"
    },
    {
      "inputs": [
        {
          "internalType": "address",
          "name": "to",
          "type": "address"
        }
      ],
      "name": "mint",
      "outputs": [],
      "stateMutability": "nonpayable",
      "type": "function"
    },
    {
      "inputs": [],
      "name": "name",
      "outputs": [
        {
          "internalType": "string",
          "name": "",
          "type": "string"
        }
      ],
      "stateMutability": "view",
      "type": "function"
    },
    {
      "inputs": [
        {
          "internalType": "address",
          "name": "",
          "type": "address"
        },
        {
          "internalType": "address",
          "name": "",
          "type": "address"
        },
        {
          "internalType": "uint256",
          "name": "",
          "type": "uint256"
        },
        {
          "internalType": "bytes",
          "name": "",
          "type": "bytes"
        }
      ],
      "name": "onERC721Received",
      "outputs": [
        {
          "internalType": "bytes4",
          "name": "",
          "type": "bytes4"
        }
      ],
      "stateMutability": "nonpayable",
      "type": "function"
    },
    {
      "inputs": [
        {
          "internalType": "uint256",
          "name": "tokenId",
          "type": "uint256"
        }
      ],
      "name": "ownerOf",
      "outputs": [
        {
          "internalType": "address",
          "name": "",
          "type": "address"
        }
      ],
      "stateMutability": "view",
      "type": "function"
    },
    {
      "inputs": [],
      "name": "pause",
      "outputs": [],
      "stateMutability": "nonpayable",
      "type": "function"
    },
    {
      "inputs": [],
      "name": "paused",
      "outputs": [
        {
          "internalType": "bool",
          "name": "",
          "type": "bool"
        }
      ],
      "stateMutability": "view",
      "type": "function"
    },
    {
      "inputs": [
        {
          "internalType": "bytes32",
          "name": "role",
          "type": "bytes32"
        },
        {
          "internalType": "address",
          "name": "account",
          "type": "address"
        }
      ],
      "name": "renounceRole",
      "outputs": [],
      "stateMutability": "nonpayable",
      "type": "function"
    },
    {
      "inputs": [
        {
          "internalType": "bytes32",
          "name": "role",
          "type": "bytes32"
        },
        {
          "internalType": "address",
          "name": "account",
          "type": "address"
        }
      ],
      "name": "revokeRole",
      "outputs": [],
      "stateMutability": "nonpayable",
      "type": "function"
    },
    {
      "inputs": [
        {
          "internalType": "address",
          "name": "from",
          "type": "address"
        },
        {
          "internalType": "address",
          "name": "to",
          "type": "address"
        },
        {
          "internalType": "uint256",
          "name": "tokenId",
          "type": "uint256"
        }
      ],
      "name": "safeTransferFrom",
      "outputs": [],
      "stateMutability": "nonpayable",
      "type": "function"
    },
    {
      "inputs": [
        {
          "internalType": "address",
          "name": "from",
          "type": "address"
        },
        {
          "internalType": "address",
          "name": "to",
          "type": "address"
        },
        {
          "internalType": "uint256",
          "name": "tokenId",
          "type": "uint256"
        },
        {
          "internalType": "bytes",
          "name": "_data",
          "type": "bytes"
        }
      ],
      "name": "safeTransferFrom",
      "outputs": [],
      "stateMutability": "nonpayable",
      "type": "function"
    },
    {
      "inputs": [
        {
          "internalType": "address",
          "name": "operator",
          "type": "address"
        },
        {
          "internalType": "bool",
          "name": "approved",
          "type": "bool"
        }
      ],
      "name": "setApprovalForAll",
      "outputs": [],
      "stateMutability": "nonpayable",
      "type": "function"
    },
    {
      "inputs": [
        {
          "internalType": "bytes4",
          "name": "interfaceId",
          "type": "bytes4"
        }
      ],
      "name": "supportsInterface",
      "outputs": [
        {
          "internalType": "bool",
          "name": "",
          "type": "bool"
        }
      ],
      "stateMutability": "view",
      "type": "function"
    },
    {
      "inputs": [],
      "name": "symbol",
      "outputs": [
        {
          "internalType": "string",
          "name": "",
          "type": "string"
        }
      ],
      "stateMutability": "view",
      "type": "function"
    },
    {
      "inputs": [
        {
          "internalType": "uint256",
          "name": "index",
          "type": "uint256"
        }
      ],
      "name": "tokenByIndex",
      "outputs": [
        {
          "internalType": "uint256",
          "name": "",
          "type": "uint256"
        }
      ],
      "stateMutability": "view",
      "type": "function"
    },
    {
      "inputs": [
        {
          "internalType": "address",
          "name": "owner",
          "type": "address"
        },
        {
          "internalType": "uint256",
          "name": "index",
          "type": "uint256"
        }
      ],
      "name": "tokenOfOwnerByIndex",
      "outputs": [
        {
          "internalType": "uint256",
          "name": "",
          "type": "uint256"
        }
      ],
      "stateMutability": "view",
      "type": "function"
    },
    {
      "inputs": [
        {
          "internalType": "uint256",
          "name": "tokenId",
          "type": "uint256"
        }
      ],
      "name": "tokenURI",
      "outputs": [
        {
          "internalType": "string",
          "name": "",
          "type": "string"
        }
      ],
      "stateMutability": "view",
      "type": "function"
    },
    {
      "inputs": [],
      "name": "totalSupply",
      "outputs": [
        {
          "internalType": "uint256",
          "name": "",
          "type": "uint256"
        }
      ],
      "stateMutability": "view",
      "type": "function"
    },
    {
      "inputs": [
        {
          "internalType": "address",
          "name": "from",
          "type": "address"
        },
        {
          "internalType": "address",
          "name": "to",
          "type": "address"
        },
        {
          "internalType": "uint256",
          "name": "tokenId",
          "type": "uint256"
        }
      ],
      "name": "transferFrom",
      "outputs": [],
      "stateMutability": "nonpayable",
      "type": "function"
    },
    {
      "inputs": [],
      "name": "unpause",
      "outputs": [],
      "stateMutability": "nonpayable",
      "type": "function"
    }
  ],
  "bytecode": "0x608060405260405180602001604052806001815250600d6000820151816000015550503480156200002f57600080fd5b506040516200515738038062005157833981810160405281019062000055919062000526565b828281600290805190602001906200006f92919062000404565b5080600390805190602001906200008892919062000404565b5050506000600c60006101000a81548160ff02191690831515021790555080600e9080519060200190620000be92919062000404565b50620000e36000801b620000d76200016e60201b60201c565b6200017660201b60201c565b620001247f9f2df0fed2c77648de5860a4cc508cd0818c85b8b8a1ab4ceeef8d981c8956a6620001186200016e60201b60201c565b6200017660201b60201c565b620001657f65d7a28e3265b37a6474929f336521b332c1681b933f6cb9f3376673440d862a620001596200016e60201b60201c565b6200017660201b60201c565b50505062000737565b600033905090565b6200018d8282620001be60201b620013591760201c565b620001b98160016000858152602001908152602001600020620001d460201b620013671790919060201c565b505050565b620001d082826200020c60201b60201c565b5050565b600062000204836000018373ffffffffffffffffffffffffffffffffffffffff1660001b620002fd60201b60201c565b905092915050565b6200021e82826200037760201b60201c565b620002f957600160008084815260200190815260200160002060000160008373ffffffffffffffffffffffffffffffffffffffff1673ffffffffffffffffffffffffffffffffffffffff16815260200190815260200160002060006101000a81548160ff0219169083151502179055506200029e6200016e60201b60201c565b73ffffffffffffffffffffffffffffffffffffffff168173ffffffffffffffffffffffffffffffffffffffff16837f2f8788117e7eff1d82e926ec794901d17c78024a50270940304540a733656f0d60405160405180910390a45b5050565b6000620003118383620003e160201b60201c565b6200036c57826000018290806001815401808255809150506001900390600052602060002001600090919091909150558260000180549050836001016000848152602001908152602001600020819055506001905062000371565b600090505b92915050565b600080600084815260200190815260200160002060000160008373ffffffffffffffffffffffffffffffffffffffff1673ffffffffffffffffffffffffffffffffffffffff16815260200190815260200160002060009054906101000a900460ff16905092915050565b600080836001016000848152602001908152602001600020541415905092915050565b82805462000412906200065c565b90600052602060002090601f01602090048101928262000436576000855562000482565b82601f106200045157805160ff191683800117855562000482565b8280016001018555821562000482579182015b828111156200048157825182559160200191906001019062000464565b5b50905062000491919062000495565b5090565b5b80821115620004b057600081600090555060010162000496565b5090565b6000620004cb620004c584620005f0565b620005c7565b905082815260208101848484011115620004e457600080fd5b620004f184828562000626565b509392505050565b600082601f8301126200050b57600080fd5b81516200051d848260208601620004b4565b91505092915050565b6000806000606084860312156200053c57600080fd5b600084015167ffffffffffffffff8111156200055757600080fd5b6200056586828701620004f9565b935050602084015167ffffffffffffffff8111156200058357600080fd5b6200059186828701620004f9565b925050604084015167ffffffffffffffff811115620005af57600080fd5b620005bd86828701620004f9565b9150509250925092565b6000620005d3620005e6565b9050620005e1828262000692565b919050565b6000604051905090565b600067ffffffffffffffff8211156200060e576200060d620006f7565b5b620006198262000726565b9050602081019050919050565b60005b838110156200064657808201518184015260208101905062000629565b8381111562000656576000848401525b50505050565b600060028204905060018216806200067557607f821691505b602082108114156200068c576200068b620006c8565b5b50919050565b6200069d8262000726565b810181811067ffffffffffffffff82111715620006bf57620006be620006f7565b5b80604052505050565b7f4e487b7100000000000000000000000000000000000000000000000000000000600052602260045260246000fd5b7f4e487b7100000000000000000000000000000000000000000000000000000000600052604160045260246000fd5b6000601f19601f8301169050919050565b614a1080620007476000396000f3fe608060405234801561001057600080fd5b50600436106101f05760003560e01c80636352211e1161010f578063a22cb465116100a2578063d539139311610071578063d5391393146105db578063d547741f146105f9578063e63ab1e914610615578063e985e9c514610633576101f0565b8063a22cb46514610543578063b88d4fde1461055f578063c87b56dd1461057b578063ca15c873146105ab576101f0565b80639010d07c116100de5780639010d07c146104a757806391d14854146104d757806395d89b4114610507578063a217fddf14610525576101f0565b80636352211e146104215780636a6278421461045157806370a082311461046d5780638456cb591461049d576101f0565b80632f2ff15d1161018757806342842e0e1161015657806342842e0e1461039b57806342966c68146103b75780634f6ccce7146103d35780635c975abb14610403576101f0565b80632f2ff15d146103295780632f745c591461034557806336568abe146103755780633f4ba83a14610391576101f0565b8063150b7a02116101c3578063150b7a021461028f57806318160ddd146102bf57806323b872dd146102dd578063248a9ca3146102f9576101f0565b806301ffc9a7146101f557806306fdde0314610225578063081812fc14610243578063095ea7b314610273575b600080fd5b61020f600480360381019061020a9190613473565b610663565b60405161021c9190613a52565b60405180910390f35b61022d610675565b60405161023a9190613aa3565b60405180910390f35b61025d600480360381019061025891906134c5565b610707565b60405161026a91906139eb565b60405180910390f35b61028d60048036038101906102889190613396565b61078c565b005b6102a960048036038101906102a491906132df565b6108a4565b6040516102b69190613a88565b60405180910390f35b6102c76108b8565b6040516102d49190613de5565b60405180910390f35b6102f760048036038101906102f29190613290565b6108c5565b005b610313600480360381019061030e91906133d2565b610925565b6040516103209190613a6d565b60405180910390f35b610343600480360381019061033e91906133fb565b610944565b005b61035f600480360381019061035a9190613396565b610978565b60405161036c9190613de5565b60405180910390f35b61038f600480360381019061038a91906133fb565b610a1d565b005b610399610a51565b005b6103b560048036038101906103b09190613290565b610acb565b005b6103d160048036038101906103cc91906134c5565b610aeb565b005b6103ed60048036038101906103e891906134c5565b610b47565b6040516103fa9190613de5565b60405180910390f35b61040b610bde565b6040516104189190613a52565b60405180910390f35b61043b600480360381019061043691906134c5565b610bf5565b60405161044891906139eb565b60405180910390f35b61046b6004803603810190610466919061322b565b610ca7565b005b6104876004803603810190610482919061322b565b610d37565b6040516104949190613de5565b60405180910390f35b6104a5610def565b005b6104c160048036038101906104bc9190613437565b610e69565b6040516104ce91906139eb565b60405180910390f35b6104f160048036038101906104ec91906133fb565b610e98565b6040516104fe9190613a52565b60405180910390f35b61050f610f02565b60405161051c9190613aa3565b60405180910390f35b61052d610f94565b60405161053a9190613a6d565b60405180910390f35b61055d6004803603810190610558919061335a565b610f9b565b005b610579600480360381019061057491906132df565b61111c565b005b610595600480360381019061059091906134c5565b61117e565b6040516105a29190613aa3565b60405180910390f35b6105c560048036038101906105c091906133d2565b611225565b6040516105d29190613de5565b60405180910390f35b6105e3611249565b6040516105f09190613a6d565b60405180910390f35b610613600480360381019061060e91906133fb565b61126d565b005b61061d6112a1565b60405161062a9190613a6d565b60405180910390f35b61064d60048036038101906106489190613254565b6112c5565b60405161065a9190613a52565b60405180910390f35b600061066e82611397565b9050919050565b60606002805461068490614098565b80601f01602080910402602001604051908101604052809291908181526020018280546106b090614098565b80156106fd5780601f106106d2576101008083540402835291602001916106fd565b820191906000526020600020905b8154815290600101906020018083116106e057829003601f168201915b5050505050905090565b600061071282611411565b610751576040517f08c379a000000000000000000000000000000000000000000000000000000000815260040161074890613ca5565b60405180910390fd5b6006600083815260200190815260200160002060009054906101000a900473ffffffffffffffffffffffffffffffffffffffff169050919050565b600061079782610bf5565b90508073ffffffffffffffffffffffffffffffffffffffff168373ffffffffffffffffffffffffffffffffffffffff161415610808576040517f08c379a00000000000000000000000000000000000000000000000000000000081526004016107ff90613d05565b60405180910390fd5b8073ffffffffffffffffffffffffffffffffffffffff1661082761147d565b73ffffffffffffffffffffffffffffffffffffffff16148061085657506108558161085061147d565b6112c5565b5b610895576040517f08c379a000000000000000000000000000000000000000000000000000000000815260040161088c90613c25565b60405180910390fd5b61089f8383611485565b505050565b600063150b7a0260e01b9050949350505050565b6000600a80549050905090565b6108d66108d061147d565b8261153e565b610915576040517f08c379a000000000000000000000000000000000000000000000000000000000815260040161090c90613d25565b60405180910390fd5b61092083838361161c565b505050565b6000806000838152602001908152602001600020600101549050919050565b61094e8282611878565b610973816001600085815260200190815260200160002061136790919063ffffffff16565b505050565b600061098383610d37565b82106109c4576040517f08c379a00000000000000000000000000000000000000000000000000000000081526004016109bb90613b25565b60405180910390fd5b600860008473ffffffffffffffffffffffffffffffffffffffff1673ffffffffffffffffffffffffffffffffffffffff168152602001908152602001600020600083815260200190815260200160002054905092915050565b610a2782826118a1565b610a4c816001600085815260200190815260200160002061192490919063ffffffff16565b505050565b610a827f65d7a28e3265b37a6474929f336521b332c1681b933f6cb9f3376673440d862a610a7d61147d565b610e98565b610ac1576040517f08c379a0000000000000000000000000000000000000000000000000000000008152600401610ab890613da5565b60405180910390fd5b610ac9611954565b565b610ae68383836040518060200160405280600081525061111c565b505050565b610afc610af661147d565b8261153e565b610b3b576040517f08c379a0000000000000000000000000000000000000000000000000000000008152600401610b3290613d85565b60405180910390fd5b610b44816119f6565b50565b6000610b516108b8565b8210610b92576040517f08c379a0000000000000000000000000000000000000000000000000000000008152600401610b8990613d45565b60405180910390fd5b600a8281548110610bcc577f4e487b7100000000000000000000000000000000000000000000000000000000600052603260045260246000fd5b90600052602060002001549050919050565b6000600c60009054906101000a900460ff16905090565b6000806004600084815260200190815260200160002060009054906101000a900473ffffffffffffffffffffffffffffffffffffffff169050600073ffffffffffffffffffffffffffffffffffffffff168173ffffffffffffffffffffffffffffffffffffffff161415610c9e576040517f08c379a0000000000000000000000000000000000000000000000000000000008152600401610c9590613c65565b60405180910390fd5b80915050919050565b610cd87f9f2df0fed2c77648de5860a4cc508cd0818c85b8b8a1ab4ceeef8d981c8956a6610cd361147d565b610e98565b610d17576040517f08c379a0000000000000000000000000000000000000000000000000000000008152600401610d0e90613d65565b60405180910390fd5b610d2a81610d25600d611b07565b611b15565b610d34600d611ce3565b50565b60008073ffffffffffffffffffffffffffffffffffffffff168273ffffffffffffffffffffffffffffffffffffffff161415610da8576040517f08c379a0000000000000000000000000000000000000000000000000000000008152600401610d9f90613c45565b60405180910390fd5b600560008373ffffffffffffffffffffffffffffffffffffffff1673ffffffffffffffffffffffffffffffffffffffff168152602001908152602001600020549050919050565b610e207f65d7a28e3265b37a6474929f336521b332c1681b933f6cb9f3376673440d862a610e1b61147d565b610e98565b610e5f576040517f08c379a0000000000000000000000000000000000000000000000000000000008152600401610e5690613b85565b60405180910390fd5b610e67611cf9565b565b6000610e908260016000868152602001908152602001600020611d9c90919063ffffffff16565b905092915050565b600080600084815260200190815260200160002060000160008373ffffffffffffffffffffffffffffffffffffffff1673ffffffffffffffffffffffffffffffffffffffff16815260200190815260200160002060009054906101000a900460ff16905092915050565b606060038054610f1190614098565b80601f0160208091040260200160405190810160405280929190818152602001828054610f3d90614098565b8015610f8a5780601f10610f5f57610100808354040283529160200191610f8a565b820191906000526020600020905b815481529060010190602001808311610f6d57829003601f168201915b5050505050905090565b6000801b81565b610fa361147d565b73ffffffffffffffffffffffffffffffffffffffff168273ffffffffffffffffffffffffffffffffffffffff161415611011576040517f08c379a000000000000000000000000000000000000000000000000000000000815260040161100890613bc5565b60405180910390fd5b806007600061101e61147d565b73ffffffffffffffffffffffffffffffffffffffff1673ffffffffffffffffffffffffffffffffffffffff16815260200190815260200160002060008473ffffffffffffffffffffffffffffffffffffffff1673ffffffffffffffffffffffffffffffffffffffff16815260200190815260200160002060006101000a81548160ff0219169083151502179055508173ffffffffffffffffffffffffffffffffffffffff166110cb61147d565b73ffffffffffffffffffffffffffffffffffffffff167f17307eab39ab6107e8899845ad3d59bd9653f200f220920489ca2b5937696c31836040516111109190613a52565b60405180910390a35050565b61112d61112761147d565b8361153e565b61116c576040517f08c379a000000000000000000000000000000000000000000000000000000000815260040161116390613d25565b60405180910390fd5b61117884848484611db6565b50505050565b606061118982611411565b6111c8576040517f08c379a00000000000000000000000000000000000000000000000000000000081526004016111bf90613ce5565b60405180910390fd5b60006111d2611e12565b905060008151116111f2576040518060200160405280600081525061121d565b806111fc84611ea4565b60405160200161120d92919061398d565b6040516020818303038152906040525b915050919050565b600061124260016000848152602001908152602001600020612051565b9050919050565b7f9f2df0fed2c77648de5860a4cc508cd0818c85b8b8a1ab4ceeef8d981c8956a681565b6112778282612066565b61129c816001600085815260200190815260200160002061192490919063ffffffff16565b505050565b7f65d7a28e3265b37a6474929f336521b332c1681b933f6cb9f3376673440d862a81565b6000600760008473ffffffffffffffffffffffffffffffffffffffff1673ffffffffffffffffffffffffffffffffffffffff16815260200190815260200160002060008373ffffffffffffffffffffffffffffffffffffffff1673ffffffffffffffffffffffffffffffffffffffff16815260200190815260200160002060009054906101000a900460ff16905092915050565b611363828261208f565b5050565b600061138f836000018373ffffffffffffffffffffffffffffffffffffffff1660001b61216f565b905092915050565b60007f780e9d63000000000000000000000000000000000000000000000000000000007bffffffffffffffffffffffffffffffffffffffffffffffffffffffff1916827bffffffffffffffffffffffffffffffffffffffffffffffffffffffff1916148061140a5750611409826121df565b5b9050919050565b60008073ffffffffffffffffffffffffffffffffffffffff166004600084815260200190815260200160002060009054906101000a900473ffffffffffffffffffffffffffffffffffffffff1673ffffffffffffffffffffffffffffffffffffffff1614159050919050565b600033905090565b816006600083815260200190815260200160002060006101000a81548173ffffffffffffffffffffffffffffffffffffffff021916908373ffffffffffffffffffffffffffffffffffffffff160217905550808273ffffffffffffffffffffffffffffffffffffffff166114f883610bf5565b73ffffffffffffffffffffffffffffffffffffffff167f8c5be1e5ebec7d5bd14f71427d1e84f3dd0314c0f7b2291e5b200ac8c7c3b92560405160405180910390a45050565b600061154982611411565b611588576040517f08c379a000000000000000000000000000000000000000000000000000000000815260040161157f90613be5565b60405180910390fd5b600061159383610bf5565b90508073ffffffffffffffffffffffffffffffffffffffff168473ffffffffffffffffffffffffffffffffffffffff16148061160257508373ffffffffffffffffffffffffffffffffffffffff166115ea84610707565b73ffffffffffffffffffffffffffffffffffffffff16145b80611613575061161281856112c5565b5b91505092915050565b8273ffffffffffffffffffffffffffffffffffffffff1661163c82610bf5565b73ffffffffffffffffffffffffffffffffffffffff1614611692576040517f08c379a000000000000000000000000000000000000000000000000000000000815260040161168990613cc5565b60405180910390fd5b600073ffffffffffffffffffffffffffffffffffffffff168273ffffffffffffffffffffffffffffffffffffffff161415611702576040517f08c379a00000000000000000000000000000000000000000000000000000000081526004016116f990613ba5565b60405180910390fd5b61170d8383836122c1565b611718600082611485565b6001600560008573ffffffffffffffffffffffffffffffffffffffff1673ffffffffffffffffffffffffffffffffffffffff16815260200190815260200160002060008282546117689190613f7a565b925050819055506001600560008473ffffffffffffffffffffffffffffffffffffffff1673ffffffffffffffffffffffffffffffffffffffff16815260200190815260200160002060008282546117bf9190613e99565b92505081905550816004600083815260200190815260200160002060006101000a81548173ffffffffffffffffffffffffffffffffffffffff021916908373ffffffffffffffffffffffffffffffffffffffff160217905550808273ffffffffffffffffffffffffffffffffffffffff168473ffffffffffffffffffffffffffffffffffffffff167fddf252ad1be2c89b69c2b068fc378daa952ba7f163c4a11628f55a4df523b3ef60405160405180910390a4505050565b61188182610925565b6118928161188d61147d565b6122d1565b61189c838361208f565b505050565b6118a961147d565b73ffffffffffffffffffffffffffffffffffffffff168173ffffffffffffffffffffffffffffffffffffffff1614611916576040517f08c379a000000000000000000000000000000000000000000000000000000000815260040161190d90613dc5565b60405180910390fd5b611920828261236e565b5050565b600061194c836000018373ffffffffffffffffffffffffffffffffffffffff1660001b61244f565b905092915050565b61195c610bde565b61199b576040517f08c379a000000000000000000000000000000000000000000000000000000000815260040161199290613b05565b60405180910390fd5b6000600c60006101000a81548160ff0219169083151502179055507f5db9ee0a495bf2e6ff9c91a7834c1ba4fdd244a5e8aa4e537bd38aeae4b073aa6119df61147d565b6040516119ec91906139eb565b60405180910390a1565b6000611a0182610bf5565b9050611a0f816000846122c1565b611a1a600083611485565b6001600560008373ffffffffffffffffffffffffffffffffffffffff1673ffffffffffffffffffffffffffffffffffffffff1681526020019081526020016000206000828254611a6a9190613f7a565b925050819055506004600083815260200190815260200160002060006101000a81549073ffffffffffffffffffffffffffffffffffffffff021916905581600073ffffffffffffffffffffffffffffffffffffffff168273ffffffffffffffffffffffffffffffffffffffff167fddf252ad1be2c89b69c2b068fc378daa952ba7f163c4a11628f55a4df523b3ef60405160405180910390a45050565b600081600001549050919050565b600073ffffffffffffffffffffffffffffffffffffffff168273ffffffffffffffffffffffffffffffffffffffff161415611b85576040517f08c379a0000000000000000000000000000000000000000000000000000000008152600401611b7c90613c85565b60405180910390fd5b611b8e81611411565b15611bce576040517f08c379a0000000000000000000000000000000000000000000000000000000008152600401611bc590613b65565b60405180910390fd5b611bda600083836122c1565b6001600560008473ffffffffffffffffffffffffffffffffffffffff1673ffffffffffffffffffffffffffffffffffffffff1681526020019081526020016000206000828254611c2a9190613e99565b92505081905550816004600083815260200190815260200160002060006101000a81548173ffffffffffffffffffffffffffffffffffffffff021916908373ffffffffffffffffffffffffffffffffffffffff160217905550808273ffffffffffffffffffffffffffffffffffffffff16600073ffffffffffffffffffffffffffffffffffffffff167fddf252ad1be2c89b69c2b068fc378daa952ba7f163c4a11628f55a4df523b3ef60405160405180910390a45050565b6001816000016000828254019250508190555050565b611d01610bde565b15611d41576040517f08c379a0000000000000000000000000000000000000000000000000000000008152600401611d3890613c05565b60405180910390fd5b6001600c60006101000a81548160ff0219169083151502179055507f62e78cea01bee320cd4e420270b5ea74000d11b0c9f74754ebdbfc544b05a258611d8561147d565b604051611d9291906139eb565b60405180910390a1565b6000611dab83600001836125d5565b60001c905092915050565b611dc184848461161c565b611dcd84848484612626565b611e0c576040517f08c379a0000000000000000000000000000000000000000000000000000000008152600401611e0390613b45565b60405180910390fd5b50505050565b6060600e8054611e2190614098565b80601f0160208091040260200160405190810160405280929190818152602001828054611e4d90614098565b8015611e9a5780601f10611e6f57610100808354040283529160200191611e9a565b820191906000526020600020905b815481529060010190602001808311611e7d57829003601f168201915b5050505050905090565b60606000821415611eec576040518060400160405280600181526020017f3000000000000000000000000000000000000000000000000000000000000000815250905061204c565b600082905060005b60008214611f1e578080611f07906140fb565b915050600a82611f179190613eef565b9150611ef4565b60008167ffffffffffffffff811115611f60577f4e487b7100000000000000000000000000000000000000000000000000000000600052604160045260246000fd5b6040519080825280601f01601f191660200182016040528015611f925781602001600182028036833780820191505090505b5090505b6000851461204557600182611fab9190613f7a565b9150600a85611fba9190614144565b6030611fc69190613e99565b60f81b818381518110612002577f4e487b7100000000000000000000000000000000000000000000000000000000600052603260045260246000fd5b60200101907effffffffffffffffffffffffffffffffffffffffffffffffffffffffffffff1916908160001a905350600a8561203e9190613eef565b9450611f96565b8093505050505b919050565b600061205f826000016127bd565b9050919050565b61206f82610925565b6120808161207b61147d565b6122d1565b61208a838361236e565b505050565b6120998282610e98565b61216b57600160008084815260200190815260200160002060000160008373ffffffffffffffffffffffffffffffffffffffff1673ffffffffffffffffffffffffffffffffffffffff16815260200190815260200160002060006101000a81548160ff02191690831515021790555061211061147d565b73ffffffffffffffffffffffffffffffffffffffff168173ffffffffffffffffffffffffffffffffffffffff16837f2f8788117e7eff1d82e926ec794901d17c78024a50270940304540a733656f0d60405160405180910390a45b5050565b600061217b83836127ce565b6121d45782600001829080600181540180825580915050600190039060005260206000200160009091909190915055826000018054905083600101600084815260200190815260200160002081905550600190506121d9565b600090505b92915050565b60007f80ac58cd000000000000000000000000000000000000000000000000000000007bffffffffffffffffffffffffffffffffffffffffffffffffffffffff1916827bffffffffffffffffffffffffffffffffffffffffffffffffffffffff191614806122aa57507f5b5e139f000000000000000000000000000000000000000000000000000000007bffffffffffffffffffffffffffffffffffffffffffffffffffffffff1916827bffffffffffffffffffffffffffffffffffffffffffffffffffffffff1916145b806122ba57506122b9826127f1565b5b9050919050565b6122cc83838361286b565b505050565b6122db8282610e98565b61236a576123008173ffffffffffffffffffffffffffffffffffffffff1660146128c3565b61230e8360001c60206128c3565b60405160200161231f9291906139b1565b6040516020818303038152906040526040517f08c379a00000000000000000000000000000000000000000000000000000000081526004016123619190613aa3565b60405180910390fd5b5050565b6123788282610e98565b1561244b57600080600084815260200190815260200160002060000160008373ffffffffffffffffffffffffffffffffffffffff1673ffffffffffffffffffffffffffffffffffffffff16815260200190815260200160002060006101000a81548160ff0219169083151502179055506123f061147d565b73ffffffffffffffffffffffffffffffffffffffff168173ffffffffffffffffffffffffffffffffffffffff16837ff6391f5c32d9c69d2a47ea670b442974b53935d1edc7fd64eb21e047a839171b60405160405180910390a45b5050565b600080836001016000848152602001908152602001600020549050600081146125c95760006001826124819190613f7a565b90506000600186600001805490506124999190613f7a565b90508181146125545760008660000182815481106124e0577f4e487b7100000000000000000000000000000000000000000000000000000000600052603260045260246000fd5b906000526020600020015490508087600001848154811061252a577f4e487b7100000000000000000000000000000000000000000000000000000000600052603260045260246000fd5b90600052602060002001819055508387600101600083815260200190815260200160002081905550505b8560000180548061258e577f4e487b7100000000000000000000000000000000000000000000000000000000600052603160045260246000fd5b6001900381819060005260206000200160009055905585600101600086815260200190815260200160002060009055600193505050506125cf565b60009150505b92915050565b6000826000018281548110612613577f4e487b7100000000000000000000000000000000000000000000000000000000600052603260045260246000fd5b9060005260206000200154905092915050565b60006126478473ffffffffffffffffffffffffffffffffffffffff16612bbd565b156127b0578373ffffffffffffffffffffffffffffffffffffffff1663150b7a0261267061147d565b8786866040518563ffffffff1660e01b81526004016126929493929190613a06565b602060405180830381600087803b1580156126ac57600080fd5b505af19250505080156126dd57506040513d601f19601f820116820180604052508101906126da919061349c565b60015b612760573d806000811461270d576040519150601f19603f3d011682016040523d82523d6000602084013e612712565b606091505b50600081511415612758576040517f08c379a000000000000000000000000000000000000000000000000000000000815260040161274f90613b45565b60405180910390fd5b805181602001fd5b63150b7a0260e01b7bffffffffffffffffffffffffffffffffffffffffffffffffffffffff1916817bffffffffffffffffffffffffffffffffffffffffffffffffffffffff1916149150506127b5565b600190505b949350505050565b600081600001805490509050919050565b600080836001016000848152602001908152602001600020541415905092915050565b60007f5a05180f000000000000000000000000000000000000000000000000000000007bffffffffffffffffffffffffffffffffffffffffffffffffffffffff1916827bffffffffffffffffffffffffffffffffffffffffffffffffffffffff19161480612864575061286382612bd0565b5b9050919050565b612876838383612c4a565b61287e610bde565b156128be576040517f08c379a00000000000000000000000000000000000000000000000000000000081526004016128b590613ae5565b60405180910390fd5b505050565b6060600060028360026128d69190613f20565b6128e09190613e99565b67ffffffffffffffff81111561291f577f4e487b7100000000000000000000000000000000000000000000000000000000600052604160045260246000fd5b6040519080825280601f01601f1916602001820160405280156129515781602001600182028036833780820191505090505b5090507f3000000000000000000000000000000000000000000000000000000000000000816000815181106129af577f4e487b7100000000000000000000000000000000000000000000000000000000600052603260045260246000fd5b60200101907effffffffffffffffffffffffffffffffffffffffffffffffffffffffffffff1916908160001a9053507f780000000000000000000000000000000000000000000000000000000000000081600181518110612a39577f4e487b7100000000000000000000000000000000000000000000000000000000600052603260045260246000fd5b60200101907effffffffffffffffffffffffffffffffffffffffffffffffffffffffffffff1916908160001a90535060006001846002612a799190613f20565b612a839190613e99565b90505b6001811115612b6f577f3031323334353637383961626364656600000000000000000000000000000000600f861660108110612aeb577f4e487b7100000000000000000000000000000000000000000000000000000000600052603260045260246000fd5b1a60f81b828281518110612b28577f4e487b7100000000000000000000000000000000000000000000000000000000600052603260045260246000fd5b60200101907effffffffffffffffffffffffffffffffffffffffffffffffffffffffffffff1916908160001a905350600485901c945080612b689061406e565b9050612a86565b5060008414612bb3576040517f08c379a0000000000000000000000000000000000000000000000000000000008152600401612baa90613ac5565b60405180910390fd5b8091505092915050565b600080823b905060008111915050919050565b60007f7965db0b000000000000000000000000000000000000000000000000000000007bffffffffffffffffffffffffffffffffffffffffffffffffffffffff1916827bffffffffffffffffffffffffffffffffffffffffffffffffffffffff19161480612c435750612c4282612d5e565b5b9050919050565b612c55838383612dc8565b600073ffffffffffffffffffffffffffffffffffffffff168373ffffffffffffffffffffffffffffffffffffffff161415612c9857612c9381612dcd565b612cd7565b8173ffffffffffffffffffffffffffffffffffffffff168373ffffffffffffffffffffffffffffffffffffffff1614612cd657612cd58382612e16565b5b5b600073ffffffffffffffffffffffffffffffffffffffff168273ffffffffffffffffffffffffffffffffffffffff161415612d1a57612d1581612f83565b612d59565b8273ffffffffffffffffffffffffffffffffffffffff168273ffffffffffffffffffffffffffffffffffffffff1614612d5857612d5782826130c6565b5b5b505050565b60007f01ffc9a7000000000000000000000000000000000000000000000000000000007bffffffffffffffffffffffffffffffffffffffffffffffffffffffff1916827bffffffffffffffffffffffffffffffffffffffffffffffffffffffff1916149050919050565b505050565b600a80549050600b600083815260200190815260200160002081905550600a81908060018154018082558091505060019003906000526020600020016000909190919091505550565b60006001612e2384610d37565b612e2d9190613f7a565b9050600060096000848152602001908152602001600020549050818114612f12576000600860008673ffffffffffffffffffffffffffffffffffffffff1673ffffffffffffffffffffffffffffffffffffffff168152602001908152602001600020600084815260200190815260200160002054905080600860008773ffffffffffffffffffffffffffffffffffffffff1673ffffffffffffffffffffffffffffffffffffffff168152602001908152602001600020600084815260200190815260200160002081905550816009600083815260200190815260200160002081905550505b6009600084815260200190815260200160002060009055600860008573ffffffffffffffffffffffffffffffffffffffff1673ffffffffffffffffffffffffffffffffffffffff16815260200190815260200160002060008381526020019081526020016000206000905550505050565b60006001600a80549050612f979190613f7a565b90506000600b60008481526020019081526020016000205490506000600a8381548110612fed577f4e487b7100000000000000000000000000000000000000000000000000000000600052603260045260246000fd5b9060005260206000200154905080600a8381548110613035577f4e487b7100000000000000000000000000000000000000000000000000000000600052603260045260246000fd5b906000526020600020018190555081600b600083815260200190815260200160002081905550600b600085815260200190815260200160002060009055600a8054806130aa577f4e487b7100000000000000000000000000000000000000000000000000000000600052603160045260246000fd5b6001900381819060005260206000200160009055905550505050565b60006130d183610d37565b905081600860008573ffffffffffffffffffffffffffffffffffffffff1673ffffffffffffffffffffffffffffffffffffffff168152602001908152602001600020600083815260200190815260200160002081905550806009600084815260200190815260200160002081905550505050565b600061315861315384613e25565b613e00565b90508281526020810184848401111561317057600080fd5b61317b84828561402c565b509392505050565b60008135905061319281614967565b92915050565b6000813590506131a78161497e565b92915050565b6000813590506131bc81614995565b92915050565b6000813590506131d1816149ac565b92915050565b6000815190506131e6816149ac565b92915050565b600082601f8301126131fd57600080fd5b813561320d848260208601613145565b91505092915050565b600081359050613225816149c3565b92915050565b60006020828403121561323d57600080fd5b600061324b84828501613183565b91505092915050565b6000806040838503121561326757600080fd5b600061327585828601613183565b925050602061328685828601613183565b9150509250929050565b6000806000606084860312156132a557600080fd5b60006132b386828701613183565b93505060206132c486828701613183565b92505060406132d586828701613216565b9150509250925092565b600080600080608085870312156132f557600080fd5b600061330387828801613183565b945050602061331487828801613183565b935050604061332587828801613216565b925050606085013567ffffffffffffffff81111561334257600080fd5b61334e878288016131ec565b91505092959194509250565b6000806040838503121561336d57600080fd5b600061337b85828601613183565b925050602061338c85828601613198565b9150509250929050565b600080604083850312156133a957600080fd5b60006133b785828601613183565b92505060206133c885828601613216565b9150509250929050565b6000602082840312156133e457600080fd5b60006133f2848285016131ad565b91505092915050565b6000806040838503121561340e57600080fd5b600061341c858286016131ad565b925050602061342d85828601613183565b9150509250929050565b6000806040838503121561344a57600080fd5b6000613458858286016131ad565b925050602061346985828601613216565b9150509250929050565b60006020828403121561348557600080fd5b6000613493848285016131c2565b91505092915050565b6000602082840312156134ae57600080fd5b60006134bc848285016131d7565b91505092915050565b6000602082840312156134d757600080fd5b60006134e584828501613216565b91505092915050565b6134f781613fae565b82525050565b61350681613fc0565b82525050565b61351581613fcc565b82525050565b61352481613fd6565b82525050565b600061353582613e56565b61353f8185613e6c565b935061354f81856020860161403b565b61355881614231565b840191505092915050565b600061356e82613e61565b6135788185613e7d565b935061358881856020860161403b565b61359181614231565b840191505092915050565b60006135a782613e61565b6135b18185613e8e565b93506135c181856020860161403b565b80840191505092915050565b60006135da602083613e7d565b91506135e582614242565b602082019050919050565b60006135fd602b83613e7d565b91506136088261426b565b604082019050919050565b6000613620601483613e7d565b915061362b826142ba565b602082019050919050565b6000613643602b83613e7d565b915061364e826142e3565b604082019050919050565b6000613666603283613e7d565b915061367182614332565b604082019050919050565b6000613689601c83613e7d565b915061369482614381565b602082019050919050565b60006136ac603e83613e7d565b91506136b7826143aa565b604082019050919050565b60006136cf602483613e7d565b91506136da826143f9565b604082019050919050565b60006136f2601983613e7d565b91506136fd82614448565b602082019050919050565b6000613715602c83613e7d565b915061372082614471565b604082019050919050565b6000613738601083613e7d565b9150613743826144c0565b602082019050919050565b600061375b603883613e7d565b9150613766826144e9565b604082019050919050565b600061377e602a83613e7d565b915061378982614538565b604082019050919050565b60006137a1602983613e7d565b91506137ac82614587565b604082019050919050565b60006137c4602083613e7d565b91506137cf826145d6565b602082019050919050565b60006137e7602c83613e7d565b91506137f2826145ff565b604082019050919050565b600061380a602983613e7d565b91506138158261464e565b604082019050919050565b600061382d602f83613e7d565b91506138388261469d565b604082019050919050565b6000613850602183613e7d565b915061385b826146ec565b604082019050919050565b6000613873603183613e7d565b915061387e8261473b565b604082019050919050565b6000613896602c83613e7d565b91506138a18261478a565b604082019050919050565b60006138b9601783613e8e565b91506138c4826147d9565b601782019050919050565b60006138dc603d83613e7d565b91506138e782614802565b604082019050919050565b60006138ff603083613e7d565b915061390a82614851565b604082019050919050565b6000613922604083613e7d565b915061392d826148a0565b604082019050919050565b6000613945601183613e8e565b9150613950826148ef565b601182019050919050565b6000613968602f83613e7d565b915061397382614918565b604082019050919050565b61398781614022565b82525050565b6000613999828561359c565b91506139a5828461359c565b91508190509392505050565b60006139bc826138ac565b91506139c8828561359c565b91506139d382613938565b91506139df828461359c565b91508190509392505050565b6000602082019050613a0060008301846134ee565b92915050565b6000608082019050613a1b60008301876134ee565b613a2860208301866134ee565b613a35604083018561397e565b8181036060830152613a47818461352a565b905095945050505050565b6000602082019050613a6760008301846134fd565b92915050565b6000602082019050613a82600083018461350c565b92915050565b6000602082019050613a9d600083018461351b565b92915050565b60006020820190508181036000830152613abd8184613563565b905092915050565b60006020820190508181036000830152613ade816135cd565b9050919050565b60006020820190508181036000830152613afe816135f0565b9050919050565b60006020820190508181036000830152613b1e81613613565b9050919050565b60006020820190508181036000830152613b3e81613636565b9050919050565b60006020820190508181036000830152613b5e81613659565b9050919050565b60006020820190508181036000830152613b7e8161367c565b9050919050565b60006020820190508181036000830152613b9e8161369f565b9050919050565b60006020820190508181036000830152613bbe816136c2565b9050919050565b60006020820190508181036000830152613bde816136e5565b9050919050565b60006020820190508181036000830152613bfe81613708565b9050919050565b60006020820190508181036000830152613c1e8161372b565b9050919050565b60006020820190508181036000830152613c3e8161374e565b9050919050565b60006020820190508181036000830152613c5e81613771565b9050919050565b60006020820190508181036000830152613c7e81613794565b9050919050565b60006020820190508181036000830152613c9e816137b7565b9050919050565b60006020820190508181036000830152613cbe816137da565b9050919050565b60006020820190508181036000830152613cde816137fd565b9050919050565b60006020820190508181036000830152613cfe81613820565b9050919050565b60006020820190508181036000830152613d1e81613843565b9050919050565b60006020820190508181036000830152613d3e81613866565b9050919050565b60006020820190508181036000830152613d5e81613889565b9050919050565b60006020820190508181036000830152613d7e816138cf565b9050919050565b60006020820190508181036000830152613d9e816138f2565b9050919050565b60006020820190508181036000830152613dbe81613915565b9050919050565b60006020820190508181036000830152613dde8161395b565b9050919050565b6000602082019050613dfa600083018461397e565b92915050565b6000613e0a613e1b565b9050613e1682826140ca565b919050565b6000604051905090565b600067ffffffffffffffff821115613e4057613e3f614202565b5b613e4982614231565b9050602081019050919050565b600081519050919050565b600081519050919050565b600082825260208201905092915050565b600082825260208201905092915050565b600081905092915050565b6000613ea482614022565b9150613eaf83614022565b9250827fffffffffffffffffffffffffffffffffffffffffffffffffffffffffffffffff03821115613ee457613ee3614175565b5b828201905092915050565b6000613efa82614022565b9150613f0583614022565b925082613f1557613f146141a4565b5b828204905092915050565b6000613f2b82614022565b9150613f3683614022565b9250817fffffffffffffffffffffffffffffffffffffffffffffffffffffffffffffffff0483118215151615613f6f57613f6e614175565b5b828202905092915050565b6000613f8582614022565b9150613f9083614022565b925082821015613fa357613fa2614175565b5b828203905092915050565b6000613fb982614002565b9050919050565b60008115159050919050565b6000819050919050565b60007fffffffff0000000000000000000000000000000000000000000000000000000082169050919050565b600073ffffffffffffffffffffffffffffffffffffffff82169050919050565b6000819050919050565b82818337600083830152505050565b60005b8381101561405957808201518184015260208101905061403e565b83811115614068576000848401525b50505050565b600061407982614022565b9150600082141561408d5761408c614175565b5b600182039050919050565b600060028204905060018216806140b057607f821691505b602082108114156140c4576140c36141d3565b5b50919050565b6140d382614231565b810181811067ffffffffffffffff821117156140f2576140f1614202565b5b80604052505050565b600061410682614022565b91507fffffffffffffffffffffffffffffffffffffffffffffffffffffffffffffffff82141561413957614138614175565b5b600182019050919050565b600061414f82614022565b915061415a83614022565b92508261416a576141696141a4565b5b828206905092915050565b7f4e487b7100000000000000000000000000000000000000000000000000000000600052601160045260246000fd5b7f4e487b7100000000000000000000000000000000000000000000000000000000600052601260045260246000fd5b7f4e487b7100000000000000000000000000000000000000000000000000000000600052602260045260246000fd5b7f4e487b7100000000000000000000000000000000000000000000000000000000600052604160045260246000fd5b6000601f19601f8301169050919050565b7f537472696e67733a20686578206c656e67746820696e73756666696369656e74600082015250565b7f4552433732315061757361626c653a20746f6b656e207472616e73666572207760008201527f68696c6520706175736564000000000000000000000000000000000000000000602082015250565b7f5061757361626c653a206e6f7420706175736564000000000000000000000000600082015250565b7f455243373231456e756d657261626c653a206f776e657220696e646578206f7560008201527f74206f6620626f756e6473000000000000000000000000000000000000000000602082015250565b7f4552433732313a207472616e7366657220746f206e6f6e20455243373231526560008201527f63656976657220696d706c656d656e7465720000000000000000000000000000602082015250565b7f4552433732313a20746f6b656e20616c7265616479206d696e74656400000000600082015250565b7f4552433732315072657365744d696e7465725061757365724175746f49643a2060008201527f6d75737420686176652070617573657220726f6c6520746f2070617573650000602082015250565b7f4552433732313a207472616e7366657220746f20746865207a65726f2061646460008201527f7265737300000000000000000000000000000000000000000000000000000000602082015250565b7f4552433732313a20617070726f766520746f2063616c6c657200000000000000600082015250565b7f4552433732313a206f70657261746f7220717565727920666f72206e6f6e657860008201527f697374656e7420746f6b656e0000000000000000000000000000000000000000602082015250565b7f5061757361626c653a2070617573656400000000000000000000000000000000600082015250565b7f4552433732313a20617070726f76652063616c6c6572206973206e6f74206f7760008201527f6e6572206e6f7220617070726f76656420666f7220616c6c0000000000000000602082015250565b7f4552433732313a2062616c616e636520717565727920666f7220746865207a6560008201527f726f206164647265737300000000000000000000000000000000000000000000602082015250565b7f4552433732313a206f776e657220717565727920666f72206e6f6e657869737460008201527f656e7420746f6b656e0000000000000000000000000000000000000000000000602082015250565b7f4552433732313a206d696e7420746f20746865207a65726f2061646472657373600082015250565b7f4552433732313a20617070726f76656420717565727920666f72206e6f6e657860008201527f697374656e7420746f6b656e0000000000000000000000000000000000000000602082015250565b7f4552433732313a207472616e73666572206f6620746f6b656e2074686174206960008201527f73206e6f74206f776e0000000000000000000000000000000000000000000000602082015250565b7f4552433732314d657461646174613a2055524920717565727920666f72206e6f60008201527f6e6578697374656e7420746f6b656e0000000000000000000000000000000000602082015250565b7f4552433732313a20617070726f76616c20746f2063757272656e74206f776e6560008201527f7200000000000000000000000000000000000000000000000000000000000000602082015250565b7f4552433732313a207472616e736665722063616c6c6572206973206e6f74206f60008201527f776e6572206e6f7220617070726f766564000000000000000000000000000000602082015250565b7f455243373231456e756d657261626c653a20676c6f62616c20696e646578206f60008201527f7574206f6620626f756e64730000000000000000000000000000000000000000602082015250565b7f416363657373436f6e74726f6c3a206163636f756e7420000000000000000000600082015250565b7f4552433732315072657365744d696e7465725061757365724175746f49643a2060008201527f6d7573742068617665206d696e74657220726f6c6520746f206d696e74000000602082015250565b7f4552433732314275726e61626c653a2063616c6c6572206973206e6f74206f7760008201527f6e6572206e6f7220617070726f76656400000000000000000000000000000000602082015250565b7f4552433732315072657365744d696e7465725061757365724175746f49643a2060008201527f6d75737420686176652070617573657220726f6c6520746f20756e7061757365602082015250565b7f206973206d697373696e6720726f6c6520000000000000000000000000000000600082015250565b7f416363657373436f6e74726f6c3a2063616e206f6e6c792072656e6f756e636560008201527f20726f6c657320666f722073656c660000000000000000000000000000000000602082015250565b61497081613fae565b811461497b57600080fd5b50565b61498781613fc0565b811461499257600080fd5b50565b61499e81613fcc565b81146149a957600080fd5b50565b6149b581613fd6565b81146149c057600080fd5b50565b6149cc81614022565b81146149d757600080fd5b5056fea2646970667358221220f421e84f70fa5a1f581299cc7ea156f74558acef5ef16d578060e2d6f718bc4064736f6c63430008040033",
  "linkReferences": {},
  "deployedLinkReferences": {}
}