{
  "_format": "hh-sol-artifact-1",
  "contractName": "FixedPriceDeployer",
  "sourceName": "contracts/deployers/FixedPriceDeployer.sol",
  "abi": [
    {
      "inputs": [
        {
          "internalType": "string",
          "name": "_name",
          "type": "string"
        },
        {
          "internalType": "string",
          "name": "_symbol",
          "type": "string"
        },
        {
          "internalType": "string",
          "name": "_bURI",
          "type": "string"
        },
        {
          "internalType": "address",
          "name": "_erc20",
          "type": "address"
        },
        {
          "internalType": "uint256",
          "name": "_rate",
          "type": "uint256"
        },
        {
          "internalType": "uint256",
          "name": "_maxSupply",
          "type": "uint256"
        }
      ],
      "name": "deployFixedPrice",
      "outputs": [
        {
          "internalType": "address",
          "name": "",
          "type": "address"
        }
      ],
      "stateMutability": "nonpayable",
      "type": "function"
    }
  ],
  "bytecode": "0x608060405234801561001057600080fd5b5061478b806100206000396000f3fe60806040523480156200001157600080fd5b50600436106200002e5760003560e01c806333a93d041462000033575b600080fd5b6200005160048036038101906200004b91906200016d565b62000069565b604051620000609190620002b1565b60405180910390f35b6000808787878787876040516200008090620000bf565b6200009196959493929190620002ce565b604051809103906000f080158015620000ae573d6000803e3d6000fd5b509050809150509695505050505050565b61425d80620004f983390190565b6000620000e4620000de8462000379565b62000350565b905082815260208101848484011115620000fd57600080fd5b6200010a84828562000409565b509392505050565b6000813590506200012381620004c4565b92915050565b600082601f8301126200013b57600080fd5b81356200014d848260208601620000cd565b91505092915050565b6000813590506200016781620004de565b92915050565b60008060008060008060c087890312156200018757600080fd5b600087013567ffffffffffffffff811115620001a257600080fd5b620001b089828a0162000129565b965050602087013567ffffffffffffffff811115620001ce57600080fd5b620001dc89828a0162000129565b955050604087013567ffffffffffffffff811115620001fa57600080fd5b6200020889828a0162000129565b94505060606200021b89828a0162000112565b93505060806200022e89828a0162000156565b92505060a06200024189828a0162000156565b9150509295509295509295565b6200025981620003cb565b82525050565b60006200026c82620003af565b620002788185620003ba565b93506200028a81856020860162000418565b6200029581620004b3565b840191505092915050565b620002ab81620003ff565b82525050565b6000602082019050620002c860008301846200024e565b92915050565b600060c0820190508181036000830152620002ea81896200025f565b905081810360208301526200030081886200025f565b905081810360408301526200031681876200025f565b90506200032760608301866200024e565b620003366080830185620002a0565b6200034560a0830184620002a0565b979650505050505050565b60006200035c6200036f565b90506200036a82826200044e565b919050565b6000604051905090565b600067ffffffffffffffff82111562000397576200039662000484565b5b620003a282620004b3565b9050602081019050919050565b600081519050919050565b600082825260208201905092915050565b6000620003d882620003df565b9050919050565b600073ffffffffffffffffffffffffffffffffffffffff82169050919050565b6000819050919050565b82818337600083830152505050565b60005b83811015620004385780820151818401526020810190506200041b565b8381111562000448576000848401525b50505050565b6200045982620004b3565b810181811067ffffffffffffffff821117156200047b576200047a62000484565b5b80604052505050565b7f4e487b7100000000000000000000000000000000000000000000000000000000600052604160045260246000fd5b6000601f19601f8301169050919050565b620004cf81620003cb565b8114620004db57600080fd5b50565b620004e981620003ff565b8114620004f557600080fd5b5056fe608060405260405180602001604052806001815250600e6000820151816000015550503480156200002f57600080fd5b506040516200425d3803806200425d833981810160405281019062000055919062000290565b858581600090805190602001906200006f92919062000140565b5080600190805190602001906200008892919062000140565b50505032600660006101000a81548173ffffffffffffffffffffffffffffffffffffffff021916908373ffffffffffffffffffffffffffffffffffffffff16021790555083600d9080519060200190620000e492919062000140565b5082600760006101000a81548173ffffffffffffffffffffffffffffffffffffffff021916908373ffffffffffffffffffffffffffffffffffffffff160217905550816008819055508060098190555050505050505062000553565b8280546200014e9062000444565b90600052602060002090601f016020900481019282620001725760008555620001be565b82601f106200018d57805160ff1916838001178555620001be565b82800160010185558215620001be579182015b82811115620001bd578251825591602001919060010190620001a0565b5b509050620001cd9190620001d1565b5090565b5b80821115620001ec576000816000905550600101620001d2565b5090565b60006200020762000201846200039a565b62000371565b9050828152602081018484840111156200022057600080fd5b6200022d8482856200040e565b509392505050565b60008151905062000246816200051f565b92915050565b600082601f8301126200025e57600080fd5b815162000270848260208601620001f0565b91505092915050565b6000815190506200028a8162000539565b92915050565b60008060008060008060c08789031215620002aa57600080fd5b600087015167ffffffffffffffff811115620002c557600080fd5b620002d389828a016200024c565b965050602087015167ffffffffffffffff811115620002f157600080fd5b620002ff89828a016200024c565b955050604087015167ffffffffffffffff8111156200031d57600080fd5b6200032b89828a016200024c565b94505060606200033e89828a0162000235565b93505060806200035189828a0162000279565b92505060a06200036489828a0162000279565b9150509295509295509295565b60006200037d62000390565b90506200038b82826200047a565b919050565b6000604051905090565b600067ffffffffffffffff821115620003b857620003b7620004df565b5b620003c3826200050e565b9050602081019050919050565b6000620003dd82620003e4565b9050919050565b600073ffffffffffffffffffffffffffffffffffffffff82169050919050565b6000819050919050565b60005b838110156200042e57808201518184015260208101905062000411565b838111156200043e576000848401525b50505050565b600060028204905060018216806200045d57607f821691505b60208210811415620004745762000473620004b0565b5b50919050565b62000485826200050e565b810181811067ffffffffffffffff82111715620004a757620004a6620004df565b5b80604052505050565b7f4e487b7100000000000000000000000000000000000000000000000000000000600052602260045260246000fd5b7f4e487b7100000000000000000000000000000000000000000000000000000000600052604160045260246000fd5b6000601f19601f8301169050919050565b6200052a81620003d0565b81146200053657600080fd5b50565b620005448162000404565b81146200055057600080fd5b50565b613cfa80620005636000396000f3fe608060405234801561001057600080fd5b50600436106101585760003560e01c80634bde38c8116100c357806395d89b411161007c57806395d89b41146103a1578063a22cb465146103bf578063b88d4fde146103db578063c87b56dd146103f7578063d5abeb0114610427578063e985e9c51461044557610158565b80634bde38c8146102cb57806355f804b3146102e95780636352211e1461030557806370a0823114610335578063785e9e86146103655780638da5cb5b1461038357610158565b806323b872dd1161011557806323b872dd146102315780632c4e722e1461024d57806336e0cac61461026b578063378c552c146102895780633ccfd60b146102a557806342842e0e146102af57610158565b806301ffc9a71461015d57806306fdde031461018d578063081812fc146101ab578063095ea7b3146101db5780631249c58b146101f7578063162094c414610215575b600080fd5b61017760048036038101906101729190612869565b610475565b6040516101849190612ed1565b60405180910390f35b610195610487565b6040516101a29190612eec565b60405180910390f35b6101c560048036038101906101c091906128fc565b610519565b6040516101d29190612def565b60405180910390f35b6101f560048036038101906101f09190612804565b61059e565b005b6101ff6106b6565b60405161020c91906131ce565b60405180910390f35b61022f600480360381019061022a919061294e565b6108c2565b005b61024b600480360381019061024691906126fe565b610967565b005b6102556109c7565b60405161026291906131ce565b60405180910390f35b6102736109cd565b60405161028091906131ce565b60405180910390f35b6102a3600480360381019061029e9190612686565b6109d3565b005b6102ad610ab0565b005b6102c960048036038101906102c491906126fe565b610ca2565b005b6102d3610cc2565b6040516102e09190612e0a565b60405180910390f35b61030360048036038101906102fe91906128bb565b610ce8565b005b61031f600480360381019061031a91906128fc565b610d99565b60405161032c9190612def565b60405180910390f35b61034f600480360381019061034a919061265d565b610e4b565b60405161035c91906131ce565b60405180910390f35b61036d610f03565b60405161037a9190612def565b60405180910390f35b61038b610f29565b6040516103989190612def565b60405180910390f35b6103a9610f4f565b6040516103b69190612eec565b60405180910390f35b6103d960048036038101906103d491906127c8565b610fe1565b005b6103f560048036038101906103f0919061274d565b611162565b005b610411600480360381019061040c91906128fc565b6111c4565b60405161041e9190612eec565b60405180910390f35b61042f611337565b60405161043c91906131ce565b60405180910390f35b61045f600480360381019061045a91906126c2565b61133d565b60405161046c9190612ed1565b60405180910390f35b6000610480826113d1565b9050919050565b6060600080546104969061349b565b80601f01602080910402602001604051908101604052809291908181526020018280546104c29061349b565b801561050f5780601f106104e45761010080835404028352916020019161050f565b820191906000526020600020905b8154815290600101906020018083116104f257829003601f168201915b5050505050905090565b6000610524826114b3565b610563576040517f08c379a000000000000000000000000000000000000000000000000000000000815260040161055a9061304e565b60405180910390fd5b6004600083815260200190815260200160002060009054906101000a900473ffffffffffffffffffffffffffffffffffffffff169050919050565b60006105a982610d99565b90508073ffffffffffffffffffffffffffffffffffffffff168373ffffffffffffffffffffffffffffffffffffffff16141561061a576040517f08c379a0000000000000000000000000000000000000000000000000000000008152600401610611906130ee565b60405180910390fd5b8073ffffffffffffffffffffffffffffffffffffffff1661063961151f565b73ffffffffffffffffffffffffffffffffffffffff16148061066857506106678161066261151f565b61133d565b5b6106a7576040517f08c379a000000000000000000000000000000000000000000000000000000000815260040161069e90612fce565b60405180910390fd5b6106b18383611527565b505050565b60006009546106c5600e6115e0565b1115610706576040517f08c379a00000000000000000000000000000000000000000000000000000000081526004016106fd9061312e565b60405180910390fd5b610710600e6115e0565b905061076a61071d61151f565b30600854600760009054906101000a900473ffffffffffffffffffffffffffffffffffffffff1673ffffffffffffffffffffffffffffffffffffffff166115ee909392919063ffffffff16565b600073ffffffffffffffffffffffffffffffffffffffff16600a60009054906101000a900473ffffffffffffffffffffffffffffffffffffffff1673ffffffffffffffffffffffffffffffffffffffff161461085957610858600a60009054906101000a900473ffffffffffffffffffffffffffffffffffffffff166108106064610802600b5460085461167790919063ffffffff16565b61168d90919063ffffffff16565b600760009054906101000a900473ffffffffffffffffffffffffffffffffffffffff1673ffffffffffffffffffffffffffffffffffffffff166116a39092919063ffffffff16565b5b61086a61086461151f565b82611729565b8061087361151f565b73ffffffffffffffffffffffffffffffffffffffff167f0f6798a560793a54c3bcfe86a93cde1e73087d944c0ea20544137d412139688560405160405180910390a36108bf600e611747565b90565b6108ca61151f565b73ffffffffffffffffffffffffffffffffffffffff16600660009054906101000a900473ffffffffffffffffffffffffffffffffffffffff1673ffffffffffffffffffffffffffffffffffffffff1614610959576040517f08c379a00000000000000000000000000000000000000000000000000000000081526004016109509061310e565b60405180910390fd5b610963828261175d565b5050565b61097861097261151f565b826117d1565b6109b7576040517f08c379a00000000000000000000000000000000000000000000000000000000081526004016109ae9061314e565b60405180910390fd5b6109c28383836118af565b505050565b60085481565b600b5481565b600073ffffffffffffffffffffffffffffffffffffffff16600a60009054906101000a900473ffffffffffffffffffffffffffffffffffffffff1673ffffffffffffffffffffffffffffffffffffffff1614610a64576040517f08c379a0000000000000000000000000000000000000000000000000000000008152600401610a5b906130ce565b60405180910390fd5b81600a60006101000a81548173ffffffffffffffffffffffffffffffffffffffff021916908373ffffffffffffffffffffffffffffffffffffffff16021790555080600b819055505050565b610ab861151f565b73ffffffffffffffffffffffffffffffffffffffff16600660009054906101000a900473ffffffffffffffffffffffffffffffffffffffff1673ffffffffffffffffffffffffffffffffffffffff1614610b47576040517f08c379a0000000000000000000000000000000000000000000000000000000008152600401610b3e9061310e565b60405180910390fd5b6000600760009054906101000a900473ffffffffffffffffffffffffffffffffffffffff1673ffffffffffffffffffffffffffffffffffffffff166370a08231306040518263ffffffff1660e01b8152600401610ba49190612def565b60206040518083038186803b158015610bbc57600080fd5b505afa158015610bd0573d6000803e3d6000fd5b505050506040513d601f19601f82011682018060405250810190610bf49190612925565b9050610c4a610c0161151f565b82600760009054906101000a900473ffffffffffffffffffffffffffffffffffffffff1673ffffffffffffffffffffffffffffffffffffffff166116a39092919063ffffffff16565b610c5261151f565b73ffffffffffffffffffffffffffffffffffffffff167f884edad9ce6fa2440d8a54cc123490eb96d2768479d49ff9c7366125a942436482604051610c9791906131ce565b60405180910390a250565b610cbd83838360405180602001604052806000815250611162565b505050565b600a60009054906101000a900473ffffffffffffffffffffffffffffffffffffffff1681565b610cf061151f565b73ffffffffffffffffffffffffffffffffffffffff16600660009054906101000a900473ffffffffffffffffffffffffffffffffffffffff1673ffffffffffffffffffffffffffffffffffffffff1614610d7f576040517f08c379a0000000000000000000000000000000000000000000000000000000008152600401610d769061318e565b60405180910390fd5b80600d9080519060200190610d95929190612442565b5050565b6000806002600084815260200190815260200160002060009054906101000a900473ffffffffffffffffffffffffffffffffffffffff169050600073ffffffffffffffffffffffffffffffffffffffff168173ffffffffffffffffffffffffffffffffffffffff161415610e42576040517f08c379a0000000000000000000000000000000000000000000000000000000008152600401610e399061300e565b60405180910390fd5b80915050919050565b60008073ffffffffffffffffffffffffffffffffffffffff168273ffffffffffffffffffffffffffffffffffffffff161415610ebc576040517f08c379a0000000000000000000000000000000000000000000000000000000008152600401610eb390612fee565b60405180910390fd5b600360008373ffffffffffffffffffffffffffffffffffffffff1673ffffffffffffffffffffffffffffffffffffffff168152602001908152602001600020549050919050565b600760009054906101000a900473ffffffffffffffffffffffffffffffffffffffff1681565b600660009054906101000a900473ffffffffffffffffffffffffffffffffffffffff1681565b606060018054610f5e9061349b565b80601f0160208091040260200160405190810160405280929190818152602001828054610f8a9061349b565b8015610fd75780601f10610fac57610100808354040283529160200191610fd7565b820191906000526020600020905b815481529060010190602001808311610fba57829003601f168201915b5050505050905090565b610fe961151f565b73ffffffffffffffffffffffffffffffffffffffff168273ffffffffffffffffffffffffffffffffffffffff161415611057576040517f08c379a000000000000000000000000000000000000000000000000000000000815260040161104e90612f6e565b60405180910390fd5b806005600061106461151f565b73ffffffffffffffffffffffffffffffffffffffff1673ffffffffffffffffffffffffffffffffffffffff16815260200190815260200160002060008473ffffffffffffffffffffffffffffffffffffffff1673ffffffffffffffffffffffffffffffffffffffff16815260200190815260200160002060006101000a81548160ff0219169083151502179055508173ffffffffffffffffffffffffffffffffffffffff1661111161151f565b73ffffffffffffffffffffffffffffffffffffffff167f17307eab39ab6107e8899845ad3d59bd9653f200f220920489ca2b5937696c31836040516111569190612ed1565b60405180910390a35050565b61117361116d61151f565b836117d1565b6111b2576040517f08c379a00000000000000000000000000000000000000000000000000000000081526004016111a99061314e565b60405180910390fd5b6111be84848484611b0b565b50505050565b60606111cf826114b3565b61120e576040517f08c379a0000000000000000000000000000000000000000000000000000000008152600401611205906130ae565b60405180910390fd5b6000600c6000848152602001908152602001600020805461122e9061349b565b80601f016020809104026020016040519081016040528092919081815260200182805461125a9061349b565b80156112a75780601f1061127c576101008083540402835291602001916112a7565b820191906000526020600020905b81548152906001019060200180831161128a57829003601f168201915b5050505050905060006112b8611b67565b90506000815114156112ce578192505050611332565b6000825111156113035780826040516020016112eb929190612dcb565b60405160208183030381529060405292505050611332565b8061130d85611bf9565b60405160200161131e929190612dcb565b604051602081830303815290604052925050505b919050565b60095481565b6000600560008473ffffffffffffffffffffffffffffffffffffffff1673ffffffffffffffffffffffffffffffffffffffff16815260200190815260200160002060008373ffffffffffffffffffffffffffffffffffffffff1673ffffffffffffffffffffffffffffffffffffffff16815260200190815260200160002060009054906101000a900460ff16905092915050565b60007f80ac58cd000000000000000000000000000000000000000000000000000000007bffffffffffffffffffffffffffffffffffffffffffffffffffffffff1916827bffffffffffffffffffffffffffffffffffffffffffffffffffffffff1916148061149c57507f5b5e139f000000000000000000000000000000000000000000000000000000007bffffffffffffffffffffffffffffffffffffffffffffffffffffffff1916827bffffffffffffffffffffffffffffffffffffffffffffffffffffffff1916145b806114ac57506114ab82611da6565b5b9050919050565b60008073ffffffffffffffffffffffffffffffffffffffff166002600084815260200190815260200160002060009054906101000a900473ffffffffffffffffffffffffffffffffffffffff1673ffffffffffffffffffffffffffffffffffffffff1614159050919050565b600033905090565b816004600083815260200190815260200160002060006101000a81548173ffffffffffffffffffffffffffffffffffffffff021916908373ffffffffffffffffffffffffffffffffffffffff160217905550808273ffffffffffffffffffffffffffffffffffffffff1661159a83610d99565b73ffffffffffffffffffffffffffffffffffffffff167f8c5be1e5ebec7d5bd14f71427d1e84f3dd0314c0f7b2291e5b200ac8c7c3b92560405160405180910390a45050565b600081600001549050919050565b611671846323b872dd60e01b85858560405160240161160f93929190612e25565b604051602081830303815290604052907bffffffffffffffffffffffffffffffffffffffffffffffffffffffff19166020820180517bffffffffffffffffffffffffffffffffffffffffffffffffffffffff8381831617835250505050611e10565b50505050565b600081836116859190613345565b905092915050565b6000818361169b9190613314565b905092915050565b6117248363a9059cbb60e01b84846040516024016116c2929190612ea8565b604051602081830303815290604052907bffffffffffffffffffffffffffffffffffffffffffffffffffffffff19166020820180517bffffffffffffffffffffffffffffffffffffffffffffffffffffffff8381831617835250505050611e10565b505050565b611743828260405180602001604052806000815250611ed7565b5050565b6001816000016000828254019250508190555050565b611766826114b3565b6117a5576040517f08c379a000000000000000000000000000000000000000000000000000000000815260040161179c9061306e565b60405180910390fd5b80600c600084815260200190815260200160002090805190602001906117cc929190612442565b505050565b60006117dc826114b3565b61181b576040517f08c379a000000000000000000000000000000000000000000000000000000000815260040161181290612fae565b60405180910390fd5b600061182683610d99565b90508073ffffffffffffffffffffffffffffffffffffffff168473ffffffffffffffffffffffffffffffffffffffff16148061189557508373ffffffffffffffffffffffffffffffffffffffff1661187d84610519565b73ffffffffffffffffffffffffffffffffffffffff16145b806118a657506118a5818561133d565b5b91505092915050565b8273ffffffffffffffffffffffffffffffffffffffff166118cf82610d99565b73ffffffffffffffffffffffffffffffffffffffff1614611925576040517f08c379a000000000000000000000000000000000000000000000000000000000815260040161191c9061308e565b60405180910390fd5b600073ffffffffffffffffffffffffffffffffffffffff168273ffffffffffffffffffffffffffffffffffffffff161415611995576040517f08c379a000000000000000000000000000000000000000000000000000000000815260040161198c90612f4e565b60405180910390fd5b6119a0838383611f32565b6119ab600082611527565b6001600360008573ffffffffffffffffffffffffffffffffffffffff1673ffffffffffffffffffffffffffffffffffffffff16815260200190815260200160002060008282546119fb919061339f565b925050819055506001600360008473ffffffffffffffffffffffffffffffffffffffff1673ffffffffffffffffffffffffffffffffffffffff1681526020019081526020016000206000828254611a5291906132be565b92505081905550816002600083815260200190815260200160002060006101000a81548173ffffffffffffffffffffffffffffffffffffffff021916908373ffffffffffffffffffffffffffffffffffffffff160217905550808273ffffffffffffffffffffffffffffffffffffffff168473ffffffffffffffffffffffffffffffffffffffff167fddf252ad1be2c89b69c2b068fc378daa952ba7f163c4a11628f55a4df523b3ef60405160405180910390a4505050565b611b168484846118af565b611b2284848484611f37565b611b61576040517f08c379a0000000000000000000000000000000000000000000000000000000008152600401611b5890612f0e565b60405180910390fd5b50505050565b6060600d8054611b769061349b565b80601f0160208091040260200160405190810160405280929190818152602001828054611ba29061349b565b8015611bef5780601f10611bc457610100808354040283529160200191611bef565b820191906000526020600020905b815481529060010190602001808311611bd257829003601f168201915b5050505050905090565b60606000821415611c41576040518060400160405280600181526020017f30000000000000000000000000000000000000000000000000000000000000008152509050611da1565b600082905060005b60008214611c73578080611c5c906134fe565b915050600a82611c6c9190613314565b9150611c49565b60008167ffffffffffffffff811115611cb5577f4e487b7100000000000000000000000000000000000000000000000000000000600052604160045260246000fd5b6040519080825280601f01601f191660200182016040528015611ce75781602001600182028036833780820191505090505b5090505b60008514611d9a57600182611d00919061339f565b9150600a85611d0f9190613547565b6030611d1b91906132be565b60f81b818381518110611d57577f4e487b7100000000000000000000000000000000000000000000000000000000600052603260045260246000fd5b60200101907effffffffffffffffffffffffffffffffffffffffffffffffffffffffffffff1916908160001a905350600a85611d939190613314565b9450611ceb565b8093505050505b919050565b60007f01ffc9a7000000000000000000000000000000000000000000000000000000007bffffffffffffffffffffffffffffffffffffffffffffffffffffffff1916827bffffffffffffffffffffffffffffffffffffffffffffffffffffffff1916149050919050565b6000611e72826040518060400160405280602081526020017f5361666545524332303a206c6f772d6c6576656c2063616c6c206661696c65648152508573ffffffffffffffffffffffffffffffffffffffff166120ce9092919063ffffffff16565b9050600081511115611ed25780806020019051810190611e929190612840565b611ed1576040517f08c379a0000000000000000000000000000000000000000000000000000000008152600401611ec8906131ae565b60405180910390fd5b5b505050565b611ee183836120e6565b611eee6000848484611f37565b611f2d576040517f08c379a0000000000000000000000000000000000000000000000000000000008152600401611f2490612f0e565b60405180910390fd5b505050565b505050565b6000611f588473ffffffffffffffffffffffffffffffffffffffff166122b4565b156120c1578373ffffffffffffffffffffffffffffffffffffffff1663150b7a02611f8161151f565b8786866040518563ffffffff1660e01b8152600401611fa39493929190612e5c565b602060405180830381600087803b158015611fbd57600080fd5b505af1925050508015611fee57506040513d601f19601f82011682018060405250810190611feb9190612892565b60015b612071573d806000811461201e576040519150601f19603f3d011682016040523d82523d6000602084013e612023565b606091505b50600081511415612069576040517f08c379a000000000000000000000000000000000000000000000000000000000815260040161206090612f0e565b60405180910390fd5b805181602001fd5b63150b7a0260e01b7bffffffffffffffffffffffffffffffffffffffffffffffffffffffff1916817bffffffffffffffffffffffffffffffffffffffffffffffffffffffff1916149150506120c6565b600190505b949350505050565b60606120dd84846000856122c7565b90509392505050565b600073ffffffffffffffffffffffffffffffffffffffff168273ffffffffffffffffffffffffffffffffffffffff161415612156576040517f08c379a000000000000000000000000000000000000000000000000000000000815260040161214d9061302e565b60405180910390fd5b61215f816114b3565b1561219f576040517f08c379a000000000000000000000000000000000000000000000000000000000815260040161219690612f2e565b60405180910390fd5b6121ab60008383611f32565b6001600360008473ffffffffffffffffffffffffffffffffffffffff1673ffffffffffffffffffffffffffffffffffffffff16815260200190815260200160002060008282546121fb91906132be565b92505081905550816002600083815260200190815260200160002060006101000a81548173ffffffffffffffffffffffffffffffffffffffff021916908373ffffffffffffffffffffffffffffffffffffffff160217905550808273ffffffffffffffffffffffffffffffffffffffff16600073ffffffffffffffffffffffffffffffffffffffff167fddf252ad1be2c89b69c2b068fc378daa952ba7f163c4a11628f55a4df523b3ef60405160405180910390a45050565b600080823b905060008111915050919050565b60608247101561230c576040517f08c379a000000000000000000000000000000000000000000000000000000000815260040161230390612f8e565b60405180910390fd5b612315856122b4565b612354576040517f08c379a000000000000000000000000000000000000000000000000000000000815260040161234b9061316e565b60405180910390fd5b6000808673ffffffffffffffffffffffffffffffffffffffff16858760405161237d9190612db4565b60006040518083038185875af1925050503d80600081146123ba576040519150601f19603f3d011682016040523d82523d6000602084013e6123bf565b606091505b50915091506123cf8282866123db565b92505050949350505050565b606083156123eb5782905061243b565b6000835111156123fe5782518084602001fd5b816040517f08c379a00000000000000000000000000000000000000000000000000000000081526004016124329190612eec565b60405180910390fd5b9392505050565b82805461244e9061349b565b90600052602060002090601f01602090048101928261247057600085556124b7565b82601f1061248957805160ff19168380011785556124b7565b828001600101855582156124b7579182015b828111156124b657825182559160200191906001019061249b565b5b5090506124c491906124c8565b5090565b5b808211156124e15760008160009055506001016124c9565b5090565b60006124f86124f38461320e565b6131e9565b90508281526020810184848401111561251057600080fd5b61251b848285613459565b509392505050565b60006125366125318461323f565b6131e9565b90508281526020810184848401111561254e57600080fd5b612559848285613459565b509392505050565b60008135905061257081613c51565b92915050565b60008135905061258581613c68565b92915050565b60008135905061259a81613c7f565b92915050565b6000815190506125af81613c7f565b92915050565b6000813590506125c481613c96565b92915050565b6000815190506125d981613c96565b92915050565b600082601f8301126125f057600080fd5b81356126008482602086016124e5565b91505092915050565b600082601f83011261261a57600080fd5b813561262a848260208601612523565b91505092915050565b60008135905061264281613cad565b92915050565b60008151905061265781613cad565b92915050565b60006020828403121561266f57600080fd5b600061267d84828501612561565b91505092915050565b6000806040838503121561269957600080fd5b60006126a785828601612576565b92505060206126b885828601612633565b9150509250929050565b600080604083850312156126d557600080fd5b60006126e385828601612561565b92505060206126f485828601612561565b9150509250929050565b60008060006060848603121561271357600080fd5b600061272186828701612561565b935050602061273286828701612561565b925050604061274386828701612633565b9150509250925092565b6000806000806080858703121561276357600080fd5b600061277187828801612561565b945050602061278287828801612561565b935050604061279387828801612633565b925050606085013567ffffffffffffffff8111156127b057600080fd5b6127bc878288016125df565b91505092959194509250565b600080604083850312156127db57600080fd5b60006127e985828601612561565b92505060206127fa8582860161258b565b9150509250929050565b6000806040838503121561281757600080fd5b600061282585828601612561565b925050602061283685828601612633565b9150509250929050565b60006020828403121561285257600080fd5b6000612860848285016125a0565b91505092915050565b60006020828403121561287b57600080fd5b6000612889848285016125b5565b91505092915050565b6000602082840312156128a457600080fd5b60006128b2848285016125ca565b91505092915050565b6000602082840312156128cd57600080fd5b600082013567ffffffffffffffff8111156128e757600080fd5b6128f384828501612609565b91505092915050565b60006020828403121561290e57600080fd5b600061291c84828501612633565b91505092915050565b60006020828403121561293757600080fd5b600061294584828501612648565b91505092915050565b6000806040838503121561296157600080fd5b600061296f85828601612633565b925050602083013567ffffffffffffffff81111561298c57600080fd5b61299885828601612609565b9150509250929050565b6129ab816133e5565b82525050565b6129ba816133d3565b82525050565b6129c9816133f7565b82525050565b60006129da82613270565b6129e48185613286565b93506129f4818560208601613468565b6129fd81613634565b840191505092915050565b6000612a1382613270565b612a1d8185613297565b9350612a2d818560208601613468565b80840191505092915050565b6000612a448261327b565b612a4e81856132a2565b9350612a5e818560208601613468565b612a6781613634565b840191505092915050565b6000612a7d8261327b565b612a8781856132b3565b9350612a97818560208601613468565b80840191505092915050565b6000612ab06032836132a2565b9150612abb82613645565b604082019050919050565b6000612ad3601c836132a2565b9150612ade82613694565b602082019050919050565b6000612af66024836132a2565b9150612b01826136bd565b604082019050919050565b6000612b196019836132a2565b9150612b248261370c565b602082019050919050565b6000612b3c6026836132a2565b9150612b4782613735565b604082019050919050565b6000612b5f602c836132a2565b9150612b6a82613784565b604082019050919050565b6000612b826038836132a2565b9150612b8d826137d3565b604082019050919050565b6000612ba5602a836132a2565b9150612bb082613822565b604082019050919050565b6000612bc86029836132a2565b9150612bd382613871565b604082019050919050565b6000612beb6020836132a2565b9150612bf6826138c0565b602082019050919050565b6000612c0e602c836132a2565b9150612c19826138e9565b604082019050919050565b6000612c31602c836132a2565b9150612c3c82613938565b604082019050919050565b6000612c546029836132a2565b9150612c5f82613987565b604082019050919050565b6000612c77602f836132a2565b9150612c82826139d6565b604082019050919050565b6000612c9a603b836132a2565b9150612ca582613a25565b604082019050919050565b6000612cbd6021836132a2565b9150612cc882613a74565b604082019050919050565b6000612ce06023836132a2565b9150612ceb82613ac3565b604082019050919050565b6000612d036022836132a2565b9150612d0e82613b12565b604082019050919050565b6000612d266031836132a2565b9150612d3182613b61565b604082019050919050565b6000612d49601d836132a2565b9150612d5482613bb0565b602082019050919050565b6000612d6c6019836132a2565b9150612d7782613bd9565b602082019050919050565b6000612d8f602a836132a2565b9150612d9a82613c02565b604082019050919050565b612dae8161344f565b82525050565b6000612dc08284612a08565b915081905092915050565b6000612dd78285612a72565b9150612de38284612a72565b91508190509392505050565b6000602082019050612e0460008301846129b1565b92915050565b6000602082019050612e1f60008301846129a2565b92915050565b6000606082019050612e3a60008301866129b1565b612e4760208301856129b1565b612e546040830184612da5565b949350505050565b6000608082019050612e7160008301876129b1565b612e7e60208301866129b1565b612e8b6040830185612da5565b8181036060830152612e9d81846129cf565b905095945050505050565b6000604082019050612ebd60008301856129b1565b612eca6020830184612da5565b9392505050565b6000602082019050612ee660008301846129c0565b92915050565b60006020820190508181036000830152612f068184612a39565b905092915050565b60006020820190508181036000830152612f2781612aa3565b9050919050565b60006020820190508181036000830152612f4781612ac6565b9050919050565b60006020820190508181036000830152612f6781612ae9565b9050919050565b60006020820190508181036000830152612f8781612b0c565b9050919050565b60006020820190508181036000830152612fa781612b2f565b9050919050565b60006020820190508181036000830152612fc781612b52565b9050919050565b60006020820190508181036000830152612fe781612b75565b9050919050565b6000602082019050818103600083015261300781612b98565b9050919050565b6000602082019050818103600083015261302781612bbb565b9050919050565b6000602082019050818103600083015261304781612bde565b9050919050565b6000602082019050818103600083015261306781612c01565b9050919050565b6000602082019050818103600083015261308781612c24565b9050919050565b600060208201905081810360008301526130a781612c47565b9050919050565b600060208201905081810360008301526130c781612c6a565b9050919050565b600060208201905081810360008301526130e781612c8d565b9050919050565b6000602082019050818103600083015261310781612cb0565b9050919050565b6000602082019050818103600083015261312781612cd3565b9050919050565b6000602082019050818103600083015261314781612cf6565b9050919050565b6000602082019050818103600083015261316781612d19565b9050919050565b6000602082019050818103600083015261318781612d3c565b9050919050565b600060208201905081810360008301526131a781612d5f565b9050919050565b600060208201905081810360008301526131c781612d82565b9050919050565b60006020820190506131e36000830184612da5565b92915050565b60006131f3613204565b90506131ff82826134cd565b919050565b6000604051905090565b600067ffffffffffffffff82111561322957613228613605565b5b61323282613634565b9050602081019050919050565b600067ffffffffffffffff82111561325a57613259613605565b5b61326382613634565b9050602081019050919050565b600081519050919050565b600081519050919050565b600082825260208201905092915050565b600081905092915050565b600082825260208201905092915050565b600081905092915050565b60006132c98261344f565b91506132d48361344f565b9250827fffffffffffffffffffffffffffffffffffffffffffffffffffffffffffffffff0382111561330957613308613578565b5b828201905092915050565b600061331f8261344f565b915061332a8361344f565b92508261333a576133396135a7565b5b828204905092915050565b60006133508261344f565b915061335b8361344f565b9250817fffffffffffffffffffffffffffffffffffffffffffffffffffffffffffffffff048311821515161561339457613393613578565b5b828202905092915050565b60006133aa8261344f565b91506133b58361344f565b9250828210156133c8576133c7613578565b5b828203905092915050565b60006133de8261342f565b9050919050565b60006133f08261342f565b9050919050565b60008115159050919050565b60007fffffffff0000000000000000000000000000000000000000000000000000000082169050919050565b600073ffffffffffffffffffffffffffffffffffffffff82169050919050565b6000819050919050565b82818337600083830152505050565b60005b8381101561348657808201518184015260208101905061346b565b83811115613495576000848401525b50505050565b600060028204905060018216806134b357607f821691505b602082108114156134c7576134c66135d6565b5b50919050565b6134d682613634565b810181811067ffffffffffffffff821117156134f5576134f4613605565b5b80604052505050565b60006135098261344f565b91507fffffffffffffffffffffffffffffffffffffffffffffffffffffffffffffffff82141561353c5761353b613578565b5b600182019050919050565b60006135528261344f565b915061355d8361344f565b92508261356d5761356c6135a7565b5b828206905092915050565b7f4e487b7100000000000000000000000000000000000000000000000000000000600052601160045260246000fd5b7f4e487b7100000000000000000000000000000000000000000000000000000000600052601260045260246000fd5b7f4e487b7100000000000000000000000000000000000000000000000000000000600052602260045260246000fd5b7f4e487b7100000000000000000000000000000000000000000000000000000000600052604160045260246000fd5b6000601f19601f8301169050919050565b7f4552433732313a207472616e7366657220746f206e6f6e20455243373231526560008201527f63656976657220696d706c656d656e7465720000000000000000000000000000602082015250565b7f4552433732313a20746f6b656e20616c7265616479206d696e74656400000000600082015250565b7f4552433732313a207472616e7366657220746f20746865207a65726f2061646460008201527f7265737300000000000000000000000000000000000000000000000000000000602082015250565b7f4552433732313a20617070726f766520746f2063616c6c657200000000000000600082015250565b7f416464726573733a20696e73756666696369656e742062616c616e636520666f60008201527f722063616c6c0000000000000000000000000000000000000000000000000000602082015250565b7f4552433732313a206f70657261746f7220717565727920666f72206e6f6e657860008201527f697374656e7420746f6b656e0000000000000000000000000000000000000000602082015250565b7f4552433732313a20617070726f76652063616c6c6572206973206e6f74206f7760008201527f6e6572206e6f7220617070726f76656420666f7220616c6c0000000000000000602082015250565b7f4552433732313a2062616c616e636520717565727920666f7220746865207a6560008201527f726f206164647265737300000000000000000000000000000000000000000000602082015250565b7f4552433732313a206f776e657220717565727920666f72206e6f6e657869737460008201527f656e7420746f6b656e0000000000000000000000000000000000000000000000602082015250565b7f4552433732313a206d696e7420746f20746865207a65726f2061646472657373600082015250565b7f4552433732313a20617070726f76656420717565727920666f72206e6f6e657860008201527f697374656e7420746f6b656e0000000000000000000000000000000000000000602082015250565b7f4552433732314d657461646174613a2055524920736574206f66206e6f6e657860008201527f697374656e7420746f6b656e0000000000000000000000000000000000000000602082015250565b7f4552433732313a207472616e73666572206f6620746f6b656e2074686174206960008201527f73206e6f74206f776e0000000000000000000000000000000000000000000000602082015250565b7f4552433732314d657461646174613a2055524920717565727920666f72206e6f60008201527f6e6578697374656e7420746f6b656e0000000000000000000000000000000000602082015250565b7f466978656450726963653a20636f6d6d697373696f6e206163636f756e74206160008201527f6e6420726174652063616e6e6f74206265206d6f6469666965642e0000000000602082015250565b7f4552433732313a20617070726f76616c20746f2063757272656e74206f776e6560008201527f7200000000000000000000000000000000000000000000000000000000000000602082015250565b7f466978656450726963653a2063616c6c6572206973206e6f7420746865206f7760008201527f6e65720000000000000000000000000000000000000000000000000000000000602082015250565b7f466978656450726963653a2065786365656473206d6178696d756d207375707060008201527f6c79000000000000000000000000000000000000000000000000000000000000602082015250565b7f4552433732313a207472616e736665722063616c6c6572206973206e6f74206f60008201527f776e6572206e6f7220617070726f766564000000000000000000000000000000602082015250565b7f416464726573733a2063616c6c20746f206e6f6e2d636f6e7472616374000000600082015250565b7f466978656450726963653a206e6f7420746865206f776e657200000000000000600082015250565b7f5361666545524332303a204552433230206f7065726174696f6e20646964206e60008201527f6f74207375636365656400000000000000000000000000000000000000000000602082015250565b613c5a816133d3565b8114613c6557600080fd5b50565b613c71816133e5565b8114613c7c57600080fd5b50565b613c88816133f7565b8114613c9357600080fd5b50565b613c9f81613403565b8114613caa57600080fd5b50565b613cb68161344f565b8114613cc157600080fd5b5056fea2646970667358221220a8a7ebc43287feadcfbe0b110d83cc0231502247a00983e1b6be0a8316216b3764736f6c63430008040033a2646970667358221220165023368264abad98f2d67158d560210485ff662f9cfe9c8c9ac870e13bc9ad64736f6c63430008040033",
  "linkReferences": {},
  "deployedLinkReferences": {}
}