{
  "_format": "hh-sol-artifact-1",
  "contractName": "NFTBase",
  "sourceName": "contracts/NFTBase.sol",
  "abi": [
    {
      "inputs": [
        {
          "internalType": "string",
          "name": "_name",
          "type": "string"
        },
        {
          "internalType": "string",
          "name": "_symbol",
          "type": "string"
        },
        {
          "internalType": "string",
          "name": "_bURI",
          "type": "string"
        },
        {
          "internalType": "address",
          "name": "_erc721",
          "type": "address"
        }
      ],
      "stateMutability": "nonpayable",
      "type": "constructor"
    },
    {
      "anonymous": false,
      "inputs": [
        {
          "indexed": true,
          "internalType": "address",
          "name": "owner",
          "type": "address"
        },
        {
          "indexed": true,
          "internalType": "address",
          "name": "approved",
          "type": "address"
        },
        {
          "indexed": true,
          "internalType": "uint256",
          "name": "tokenId",
          "type": "uint256"
        }
      ],
      "name": "Approval",
      "type": "event"
    },
    {
      "anonymous": false,
      "inputs": [
        {
          "indexed": true,
          "internalType": "address",
          "name": "owner",
          "type": "address"
        },
        {
          "indexed": true,
          "internalType": "address",
          "name": "operator",
          "type": "address"
        },
        {
          "indexed": false,
          "internalType": "bool",
          "name": "approved",
          "type": "bool"
        }
      ],
      "name": "ApprovalForAll",
      "type": "event"
    },
    {
      "anonymous": false,
      "inputs": [
        {
          "indexed": true,
          "internalType": "address",
          "name": "from",
          "type": "address"
        },
        {
          "indexed": true,
          "internalType": "uint256",
          "name": "tokenId",
          "type": "uint256"
        }
      ],
      "name": "Burn",
      "type": "event"
    },
    {
      "anonymous": false,
      "inputs": [
        {
          "indexed": true,
          "internalType": "address",
          "name": "from",
          "type": "address"
        },
        {
          "indexed": true,
          "internalType": "uint256",
          "name": "tokenId",
          "type": "uint256"
        }
      ],
      "name": "Mint",
      "type": "event"
    },
    {
      "anonymous": false,
      "inputs": [
        {
          "indexed": true,
          "internalType": "address",
          "name": "from",
          "type": "address"
        },
        {
          "indexed": true,
          "internalType": "address",
          "name": "to",
          "type": "address"
        },
        {
          "indexed": true,
          "internalType": "uint256",
          "name": "tokenId",
          "type": "uint256"
        }
      ],
      "name": "Transfer",
      "type": "event"
    },
    {
      "inputs": [
        {
          "internalType": "address",
          "name": "to",
          "type": "address"
        },
        {
          "internalType": "uint256",
          "name": "tokenId",
          "type": "uint256"
        }
      ],
      "name": "approve",
      "outputs": [],
      "stateMutability": "nonpayable",
      "type": "function"
    },
    {
      "inputs": [
        {
          "internalType": "address",
          "name": "owner",
          "type": "address"
        }
      ],
      "name": "balanceOf",
      "outputs": [
        {
          "internalType": "uint256",
          "name": "",
          "type": "uint256"
        }
      ],
      "stateMutability": "view",
      "type": "function"
    },
    {
      "inputs": [
        {
          "internalType": "uint256",
          "name": "tokenId",
          "type": "uint256"
        }
      ],
      "name": "burn",
      "outputs": [],
      "stateMutability": "nonpayable",
      "type": "function"
    },
    {
      "inputs": [],
      "name": "erc721",
      "outputs": [
        {
          "internalType": "address",
          "name": "",
          "type": "address"
        }
      ],
      "stateMutability": "view",
      "type": "function"
    },
    {
      "inputs": [
        {
          "internalType": "uint256",
          "name": "tokenId",
          "type": "uint256"
        }
      ],
      "name": "getApproved",
      "outputs": [
        {
          "internalType": "address",
          "name": "",
          "type": "address"
        }
      ],
      "stateMutability": "view",
      "type": "function"
    },
    {
      "inputs": [
        {
          "internalType": "address",
          "name": "owner",
          "type": "address"
        },
        {
          "internalType": "address",
          "name": "operator",
          "type": "address"
        }
      ],
      "name": "isApprovedForAll",
      "outputs": [
        {
          "internalType": "bool",
          "name": "",
          "type": "bool"
        }
      ],
      "stateMutability": "view",
      "type": "function"
    },
    {
      "inputs": [
        {
          "internalType": "uint256",
          "name": "_tokenId",
          "type": "uint256"
        }
      ],
      "name": "mint",
      "outputs": [
        {
          "internalType": "uint256",
          "name": "tokenId",
          "type": "uint256"
        }
      ],
      "stateMutability": "nonpayable",
      "type": "function"
    },
    {
      "inputs": [],
      "name": "name",
      "outputs": [
        {
          "internalType": "string",
          "name": "",
          "type": "string"
        }
      ],
      "stateMutability": "view",
      "type": "function"
    },
    {
      "inputs": [],
      "name": "owner",
      "outputs": [
        {
          "internalType": "address",
          "name": "",
          "type": "address"
        }
      ],
      "stateMutability": "view",
      "type": "function"
    },
    {
      "inputs": [
        {
          "internalType": "uint256",
          "name": "tokenId",
          "type": "uint256"
        }
      ],
      "name": "ownerOf",
      "outputs": [
        {
          "internalType": "address",
          "name": "",
          "type": "address"
        }
      ],
      "stateMutability": "view",
      "type": "function"
    },
    {
      "inputs": [
        {
          "internalType": "address",
          "name": "from",
          "type": "address"
        },
        {
          "internalType": "address",
          "name": "to",
          "type": "address"
        },
        {
          "internalType": "uint256",
          "name": "tokenId",
          "type": "uint256"
        }
      ],
      "name": "safeTransferFrom",
      "outputs": [],
      "stateMutability": "nonpayable",
      "type": "function"
    },
    {
      "inputs": [
        {
          "internalType": "address",
          "name": "from",
          "type": "address"
        },
        {
          "internalType": "address",
          "name": "to",
          "type": "address"
        },
        {
          "internalType": "uint256",
          "name": "tokenId",
          "type": "uint256"
        },
        {
          "internalType": "bytes",
          "name": "_data",
          "type": "bytes"
        }
      ],
      "name": "safeTransferFrom",
      "outputs": [],
      "stateMutability": "nonpayable",
      "type": "function"
    },
    {
      "inputs": [
        {
          "internalType": "address",
          "name": "operator",
          "type": "address"
        },
        {
          "internalType": "bool",
          "name": "approved",
          "type": "bool"
        }
      ],
      "name": "setApprovalForAll",
      "outputs": [],
      "stateMutability": "nonpayable",
      "type": "function"
    },
    {
      "inputs": [
        {
          "internalType": "string",
          "name": "baseURI_",
          "type": "string"
        }
      ],
      "name": "setBaseURI",
      "outputs": [],
      "stateMutability": "nonpayable",
      "type": "function"
    },
    {
      "inputs": [
        {
          "internalType": "uint256",
          "name": "tokenId",
          "type": "uint256"
        },
        {
          "internalType": "string",
          "name": "_tokenURI",
          "type": "string"
        }
      ],
      "name": "setTokenURI",
      "outputs": [],
      "stateMutability": "nonpayable",
      "type": "function"
    },
    {
      "inputs": [
        {
          "internalType": "bytes4",
          "name": "interfaceId",
          "type": "bytes4"
        }
      ],
      "name": "supportsInterface",
      "outputs": [
        {
          "internalType": "bool",
          "name": "",
          "type": "bool"
        }
      ],
      "stateMutability": "view",
      "type": "function"
    },
    {
      "inputs": [],
      "name": "symbol",
      "outputs": [
        {
          "internalType": "string",
          "name": "",
          "type": "string"
        }
      ],
      "stateMutability": "view",
      "type": "function"
    },
    {
      "inputs": [
        {
          "internalType": "uint256",
          "name": "tokenId",
          "type": "uint256"
        }
      ],
      "name": "tokenURI",
      "outputs": [
        {
          "internalType": "string",
          "name": "",
          "type": "string"
        }
      ],
      "stateMutability": "view",
      "type": "function"
    },
    {
      "inputs": [
        {
          "internalType": "address",
          "name": "from",
          "type": "address"
        },
        {
          "internalType": "address",
          "name": "to",
          "type": "address"
        },
        {
          "internalType": "uint256",
          "name": "tokenId",
          "type": "uint256"
        }
      ],
      "name": "transferFrom",
      "outputs": [],
      "stateMutability": "nonpayable",
      "type": "function"
    }
  ],
  "bytecode": "0x608060405260405180602001604052806001815250600b6000820151816000015550503480156200002f57600080fd5b50604051620037cc380380620037cc833981810160405281019062000055919062000269565b838381600090805190602001906200006f92919062000130565b5080600190805190602001906200008892919062000130565b50505032600660006101000a81548173ffffffffffffffffffffffffffffffffffffffff021916908373ffffffffffffffffffffffffffffffffffffffff16021790555081600a9080519060200190620000e492919062000130565b5080600760006101000a81548173ffffffffffffffffffffffffffffffffffffffff021916908373ffffffffffffffffffffffffffffffffffffffff16021790555050505050620004de565b8280546200013e90620003e9565b90600052602060002090601f016020900481019282620001625760008555620001ae565b82601f106200017d57805160ff1916838001178555620001ae565b82800160010185558215620001ae579182015b82811115620001ad57825182559160200191906001019062000190565b5b509050620001bd9190620001c1565b5090565b5b80821115620001dc576000816000905550600101620001c2565b5090565b6000620001f7620001f18462000349565b62000320565b9050828152602081018484840111156200021057600080fd5b6200021d848285620003b3565b509392505050565b6000815190506200023681620004c4565b92915050565b600082601f8301126200024e57600080fd5b815162000260848260208601620001e0565b91505092915050565b600080600080608085870312156200028057600080fd5b600085015167ffffffffffffffff8111156200029b57600080fd5b620002a9878288016200023c565b945050602085015167ffffffffffffffff811115620002c757600080fd5b620002d5878288016200023c565b935050604085015167ffffffffffffffff811115620002f357600080fd5b62000301878288016200023c565b9250506060620003148782880162000225565b91505092959194509250565b60006200032c6200033f565b90506200033a82826200041f565b919050565b6000604051905090565b600067ffffffffffffffff82111562000367576200036662000484565b5b6200037282620004b3565b9050602081019050919050565b60006200038c8262000393565b9050919050565b600073ffffffffffffffffffffffffffffffffffffffff82169050919050565b60005b83811015620003d3578082015181840152602081019050620003b6565b83811115620003e3576000848401525b50505050565b600060028204905060018216806200040257607f821691505b6020821081141562000419576200041862000455565b5b50919050565b6200042a82620004b3565b810181811067ffffffffffffffff821117156200044c576200044b62000484565b5b80604052505050565b7f4e487b7100000000000000000000000000000000000000000000000000000000600052602260045260246000fd5b7f4e487b7100000000000000000000000000000000000000000000000000000000600052604160045260246000fd5b6000601f19601f8301169050919050565b620004cf816200037f565b8114620004db57600080fd5b50565b6132de80620004ee6000396000f3fe608060405234801561001057600080fd5b50600436106101215760003560e01c80636352211e116100ad578063a22cb46511610071578063a22cb46514610318578063b88d4fde14610334578063bca6ce6414610350578063c87b56dd1461036e578063e985e9c51461039e57610121565b80636352211e1461024c57806370a082311461027c5780638da5cb5b146102ac57806395d89b41146102ca578063a0712d68146102e857610121565b8063162094c4116100f4578063162094c4146101c057806323b872dd146101dc57806342842e0e146101f857806342966c681461021457806355f804b31461023057610121565b806301ffc9a71461012657806306fdde0314610156578063081812fc14610174578063095ea7b3146101a4575b600080fd5b610140600480360381019061013b919061220d565b6103ce565b60405161014d9190612725565b60405180910390f35b61015e6103e0565b60405161016b9190612740565b60405180910390f35b61018e600480360381019061018991906122a0565b610472565b60405161019b9190612687565b60405180910390f35b6101be60048036038101906101b991906121d1565b6104f7565b005b6101da60048036038101906101d591906122c9565b61060f565b005b6101f660048036038101906101f191906120cb565b6106b4565b005b610212600480360381019061020d91906120cb565b610714565b005b61022e600480360381019061022991906122a0565b610734565b005b61024a6004803603810190610245919061225f565b610891565b005b610266600480360381019061026191906122a0565b610942565b6040516102739190612687565b60405180910390f35b61029660048036038101906102919190612066565b6109f4565b6040516102a391906129a2565b60405180910390f35b6102b4610aac565b6040516102c19190612687565b60405180910390f35b6102d2610ad2565b6040516102df9190612740565b60405180910390f35b61030260048036038101906102fd91906122a0565b610b64565b60405161030f91906129a2565b60405180910390f35b610332600480360381019061032d9190612195565b610c8d565b005b61034e6004803603810190610349919061211a565b610e0e565b005b610358610e70565b6040516103659190612687565b60405180910390f35b610388600480360381019061038391906122a0565b610e96565b6040516103959190612740565b60405180910390f35b6103b860048036038101906103b3919061208f565b611009565b6040516103c59190612725565b60405180910390f35b60006103d98261109d565b9050919050565b6060600080546103ef90612bf8565b80601f016020809104026020016040519081016040528092919081815260200182805461041b90612bf8565b80156104685780601f1061043d57610100808354040283529160200191610468565b820191906000526020600020905b81548152906001019060200180831161044b57829003601f168201915b5050505050905090565b600061047d8261117f565b6104bc576040517f08c379a00000000000000000000000000000000000000000000000000000000081526004016104b3906128e2565b60405180910390fd5b6004600083815260200190815260200160002060009054906101000a900473ffffffffffffffffffffffffffffffffffffffff169050919050565b600061050282610942565b90508073ffffffffffffffffffffffffffffffffffffffff168373ffffffffffffffffffffffffffffffffffffffff161415610573576040517f08c379a000000000000000000000000000000000000000000000000000000000815260040161056a90612962565b60405180910390fd5b8073ffffffffffffffffffffffffffffffffffffffff166105926111eb565b73ffffffffffffffffffffffffffffffffffffffff1614806105c157506105c0816105bb6111eb565b611009565b5b610600576040517f08c379a00000000000000000000000000000000000000000000000000000000081526004016105f790612862565b60405180910390fd5b61060a83836111f3565b505050565b6106176111eb565b73ffffffffffffffffffffffffffffffffffffffff16600660009054906101000a900473ffffffffffffffffffffffffffffffffffffffff1673ffffffffffffffffffffffffffffffffffffffff16146106a6576040517f08c379a000000000000000000000000000000000000000000000000000000000815260040161069d90612762565b60405180910390fd5b6106b082826112ac565b5050565b6106c56106bf6111eb565b82611320565b610704576040517f08c379a00000000000000000000000000000000000000000000000000000000081526004016106fb90612982565b60405180910390fd5b61070f8383836113fe565b505050565b61072f83838360405180602001604052806000815250610e0e565b505050565b6000811415610778576040517f08c379a000000000000000000000000000000000000000000000000000000000815260040161076f906127a2565b60405180910390fd5b6107818161165a565b600760009054906101000a900473ffffffffffffffffffffffffffffffffffffffff1673ffffffffffffffffffffffffffffffffffffffff166323b872dd306107c86111eb565b60086000868152602001908152602001600020546040518463ffffffff1660e01b81526004016107fa939291906126a2565b600060405180830381600087803b15801561081457600080fd5b505af1158015610828573d6000803e3d6000fd5b5050505060086000828152602001908152602001600020600090558061084c6111eb565b73ffffffffffffffffffffffffffffffffffffffff167fcc16f5dbb4873280815c1ee09dbd06736cffcc184412cf7a71a0fdb75d397ca560405160405180910390a350565b6108996111eb565b73ffffffffffffffffffffffffffffffffffffffff16600660009054906101000a900473ffffffffffffffffffffffffffffffffffffffff1673ffffffffffffffffffffffffffffffffffffffff1614610928576040517f08c379a000000000000000000000000000000000000000000000000000000000815260040161091f90612782565b60405180910390fd5b80600a908051906020019061093e929190611e8a565b5050565b6000806002600084815260200190815260200160002060009054906101000a900473ffffffffffffffffffffffffffffffffffffffff169050600073ffffffffffffffffffffffffffffffffffffffff168173ffffffffffffffffffffffffffffffffffffffff1614156109eb576040517f08c379a00000000000000000000000000000000000000000000000000000000081526004016109e2906128a2565b60405180910390fd5b80915050919050565b60008073ffffffffffffffffffffffffffffffffffffffff168273ffffffffffffffffffffffffffffffffffffffff161415610a65576040517f08c379a0000000000000000000000000000000000000000000000000000000008152600401610a5c90612882565b60405180910390fd5b600360008373ffffffffffffffffffffffffffffffffffffffff1673ffffffffffffffffffffffffffffffffffffffff168152602001908152602001600020549050919050565b600660009054906101000a900473ffffffffffffffffffffffffffffffffffffffff1681565b606060018054610ae190612bf8565b80601f0160208091040260200160405190810160405280929190818152602001828054610b0d90612bf8565b8015610b5a5780601f10610b2f57610100808354040283529160200191610b5a565b820191906000526020600020905b815481529060010190602001808311610b3d57829003601f168201915b5050505050905090565b6000610b70600b61176b565b9050816008600083815260200190815260200160002081905550600760009054906101000a900473ffffffffffffffffffffffffffffffffffffffff1673ffffffffffffffffffffffffffffffffffffffff166323b872dd610bd06111eb565b30856040518463ffffffff1660e01b8152600401610bf0939291906126a2565b600060405180830381600087803b158015610c0a57600080fd5b505af1158015610c1e573d6000803e3d6000fd5b50505050610c33610c2d6111eb565b82611779565b80610c3c6111eb565b73ffffffffffffffffffffffffffffffffffffffff167f0f6798a560793a54c3bcfe86a93cde1e73087d944c0ea20544137d412139688560405160405180910390a3610c88600b611797565b919050565b610c956111eb565b73ffffffffffffffffffffffffffffffffffffffff168273ffffffffffffffffffffffffffffffffffffffff161415610d03576040517f08c379a0000000000000000000000000000000000000000000000000000000008152600401610cfa90612822565b60405180910390fd5b8060056000610d106111eb565b73ffffffffffffffffffffffffffffffffffffffff1673ffffffffffffffffffffffffffffffffffffffff16815260200190815260200160002060008473ffffffffffffffffffffffffffffffffffffffff1673ffffffffffffffffffffffffffffffffffffffff16815260200190815260200160002060006101000a81548160ff0219169083151502179055508173ffffffffffffffffffffffffffffffffffffffff16610dbd6111eb565b73ffffffffffffffffffffffffffffffffffffffff167f17307eab39ab6107e8899845ad3d59bd9653f200f220920489ca2b5937696c3183604051610e029190612725565b60405180910390a35050565b610e1f610e196111eb565b83611320565b610e5e576040517f08c379a0000000000000000000000000000000000000000000000000000000008152600401610e5590612982565b60405180910390fd5b610e6a848484846117ad565b50505050565b600760009054906101000a900473ffffffffffffffffffffffffffffffffffffffff1681565b6060610ea18261117f565b610ee0576040517f08c379a0000000000000000000000000000000000000000000000000000000008152600401610ed790612942565b60405180910390fd5b6000600960008481526020019081526020016000208054610f0090612bf8565b80601f0160208091040260200160405190810160405280929190818152602001828054610f2c90612bf8565b8015610f795780601f10610f4e57610100808354040283529160200191610f79565b820191906000526020600020905b815481529060010190602001808311610f5c57829003601f168201915b505050505090506000610f8a611809565b9050600081511415610fa0578192505050611004565b600082511115610fd5578082604051602001610fbd929190612663565b60405160208183030381529060405292505050611004565b80610fdf8561189b565b604051602001610ff0929190612663565b604051602081830303815290604052925050505b919050565b6000600560008473ffffffffffffffffffffffffffffffffffffffff1673ffffffffffffffffffffffffffffffffffffffff16815260200190815260200160002060008373ffffffffffffffffffffffffffffffffffffffff1673ffffffffffffffffffffffffffffffffffffffff16815260200190815260200160002060009054906101000a900460ff16905092915050565b60007f80ac58cd000000000000000000000000000000000000000000000000000000007bffffffffffffffffffffffffffffffffffffffffffffffffffffffff1916827bffffffffffffffffffffffffffffffffffffffffffffffffffffffff1916148061116857507f5b5e139f000000000000000000000000000000000000000000000000000000007bffffffffffffffffffffffffffffffffffffffffffffffffffffffff1916827bffffffffffffffffffffffffffffffffffffffffffffffffffffffff1916145b80611178575061117782611a48565b5b9050919050565b60008073ffffffffffffffffffffffffffffffffffffffff166002600084815260200190815260200160002060009054906101000a900473ffffffffffffffffffffffffffffffffffffffff1673ffffffffffffffffffffffffffffffffffffffff1614159050919050565b600033905090565b816004600083815260200190815260200160002060006101000a81548173ffffffffffffffffffffffffffffffffffffffff021916908373ffffffffffffffffffffffffffffffffffffffff160217905550808273ffffffffffffffffffffffffffffffffffffffff1661126683610942565b73ffffffffffffffffffffffffffffffffffffffff167f8c5be1e5ebec7d5bd14f71427d1e84f3dd0314c0f7b2291e5b200ac8c7c3b92560405160405180910390a45050565b6112b58261117f565b6112f4576040517f08c379a00000000000000000000000000000000000000000000000000000000081526004016112eb90612902565b60405180910390fd5b8060096000848152602001908152602001600020908051906020019061131b929190611e8a565b505050565b600061132b8261117f565b61136a576040517f08c379a000000000000000000000000000000000000000000000000000000000815260040161136190612842565b60405180910390fd5b600061137583610942565b90508073ffffffffffffffffffffffffffffffffffffffff168473ffffffffffffffffffffffffffffffffffffffff1614806113e457508373ffffffffffffffffffffffffffffffffffffffff166113cc84610472565b73ffffffffffffffffffffffffffffffffffffffff16145b806113f557506113f48185611009565b5b91505092915050565b8273ffffffffffffffffffffffffffffffffffffffff1661141e82610942565b73ffffffffffffffffffffffffffffffffffffffff1614611474576040517f08c379a000000000000000000000000000000000000000000000000000000000815260040161146b90612922565b60405180910390fd5b600073ffffffffffffffffffffffffffffffffffffffff168273ffffffffffffffffffffffffffffffffffffffff1614156114e4576040517f08c379a00000000000000000000000000000000000000000000000000000000081526004016114db90612802565b60405180910390fd5b6114ef838383611ab2565b6114fa6000826111f3565b6001600360008573ffffffffffffffffffffffffffffffffffffffff1673ffffffffffffffffffffffffffffffffffffffff168152602001908152602001600020600082825461154a9190612b0e565b925050819055506001600360008473ffffffffffffffffffffffffffffffffffffffff1673ffffffffffffffffffffffffffffffffffffffff16815260200190815260200160002060008282546115a19190612a87565b92505081905550816002600083815260200190815260200160002060006101000a81548173ffffffffffffffffffffffffffffffffffffffff021916908373ffffffffffffffffffffffffffffffffffffffff160217905550808273ffffffffffffffffffffffffffffffffffffffff168473ffffffffffffffffffffffffffffffffffffffff167fddf252ad1be2c89b69c2b068fc378daa952ba7f163c4a11628f55a4df523b3ef60405160405180910390a4505050565b600061166582610942565b905061167381600084611ab2565b61167e6000836111f3565b6001600360008373ffffffffffffffffffffffffffffffffffffffff1673ffffffffffffffffffffffffffffffffffffffff16815260200190815260200160002060008282546116ce9190612b0e565b925050819055506002600083815260200190815260200160002060006101000a81549073ffffffffffffffffffffffffffffffffffffffff021916905581600073ffffffffffffffffffffffffffffffffffffffff168273ffffffffffffffffffffffffffffffffffffffff167fddf252ad1be2c89b69c2b068fc378daa952ba7f163c4a11628f55a4df523b3ef60405160405180910390a45050565b600081600001549050919050565b611793828260405180602001604052806000815250611ab7565b5050565b6001816000016000828254019250508190555050565b6117b88484846113fe565b6117c484848484611b12565b611803576040517f08c379a00000000000000000000000000000000000000000000000000000000081526004016117fa906127c2565b60405180910390fd5b50505050565b6060600a805461181890612bf8565b80601f016020809104026020016040519081016040528092919081815260200182805461184490612bf8565b80156118915780601f1061186657610100808354040283529160200191611891565b820191906000526020600020905b81548152906001019060200180831161187457829003601f168201915b5050505050905090565b606060008214156118e3576040518060400160405280600181526020017f30000000000000000000000000000000000000000000000000000000000000008152509050611a43565b600082905060005b600082146119155780806118fe90612c5b565b915050600a8261190e9190612add565b91506118eb565b60008167ffffffffffffffff811115611957577f4e487b7100000000000000000000000000000000000000000000000000000000600052604160045260246000fd5b6040519080825280601f01601f1916602001820160405280156119895781602001600182028036833780820191505090505b5090505b60008514611a3c576001826119a29190612b0e565b9150600a856119b19190612ca4565b60306119bd9190612a87565b60f81b8183815181106119f9577f4e487b7100000000000000000000000000000000000000000000000000000000600052603260045260246000fd5b60200101907effffffffffffffffffffffffffffffffffffffffffffffffffffffffffffff1916908160001a905350600a85611a359190612add565b945061198d565b8093505050505b919050565b60007f01ffc9a7000000000000000000000000000000000000000000000000000000007bffffffffffffffffffffffffffffffffffffffffffffffffffffffff1916827bffffffffffffffffffffffffffffffffffffffffffffffffffffffff1916149050919050565b505050565b611ac18383611ca9565b611ace6000848484611b12565b611b0d576040517f08c379a0000000000000000000000000000000000000000000000000000000008152600401611b04906127c2565b60405180910390fd5b505050565b6000611b338473ffffffffffffffffffffffffffffffffffffffff16611e77565b15611c9c578373ffffffffffffffffffffffffffffffffffffffff1663150b7a02611b5c6111eb565b8786866040518563ffffffff1660e01b8152600401611b7e94939291906126d9565b602060405180830381600087803b158015611b9857600080fd5b505af1925050508015611bc957506040513d601f19601f82011682018060405250810190611bc69190612236565b60015b611c4c573d8060008114611bf9576040519150601f19603f3d011682016040523d82523d6000602084013e611bfe565b606091505b50600081511415611c44576040517f08c379a0000000000000000000000000000000000000000000000000000000008152600401611c3b906127c2565b60405180910390fd5b805181602001fd5b63150b7a0260e01b7bffffffffffffffffffffffffffffffffffffffffffffffffffffffff1916817bffffffffffffffffffffffffffffffffffffffffffffffffffffffff191614915050611ca1565b600190505b949350505050565b600073ffffffffffffffffffffffffffffffffffffffff168273ffffffffffffffffffffffffffffffffffffffff161415611d19576040517f08c379a0000000000000000000000000000000000000000000000000000000008152600401611d10906128c2565b60405180910390fd5b611d228161117f565b15611d62576040517f08c379a0000000000000000000000000000000000000000000000000000000008152600401611d59906127e2565b60405180910390fd5b611d6e60008383611ab2565b6001600360008473ffffffffffffffffffffffffffffffffffffffff1673ffffffffffffffffffffffffffffffffffffffff1681526020019081526020016000206000828254611dbe9190612a87565b92505081905550816002600083815260200190815260200160002060006101000a81548173ffffffffffffffffffffffffffffffffffffffff021916908373ffffffffffffffffffffffffffffffffffffffff160217905550808273ffffffffffffffffffffffffffffffffffffffff16600073ffffffffffffffffffffffffffffffffffffffff167fddf252ad1be2c89b69c2b068fc378daa952ba7f163c4a11628f55a4df523b3ef60405160405180910390a45050565b600080823b905060008111915050919050565b828054611e9690612bf8565b90600052602060002090601f016020900481019282611eb85760008555611eff565b82601f10611ed157805160ff1916838001178555611eff565b82800160010185558215611eff579182015b82811115611efe578251825591602001919060010190611ee3565b5b509050611f0c9190611f10565b5090565b5b80821115611f29576000816000905550600101611f11565b5090565b6000611f40611f3b846129e2565b6129bd565b905082815260208101848484011115611f5857600080fd5b611f63848285612bb6565b509392505050565b6000611f7e611f7984612a13565b6129bd565b905082815260208101848484011115611f9657600080fd5b611fa1848285612bb6565b509392505050565b600081359050611fb88161324c565b92915050565b600081359050611fcd81613263565b92915050565b600081359050611fe28161327a565b92915050565b600081519050611ff78161327a565b92915050565b600082601f83011261200e57600080fd5b813561201e848260208601611f2d565b91505092915050565b600082601f83011261203857600080fd5b8135612048848260208601611f6b565b91505092915050565b60008135905061206081613291565b92915050565b60006020828403121561207857600080fd5b600061208684828501611fa9565b91505092915050565b600080604083850312156120a257600080fd5b60006120b085828601611fa9565b92505060206120c185828601611fa9565b9150509250929050565b6000806000606084860312156120e057600080fd5b60006120ee86828701611fa9565b93505060206120ff86828701611fa9565b925050604061211086828701612051565b9150509250925092565b6000806000806080858703121561213057600080fd5b600061213e87828801611fa9565b945050602061214f87828801611fa9565b935050604061216087828801612051565b925050606085013567ffffffffffffffff81111561217d57600080fd5b61218987828801611ffd565b91505092959194509250565b600080604083850312156121a857600080fd5b60006121b685828601611fa9565b92505060206121c785828601611fbe565b9150509250929050565b600080604083850312156121e457600080fd5b60006121f285828601611fa9565b925050602061220385828601612051565b9150509250929050565b60006020828403121561221f57600080fd5b600061222d84828501611fd3565b91505092915050565b60006020828403121561224857600080fd5b600061225684828501611fe8565b91505092915050565b60006020828403121561227157600080fd5b600082013567ffffffffffffffff81111561228b57600080fd5b61229784828501612027565b91505092915050565b6000602082840312156122b257600080fd5b60006122c084828501612051565b91505092915050565b600080604083850312156122dc57600080fd5b60006122ea85828601612051565b925050602083013567ffffffffffffffff81111561230757600080fd5b61231385828601612027565b9150509250929050565b61232681612b42565b82525050565b61233581612b54565b82525050565b600061234682612a44565b6123508185612a5a565b9350612360818560208601612bc5565b61236981612d91565b840191505092915050565b600061237f82612a4f565b6123898185612a6b565b9350612399818560208601612bc5565b6123a281612d91565b840191505092915050565b60006123b882612a4f565b6123c28185612a7c565b93506123d2818560208601612bc5565b80840191505092915050565b60006123eb602083612a6b565b91506123f682612da2565b602082019050919050565b600061240e601683612a6b565b915061241982612dcb565b602082019050919050565b6000612431602083612a6b565b915061243c82612df4565b602082019050919050565b6000612454603283612a6b565b915061245f82612e1d565b604082019050919050565b6000612477601c83612a6b565b915061248282612e6c565b602082019050919050565b600061249a602483612a6b565b91506124a582612e95565b604082019050919050565b60006124bd601983612a6b565b91506124c882612ee4565b602082019050919050565b60006124e0602c83612a6b565b91506124eb82612f0d565b604082019050919050565b6000612503603883612a6b565b915061250e82612f5c565b604082019050919050565b6000612526602a83612a6b565b915061253182612fab565b604082019050919050565b6000612549602983612a6b565b915061255482612ffa565b604082019050919050565b600061256c602083612a6b565b915061257782613049565b602082019050919050565b600061258f602c83612a6b565b915061259a82613072565b604082019050919050565b60006125b2602c83612a6b565b91506125bd826130c1565b604082019050919050565b60006125d5602983612a6b565b91506125e082613110565b604082019050919050565b60006125f8602f83612a6b565b91506126038261315f565b604082019050919050565b600061261b602183612a6b565b9150612626826131ae565b604082019050919050565b600061263e603183612a6b565b9150612649826131fd565b604082019050919050565b61265d81612bac565b82525050565b600061266f82856123ad565b915061267b82846123ad565b91508190509392505050565b600060208201905061269c600083018461231d565b92915050565b60006060820190506126b7600083018661231d565b6126c4602083018561231d565b6126d16040830184612654565b949350505050565b60006080820190506126ee600083018761231d565b6126fb602083018661231d565b6127086040830185612654565b818103606083015261271a818461233b565b905095945050505050565b600060208201905061273a600083018461232c565b92915050565b6000602082019050818103600083015261275a8184612374565b905092915050565b6000602082019050818103600083015261277b816123de565b9050919050565b6000602082019050818103600083015261279b81612401565b9050919050565b600060208201905081810360008301526127bb81612424565b9050919050565b600060208201905081810360008301526127db81612447565b9050919050565b600060208201905081810360008301526127fb8161246a565b9050919050565b6000602082019050818103600083015261281b8161248d565b9050919050565b6000602082019050818103600083015261283b816124b0565b9050919050565b6000602082019050818103600083015261285b816124d3565b9050919050565b6000602082019050818103600083015261287b816124f6565b9050919050565b6000602082019050818103600083015261289b81612519565b9050919050565b600060208201905081810360008301526128bb8161253c565b9050919050565b600060208201905081810360008301526128db8161255f565b9050919050565b600060208201905081810360008301526128fb81612582565b9050919050565b6000602082019050818103600083015261291b816125a5565b9050919050565b6000602082019050818103600083015261293b816125c8565b9050919050565b6000602082019050818103600083015261295b816125eb565b9050919050565b6000602082019050818103600083015261297b8161260e565b9050919050565b6000602082019050818103600083015261299b81612631565b9050919050565b60006020820190506129b76000830184612654565b92915050565b60006129c76129d8565b90506129d38282612c2a565b919050565b6000604051905090565b600067ffffffffffffffff8211156129fd576129fc612d62565b5b612a0682612d91565b9050602081019050919050565b600067ffffffffffffffff821115612a2e57612a2d612d62565b5b612a3782612d91565b9050602081019050919050565b600081519050919050565b600081519050919050565b600082825260208201905092915050565b600082825260208201905092915050565b600081905092915050565b6000612a9282612bac565b9150612a9d83612bac565b9250827fffffffffffffffffffffffffffffffffffffffffffffffffffffffffffffffff03821115612ad257612ad1612cd5565b5b828201905092915050565b6000612ae882612bac565b9150612af383612bac565b925082612b0357612b02612d04565b5b828204905092915050565b6000612b1982612bac565b9150612b2483612bac565b925082821015612b3757612b36612cd5565b5b828203905092915050565b6000612b4d82612b8c565b9050919050565b60008115159050919050565b60007fffffffff0000000000000000000000000000000000000000000000000000000082169050919050565b600073ffffffffffffffffffffffffffffffffffffffff82169050919050565b6000819050919050565b82818337600083830152505050565b60005b83811015612be3578082015181840152602081019050612bc8565b83811115612bf2576000848401525b50505050565b60006002820490506001821680612c1057607f821691505b60208210811415612c2457612c23612d33565b5b50919050565b612c3382612d91565b810181811067ffffffffffffffff82111715612c5257612c51612d62565b5b80604052505050565b6000612c6682612bac565b91507fffffffffffffffffffffffffffffffffffffffffffffffffffffffffffffffff821415612c9957612c98612cd5565b5b600182019050919050565b6000612caf82612bac565b9150612cba83612bac565b925082612cca57612cc9612d04565b5b828206905092915050565b7f4e487b7100000000000000000000000000000000000000000000000000000000600052601160045260246000fd5b7f4e487b7100000000000000000000000000000000000000000000000000000000600052601260045260246000fd5b7f4e487b7100000000000000000000000000000000000000000000000000000000600052602260045260246000fd5b7f4e487b7100000000000000000000000000000000000000000000000000000000600052604160045260246000fd5b6000601f19601f8301169050919050565b7f4e4654426173653a2063616c6c6572206973206e6f7420746865206f776e6572600082015250565b7f4e4654426173653a206e6f7420746865206f776e657200000000000000000000600082015250565b7f4e4654426173653a20746f6b656e2069642063616e6e6f74206265207a65726f600082015250565b7f4552433732313a207472616e7366657220746f206e6f6e20455243373231526560008201527f63656976657220696d706c656d656e7465720000000000000000000000000000602082015250565b7f4552433732313a20746f6b656e20616c7265616479206d696e74656400000000600082015250565b7f4552433732313a207472616e7366657220746f20746865207a65726f2061646460008201527f7265737300000000000000000000000000000000000000000000000000000000602082015250565b7f4552433732313a20617070726f766520746f2063616c6c657200000000000000600082015250565b7f4552433732313a206f70657261746f7220717565727920666f72206e6f6e657860008201527f697374656e7420746f6b656e0000000000000000000000000000000000000000602082015250565b7f4552433732313a20617070726f76652063616c6c6572206973206e6f74206f7760008201527f6e6572206e6f7220617070726f76656420666f7220616c6c0000000000000000602082015250565b7f4552433732313a2062616c616e636520717565727920666f7220746865207a6560008201527f726f206164647265737300000000000000000000000000000000000000000000602082015250565b7f4552433732313a206f776e657220717565727920666f72206e6f6e657869737460008201527f656e7420746f6b656e0000000000000000000000000000000000000000000000602082015250565b7f4552433732313a206d696e7420746f20746865207a65726f2061646472657373600082015250565b7f4552433732313a20617070726f76656420717565727920666f72206e6f6e657860008201527f697374656e7420746f6b656e0000000000000000000000000000000000000000602082015250565b7f4552433732314d657461646174613a2055524920736574206f66206e6f6e657860008201527f697374656e7420746f6b656e0000000000000000000000000000000000000000602082015250565b7f4552433732313a207472616e73666572206f6620746f6b656e2074686174206960008201527f73206e6f74206f776e0000000000000000000000000000000000000000000000602082015250565b7f4552433732314d657461646174613a2055524920717565727920666f72206e6f60008201527f6e6578697374656e7420746f6b656e0000000000000000000000000000000000602082015250565b7f4552433732313a20617070726f76616c20746f2063757272656e74206f776e6560008201527f7200000000000000000000000000000000000000000000000000000000000000602082015250565b7f4552433732313a207472616e736665722063616c6c6572206973206e6f74206f60008201527f776e6572206e6f7220617070726f766564000000000000000000000000000000602082015250565b61325581612b42565b811461326057600080fd5b50565b61326c81612b54565b811461327757600080fd5b50565b61328381612b60565b811461328e57600080fd5b50565b61329a81612bac565b81146132a557600080fd5b5056fea264697066735822122015a763b1cf17c52733113d2c62c0e168e564201af350f493a86f559862245d7f64736f6c63430008040033",
  "linkReferences": {},
  "deployedLinkReferences": {}
}